{
	"contracts/MyToken.sol": {
		"MyToken": {
			"abi": [
				{
					"inputs": [],
					"stateMutability": "nonpayable",
					"type": "constructor"
				},
				{
					"inputs": [
						{
							"internalType": "address",
							"name": "sender",
							"type": "address"
						},
						{
							"internalType": "uint256",
							"name": "tokenId",
							"type": "uint256"
						},
						{
							"internalType": "address",
							"name": "owner",
							"type": "address"
						}
					],
					"name": "ERC721IncorrectOwner",
					"type": "error"
				},
				{
					"inputs": [
						{
							"internalType": "address",
							"name": "operator",
							"type": "address"
						},
						{
							"internalType": "uint256",
							"name": "tokenId",
							"type": "uint256"
						}
					],
					"name": "ERC721InsufficientApproval",
					"type": "error"
				},
				{
					"inputs": [
						{
							"internalType": "address",
							"name": "approver",
							"type": "address"
						}
					],
					"name": "ERC721InvalidApprover",
					"type": "error"
				},
				{
					"inputs": [
						{
							"internalType": "address",
							"name": "operator",
							"type": "address"
						}
					],
					"name": "ERC721InvalidOperator",
					"type": "error"
				},
				{
					"inputs": [
						{
							"internalType": "address",
							"name": "owner",
							"type": "address"
						}
					],
					"name": "ERC721InvalidOwner",
					"type": "error"
				},
				{
					"inputs": [
						{
							"internalType": "address",
							"name": "receiver",
							"type": "address"
						}
					],
					"name": "ERC721InvalidReceiver",
					"type": "error"
				},
				{
					"inputs": [
						{
							"internalType": "address",
							"name": "sender",
							"type": "address"
						}
					],
					"name": "ERC721InvalidSender",
					"type": "error"
				},
				{
					"inputs": [
						{
							"internalType": "uint256",
							"name": "tokenId",
							"type": "uint256"
						}
					],
					"name": "ERC721NonexistentToken",
					"type": "error"
				},
				{
					"inputs": [],
					"name": "InvalidInitialization",
					"type": "error"
				},
				{
					"inputs": [],
					"name": "NotInitializing",
					"type": "error"
				},
				{
					"inputs": [
						{
							"internalType": "address",
							"name": "owner",
							"type": "address"
						}
					],
					"name": "OwnableInvalidOwner",
					"type": "error"
				},
				{
					"inputs": [
						{
							"internalType": "address",
							"name": "account",
							"type": "address"
						}
					],
					"name": "OwnableUnauthorizedAccount",
					"type": "error"
				},
				{
					"anonymous": false,
					"inputs": [
						{
							"indexed": true,
							"internalType": "address",
							"name": "owner",
							"type": "address"
						},
						{
							"indexed": true,
							"internalType": "address",
							"name": "approved",
							"type": "address"
						},
						{
							"indexed": true,
							"internalType": "uint256",
							"name": "tokenId",
							"type": "uint256"
						}
					],
					"name": "Approval",
					"type": "event"
				},
				{
					"anonymous": false,
					"inputs": [
						{
							"indexed": true,
							"internalType": "address",
							"name": "owner",
							"type": "address"
						},
						{
							"indexed": true,
							"internalType": "address",
							"name": "operator",
							"type": "address"
						},
						{
							"indexed": false,
							"internalType": "bool",
							"name": "approved",
							"type": "bool"
						}
					],
					"name": "ApprovalForAll",
					"type": "event"
				},
				{
					"anonymous": false,
					"inputs": [
						{
							"indexed": false,
							"internalType": "uint64",
							"name": "version",
							"type": "uint64"
						}
					],
					"name": "Initialized",
					"type": "event"
				},
				{
					"anonymous": false,
					"inputs": [
						{
							"indexed": true,
							"internalType": "address",
							"name": "previousOwner",
							"type": "address"
						},
						{
							"indexed": true,
							"internalType": "address",
							"name": "newOwner",
							"type": "address"
						}
					],
					"name": "OwnershipTransferred",
					"type": "event"
				},
				{
					"anonymous": false,
					"inputs": [
						{
							"indexed": true,
							"internalType": "address",
							"name": "from",
							"type": "address"
						},
						{
							"indexed": true,
							"internalType": "address",
							"name": "to",
							"type": "address"
						},
						{
							"indexed": true,
							"internalType": "uint256",
							"name": "tokenId",
							"type": "uint256"
						}
					],
					"name": "Transfer",
					"type": "event"
				},
				{
					"inputs": [
						{
							"internalType": "address",
							"name": "to",
							"type": "address"
						},
						{
							"internalType": "uint256",
							"name": "tokenId",
							"type": "uint256"
						}
					],
					"name": "approve",
					"outputs": [],
					"stateMutability": "nonpayable",
					"type": "function"
				},
				{
					"inputs": [
						{
							"internalType": "address",
							"name": "owner",
							"type": "address"
						}
					],
					"name": "balanceOf",
					"outputs": [
						{
							"internalType": "uint256",
							"name": "",
							"type": "uint256"
						}
					],
					"stateMutability": "view",
					"type": "function"
				},
				{
					"inputs": [
						{
							"internalType": "uint256",
							"name": "tokenId",
							"type": "uint256"
						}
					],
					"name": "getApproved",
					"outputs": [
						{
							"internalType": "address",
							"name": "",
							"type": "address"
						}
					],
					"stateMutability": "view",
					"type": "function"
				},
				{
					"inputs": [
						{
							"internalType": "address",
							"name": "initialOwner",
							"type": "address"
						}
					],
					"name": "initialize",
					"outputs": [],
					"stateMutability": "nonpayable",
					"type": "function"
				},
				{
					"inputs": [
						{
							"internalType": "address",
							"name": "owner",
							"type": "address"
						},
						{
							"internalType": "address",
							"name": "operator",
							"type": "address"
						}
					],
					"name": "isApprovedForAll",
					"outputs": [
						{
							"internalType": "bool",
							"name": "",
							"type": "bool"
						}
					],
					"stateMutability": "view",
					"type": "function"
				},
				{
					"inputs": [],
					"name": "name",
					"outputs": [
						{
							"internalType": "string",
							"name": "",
							"type": "string"
						}
					],
					"stateMutability": "view",
					"type": "function"
				},
				{
					"inputs": [],
					"name": "owner",
					"outputs": [
						{
							"internalType": "address",
							"name": "",
							"type": "address"
						}
					],
					"stateMutability": "view",
					"type": "function"
				},
				{
					"inputs": [
						{
							"internalType": "uint256",
							"name": "tokenId",
							"type": "uint256"
						}
					],
					"name": "ownerOf",
					"outputs": [
						{
							"internalType": "address",
							"name": "",
							"type": "address"
						}
					],
					"stateMutability": "view",
					"type": "function"
				},
				{
					"inputs": [],
					"name": "renounceOwnership",
					"outputs": [],
					"stateMutability": "nonpayable",
					"type": "function"
				},
				{
					"inputs": [
						{
							"internalType": "address",
							"name": "to",
							"type": "address"
						},
						{
							"internalType": "uint256",
							"name": "tokenId",
							"type": "uint256"
						}
					],
					"name": "safeMint",
					"outputs": [],
					"stateMutability": "nonpayable",
					"type": "function"
				},
				{
					"inputs": [
						{
							"internalType": "address",
							"name": "from",
							"type": "address"
						},
						{
							"internalType": "address",
							"name": "to",
							"type": "address"
						},
						{
							"internalType": "uint256",
							"name": "tokenId",
							"type": "uint256"
						}
					],
					"name": "safeTransferFrom",
					"outputs": [],
					"stateMutability": "nonpayable",
					"type": "function"
				},
				{
					"inputs": [
						{
							"internalType": "address",
							"name": "from",
							"type": "address"
						},
						{
							"internalType": "address",
							"name": "to",
							"type": "address"
						},
						{
							"internalType": "uint256",
							"name": "tokenId",
							"type": "uint256"
						},
						{
							"internalType": "bytes",
							"name": "data",
							"type": "bytes"
						}
					],
					"name": "safeTransferFrom",
					"outputs": [],
					"stateMutability": "nonpayable",
					"type": "function"
				},
				{
					"inputs": [
						{
							"internalType": "address",
							"name": "operator",
							"type": "address"
						},
						{
							"internalType": "bool",
							"name": "approved",
							"type": "bool"
						}
					],
					"name": "setApprovalForAll",
					"outputs": [],
					"stateMutability": "nonpayable",
					"type": "function"
				},
				{
					"inputs": [
						{
							"internalType": "bytes4",
							"name": "interfaceId",
							"type": "bytes4"
						}
					],
					"name": "supportsInterface",
					"outputs": [
						{
							"internalType": "bool",
							"name": "",
							"type": "bool"
						}
					],
					"stateMutability": "view",
					"type": "function"
				},
				{
					"inputs": [],
					"name": "symbol",
					"outputs": [
						{
							"internalType": "string",
							"name": "",
							"type": "string"
						}
					],
					"stateMutability": "view",
					"type": "function"
				},
				{
					"inputs": [
						{
							"internalType": "uint256",
							"name": "tokenId",
							"type": "uint256"
						}
					],
					"name": "tokenURI",
					"outputs": [
						{
							"internalType": "string",
							"name": "",
							"type": "string"
						}
					],
					"stateMutability": "view",
					"type": "function"
				},
				{
					"inputs": [
						{
							"internalType": "address",
							"name": "from",
							"type": "address"
						},
						{
							"internalType": "address",
							"name": "to",
							"type": "address"
						},
						{
							"internalType": "uint256",
							"name": "tokenId",
							"type": "uint256"
						}
					],
					"name": "transferFrom",
					"outputs": [],
					"stateMutability": "nonpayable",
					"type": "function"
				},
				{
					"inputs": [
						{
							"internalType": "address",
							"name": "newOwner",
							"type": "address"
						}
					],
					"name": "transferOwnership",
					"outputs": [],
					"stateMutability": "nonpayable",
					"type": "function"
				}
			],
			"devdoc": {
				"errors": {
					"ERC721IncorrectOwner(address,uint256,address)": [
						{
							"details": "Indicates an error related to the ownership over a particular token. Used in transfers.",
							"params": {
								"owner": "Address of the current owner of a token.",
								"sender": "Address whose tokens are being transferred.",
								"tokenId": "Identifier number of a token."
							}
						}
					],
					"ERC721InsufficientApproval(address,uint256)": [
						{
							"details": "Indicates a failure with the `operator`’s approval. Used in transfers.",
							"params": {
								"operator": "Address that may be allowed to operate on tokens without being their owner.",
								"tokenId": "Identifier number of a token."
							}
						}
					],
					"ERC721InvalidApprover(address)": [
						{
							"details": "Indicates a failure with the `approver` of a token to be approved. Used in approvals.",
							"params": {
								"approver": "Address initiating an approval operation."
							}
						}
					],
					"ERC721InvalidOperator(address)": [
						{
							"details": "Indicates a failure with the `operator` to be approved. Used in approvals.",
							"params": {
								"operator": "Address that may be allowed to operate on tokens without being their owner."
							}
						}
					],
					"ERC721InvalidOwner(address)": [
						{
							"details": "Indicates that an address can't be an owner. For example, `address(0)` is a forbidden owner in EIP-20. Used in balance queries.",
							"params": {
								"owner": "Address of the current owner of a token."
							}
						}
					],
					"ERC721InvalidReceiver(address)": [
						{
							"details": "Indicates a failure with the token `receiver`. Used in transfers.",
							"params": {
								"receiver": "Address to which tokens are being transferred."
							}
						}
					],
					"ERC721InvalidSender(address)": [
						{
							"details": "Indicates a failure with the token `sender`. Used in transfers.",
							"params": {
								"sender": "Address whose tokens are being transferred."
							}
						}
					],
					"ERC721NonexistentToken(uint256)": [
						{
							"details": "Indicates a `tokenId` whose `owner` is the zero address.",
							"params": {
								"tokenId": "Identifier number of a token."
							}
						}
					],
					"InvalidInitialization()": [
						{
							"details": "The contract is already initialized."
						}
					],
					"NotInitializing()": [
						{
							"details": "The contract is not initializing."
						}
					],
					"OwnableInvalidOwner(address)": [
						{
							"details": "The owner is not a valid owner account. (eg. `address(0)`)"
						}
					],
					"OwnableUnauthorizedAccount(address)": [
						{
							"details": "The caller account is not authorized to perform an operation."
						}
					]
				},
				"events": {
					"Approval(address,address,uint256)": {
						"details": "Emitted when `owner` enables `approved` to manage the `tokenId` token."
					},
					"ApprovalForAll(address,address,bool)": {
						"details": "Emitted when `owner` enables or disables (`approved`) `operator` to manage all of its assets."
					},
					"Initialized(uint64)": {
						"details": "Triggered when the contract has been initialized or reinitialized."
					},
					"Transfer(address,address,uint256)": {
						"details": "Emitted when `tokenId` token is transferred from `from` to `to`."
					}
				},
				"kind": "dev",
				"methods": {
					"approve(address,uint256)": {
						"details": "See {IERC721-approve}."
					},
					"balanceOf(address)": {
						"details": "See {IERC721-balanceOf}."
					},
					"constructor": {
						"custom:oz-upgrades-unsafe-allow": "constructor"
					},
					"getApproved(uint256)": {
						"details": "See {IERC721-getApproved}."
					},
					"isApprovedForAll(address,address)": {
						"details": "See {IERC721-isApprovedForAll}."
					},
					"name()": {
						"details": "See {IERC721Metadata-name}."
					},
					"owner()": {
						"details": "Returns the address of the current owner."
					},
					"ownerOf(uint256)": {
						"details": "See {IERC721-ownerOf}."
					},
					"renounceOwnership()": {
						"details": "Leaves the contract without owner. It will not be possible to call `onlyOwner` functions. Can only be called by the current owner. NOTE: Renouncing ownership will leave the contract without an owner, thereby disabling any functionality that is only available to the owner."
					},
					"safeTransferFrom(address,address,uint256)": {
						"details": "See {IERC721-safeTransferFrom}."
					},
					"safeTransferFrom(address,address,uint256,bytes)": {
						"details": "See {IERC721-safeTransferFrom}."
					},
					"setApprovalForAll(address,bool)": {
						"details": "See {IERC721-setApprovalForAll}."
					},
					"supportsInterface(bytes4)": {
						"details": "See {IERC165-supportsInterface}."
					},
					"symbol()": {
						"details": "See {IERC721Metadata-symbol}."
					},
					"tokenURI(uint256)": {
						"details": "See {IERC721Metadata-tokenURI}."
					},
					"transferFrom(address,address,uint256)": {
						"details": "See {IERC721-transferFrom}."
					},
					"transferOwnership(address)": {
						"details": "Transfers ownership of the contract to a new account (`newOwner`). Can only be called by the current owner."
					}
				},
				"version": 1
			},
			"evm": {
				"assembly": "    /* \"contracts/MyToken.sol\":292:741  contract MyToken is Initializable, ERC721Upgradeable, OwnableUpgradeable {... */\n  mstore(0x40, 0x80)\n    /* \"contracts/MyToken.sol\":424:477  constructor() {... */\n  callvalue\n  dup1\n  iszero\n  tag_1\n  jumpi\n  0x00\n  dup1\n  revert\ntag_1:\n  pop\n    /* \"contracts/MyToken.sol\":448:470  _disableInitializers() */\n  tag_4\n    /* \"contracts/MyToken.sol\":448:468  _disableInitializers */\n  shl(0x20, tag_5)\n    /* \"contracts/MyToken.sol\":448:470  _disableInitializers() */\n  0x20\n  shr\n  jump\t// in\ntag_4:\n    /* \"contracts/MyToken.sol\":292:741  contract MyToken is Initializable, ERC721Upgradeable, OwnableUpgradeable {... */\n  jump(tag_6)\n    /* \"@openzeppelin/contracts-upgradeable/proxy/utils/Initializable.sol\":7711:8133  function _disableInitializers() internal virtual {... */\ntag_5:\n    /* \"@openzeppelin/contracts-upgradeable/proxy/utils/Initializable.sol\":7826:7856  InitializableStorage storage $ */\n  0x00\n    /* \"@openzeppelin/contracts-upgradeable/proxy/utils/Initializable.sol\":7859:7885  _getInitializableStorage() */\n  tag_8\n    /* \"@openzeppelin/contracts-upgradeable/proxy/utils/Initializable.sol\":7859:7883  _getInitializableStorage */\n  shl(0x20, tag_9)\n    /* \"@openzeppelin/contracts-upgradeable/proxy/utils/Initializable.sol\":7859:7885  _getInitializableStorage() */\n  0x20\n  shr\n  jump\t// in\ntag_8:\n    /* \"@openzeppelin/contracts-upgradeable/proxy/utils/Initializable.sol\":7826:7885  InitializableStorage storage $ = _getInitializableStorage() */\n  swap1\n  pop\n    /* \"@openzeppelin/contracts-upgradeable/proxy/utils/Initializable.sol\":7900:7901  $ */\n  dup1\n    /* \"@openzeppelin/contracts-upgradeable/proxy/utils/Initializable.sol\":7900:7915  $._initializing */\n  0x00\n  add\n  0x08\n  swap1\n  sload\n  swap1\n  0x0100\n  exp\n  swap1\n  div\n  0xff\n  and\n    /* \"@openzeppelin/contracts-upgradeable/proxy/utils/Initializable.sol\":7896:7972  if ($._initializing) {... */\n  iszero\n  tag_10\n  jumpi\n    /* \"@openzeppelin/contracts-upgradeable/proxy/utils/Initializable.sol\":7938:7961  InvalidInitialization() */\n  mload(0x40)\n  0xf92ee8a900000000000000000000000000000000000000000000000000000000\n  dup2\n  mstore\n  0x04\n  add\n  mload(0x40)\n  dup1\n  swap2\n  sub\n  swap1\n  revert\n    /* \"@openzeppelin/contracts-upgradeable/proxy/utils/Initializable.sol\":7896:7972  if ($._initializing) {... */\ntag_10:\n    /* \"@openzeppelin/contracts-upgradeable/proxy/utils/Initializable.sol\":8003:8019  type(uint64).max */\n  0xffffffffffffffff\n    /* \"@openzeppelin/contracts-upgradeable/proxy/utils/Initializable.sol\":7985:8019  $._initialized != type(uint64).max */\n  dup1\n  and\n    /* \"@openzeppelin/contracts-upgradeable/proxy/utils/Initializable.sol\":7985:7986  $ */\n  dup2\n    /* \"@openzeppelin/contracts-upgradeable/proxy/utils/Initializable.sol\":7985:7999  $._initialized */\n  0x00\n  add\n  0x00\n  swap1\n  sload\n  swap1\n  0x0100\n  exp\n  swap1\n  div\n  0xffffffffffffffff\n  and\n    /* \"@openzeppelin/contracts-upgradeable/proxy/utils/Initializable.sol\":7985:8019  $._initialized != type(uint64).max */\n  0xffffffffffffffff\n  and\n  eq\n    /* \"@openzeppelin/contracts-upgradeable/proxy/utils/Initializable.sol\":7981:8127  if ($._initialized != type(uint64).max) {... */\n  tag_11\n  jumpi\n    /* \"@openzeppelin/contracts-upgradeable/proxy/utils/Initializable.sol\":8052:8068  type(uint64).max */\n  0xffffffffffffffff\n    /* \"@openzeppelin/contracts-upgradeable/proxy/utils/Initializable.sol\":8035:8036  $ */\n  dup2\n    /* \"@openzeppelin/contracts-upgradeable/proxy/utils/Initializable.sol\":8035:8049  $._initialized */\n  0x00\n  add\n  0x00\n    /* \"@openzeppelin/contracts-upgradeable/proxy/utils/Initializable.sol\":8035:8068  $._initialized = type(uint64).max */\n  0x0100\n  exp\n  dup2\n  sload\n  dup2\n  0xffffffffffffffff\n  mul\n  not\n  and\n  swap1\n  dup4\n  0xffffffffffffffff\n  and\n  mul\n  or\n  swap1\n  sstore\n  pop\n    /* \"@openzeppelin/contracts-upgradeable/proxy/utils/Initializable.sol\":8087:8116  Initialized(type(uint64).max) */\n  0xc7f505b2f371ae2175ee4913f4499e1f2633a7b5936321eed1cdaeb6115181d2\n    /* \"@openzeppelin/contracts-upgradeable/proxy/utils/Initializable.sol\":8099:8115  type(uint64).max */\n  0xffffffffffffffff\n    /* \"@openzeppelin/contracts-upgradeable/proxy/utils/Initializable.sol\":8087:8116  Initialized(type(uint64).max) */\n  mload(0x40)\n  tag_12\n  swap2\n  swap1\n  tag_13\n  jump\t// in\ntag_12:\n  mload(0x40)\n  dup1\n  swap2\n  sub\n  swap1\n  log1\n    /* \"@openzeppelin/contracts-upgradeable/proxy/utils/Initializable.sol\":7981:8127  if ($._initialized != type(uint64).max) {... */\ntag_11:\n    /* \"@openzeppelin/contracts-upgradeable/proxy/utils/Initializable.sol\":7760:8133  {... */\n  pop\n    /* \"@openzeppelin/contracts-upgradeable/proxy/utils/Initializable.sol\":7711:8133  function _disableInitializers() internal virtual {... */\n  jump\t// out\n    /* \"@openzeppelin/contracts-upgradeable/proxy/utils/Initializable.sol\":8737:8907  function _getInitializableStorage() private pure returns (InitializableStorage storage $) {... */\ntag_9:\n    /* \"@openzeppelin/contracts-upgradeable/proxy/utils/Initializable.sol\":8795:8825  InitializableStorage storage $ */\n  0x00\n    /* \"@openzeppelin/contracts-upgradeable/proxy/utils/Initializable.sol\":8870:8891  INITIALIZABLE_STORAGE */\n  0xf0c57e16840df040f15088dc2f81fe391c3923bec73e23a9662efc9c229c6a00\n    /* \"@openzeppelin/contracts-upgradeable/proxy/utils/Initializable.sol\":8860:8891  $.slot := INITIALIZABLE_STORAGE */\n  swap1\n  pop\n    /* \"@openzeppelin/contracts-upgradeable/proxy/utils/Initializable.sol\":8737:8907  function _getInitializableStorage() private pure returns (InitializableStorage storage $) {... */\n  swap1\n  jump\t// out\n    /* \"#utility.yul\":7:108   */\ntag_15:\n    /* \"#utility.yul\":43:50   */\n  0x00\n    /* \"#utility.yul\":83:101   */\n  0xffffffffffffffff\n    /* \"#utility.yul\":76:81   */\n  dup3\n    /* \"#utility.yul\":72:102   */\n  and\n    /* \"#utility.yul\":61:102   */\n  swap1\n  pop\n    /* \"#utility.yul\":7:108   */\n  swap2\n  swap1\n  pop\n  jump\t// out\n    /* \"#utility.yul\":114:229   */\ntag_16:\n    /* \"#utility.yul\":199:222   */\n  tag_20\n    /* \"#utility.yul\":216:221   */\n  dup2\n    /* \"#utility.yul\":199:222   */\n  tag_15\n  jump\t// in\ntag_20:\n    /* \"#utility.yul\":194:197   */\n  dup3\n    /* \"#utility.yul\":187:223   */\n  mstore\n    /* \"#utility.yul\":114:229   */\n  pop\n  pop\n  jump\t// out\n    /* \"#utility.yul\":235:453   */\ntag_13:\n    /* \"#utility.yul\":326:330   */\n  0x00\n    /* \"#utility.yul\":364:366   */\n  0x20\n    /* \"#utility.yul\":353:362   */\n  dup3\n    /* \"#utility.yul\":349:367   */\n  add\n    /* \"#utility.yul\":341:367   */\n  swap1\n  pop\n    /* \"#utility.yul\":377:446   */\n  tag_22\n    /* \"#utility.yul\":443:444   */\n  0x00\n    /* \"#utility.yul\":432:441   */\n  dup4\n    /* \"#utility.yul\":428:445   */\n  add\n    /* \"#utility.yul\":419:425   */\n  dup5\n    /* \"#utility.yul\":377:446   */\n  tag_16\n  jump\t// in\ntag_22:\n    /* \"#utility.yul\":235:453   */\n  swap3\n  swap2\n  pop\n  pop\n  jump\t// out\n    /* \"contracts/MyToken.sol\":292:741  contract MyToken is Initializable, ERC721Upgradeable, OwnableUpgradeable {... */\ntag_6:\n  dataSize(sub_0)\n  dup1\n  dataOffset(sub_0)\n  0x00\n  codecopy\n  0x00\n  return\nstop\n\nsub_0: assembly {\n        /* \"contracts/MyToken.sol\":292:741  contract MyToken is Initializable, ERC721Upgradeable, OwnableUpgradeable {... */\n      mstore(0x40, 0x80)\n      callvalue\n      dup1\n      iszero\n      tag_1\n      jumpi\n      0x00\n      dup1\n      revert\n    tag_1:\n      pop\n      jumpi(tag_2, lt(calldatasize, 0x04))\n      shr(0xe0, calldataload(0x00))\n      dup1\n      0x8da5cb5b\n      gt\n      tag_21\n      jumpi\n      dup1\n      0xb88d4fde\n      gt\n      tag_22\n      jumpi\n      dup1\n      0xb88d4fde\n      eq\n      tag_16\n      jumpi\n      dup1\n      0xc4d66de8\n      eq\n      tag_17\n      jumpi\n      dup1\n      0xc87b56dd\n      eq\n      tag_18\n      jumpi\n      dup1\n      0xe985e9c5\n      eq\n      tag_19\n      jumpi\n      dup1\n      0xf2fde38b\n      eq\n      tag_20\n      jumpi\n      jump(tag_2)\n    tag_22:\n      dup1\n      0x8da5cb5b\n      eq\n      tag_12\n      jumpi\n      dup1\n      0x95d89b41\n      eq\n      tag_13\n      jumpi\n      dup1\n      0xa1448194\n      eq\n      tag_14\n      jumpi\n      dup1\n      0xa22cb465\n      eq\n      tag_15\n      jumpi\n      jump(tag_2)\n    tag_21:\n      dup1\n      0x23b872dd\n      gt\n      tag_23\n      jumpi\n      dup1\n      0x23b872dd\n      eq\n      tag_7\n      jumpi\n      dup1\n      0x42842e0e\n      eq\n      tag_8\n      jumpi\n      dup1\n      0x6352211e\n      eq\n      tag_9\n      jumpi\n      dup1\n      0x70a08231\n      eq\n      tag_10\n      jumpi\n      dup1\n      0x715018a6\n      eq\n      tag_11\n      jumpi\n      jump(tag_2)\n    tag_23:\n      dup1\n      0x01ffc9a7\n      eq\n      tag_3\n      jumpi\n      dup1\n      0x06fdde03\n      eq\n      tag_4\n      jumpi\n      dup1\n      0x081812fc\n      eq\n      tag_5\n      jumpi\n      dup1\n      0x095ea7b3\n      eq\n      tag_6\n      jumpi\n    tag_2:\n      0x00\n      dup1\n      revert\n        /* \"@openzeppelin/contracts-upgradeable/token/ERC721/ERC721Upgradeable.sol\":2674:2985  function supportsInterface(bytes4 interfaceId) public view virtual override(ERC165Upgradeable, IERC165) returns (bool) {... */\n    tag_3:\n      tag_24\n      0x04\n      dup1\n      calldatasize\n      sub\n      dup2\n      add\n      swap1\n      tag_25\n      swap2\n      swap1\n      tag_26\n      jump\t// in\n    tag_25:\n      tag_27\n      jump\t// in\n    tag_24:\n      mload(0x40)\n      tag_28\n      swap2\n      swap1\n      tag_29\n      jump\t// in\n    tag_28:\n      mload(0x40)\n      dup1\n      swap2\n      sub\n      swap1\n      return\n        /* \"@openzeppelin/contracts-upgradeable/token/ERC721/ERC721Upgradeable.sol\":3546:3692  function name() public view virtual returns (string memory) {... */\n    tag_4:\n      tag_30\n      tag_31\n      jump\t// in\n    tag_30:\n      mload(0x40)\n      tag_32\n      swap2\n      swap1\n      tag_33\n      jump\t// in\n    tag_32:\n      mload(0x40)\n      dup1\n      swap2\n      sub\n      swap1\n      return\n        /* \"@openzeppelin/contracts-upgradeable/token/ERC721/ERC721Upgradeable.sol\":4792:4946  function getApproved(uint256 tokenId) public view virtual returns (address) {... */\n    tag_5:\n      tag_34\n      0x04\n      dup1\n      calldatasize\n      sub\n      dup2\n      add\n      swap1\n      tag_35\n      swap2\n      swap1\n      tag_36\n      jump\t// in\n    tag_35:\n      tag_37\n      jump\t// in\n    tag_34:\n      mload(0x40)\n      tag_38\n      swap2\n      swap1\n      tag_39\n      jump\t// in\n    tag_38:\n      mload(0x40)\n      dup1\n      swap2\n      sub\n      swap1\n      return\n        /* \"@openzeppelin/contracts-upgradeable/token/ERC721/ERC721Upgradeable.sol\":4618:4731  function approve(address to, uint256 tokenId) public virtual {... */\n    tag_6:\n      tag_40\n      0x04\n      dup1\n      calldatasize\n      sub\n      dup2\n      add\n      swap1\n      tag_41\n      swap2\n      swap1\n      tag_42\n      jump\t// in\n    tag_41:\n      tag_43\n      jump\t// in\n    tag_40:\n      stop\n        /* \"@openzeppelin/contracts-upgradeable/token/ERC721/ERC721Upgradeable.sol\":5495:6073  function transferFrom(address from, address to, uint256 tokenId) public virtual {... */\n    tag_7:\n      tag_44\n      0x04\n      dup1\n      calldatasize\n      sub\n      dup2\n      add\n      swap1\n      tag_45\n      swap2\n      swap1\n      tag_46\n      jump\t// in\n    tag_45:\n      tag_47\n      jump\t// in\n    tag_44:\n      stop\n        /* \"@openzeppelin/contracts-upgradeable/token/ERC721/ERC721Upgradeable.sol\":6139:6271  function safeTransferFrom(address from, address to, uint256 tokenId) public {... */\n    tag_8:\n      tag_48\n      0x04\n      dup1\n      calldatasize\n      sub\n      dup2\n      add\n      swap1\n      tag_49\n      swap2\n      swap1\n      tag_46\n      jump\t// in\n    tag_49:\n      tag_50\n      jump\t// in\n    tag_48:\n      stop\n        /* \"@openzeppelin/contracts-upgradeable/token/ERC721/ERC721Upgradeable.sol\":3366:3484  function ownerOf(uint256 tokenId) public view virtual returns (address) {... */\n    tag_9:\n      tag_51\n      0x04\n      dup1\n      calldatasize\n      sub\n      dup2\n      add\n      swap1\n      tag_52\n      swap2\n      swap1\n      tag_36\n      jump\t// in\n    tag_52:\n      tag_53\n      jump\t// in\n    tag_51:\n      mload(0x40)\n      tag_54\n      swap2\n      swap1\n      tag_39\n      jump\t// in\n    tag_54:\n      mload(0x40)\n      dup1\n      swap2\n      sub\n      swap1\n      return\n        /* \"@openzeppelin/contracts-upgradeable/token/ERC721/ERC721Upgradeable.sol\":3044:3309  function balanceOf(address owner) public view virtual returns (uint256) {... */\n    tag_10:\n      tag_55\n      0x04\n      dup1\n      calldatasize\n      sub\n      dup2\n      add\n      swap1\n      tag_56\n      swap2\n      swap1\n      tag_57\n      jump\t// in\n    tag_56:\n      tag_58\n      jump\t// in\n    tag_55:\n      mload(0x40)\n      tag_59\n      swap2\n      swap1\n      tag_60\n      jump\t// in\n    tag_59:\n      mload(0x40)\n      dup1\n      swap2\n      sub\n      swap1\n      return\n        /* \"@openzeppelin/contracts-upgradeable/access/OwnableUpgradeable.sol\":3155:3256  function renounceOwnership() public virtual onlyOwner {... */\n    tag_11:\n      tag_61\n      tag_62\n      jump\t// in\n    tag_61:\n      stop\n        /* \"@openzeppelin/contracts-upgradeable/access/OwnableUpgradeable.sol\":2441:2585  function owner() public view virtual returns (address) {... */\n    tag_12:\n      tag_63\n      tag_64\n      jump\t// in\n    tag_63:\n      mload(0x40)\n      tag_65\n      swap2\n      swap1\n      tag_39\n      jump\t// in\n    tag_65:\n      mload(0x40)\n      dup1\n      swap2\n      sub\n      swap1\n      return\n        /* \"@openzeppelin/contracts-upgradeable/token/ERC721/ERC721Upgradeable.sol\":3756:3906  function symbol() public view virtual returns (string memory) {... */\n    tag_13:\n      tag_66\n      tag_67\n      jump\t// in\n    tag_66:\n      mload(0x40)\n      tag_68\n      swap2\n      swap1\n      tag_33\n      jump\t// in\n    tag_68:\n      mload(0x40)\n      dup1\n      swap2\n      sub\n      swap1\n      return\n        /* \"contracts/MyToken.sol\":636:739  function safeMint(address to, uint256 tokenId) public onlyOwner {... */\n    tag_14:\n      tag_69\n      0x04\n      dup1\n      calldatasize\n      sub\n      dup2\n      add\n      swap1\n      tag_70\n      swap2\n      swap1\n      tag_42\n      jump\t// in\n    tag_70:\n      tag_71\n      jump\t// in\n    tag_69:\n      stop\n        /* \"@openzeppelin/contracts-upgradeable/token/ERC721/ERC721Upgradeable.sol\":5013:5157  function setApprovalForAll(address operator, bool approved) public virtual {... */\n    tag_15:\n      tag_72\n      0x04\n      dup1\n      calldatasize\n      sub\n      dup2\n      add\n      swap1\n      tag_73\n      swap2\n      swap1\n      tag_74\n      jump\t// in\n    tag_73:\n      tag_75\n      jump\t// in\n    tag_72:\n      stop\n        /* \"@openzeppelin/contracts-upgradeable/token/ERC721/ERC721Upgradeable.sol\":6337:6545  function safeTransferFrom(address from, address to, uint256 tokenId, bytes memory data) public virtual {... */\n    tag_16:\n      tag_76\n      0x04\n      dup1\n      calldatasize\n      sub\n      dup2\n      add\n      swap1\n      tag_77\n      swap2\n      swap1\n      tag_78\n      jump\t// in\n    tag_77:\n      tag_79\n      jump\t// in\n    tag_76:\n      stop\n        /* \"contracts/MyToken.sol\":483:630  function initialize(address initialOwner) initializer public {... */\n    tag_17:\n      tag_80\n      0x04\n      dup1\n      calldatasize\n      sub\n      dup2\n      add\n      swap1\n      tag_81\n      swap2\n      swap1\n      tag_57\n      jump\t// in\n    tag_81:\n      tag_82\n      jump\t// in\n    tag_80:\n      stop\n        /* \"@openzeppelin/contracts-upgradeable/token/ERC721/ERC721Upgradeable.sol\":3972:4227  function tokenURI(uint256 tokenId) public view virtual returns (string memory) {... */\n    tag_18:\n      tag_83\n      0x04\n      dup1\n      calldatasize\n      sub\n      dup2\n      add\n      swap1\n      tag_84\n      swap2\n      swap1\n      tag_36\n      jump\t// in\n    tag_84:\n      tag_85\n      jump\t// in\n    tag_83:\n      mload(0x40)\n      tag_86\n      swap2\n      swap1\n      tag_33\n      jump\t// in\n    tag_86:\n      mload(0x40)\n      dup1\n      swap2\n      sub\n      swap1\n      return\n        /* \"@openzeppelin/contracts-upgradeable/token/ERC721/ERC721Upgradeable.sol\":5223:5433  function isApprovedForAll(address owner, address operator) public view virtual returns (bool) {... */\n    tag_19:\n      tag_87\n      0x04\n      dup1\n      calldatasize\n      sub\n      dup2\n      add\n      swap1\n      tag_88\n      swap2\n      swap1\n      tag_89\n      jump\t// in\n    tag_88:\n      tag_90\n      jump\t// in\n    tag_87:\n      mload(0x40)\n      tag_91\n      swap2\n      swap1\n      tag_29\n      jump\t// in\n    tag_91:\n      mload(0x40)\n      dup1\n      swap2\n      sub\n      swap1\n      return\n        /* \"@openzeppelin/contracts-upgradeable/access/OwnableUpgradeable.sol\":3405:3620  function transferOwnership(address newOwner) public virtual onlyOwner {... */\n    tag_20:\n      tag_92\n      0x04\n      dup1\n      calldatasize\n      sub\n      dup2\n      add\n      swap1\n      tag_93\n      swap2\n      swap1\n      tag_57\n      jump\t// in\n    tag_93:\n      tag_94\n      jump\t// in\n    tag_92:\n      stop\n        /* \"@openzeppelin/contracts-upgradeable/token/ERC721/ERC721Upgradeable.sol\":2674:2985  function supportsInterface(bytes4 interfaceId) public view virtual override(ERC165Upgradeable, IERC165) returns (bool) {... */\n    tag_27:\n        /* \"@openzeppelin/contracts-upgradeable/token/ERC721/ERC721Upgradeable.sol\":2787:2791  bool */\n      0x00\n        /* \"@openzeppelin/contracts-upgradeable/token/ERC721/ERC721Upgradeable.sol\":2837:2862  type(IERC721).interfaceId */\n      0x80ac58cd00000000000000000000000000000000000000000000000000000000\n        /* \"@openzeppelin/contracts-upgradeable/token/ERC721/ERC721Upgradeable.sol\":2822:2862  interfaceId == type(IERC721).interfaceId */\n      not(0xffffffffffffffffffffffffffffffffffffffffffffffffffffffff)\n      and\n        /* \"@openzeppelin/contracts-upgradeable/token/ERC721/ERC721Upgradeable.sol\":2822:2833  interfaceId */\n      dup3\n        /* \"@openzeppelin/contracts-upgradeable/token/ERC721/ERC721Upgradeable.sol\":2822:2862  interfaceId == type(IERC721).interfaceId */\n      not(0xffffffffffffffffffffffffffffffffffffffffffffffffffffffff)\n      and\n      eq\n        /* \"@openzeppelin/contracts-upgradeable/token/ERC721/ERC721Upgradeable.sol\":2822:2926  interfaceId == type(IERC721).interfaceId ||... */\n      dup1\n      tag_96\n      jumpi\n      pop\n        /* \"@openzeppelin/contracts-upgradeable/token/ERC721/ERC721Upgradeable.sol\":2893:2926  type(IERC721Metadata).interfaceId */\n      0x5b5e139f00000000000000000000000000000000000000000000000000000000\n        /* \"@openzeppelin/contracts-upgradeable/token/ERC721/ERC721Upgradeable.sol\":2878:2926  interfaceId == type(IERC721Metadata).interfaceId */\n      not(0xffffffffffffffffffffffffffffffffffffffffffffffffffffffff)\n      and\n        /* \"@openzeppelin/contracts-upgradeable/token/ERC721/ERC721Upgradeable.sol\":2878:2889  interfaceId */\n      dup3\n        /* \"@openzeppelin/contracts-upgradeable/token/ERC721/ERC721Upgradeable.sol\":2878:2926  interfaceId == type(IERC721Metadata).interfaceId */\n      not(0xffffffffffffffffffffffffffffffffffffffffffffffffffffffff)\n      and\n      eq\n        /* \"@openzeppelin/contracts-upgradeable/token/ERC721/ERC721Upgradeable.sol\":2822:2926  interfaceId == type(IERC721).interfaceId ||... */\n    tag_96:\n        /* \"@openzeppelin/contracts-upgradeable/token/ERC721/ERC721Upgradeable.sol\":2822:2978  interfaceId == type(IERC721).interfaceId ||... */\n      dup1\n      tag_97\n      jumpi\n      pop\n        /* \"@openzeppelin/contracts-upgradeable/token/ERC721/ERC721Upgradeable.sol\":2942:2978  super.supportsInterface(interfaceId) */\n      tag_98\n        /* \"@openzeppelin/contracts-upgradeable/token/ERC721/ERC721Upgradeable.sol\":2966:2977  interfaceId */\n      dup3\n        /* \"@openzeppelin/contracts-upgradeable/token/ERC721/ERC721Upgradeable.sol\":2942:2965  super.supportsInterface */\n      tag_99\n        /* \"@openzeppelin/contracts-upgradeable/token/ERC721/ERC721Upgradeable.sol\":2942:2978  super.supportsInterface(interfaceId) */\n      jump\t// in\n    tag_98:\n        /* \"@openzeppelin/contracts-upgradeable/token/ERC721/ERC721Upgradeable.sol\":2822:2978  interfaceId == type(IERC721).interfaceId ||... */\n    tag_97:\n        /* \"@openzeppelin/contracts-upgradeable/token/ERC721/ERC721Upgradeable.sol\":2803:2978  return... */\n      swap1\n      pop\n        /* \"@openzeppelin/contracts-upgradeable/token/ERC721/ERC721Upgradeable.sol\":2674:2985  function supportsInterface(bytes4 interfaceId) public view virtual override(ERC165Upgradeable, IERC165) returns (bool) {... */\n      swap2\n      swap1\n      pop\n      jump\t// out\n        /* \"@openzeppelin/contracts-upgradeable/token/ERC721/ERC721Upgradeable.sol\":3546:3692  function name() public view virtual returns (string memory) {... */\n    tag_31:\n        /* \"@openzeppelin/contracts-upgradeable/token/ERC721/ERC721Upgradeable.sol\":3591:3604  string memory */\n      0x60\n        /* \"@openzeppelin/contracts-upgradeable/token/ERC721/ERC721Upgradeable.sol\":3616:3639  ERC721Storage storage $ */\n      0x00\n        /* \"@openzeppelin/contracts-upgradeable/token/ERC721/ERC721Upgradeable.sol\":3642:3661  _getERC721Storage() */\n      tag_101\n        /* \"@openzeppelin/contracts-upgradeable/token/ERC721/ERC721Upgradeable.sol\":3642:3659  _getERC721Storage */\n      tag_102\n        /* \"@openzeppelin/contracts-upgradeable/token/ERC721/ERC721Upgradeable.sol\":3642:3661  _getERC721Storage() */\n      jump\t// in\n    tag_101:\n        /* \"@openzeppelin/contracts-upgradeable/token/ERC721/ERC721Upgradeable.sol\":3616:3661  ERC721Storage storage $ = _getERC721Storage() */\n      swap1\n      pop\n        /* \"@openzeppelin/contracts-upgradeable/token/ERC721/ERC721Upgradeable.sol\":3678:3679  $ */\n      dup1\n        /* \"@openzeppelin/contracts-upgradeable/token/ERC721/ERC721Upgradeable.sol\":3678:3685  $._name */\n      0x00\n      add\n        /* \"@openzeppelin/contracts-upgradeable/token/ERC721/ERC721Upgradeable.sol\":3671:3685  return $._name */\n      dup1\n      sload\n      tag_103\n      swap1\n      tag_104\n      jump\t// in\n    tag_103:\n      dup1\n      0x1f\n      add\n      0x20\n      dup1\n      swap2\n      div\n      mul\n      0x20\n      add\n      mload(0x40)\n      swap1\n      dup2\n      add\n      0x40\n      mstore\n      dup1\n      swap3\n      swap2\n      swap1\n      dup2\n      dup2\n      mstore\n      0x20\n      add\n      dup3\n      dup1\n      sload\n      tag_105\n      swap1\n      tag_104\n      jump\t// in\n    tag_105:\n      dup1\n      iszero\n      tag_106\n      jumpi\n      dup1\n      0x1f\n      lt\n      tag_107\n      jumpi\n      0x0100\n      dup1\n      dup4\n      sload\n      div\n      mul\n      dup4\n      mstore\n      swap2\n      0x20\n      add\n      swap2\n      jump(tag_106)\n    tag_107:\n      dup3\n      add\n      swap2\n      swap1\n      0x00\n      mstore\n      keccak256(0x00, 0x20)\n      swap1\n    tag_108:\n      dup2\n      sload\n      dup2\n      mstore\n      swap1\n      0x01\n      add\n      swap1\n      0x20\n      add\n      dup1\n      dup4\n      gt\n      tag_108\n      jumpi\n      dup3\n      swap1\n      sub\n      0x1f\n      and\n      dup3\n      add\n      swap2\n    tag_106:\n      pop\n      pop\n      pop\n      pop\n      pop\n      swap2\n      pop\n      pop\n        /* \"@openzeppelin/contracts-upgradeable/token/ERC721/ERC721Upgradeable.sol\":3546:3692  function name() public view virtual returns (string memory) {... */\n      swap1\n      jump\t// out\n        /* \"@openzeppelin/contracts-upgradeable/token/ERC721/ERC721Upgradeable.sol\":4792:4946  function getApproved(uint256 tokenId) public view virtual returns (address) {... */\n    tag_37:\n        /* \"@openzeppelin/contracts-upgradeable/token/ERC721/ERC721Upgradeable.sol\":4859:4866  address */\n      0x00\n        /* \"@openzeppelin/contracts-upgradeable/token/ERC721/ERC721Upgradeable.sol\":4878:4900  _requireOwned(tokenId) */\n      tag_110\n        /* \"@openzeppelin/contracts-upgradeable/token/ERC721/ERC721Upgradeable.sol\":4892:4899  tokenId */\n      dup3\n        /* \"@openzeppelin/contracts-upgradeable/token/ERC721/ERC721Upgradeable.sol\":4878:4891  _requireOwned */\n      tag_111\n        /* \"@openzeppelin/contracts-upgradeable/token/ERC721/ERC721Upgradeable.sol\":4878:4900  _requireOwned(tokenId) */\n      jump\t// in\n    tag_110:\n      pop\n        /* \"@openzeppelin/contracts-upgradeable/token/ERC721/ERC721Upgradeable.sol\":4918:4939  _getApproved(tokenId) */\n      tag_112\n        /* \"@openzeppelin/contracts-upgradeable/token/ERC721/ERC721Upgradeable.sol\":4931:4938  tokenId */\n      dup3\n        /* \"@openzeppelin/contracts-upgradeable/token/ERC721/ERC721Upgradeable.sol\":4918:4930  _getApproved */\n      tag_113\n        /* \"@openzeppelin/contracts-upgradeable/token/ERC721/ERC721Upgradeable.sol\":4918:4939  _getApproved(tokenId) */\n      jump\t// in\n    tag_112:\n        /* \"@openzeppelin/contracts-upgradeable/token/ERC721/ERC721Upgradeable.sol\":4911:4939  return _getApproved(tokenId) */\n      swap1\n      pop\n        /* \"@openzeppelin/contracts-upgradeable/token/ERC721/ERC721Upgradeable.sol\":4792:4946  function getApproved(uint256 tokenId) public view virtual returns (address) {... */\n      swap2\n      swap1\n      pop\n      jump\t// out\n        /* \"@openzeppelin/contracts-upgradeable/token/ERC721/ERC721Upgradeable.sol\":4618:4731  function approve(address to, uint256 tokenId) public virtual {... */\n    tag_43:\n        /* \"@openzeppelin/contracts-upgradeable/token/ERC721/ERC721Upgradeable.sol\":4689:4724  _approve(to, tokenId, _msgSender()) */\n      tag_115\n        /* \"@openzeppelin/contracts-upgradeable/token/ERC721/ERC721Upgradeable.sol\":4698:4700  to */\n      dup3\n        /* \"@openzeppelin/contracts-upgradeable/token/ERC721/ERC721Upgradeable.sol\":4702:4709  tokenId */\n      dup3\n        /* \"@openzeppelin/contracts-upgradeable/token/ERC721/ERC721Upgradeable.sol\":4711:4723  _msgSender() */\n      tag_116\n        /* \"@openzeppelin/contracts-upgradeable/token/ERC721/ERC721Upgradeable.sol\":4711:4721  _msgSender */\n      tag_117\n        /* \"@openzeppelin/contracts-upgradeable/token/ERC721/ERC721Upgradeable.sol\":4711:4723  _msgSender() */\n      jump\t// in\n    tag_116:\n        /* \"@openzeppelin/contracts-upgradeable/token/ERC721/ERC721Upgradeable.sol\":4689:4697  _approve */\n      tag_118\n        /* \"@openzeppelin/contracts-upgradeable/token/ERC721/ERC721Upgradeable.sol\":4689:4724  _approve(to, tokenId, _msgSender()) */\n      jump\t// in\n    tag_115:\n        /* \"@openzeppelin/contracts-upgradeable/token/ERC721/ERC721Upgradeable.sol\":4618:4731  function approve(address to, uint256 tokenId) public virtual {... */\n      pop\n      pop\n      jump\t// out\n        /* \"@openzeppelin/contracts-upgradeable/token/ERC721/ERC721Upgradeable.sol\":5495:6073  function transferFrom(address from, address to, uint256 tokenId) public virtual {... */\n    tag_47:\n        /* \"@openzeppelin/contracts-upgradeable/token/ERC721/ERC721Upgradeable.sol\":5603:5604  0 */\n      0x00\n        /* \"@openzeppelin/contracts-upgradeable/token/ERC721/ERC721Upgradeable.sol\":5589:5605  to == address(0) */\n      0xffffffffffffffffffffffffffffffffffffffff\n      and\n        /* \"@openzeppelin/contracts-upgradeable/token/ERC721/ERC721Upgradeable.sol\":5589:5591  to */\n      dup3\n        /* \"@openzeppelin/contracts-upgradeable/token/ERC721/ERC721Upgradeable.sol\":5589:5605  to == address(0) */\n      0xffffffffffffffffffffffffffffffffffffffff\n      and\n      sub\n        /* \"@openzeppelin/contracts-upgradeable/token/ERC721/ERC721Upgradeable.sol\":5585:5672  if (to == address(0)) {... */\n      tag_120\n      jumpi\n        /* \"@openzeppelin/contracts-upgradeable/token/ERC721/ERC721Upgradeable.sol\":5658:5659  0 */\n      0x00\n        /* \"@openzeppelin/contracts-upgradeable/token/ERC721/ERC721Upgradeable.sol\":5628:5661  ERC721InvalidReceiver(address(0)) */\n      mload(0x40)\n      0x64a0ae9200000000000000000000000000000000000000000000000000000000\n      dup2\n      mstore\n      0x04\n      add\n      tag_121\n      swap2\n      swap1\n      tag_39\n      jump\t// in\n    tag_121:\n      mload(0x40)\n      dup1\n      swap2\n      sub\n      swap1\n      revert\n        /* \"@openzeppelin/contracts-upgradeable/token/ERC721/ERC721Upgradeable.sol\":5585:5672  if (to == address(0)) {... */\n    tag_120:\n        /* \"@openzeppelin/contracts-upgradeable/token/ERC721/ERC721Upgradeable.sol\":5890:5911  address previousOwner */\n      0x00\n        /* \"@openzeppelin/contracts-upgradeable/token/ERC721/ERC721Upgradeable.sol\":5914:5948  _update(to, tokenId, _msgSender()) */\n      tag_122\n        /* \"@openzeppelin/contracts-upgradeable/token/ERC721/ERC721Upgradeable.sol\":5922:5924  to */\n      dup4\n        /* \"@openzeppelin/contracts-upgradeable/token/ERC721/ERC721Upgradeable.sol\":5926:5933  tokenId */\n      dup4\n        /* \"@openzeppelin/contracts-upgradeable/token/ERC721/ERC721Upgradeable.sol\":5935:5947  _msgSender() */\n      tag_123\n        /* \"@openzeppelin/contracts-upgradeable/token/ERC721/ERC721Upgradeable.sol\":5935:5945  _msgSender */\n      tag_117\n        /* \"@openzeppelin/contracts-upgradeable/token/ERC721/ERC721Upgradeable.sol\":5935:5947  _msgSender() */\n      jump\t// in\n    tag_123:\n        /* \"@openzeppelin/contracts-upgradeable/token/ERC721/ERC721Upgradeable.sol\":5914:5921  _update */\n      tag_124\n        /* \"@openzeppelin/contracts-upgradeable/token/ERC721/ERC721Upgradeable.sol\":5914:5948  _update(to, tokenId, _msgSender()) */\n      jump\t// in\n    tag_122:\n        /* \"@openzeppelin/contracts-upgradeable/token/ERC721/ERC721Upgradeable.sol\":5890:5948  address previousOwner = _update(to, tokenId, _msgSender()) */\n      swap1\n      pop\n        /* \"@openzeppelin/contracts-upgradeable/token/ERC721/ERC721Upgradeable.sol\":5979:5983  from */\n      dup4\n        /* \"@openzeppelin/contracts-upgradeable/token/ERC721/ERC721Upgradeable.sol\":5962:5983  previousOwner != from */\n      0xffffffffffffffffffffffffffffffffffffffff\n      and\n        /* \"@openzeppelin/contracts-upgradeable/token/ERC721/ERC721Upgradeable.sol\":5962:5975  previousOwner */\n      dup2\n        /* \"@openzeppelin/contracts-upgradeable/token/ERC721/ERC721Upgradeable.sol\":5962:5983  previousOwner != from */\n      0xffffffffffffffffffffffffffffffffffffffff\n      and\n      eq\n        /* \"@openzeppelin/contracts-upgradeable/token/ERC721/ERC721Upgradeable.sol\":5958:6067  if (previousOwner != from) {... */\n      tag_125\n      jumpi\n        /* \"@openzeppelin/contracts-upgradeable/token/ERC721/ERC721Upgradeable.sol\":6027:6031  from */\n      dup4\n        /* \"@openzeppelin/contracts-upgradeable/token/ERC721/ERC721Upgradeable.sol\":6033:6040  tokenId */\n      dup3\n        /* \"@openzeppelin/contracts-upgradeable/token/ERC721/ERC721Upgradeable.sol\":6042:6055  previousOwner */\n      dup3\n        /* \"@openzeppelin/contracts-upgradeable/token/ERC721/ERC721Upgradeable.sol\":6006:6056  ERC721IncorrectOwner(from, tokenId, previousOwner) */\n      mload(0x40)\n      0x64283d7b00000000000000000000000000000000000000000000000000000000\n      dup2\n      mstore\n      0x04\n      add\n      tag_126\n      swap4\n      swap3\n      swap2\n      swap1\n      tag_127\n      jump\t// in\n    tag_126:\n      mload(0x40)\n      dup1\n      swap2\n      sub\n      swap1\n      revert\n        /* \"@openzeppelin/contracts-upgradeable/token/ERC721/ERC721Upgradeable.sol\":5958:6067  if (previousOwner != from) {... */\n    tag_125:\n        /* \"@openzeppelin/contracts-upgradeable/token/ERC721/ERC721Upgradeable.sol\":5575:6073  {... */\n      pop\n        /* \"@openzeppelin/contracts-upgradeable/token/ERC721/ERC721Upgradeable.sol\":5495:6073  function transferFrom(address from, address to, uint256 tokenId) public virtual {... */\n      pop\n      pop\n      pop\n      jump\t// out\n        /* \"@openzeppelin/contracts-upgradeable/token/ERC721/ERC721Upgradeable.sol\":6139:6271  function safeTransferFrom(address from, address to, uint256 tokenId) public {... */\n    tag_50:\n        /* \"@openzeppelin/contracts-upgradeable/token/ERC721/ERC721Upgradeable.sol\":6225:6264  safeTransferFrom(from, to, tokenId, \"\") */\n      tag_129\n        /* \"@openzeppelin/contracts-upgradeable/token/ERC721/ERC721Upgradeable.sol\":6242:6246  from */\n      dup4\n        /* \"@openzeppelin/contracts-upgradeable/token/ERC721/ERC721Upgradeable.sol\":6248:6250  to */\n      dup4\n        /* \"@openzeppelin/contracts-upgradeable/token/ERC721/ERC721Upgradeable.sol\":6252:6259  tokenId */\n      dup4\n        /* \"@openzeppelin/contracts-upgradeable/token/ERC721/ERC721Upgradeable.sol\":6225:6264  safeTransferFrom(from, to, tokenId, \"\") */\n      mload(0x40)\n      dup1\n      0x20\n      add\n      0x40\n      mstore\n      dup1\n      0x00\n      dup2\n      mstore\n      pop\n        /* \"@openzeppelin/contracts-upgradeable/token/ERC721/ERC721Upgradeable.sol\":6225:6241  safeTransferFrom */\n      tag_79\n        /* \"@openzeppelin/contracts-upgradeable/token/ERC721/ERC721Upgradeable.sol\":6225:6264  safeTransferFrom(from, to, tokenId, \"\") */\n      jump\t// in\n    tag_129:\n        /* \"@openzeppelin/contracts-upgradeable/token/ERC721/ERC721Upgradeable.sol\":6139:6271  function safeTransferFrom(address from, address to, uint256 tokenId) public {... */\n      pop\n      pop\n      pop\n      jump\t// out\n        /* \"@openzeppelin/contracts-upgradeable/token/ERC721/ERC721Upgradeable.sol\":3366:3484  function ownerOf(uint256 tokenId) public view virtual returns (address) {... */\n    tag_53:\n        /* \"@openzeppelin/contracts-upgradeable/token/ERC721/ERC721Upgradeable.sol\":3429:3436  address */\n      0x00\n        /* \"@openzeppelin/contracts-upgradeable/token/ERC721/ERC721Upgradeable.sol\":3455:3477  _requireOwned(tokenId) */\n      tag_131\n        /* \"@openzeppelin/contracts-upgradeable/token/ERC721/ERC721Upgradeable.sol\":3469:3476  tokenId */\n      dup3\n        /* \"@openzeppelin/contracts-upgradeable/token/ERC721/ERC721Upgradeable.sol\":3455:3468  _requireOwned */\n      tag_111\n        /* \"@openzeppelin/contracts-upgradeable/token/ERC721/ERC721Upgradeable.sol\":3455:3477  _requireOwned(tokenId) */\n      jump\t// in\n    tag_131:\n        /* \"@openzeppelin/contracts-upgradeable/token/ERC721/ERC721Upgradeable.sol\":3448:3477  return _requireOwned(tokenId) */\n      swap1\n      pop\n        /* \"@openzeppelin/contracts-upgradeable/token/ERC721/ERC721Upgradeable.sol\":3366:3484  function ownerOf(uint256 tokenId) public view virtual returns (address) {... */\n      swap2\n      swap1\n      pop\n      jump\t// out\n        /* \"@openzeppelin/contracts-upgradeable/token/ERC721/ERC721Upgradeable.sol\":3044:3309  function balanceOf(address owner) public view virtual returns (uint256) {... */\n    tag_58:\n        /* \"@openzeppelin/contracts-upgradeable/token/ERC721/ERC721Upgradeable.sol\":3107:3114  uint256 */\n      0x00\n        /* \"@openzeppelin/contracts-upgradeable/token/ERC721/ERC721Upgradeable.sol\":3126:3149  ERC721Storage storage $ */\n      dup1\n        /* \"@openzeppelin/contracts-upgradeable/token/ERC721/ERC721Upgradeable.sol\":3152:3171  _getERC721Storage() */\n      tag_133\n        /* \"@openzeppelin/contracts-upgradeable/token/ERC721/ERC721Upgradeable.sol\":3152:3169  _getERC721Storage */\n      tag_102\n        /* \"@openzeppelin/contracts-upgradeable/token/ERC721/ERC721Upgradeable.sol\":3152:3171  _getERC721Storage() */\n      jump\t// in\n    tag_133:\n        /* \"@openzeppelin/contracts-upgradeable/token/ERC721/ERC721Upgradeable.sol\":3126:3171  ERC721Storage storage $ = _getERC721Storage() */\n      swap1\n      pop\n        /* \"@openzeppelin/contracts-upgradeable/token/ERC721/ERC721Upgradeable.sol\":3202:3203  0 */\n      0x00\n        /* \"@openzeppelin/contracts-upgradeable/token/ERC721/ERC721Upgradeable.sol\":3185:3204  owner == address(0) */\n      0xffffffffffffffffffffffffffffffffffffffff\n      and\n        /* \"@openzeppelin/contracts-upgradeable/token/ERC721/ERC721Upgradeable.sol\":3185:3190  owner */\n      dup4\n        /* \"@openzeppelin/contracts-upgradeable/token/ERC721/ERC721Upgradeable.sol\":3185:3204  owner == address(0) */\n      0xffffffffffffffffffffffffffffffffffffffff\n      and\n      sub\n        /* \"@openzeppelin/contracts-upgradeable/token/ERC721/ERC721Upgradeable.sol\":3181:3268  if (owner == address(0)) {... */\n      tag_134\n      jumpi\n        /* \"@openzeppelin/contracts-upgradeable/token/ERC721/ERC721Upgradeable.sol\":3254:3255  0 */\n      0x00\n        /* \"@openzeppelin/contracts-upgradeable/token/ERC721/ERC721Upgradeable.sol\":3227:3257  ERC721InvalidOwner(address(0)) */\n      mload(0x40)\n      0x89c62b6400000000000000000000000000000000000000000000000000000000\n      dup2\n      mstore\n      0x04\n      add\n      tag_135\n      swap2\n      swap1\n      tag_39\n      jump\t// in\n    tag_135:\n      mload(0x40)\n      dup1\n      swap2\n      sub\n      swap1\n      revert\n        /* \"@openzeppelin/contracts-upgradeable/token/ERC721/ERC721Upgradeable.sol\":3181:3268  if (owner == address(0)) {... */\n    tag_134:\n        /* \"@openzeppelin/contracts-upgradeable/token/ERC721/ERC721Upgradeable.sol\":3284:3285  $ */\n      dup1\n        /* \"@openzeppelin/contracts-upgradeable/token/ERC721/ERC721Upgradeable.sol\":3284:3295  $._balances */\n      0x03\n      add\n        /* \"@openzeppelin/contracts-upgradeable/token/ERC721/ERC721Upgradeable.sol\":3284:3302  $._balances[owner] */\n      0x00\n        /* \"@openzeppelin/contracts-upgradeable/token/ERC721/ERC721Upgradeable.sol\":3296:3301  owner */\n      dup5\n        /* \"@openzeppelin/contracts-upgradeable/token/ERC721/ERC721Upgradeable.sol\":3284:3302  $._balances[owner] */\n      0xffffffffffffffffffffffffffffffffffffffff\n      and\n      0xffffffffffffffffffffffffffffffffffffffff\n      and\n      dup2\n      mstore\n      0x20\n      add\n      swap1\n      dup2\n      mstore\n      0x20\n      add\n      0x00\n      keccak256\n      sload\n        /* \"@openzeppelin/contracts-upgradeable/token/ERC721/ERC721Upgradeable.sol\":3277:3302  return $._balances[owner] */\n      swap2\n      pop\n      pop\n        /* \"@openzeppelin/contracts-upgradeable/token/ERC721/ERC721Upgradeable.sol\":3044:3309  function balanceOf(address owner) public view virtual returns (uint256) {... */\n      swap2\n      swap1\n      pop\n      jump\t// out\n        /* \"@openzeppelin/contracts-upgradeable/access/OwnableUpgradeable.sol\":3155:3256  function renounceOwnership() public virtual onlyOwner {... */\n    tag_62:\n        /* \"@openzeppelin/contracts-upgradeable/access/OwnableUpgradeable.sol\":2334:2347  _checkOwner() */\n      tag_137\n        /* \"@openzeppelin/contracts-upgradeable/access/OwnableUpgradeable.sol\":2334:2345  _checkOwner */\n      tag_138\n        /* \"@openzeppelin/contracts-upgradeable/access/OwnableUpgradeable.sol\":2334:2347  _checkOwner() */\n      jump\t// in\n    tag_137:\n        /* \"@openzeppelin/contracts-upgradeable/access/OwnableUpgradeable.sol\":3219:3249  _transferOwnership(address(0)) */\n      tag_140\n        /* \"@openzeppelin/contracts-upgradeable/access/OwnableUpgradeable.sol\":3246:3247  0 */\n      0x00\n        /* \"@openzeppelin/contracts-upgradeable/access/OwnableUpgradeable.sol\":3219:3237  _transferOwnership */\n      tag_141\n        /* \"@openzeppelin/contracts-upgradeable/access/OwnableUpgradeable.sol\":3219:3249  _transferOwnership(address(0)) */\n      jump\t// in\n    tag_140:\n        /* \"@openzeppelin/contracts-upgradeable/access/OwnableUpgradeable.sol\":3155:3256  function renounceOwnership() public virtual onlyOwner {... */\n      jump\t// out\n        /* \"@openzeppelin/contracts-upgradeable/access/OwnableUpgradeable.sol\":2441:2585  function owner() public view virtual returns (address) {... */\n    tag_64:\n        /* \"@openzeppelin/contracts-upgradeable/access/OwnableUpgradeable.sol\":2487:2494  address */\n      0x00\n        /* \"@openzeppelin/contracts-upgradeable/access/OwnableUpgradeable.sol\":2506:2530  OwnableStorage storage $ */\n      dup1\n        /* \"@openzeppelin/contracts-upgradeable/access/OwnableUpgradeable.sol\":2533:2553  _getOwnableStorage() */\n      tag_143\n        /* \"@openzeppelin/contracts-upgradeable/access/OwnableUpgradeable.sol\":2533:2551  _getOwnableStorage */\n      tag_144\n        /* \"@openzeppelin/contracts-upgradeable/access/OwnableUpgradeable.sol\":2533:2553  _getOwnableStorage() */\n      jump\t// in\n    tag_143:\n        /* \"@openzeppelin/contracts-upgradeable/access/OwnableUpgradeable.sol\":2506:2553  OwnableStorage storage $ = _getOwnableStorage() */\n      swap1\n      pop\n        /* \"@openzeppelin/contracts-upgradeable/access/OwnableUpgradeable.sol\":2570:2571  $ */\n      dup1\n        /* \"@openzeppelin/contracts-upgradeable/access/OwnableUpgradeable.sol\":2570:2578  $._owner */\n      0x00\n      add\n      0x00\n      swap1\n      sload\n      swap1\n      0x0100\n      exp\n      swap1\n      div\n      0xffffffffffffffffffffffffffffffffffffffff\n      and\n        /* \"@openzeppelin/contracts-upgradeable/access/OwnableUpgradeable.sol\":2563:2578  return $._owner */\n      swap2\n      pop\n      pop\n        /* \"@openzeppelin/contracts-upgradeable/access/OwnableUpgradeable.sol\":2441:2585  function owner() public view virtual returns (address) {... */\n      swap1\n      jump\t// out\n        /* \"@openzeppelin/contracts-upgradeable/token/ERC721/ERC721Upgradeable.sol\":3756:3906  function symbol() public view virtual returns (string memory) {... */\n    tag_67:\n        /* \"@openzeppelin/contracts-upgradeable/token/ERC721/ERC721Upgradeable.sol\":3803:3816  string memory */\n      0x60\n        /* \"@openzeppelin/contracts-upgradeable/token/ERC721/ERC721Upgradeable.sol\":3828:3851  ERC721Storage storage $ */\n      0x00\n        /* \"@openzeppelin/contracts-upgradeable/token/ERC721/ERC721Upgradeable.sol\":3854:3873  _getERC721Storage() */\n      tag_146\n        /* \"@openzeppelin/contracts-upgradeable/token/ERC721/ERC721Upgradeable.sol\":3854:3871  _getERC721Storage */\n      tag_102\n        /* \"@openzeppelin/contracts-upgradeable/token/ERC721/ERC721Upgradeable.sol\":3854:3873  _getERC721Storage() */\n      jump\t// in\n    tag_146:\n        /* \"@openzeppelin/contracts-upgradeable/token/ERC721/ERC721Upgradeable.sol\":3828:3873  ERC721Storage storage $ = _getERC721Storage() */\n      swap1\n      pop\n        /* \"@openzeppelin/contracts-upgradeable/token/ERC721/ERC721Upgradeable.sol\":3890:3891  $ */\n      dup1\n        /* \"@openzeppelin/contracts-upgradeable/token/ERC721/ERC721Upgradeable.sol\":3890:3899  $._symbol */\n      0x01\n      add\n        /* \"@openzeppelin/contracts-upgradeable/token/ERC721/ERC721Upgradeable.sol\":3883:3899  return $._symbol */\n      dup1\n      sload\n      tag_147\n      swap1\n      tag_104\n      jump\t// in\n    tag_147:\n      dup1\n      0x1f\n      add\n      0x20\n      dup1\n      swap2\n      div\n      mul\n      0x20\n      add\n      mload(0x40)\n      swap1\n      dup2\n      add\n      0x40\n      mstore\n      dup1\n      swap3\n      swap2\n      swap1\n      dup2\n      dup2\n      mstore\n      0x20\n      add\n      dup3\n      dup1\n      sload\n      tag_148\n      swap1\n      tag_104\n      jump\t// in\n    tag_148:\n      dup1\n      iszero\n      tag_149\n      jumpi\n      dup1\n      0x1f\n      lt\n      tag_150\n      jumpi\n      0x0100\n      dup1\n      dup4\n      sload\n      div\n      mul\n      dup4\n      mstore\n      swap2\n      0x20\n      add\n      swap2\n      jump(tag_149)\n    tag_150:\n      dup3\n      add\n      swap2\n      swap1\n      0x00\n      mstore\n      keccak256(0x00, 0x20)\n      swap1\n    tag_151:\n      dup2\n      sload\n      dup2\n      mstore\n      swap1\n      0x01\n      add\n      swap1\n      0x20\n      add\n      dup1\n      dup4\n      gt\n      tag_151\n      jumpi\n      dup3\n      swap1\n      sub\n      0x1f\n      and\n      dup3\n      add\n      swap2\n    tag_149:\n      pop\n      pop\n      pop\n      pop\n      pop\n      swap2\n      pop\n      pop\n        /* \"@openzeppelin/contracts-upgradeable/token/ERC721/ERC721Upgradeable.sol\":3756:3906  function symbol() public view virtual returns (string memory) {... */\n      swap1\n      jump\t// out\n        /* \"contracts/MyToken.sol\":636:739  function safeMint(address to, uint256 tokenId) public onlyOwner {... */\n    tag_71:\n        /* \"@openzeppelin/contracts-upgradeable/access/OwnableUpgradeable.sol\":2334:2347  _checkOwner() */\n      tag_153\n        /* \"@openzeppelin/contracts-upgradeable/access/OwnableUpgradeable.sol\":2334:2345  _checkOwner */\n      tag_138\n        /* \"@openzeppelin/contracts-upgradeable/access/OwnableUpgradeable.sol\":2334:2347  _checkOwner() */\n      jump\t// in\n    tag_153:\n        /* \"contracts/MyToken.sol\":710:732  _safeMint(to, tokenId) */\n      tag_155\n        /* \"contracts/MyToken.sol\":720:722  to */\n      dup3\n        /* \"contracts/MyToken.sol\":724:731  tokenId */\n      dup3\n        /* \"contracts/MyToken.sol\":710:719  _safeMint */\n      tag_156\n        /* \"contracts/MyToken.sol\":710:732  _safeMint(to, tokenId) */\n      jump\t// in\n    tag_155:\n        /* \"contracts/MyToken.sol\":636:739  function safeMint(address to, uint256 tokenId) public onlyOwner {... */\n      pop\n      pop\n      jump\t// out\n        /* \"@openzeppelin/contracts-upgradeable/token/ERC721/ERC721Upgradeable.sol\":5013:5157  function setApprovalForAll(address operator, bool approved) public virtual {... */\n    tag_75:\n        /* \"@openzeppelin/contracts-upgradeable/token/ERC721/ERC721Upgradeable.sol\":5098:5150  _setApprovalForAll(_msgSender(), operator, approved) */\n      tag_158\n        /* \"@openzeppelin/contracts-upgradeable/token/ERC721/ERC721Upgradeable.sol\":5117:5129  _msgSender() */\n      tag_159\n        /* \"@openzeppelin/contracts-upgradeable/token/ERC721/ERC721Upgradeable.sol\":5117:5127  _msgSender */\n      tag_117\n        /* \"@openzeppelin/contracts-upgradeable/token/ERC721/ERC721Upgradeable.sol\":5117:5129  _msgSender() */\n      jump\t// in\n    tag_159:\n        /* \"@openzeppelin/contracts-upgradeable/token/ERC721/ERC721Upgradeable.sol\":5131:5139  operator */\n      dup4\n        /* \"@openzeppelin/contracts-upgradeable/token/ERC721/ERC721Upgradeable.sol\":5141:5149  approved */\n      dup4\n        /* \"@openzeppelin/contracts-upgradeable/token/ERC721/ERC721Upgradeable.sol\":5098:5116  _setApprovalForAll */\n      tag_160\n        /* \"@openzeppelin/contracts-upgradeable/token/ERC721/ERC721Upgradeable.sol\":5098:5150  _setApprovalForAll(_msgSender(), operator, approved) */\n      jump\t// in\n    tag_158:\n        /* \"@openzeppelin/contracts-upgradeable/token/ERC721/ERC721Upgradeable.sol\":5013:5157  function setApprovalForAll(address operator, bool approved) public virtual {... */\n      pop\n      pop\n      jump\t// out\n        /* \"@openzeppelin/contracts-upgradeable/token/ERC721/ERC721Upgradeable.sol\":6337:6545  function safeTransferFrom(address from, address to, uint256 tokenId, bytes memory data) public virtual {... */\n    tag_79:\n        /* \"@openzeppelin/contracts-upgradeable/token/ERC721/ERC721Upgradeable.sol\":6450:6481  transferFrom(from, to, tokenId) */\n      tag_162\n        /* \"@openzeppelin/contracts-upgradeable/token/ERC721/ERC721Upgradeable.sol\":6463:6467  from */\n      dup5\n        /* \"@openzeppelin/contracts-upgradeable/token/ERC721/ERC721Upgradeable.sol\":6469:6471  to */\n      dup5\n        /* \"@openzeppelin/contracts-upgradeable/token/ERC721/ERC721Upgradeable.sol\":6473:6480  tokenId */\n      dup5\n        /* \"@openzeppelin/contracts-upgradeable/token/ERC721/ERC721Upgradeable.sol\":6450:6462  transferFrom */\n      tag_47\n        /* \"@openzeppelin/contracts-upgradeable/token/ERC721/ERC721Upgradeable.sol\":6450:6481  transferFrom(from, to, tokenId) */\n      jump\t// in\n    tag_162:\n        /* \"@openzeppelin/contracts-upgradeable/token/ERC721/ERC721Upgradeable.sol\":6491:6538  _checkOnERC721Received(from, to, tokenId, data) */\n      tag_163\n        /* \"@openzeppelin/contracts-upgradeable/token/ERC721/ERC721Upgradeable.sol\":6514:6518  from */\n      dup5\n        /* \"@openzeppelin/contracts-upgradeable/token/ERC721/ERC721Upgradeable.sol\":6520:6522  to */\n      dup5\n        /* \"@openzeppelin/contracts-upgradeable/token/ERC721/ERC721Upgradeable.sol\":6524:6531  tokenId */\n      dup5\n        /* \"@openzeppelin/contracts-upgradeable/token/ERC721/ERC721Upgradeable.sol\":6533:6537  data */\n      dup5\n        /* \"@openzeppelin/contracts-upgradeable/token/ERC721/ERC721Upgradeable.sol\":6491:6513  _checkOnERC721Received */\n      tag_164\n        /* \"@openzeppelin/contracts-upgradeable/token/ERC721/ERC721Upgradeable.sol\":6491:6538  _checkOnERC721Received(from, to, tokenId, data) */\n      jump\t// in\n    tag_163:\n        /* \"@openzeppelin/contracts-upgradeable/token/ERC721/ERC721Upgradeable.sol\":6337:6545  function safeTransferFrom(address from, address to, uint256 tokenId, bytes memory data) public virtual {... */\n      pop\n      pop\n      pop\n      pop\n      jump\t// out\n        /* \"contracts/MyToken.sol\":483:630  function initialize(address initialOwner) initializer public {... */\n    tag_82:\n        /* \"@openzeppelin/contracts-upgradeable/proxy/utils/Initializable.sol\":4158:4188  InitializableStorage storage $ */\n      0x00\n        /* \"@openzeppelin/contracts-upgradeable/proxy/utils/Initializable.sol\":4191:4217  _getInitializableStorage() */\n      tag_166\n        /* \"@openzeppelin/contracts-upgradeable/proxy/utils/Initializable.sol\":4191:4215  _getInitializableStorage */\n      tag_167\n        /* \"@openzeppelin/contracts-upgradeable/proxy/utils/Initializable.sol\":4191:4217  _getInitializableStorage() */\n      jump\t// in\n    tag_166:\n        /* \"@openzeppelin/contracts-upgradeable/proxy/utils/Initializable.sol\":4158:4217  InitializableStorage storage $ = _getInitializableStorage() */\n      swap1\n      pop\n        /* \"@openzeppelin/contracts-upgradeable/proxy/utils/Initializable.sol\":4279:4298  bool isTopLevelCall */\n      0x00\n        /* \"@openzeppelin/contracts-upgradeable/proxy/utils/Initializable.sol\":4302:4303  $ */\n      dup2\n        /* \"@openzeppelin/contracts-upgradeable/proxy/utils/Initializable.sol\":4302:4317  $._initializing */\n      0x00\n      add\n      0x08\n      swap1\n      sload\n      swap1\n      0x0100\n      exp\n      swap1\n      div\n      0xff\n      and\n        /* \"@openzeppelin/contracts-upgradeable/proxy/utils/Initializable.sol\":4301:4317  !$._initializing */\n      iszero\n        /* \"@openzeppelin/contracts-upgradeable/proxy/utils/Initializable.sol\":4279:4317  bool isTopLevelCall = !$._initializing */\n      swap1\n      pop\n        /* \"@openzeppelin/contracts-upgradeable/proxy/utils/Initializable.sol\":4327:4345  uint64 initialized */\n      0x00\n        /* \"@openzeppelin/contracts-upgradeable/proxy/utils/Initializable.sol\":4348:4349  $ */\n      dup3\n        /* \"@openzeppelin/contracts-upgradeable/proxy/utils/Initializable.sol\":4348:4362  $._initialized */\n      0x00\n      add\n      0x00\n      swap1\n      sload\n      swap1\n      0x0100\n      exp\n      swap1\n      div\n      0xffffffffffffffff\n      and\n        /* \"@openzeppelin/contracts-upgradeable/proxy/utils/Initializable.sol\":4327:4362  uint64 initialized = $._initialized */\n      swap1\n      pop\n        /* \"@openzeppelin/contracts-upgradeable/proxy/utils/Initializable.sol\":4706:4723  bool initialSetup */\n      0x00\n        /* \"@openzeppelin/contracts-upgradeable/proxy/utils/Initializable.sol\":4741:4742  0 */\n      dup1\n        /* \"@openzeppelin/contracts-upgradeable/proxy/utils/Initializable.sol\":4726:4737  initialized */\n      dup3\n        /* \"@openzeppelin/contracts-upgradeable/proxy/utils/Initializable.sol\":4726:4742  initialized == 0 */\n      0xffffffffffffffff\n      and\n      eq\n        /* \"@openzeppelin/contracts-upgradeable/proxy/utils/Initializable.sol\":4726:4760  initialized == 0 && isTopLevelCall */\n      dup1\n      iszero\n      tag_168\n      jumpi\n      pop\n        /* \"@openzeppelin/contracts-upgradeable/proxy/utils/Initializable.sol\":4746:4760  isTopLevelCall */\n      dup3\n        /* \"@openzeppelin/contracts-upgradeable/proxy/utils/Initializable.sol\":4726:4760  initialized == 0 && isTopLevelCall */\n    tag_168:\n        /* \"@openzeppelin/contracts-upgradeable/proxy/utils/Initializable.sol\":4706:4760  bool initialSetup = initialized == 0 && isTopLevelCall */\n      swap1\n      pop\n        /* \"@openzeppelin/contracts-upgradeable/proxy/utils/Initializable.sol\":4770:4787  bool construction */\n      0x00\n        /* \"@openzeppelin/contracts-upgradeable/proxy/utils/Initializable.sol\":4805:4806  1 */\n      0x01\n        /* \"@openzeppelin/contracts-upgradeable/proxy/utils/Initializable.sol\":4790:4801  initialized */\n      dup4\n        /* \"@openzeppelin/contracts-upgradeable/proxy/utils/Initializable.sol\":4790:4806  initialized == 1 */\n      0xffffffffffffffff\n      and\n      eq\n        /* \"@openzeppelin/contracts-upgradeable/proxy/utils/Initializable.sol\":4790:4840  initialized == 1 && address(this).code.length == 0 */\n      dup1\n      iszero\n      tag_169\n      jumpi\n      pop\n        /* \"@openzeppelin/contracts-upgradeable/proxy/utils/Initializable.sol\":4839:4840  0 */\n      0x00\n        /* \"@openzeppelin/contracts-upgradeable/proxy/utils/Initializable.sol\":4818:4822  this */\n      address\n        /* \"@openzeppelin/contracts-upgradeable/proxy/utils/Initializable.sol\":4810:4835  address(this).code.length */\n      0xffffffffffffffffffffffffffffffffffffffff\n      and\n      extcodesize\n        /* \"@openzeppelin/contracts-upgradeable/proxy/utils/Initializable.sol\":4810:4840  address(this).code.length == 0 */\n      eq\n        /* \"@openzeppelin/contracts-upgradeable/proxy/utils/Initializable.sol\":4790:4840  initialized == 1 && address(this).code.length == 0 */\n    tag_169:\n        /* \"@openzeppelin/contracts-upgradeable/proxy/utils/Initializable.sol\":4770:4840  bool construction = initialized == 1 && address(this).code.length == 0 */\n      swap1\n      pop\n        /* \"@openzeppelin/contracts-upgradeable/proxy/utils/Initializable.sol\":4856:4868  initialSetup */\n      dup2\n        /* \"@openzeppelin/contracts-upgradeable/proxy/utils/Initializable.sol\":4855:4868  !initialSetup */\n      iszero\n        /* \"@openzeppelin/contracts-upgradeable/proxy/utils/Initializable.sol\":4855:4885  !initialSetup && !construction */\n      dup1\n      iszero\n      tag_170\n      jumpi\n      pop\n        /* \"@openzeppelin/contracts-upgradeable/proxy/utils/Initializable.sol\":4873:4885  construction */\n      dup1\n        /* \"@openzeppelin/contracts-upgradeable/proxy/utils/Initializable.sol\":4872:4885  !construction */\n      iszero\n        /* \"@openzeppelin/contracts-upgradeable/proxy/utils/Initializable.sol\":4855:4885  !initialSetup && !construction */\n    tag_170:\n        /* \"@openzeppelin/contracts-upgradeable/proxy/utils/Initializable.sol\":4851:4942  if (!initialSetup && !construction) {... */\n      iszero\n      tag_171\n      jumpi\n        /* \"@openzeppelin/contracts-upgradeable/proxy/utils/Initializable.sol\":4908:4931  InvalidInitialization() */\n      mload(0x40)\n      0xf92ee8a900000000000000000000000000000000000000000000000000000000\n      dup2\n      mstore\n      0x04\n      add\n      mload(0x40)\n      dup1\n      swap2\n      sub\n      swap1\n      revert\n        /* \"@openzeppelin/contracts-upgradeable/proxy/utils/Initializable.sol\":4851:4942  if (!initialSetup && !construction) {... */\n    tag_171:\n        /* \"@openzeppelin/contracts-upgradeable/proxy/utils/Initializable.sol\":4968:4969  1 */\n      0x01\n        /* \"@openzeppelin/contracts-upgradeable/proxy/utils/Initializable.sol\":4951:4952  $ */\n      dup6\n        /* \"@openzeppelin/contracts-upgradeable/proxy/utils/Initializable.sol\":4951:4965  $._initialized */\n      0x00\n      add\n      0x00\n        /* \"@openzeppelin/contracts-upgradeable/proxy/utils/Initializable.sol\":4951:4969  $._initialized = 1 */\n      0x0100\n      exp\n      dup2\n      sload\n      dup2\n      0xffffffffffffffff\n      mul\n      not\n      and\n      swap1\n      dup4\n      0xffffffffffffffff\n      and\n      mul\n      or\n      swap1\n      sstore\n      pop\n        /* \"@openzeppelin/contracts-upgradeable/proxy/utils/Initializable.sol\":4983:4997  isTopLevelCall */\n      dup4\n        /* \"@openzeppelin/contracts-upgradeable/proxy/utils/Initializable.sol\":4979:5046  if (isTopLevelCall) {... */\n      iszero\n      tag_172\n      jumpi\n        /* \"@openzeppelin/contracts-upgradeable/proxy/utils/Initializable.sol\":5031:5035  true */\n      0x01\n        /* \"@openzeppelin/contracts-upgradeable/proxy/utils/Initializable.sol\":5013:5014  $ */\n      dup6\n        /* \"@openzeppelin/contracts-upgradeable/proxy/utils/Initializable.sol\":5013:5028  $._initializing */\n      0x00\n      add\n      0x08\n        /* \"@openzeppelin/contracts-upgradeable/proxy/utils/Initializable.sol\":5013:5035  $._initializing = true */\n      0x0100\n      exp\n      dup2\n      sload\n      dup2\n      0xff\n      mul\n      not\n      and\n      swap1\n      dup4\n      iszero\n      iszero\n      mul\n      or\n      swap1\n      sstore\n      pop\n        /* \"@openzeppelin/contracts-upgradeable/proxy/utils/Initializable.sol\":4979:5046  if (isTopLevelCall) {... */\n    tag_172:\n        /* \"contracts/MyToken.sol\":554:585  __ERC721_init(\"MyToken\", \"MTK\") */\n      tag_174\n      mload(0x40)\n      dup1\n      0x40\n      add\n      0x40\n      mstore\n      dup1\n      0x07\n      dup2\n      mstore\n      0x20\n      add\n      0x4d79546f6b656e00000000000000000000000000000000000000000000000000\n      dup2\n      mstore\n      pop\n      mload(0x40)\n      dup1\n      0x40\n      add\n      0x40\n      mstore\n      dup1\n      0x03\n      dup2\n      mstore\n      0x20\n      add\n      0x4d544b0000000000000000000000000000000000000000000000000000000000\n      dup2\n      mstore\n      pop\n        /* \"contracts/MyToken.sol\":554:567  __ERC721_init */\n      tag_175\n        /* \"contracts/MyToken.sol\":554:585  __ERC721_init(\"MyToken\", \"MTK\") */\n      jump\t// in\n    tag_174:\n        /* \"contracts/MyToken.sol\":595:623  __Ownable_init(initialOwner) */\n      tag_176\n        /* \"contracts/MyToken.sol\":610:622  initialOwner */\n      dup7\n        /* \"contracts/MyToken.sol\":595:609  __Ownable_init */\n      tag_177\n        /* \"contracts/MyToken.sol\":595:623  __Ownable_init(initialOwner) */\n      jump\t// in\n    tag_176:\n        /* \"@openzeppelin/contracts-upgradeable/proxy/utils/Initializable.sol\":5070:5084  isTopLevelCall */\n      dup4\n        /* \"@openzeppelin/contracts-upgradeable/proxy/utils/Initializable.sol\":5066:5167  if (isTopLevelCall) {... */\n      iszero\n      tag_178\n      jumpi\n        /* \"@openzeppelin/contracts-upgradeable/proxy/utils/Initializable.sol\":5118:5123  false */\n      0x00\n        /* \"@openzeppelin/contracts-upgradeable/proxy/utils/Initializable.sol\":5100:5101  $ */\n      dup6\n        /* \"@openzeppelin/contracts-upgradeable/proxy/utils/Initializable.sol\":5100:5115  $._initializing */\n      0x00\n      add\n      0x08\n        /* \"@openzeppelin/contracts-upgradeable/proxy/utils/Initializable.sol\":5100:5123  $._initializing = false */\n      0x0100\n      exp\n      dup2\n      sload\n      dup2\n      0xff\n      mul\n      not\n      and\n      swap1\n      dup4\n      iszero\n      iszero\n      mul\n      or\n      swap1\n      sstore\n      pop\n        /* \"@openzeppelin/contracts-upgradeable/proxy/utils/Initializable.sol\":5142:5156  Initialized(1) */\n      0xc7f505b2f371ae2175ee4913f4499e1f2633a7b5936321eed1cdaeb6115181d2\n        /* \"@openzeppelin/contracts-upgradeable/proxy/utils/Initializable.sol\":5154:5155  1 */\n      0x01\n        /* \"@openzeppelin/contracts-upgradeable/proxy/utils/Initializable.sol\":5142:5156  Initialized(1) */\n      mload(0x40)\n      tag_179\n      swap2\n      swap1\n      tag_180\n      jump\t// in\n    tag_179:\n      mload(0x40)\n      dup1\n      swap2\n      sub\n      swap1\n      log1\n        /* \"@openzeppelin/contracts-upgradeable/proxy/utils/Initializable.sol\":5066:5167  if (isTopLevelCall) {... */\n    tag_178:\n        /* \"@openzeppelin/contracts-upgradeable/proxy/utils/Initializable.sol\":4092:5173  {... */\n      pop\n      pop\n      pop\n      pop\n      pop\n        /* \"contracts/MyToken.sol\":483:630  function initialize(address initialOwner) initializer public {... */\n      pop\n      jump\t// out\n        /* \"@openzeppelin/contracts-upgradeable/token/ERC721/ERC721Upgradeable.sol\":3972:4227  function tokenURI(uint256 tokenId) public view virtual returns (string memory) {... */\n    tag_85:\n        /* \"@openzeppelin/contracts-upgradeable/token/ERC721/ERC721Upgradeable.sol\":4036:4049  string memory */\n      0x60\n        /* \"@openzeppelin/contracts-upgradeable/token/ERC721/ERC721Upgradeable.sol\":4061:4083  _requireOwned(tokenId) */\n      tag_182\n        /* \"@openzeppelin/contracts-upgradeable/token/ERC721/ERC721Upgradeable.sol\":4075:4082  tokenId */\n      dup3\n        /* \"@openzeppelin/contracts-upgradeable/token/ERC721/ERC721Upgradeable.sol\":4061:4074  _requireOwned */\n      tag_111\n        /* \"@openzeppelin/contracts-upgradeable/token/ERC721/ERC721Upgradeable.sol\":4061:4083  _requireOwned(tokenId) */\n      jump\t// in\n    tag_182:\n      pop\n        /* \"@openzeppelin/contracts-upgradeable/token/ERC721/ERC721Upgradeable.sol\":4094:4115  string memory baseURI */\n      0x00\n        /* \"@openzeppelin/contracts-upgradeable/token/ERC721/ERC721Upgradeable.sol\":4118:4128  _baseURI() */\n      tag_183\n        /* \"@openzeppelin/contracts-upgradeable/token/ERC721/ERC721Upgradeable.sol\":4118:4126  _baseURI */\n      tag_184\n        /* \"@openzeppelin/contracts-upgradeable/token/ERC721/ERC721Upgradeable.sol\":4118:4128  _baseURI() */\n      jump\t// in\n    tag_183:\n        /* \"@openzeppelin/contracts-upgradeable/token/ERC721/ERC721Upgradeable.sol\":4094:4128  string memory baseURI = _baseURI() */\n      swap1\n      pop\n        /* \"@openzeppelin/contracts-upgradeable/token/ERC721/ERC721Upgradeable.sol\":4169:4170  0 */\n      0x00\n        /* \"@openzeppelin/contracts-upgradeable/token/ERC721/ERC721Upgradeable.sol\":4151:4158  baseURI */\n      dup2\n        /* \"@openzeppelin/contracts-upgradeable/token/ERC721/ERC721Upgradeable.sol\":4145:4166  bytes(baseURI).length */\n      mload\n        /* \"@openzeppelin/contracts-upgradeable/token/ERC721/ERC721Upgradeable.sol\":4145:4170  bytes(baseURI).length > 0 */\n      gt\n        /* \"@openzeppelin/contracts-upgradeable/token/ERC721/ERC721Upgradeable.sol\":4145:4220  bytes(baseURI).length > 0 ? string.concat(baseURI, tokenId.toString()) : \"\" */\n      tag_185\n      jumpi\n      mload(0x40)\n      dup1\n      0x20\n      add\n      0x40\n      mstore\n      dup1\n      0x00\n      dup2\n      mstore\n      pop\n      jump(tag_186)\n    tag_185:\n        /* \"@openzeppelin/contracts-upgradeable/token/ERC721/ERC721Upgradeable.sol\":4187:4194  baseURI */\n      dup1\n        /* \"@openzeppelin/contracts-upgradeable/token/ERC721/ERC721Upgradeable.sol\":4196:4214  tokenId.toString() */\n      tag_187\n        /* \"@openzeppelin/contracts-upgradeable/token/ERC721/ERC721Upgradeable.sol\":4196:4203  tokenId */\n      dup5\n        /* \"@openzeppelin/contracts-upgradeable/token/ERC721/ERC721Upgradeable.sol\":4196:4212  tokenId.toString */\n      tag_188\n        /* \"@openzeppelin/contracts-upgradeable/token/ERC721/ERC721Upgradeable.sol\":4196:4214  tokenId.toString() */\n      jump\t// in\n    tag_187:\n        /* \"@openzeppelin/contracts-upgradeable/token/ERC721/ERC721Upgradeable.sol\":4173:4215  string.concat(baseURI, tokenId.toString()) */\n      add(0x20, mload(0x40))\n      tag_189\n      swap3\n      swap2\n      swap1\n      tag_190\n      jump\t// in\n    tag_189:\n      mload(0x40)\n      0x20\n      dup2\n      dup4\n      sub\n      sub\n      dup2\n      mstore\n      swap1\n      0x40\n      mstore\n        /* \"@openzeppelin/contracts-upgradeable/token/ERC721/ERC721Upgradeable.sol\":4145:4220  bytes(baseURI).length > 0 ? string.concat(baseURI, tokenId.toString()) : \"\" */\n    tag_186:\n        /* \"@openzeppelin/contracts-upgradeable/token/ERC721/ERC721Upgradeable.sol\":4138:4220  return bytes(baseURI).length > 0 ? string.concat(baseURI, tokenId.toString()) : \"\" */\n      swap2\n      pop\n      pop\n        /* \"@openzeppelin/contracts-upgradeable/token/ERC721/ERC721Upgradeable.sol\":3972:4227  function tokenURI(uint256 tokenId) public view virtual returns (string memory) {... */\n      swap2\n      swap1\n      pop\n      jump\t// out\n        /* \"@openzeppelin/contracts-upgradeable/token/ERC721/ERC721Upgradeable.sol\":5223:5433  function isApprovedForAll(address owner, address operator) public view virtual returns (bool) {... */\n    tag_90:\n        /* \"@openzeppelin/contracts-upgradeable/token/ERC721/ERC721Upgradeable.sol\":5311:5315  bool */\n      0x00\n        /* \"@openzeppelin/contracts-upgradeable/token/ERC721/ERC721Upgradeable.sol\":5327:5350  ERC721Storage storage $ */\n      dup1\n        /* \"@openzeppelin/contracts-upgradeable/token/ERC721/ERC721Upgradeable.sol\":5353:5372  _getERC721Storage() */\n      tag_192\n        /* \"@openzeppelin/contracts-upgradeable/token/ERC721/ERC721Upgradeable.sol\":5353:5370  _getERC721Storage */\n      tag_102\n        /* \"@openzeppelin/contracts-upgradeable/token/ERC721/ERC721Upgradeable.sol\":5353:5372  _getERC721Storage() */\n      jump\t// in\n    tag_192:\n        /* \"@openzeppelin/contracts-upgradeable/token/ERC721/ERC721Upgradeable.sol\":5327:5372  ERC721Storage storage $ = _getERC721Storage() */\n      swap1\n      pop\n        /* \"@openzeppelin/contracts-upgradeable/token/ERC721/ERC721Upgradeable.sol\":5389:5390  $ */\n      dup1\n        /* \"@openzeppelin/contracts-upgradeable/token/ERC721/ERC721Upgradeable.sol\":5389:5409  $._operatorApprovals */\n      0x05\n      add\n        /* \"@openzeppelin/contracts-upgradeable/token/ERC721/ERC721Upgradeable.sol\":5389:5416  $._operatorApprovals[owner] */\n      0x00\n        /* \"@openzeppelin/contracts-upgradeable/token/ERC721/ERC721Upgradeable.sol\":5410:5415  owner */\n      dup6\n        /* \"@openzeppelin/contracts-upgradeable/token/ERC721/ERC721Upgradeable.sol\":5389:5416  $._operatorApprovals[owner] */\n      0xffffffffffffffffffffffffffffffffffffffff\n      and\n      0xffffffffffffffffffffffffffffffffffffffff\n      and\n      dup2\n      mstore\n      0x20\n      add\n      swap1\n      dup2\n      mstore\n      0x20\n      add\n      0x00\n      keccak256\n        /* \"@openzeppelin/contracts-upgradeable/token/ERC721/ERC721Upgradeable.sol\":5389:5426  $._operatorApprovals[owner][operator] */\n      0x00\n        /* \"@openzeppelin/contracts-upgradeable/token/ERC721/ERC721Upgradeable.sol\":5417:5425  operator */\n      dup5\n        /* \"@openzeppelin/contracts-upgradeable/token/ERC721/ERC721Upgradeable.sol\":5389:5426  $._operatorApprovals[owner][operator] */\n      0xffffffffffffffffffffffffffffffffffffffff\n      and\n      0xffffffffffffffffffffffffffffffffffffffff\n      and\n      dup2\n      mstore\n      0x20\n      add\n      swap1\n      dup2\n      mstore\n      0x20\n      add\n      0x00\n      keccak256\n      0x00\n      swap1\n      sload\n      swap1\n      0x0100\n      exp\n      swap1\n      div\n      0xff\n      and\n        /* \"@openzeppelin/contracts-upgradeable/token/ERC721/ERC721Upgradeable.sol\":5382:5426  return $._operatorApprovals[owner][operator] */\n      swap2\n      pop\n      pop\n        /* \"@openzeppelin/contracts-upgradeable/token/ERC721/ERC721Upgradeable.sol\":5223:5433  function isApprovedForAll(address owner, address operator) public view virtual returns (bool) {... */\n      swap3\n      swap2\n      pop\n      pop\n      jump\t// out\n        /* \"@openzeppelin/contracts-upgradeable/access/OwnableUpgradeable.sol\":3405:3620  function transferOwnership(address newOwner) public virtual onlyOwner {... */\n    tag_94:\n        /* \"@openzeppelin/contracts-upgradeable/access/OwnableUpgradeable.sol\":2334:2347  _checkOwner() */\n      tag_194\n        /* \"@openzeppelin/contracts-upgradeable/access/OwnableUpgradeable.sol\":2334:2345  _checkOwner */\n      tag_138\n        /* \"@openzeppelin/contracts-upgradeable/access/OwnableUpgradeable.sol\":2334:2347  _checkOwner() */\n      jump\t// in\n    tag_194:\n        /* \"@openzeppelin/contracts-upgradeable/access/OwnableUpgradeable.sol\":3509:3510  0 */\n      0x00\n        /* \"@openzeppelin/contracts-upgradeable/access/OwnableUpgradeable.sol\":3489:3511  newOwner == address(0) */\n      0xffffffffffffffffffffffffffffffffffffffff\n      and\n        /* \"@openzeppelin/contracts-upgradeable/access/OwnableUpgradeable.sol\":3489:3497  newOwner */\n      dup2\n        /* \"@openzeppelin/contracts-upgradeable/access/OwnableUpgradeable.sol\":3489:3511  newOwner == address(0) */\n      0xffffffffffffffffffffffffffffffffffffffff\n      and\n      sub\n        /* \"@openzeppelin/contracts-upgradeable/access/OwnableUpgradeable.sol\":3485:3576  if (newOwner == address(0)) {... */\n      tag_196\n      jumpi\n        /* \"@openzeppelin/contracts-upgradeable/access/OwnableUpgradeable.sol\":3562:3563  0 */\n      0x00\n        /* \"@openzeppelin/contracts-upgradeable/access/OwnableUpgradeable.sol\":3534:3565  OwnableInvalidOwner(address(0)) */\n      mload(0x40)\n      0x1e4fbdf700000000000000000000000000000000000000000000000000000000\n      dup2\n      mstore\n      0x04\n      add\n      tag_197\n      swap2\n      swap1\n      tag_39\n      jump\t// in\n    tag_197:\n      mload(0x40)\n      dup1\n      swap2\n      sub\n      swap1\n      revert\n        /* \"@openzeppelin/contracts-upgradeable/access/OwnableUpgradeable.sol\":3485:3576  if (newOwner == address(0)) {... */\n    tag_196:\n        /* \"@openzeppelin/contracts-upgradeable/access/OwnableUpgradeable.sol\":3585:3613  _transferOwnership(newOwner) */\n      tag_198\n        /* \"@openzeppelin/contracts-upgradeable/access/OwnableUpgradeable.sol\":3604:3612  newOwner */\n      dup2\n        /* \"@openzeppelin/contracts-upgradeable/access/OwnableUpgradeable.sol\":3585:3603  _transferOwnership */\n      tag_141\n        /* \"@openzeppelin/contracts-upgradeable/access/OwnableUpgradeable.sol\":3585:3613  _transferOwnership(newOwner) */\n      jump\t// in\n    tag_198:\n        /* \"@openzeppelin/contracts-upgradeable/access/OwnableUpgradeable.sol\":3405:3620  function transferOwnership(address newOwner) public virtual onlyOwner {... */\n      pop\n      jump\t// out\n        /* \"@openzeppelin/contracts-upgradeable/utils/introspection/ERC165Upgradeable.sol\":1034:1180  function supportsInterface(bytes4 interfaceId) public view virtual returns (bool) {... */\n    tag_99:\n        /* \"@openzeppelin/contracts-upgradeable/utils/introspection/ERC165Upgradeable.sol\":1110:1114  bool */\n      0x00\n        /* \"@openzeppelin/contracts-upgradeable/utils/introspection/ERC165Upgradeable.sol\":1148:1173  type(IERC165).interfaceId */\n      0x01ffc9a700000000000000000000000000000000000000000000000000000000\n        /* \"@openzeppelin/contracts-upgradeable/utils/introspection/ERC165Upgradeable.sol\":1133:1173  interfaceId == type(IERC165).interfaceId */\n      not(0xffffffffffffffffffffffffffffffffffffffffffffffffffffffff)\n      and\n        /* \"@openzeppelin/contracts-upgradeable/utils/introspection/ERC165Upgradeable.sol\":1133:1144  interfaceId */\n      dup3\n        /* \"@openzeppelin/contracts-upgradeable/utils/introspection/ERC165Upgradeable.sol\":1133:1173  interfaceId == type(IERC165).interfaceId */\n      not(0xffffffffffffffffffffffffffffffffffffffffffffffffffffffff)\n      and\n      eq\n        /* \"@openzeppelin/contracts-upgradeable/utils/introspection/ERC165Upgradeable.sol\":1126:1173  return interfaceId == type(IERC165).interfaceId */\n      swap1\n      pop\n        /* \"@openzeppelin/contracts-upgradeable/utils/introspection/ERC165Upgradeable.sol\":1034:1180  function supportsInterface(bytes4 interfaceId) public view virtual returns (bool) {... */\n      swap2\n      swap1\n      pop\n      jump\t// out\n        /* \"@openzeppelin/contracts-upgradeable/token/ERC721/ERC721Upgradeable.sol\":1958:2114  function _getERC721Storage() private pure returns (ERC721Storage storage $) {... */\n    tag_102:\n        /* \"@openzeppelin/contracts-upgradeable/token/ERC721/ERC721Upgradeable.sol\":2009:2032  ERC721Storage storage $ */\n      0x00\n        /* \"@openzeppelin/contracts-upgradeable/token/ERC721/ERC721Upgradeable.sol\":2077:2098  ERC721StorageLocation */\n      0x80bb2b638cc20bc4d0a60d66940f3ab4a00c1d7b313497ca82fb0b4ab0079300\n        /* \"@openzeppelin/contracts-upgradeable/token/ERC721/ERC721Upgradeable.sol\":2067:2098  $.slot := ERC721StorageLocation */\n      swap1\n      pop\n        /* \"@openzeppelin/contracts-upgradeable/token/ERC721/ERC721Upgradeable.sol\":1958:2114  function _getERC721Storage() private pure returns (ERC721Storage storage $) {... */\n      swap1\n      jump\t// out\n        /* \"@openzeppelin/contracts-upgradeable/token/ERC721/ERC721Upgradeable.sol\":17836:18077  function _requireOwned(uint256 tokenId) internal view returns (address) {... */\n    tag_111:\n        /* \"@openzeppelin/contracts-upgradeable/token/ERC721/ERC721Upgradeable.sol\":17899:17906  address */\n      0x00\n        /* \"@openzeppelin/contracts-upgradeable/token/ERC721/ERC721Upgradeable.sol\":17918:17931  address owner */\n      dup1\n        /* \"@openzeppelin/contracts-upgradeable/token/ERC721/ERC721Upgradeable.sol\":17934:17951  _ownerOf(tokenId) */\n      tag_202\n        /* \"@openzeppelin/contracts-upgradeable/token/ERC721/ERC721Upgradeable.sol\":17943:17950  tokenId */\n      dup4\n        /* \"@openzeppelin/contracts-upgradeable/token/ERC721/ERC721Upgradeable.sol\":17934:17942  _ownerOf */\n      tag_203\n        /* \"@openzeppelin/contracts-upgradeable/token/ERC721/ERC721Upgradeable.sol\":17934:17951  _ownerOf(tokenId) */\n      jump\t// in\n    tag_202:\n        /* \"@openzeppelin/contracts-upgradeable/token/ERC721/ERC721Upgradeable.sol\":17918:17951  address owner = _ownerOf(tokenId) */\n      swap1\n      pop\n        /* \"@openzeppelin/contracts-upgradeable/token/ERC721/ERC721Upgradeable.sol\":17982:17983  0 */\n      0x00\n        /* \"@openzeppelin/contracts-upgradeable/token/ERC721/ERC721Upgradeable.sol\":17965:17984  owner == address(0) */\n      0xffffffffffffffffffffffffffffffffffffffff\n      and\n        /* \"@openzeppelin/contracts-upgradeable/token/ERC721/ERC721Upgradeable.sol\":17965:17970  owner */\n      dup2\n        /* \"@openzeppelin/contracts-upgradeable/token/ERC721/ERC721Upgradeable.sol\":17965:17984  owner == address(0) */\n      0xffffffffffffffffffffffffffffffffffffffff\n      and\n      sub\n        /* \"@openzeppelin/contracts-upgradeable/token/ERC721/ERC721Upgradeable.sol\":17961:18049  if (owner == address(0)) {... */\n      tag_204\n      jumpi\n        /* \"@openzeppelin/contracts-upgradeable/token/ERC721/ERC721Upgradeable.sol\":18030:18037  tokenId */\n      dup3\n        /* \"@openzeppelin/contracts-upgradeable/token/ERC721/ERC721Upgradeable.sol\":18007:18038  ERC721NonexistentToken(tokenId) */\n      mload(0x40)\n      0x7e27328900000000000000000000000000000000000000000000000000000000\n      dup2\n      mstore\n      0x04\n      add\n      tag_205\n      swap2\n      swap1\n      tag_60\n      jump\t// in\n    tag_205:\n      mload(0x40)\n      dup1\n      swap2\n      sub\n      swap1\n      revert\n        /* \"@openzeppelin/contracts-upgradeable/token/ERC721/ERC721Upgradeable.sol\":17961:18049  if (owner == address(0)) {... */\n    tag_204:\n        /* \"@openzeppelin/contracts-upgradeable/token/ERC721/ERC721Upgradeable.sol\":18065:18070  owner */\n      dup1\n        /* \"@openzeppelin/contracts-upgradeable/token/ERC721/ERC721Upgradeable.sol\":18058:18070  return owner */\n      swap2\n      pop\n      pop\n        /* \"@openzeppelin/contracts-upgradeable/token/ERC721/ERC721Upgradeable.sol\":17836:18077  function _requireOwned(uint256 tokenId) internal view returns (address) {... */\n      swap2\n      swap1\n      pop\n      jump\t// out\n        /* \"@openzeppelin/contracts-upgradeable/token/ERC721/ERC721Upgradeable.sol\":7347:7531  function _getApproved(uint256 tokenId) internal view virtual returns (address) {... */\n    tag_113:\n        /* \"@openzeppelin/contracts-upgradeable/token/ERC721/ERC721Upgradeable.sol\":7417:7424  address */\n      0x00\n        /* \"@openzeppelin/contracts-upgradeable/token/ERC721/ERC721Upgradeable.sol\":7436:7459  ERC721Storage storage $ */\n      dup1\n        /* \"@openzeppelin/contracts-upgradeable/token/ERC721/ERC721Upgradeable.sol\":7462:7481  _getERC721Storage() */\n      tag_207\n        /* \"@openzeppelin/contracts-upgradeable/token/ERC721/ERC721Upgradeable.sol\":7462:7479  _getERC721Storage */\n      tag_102\n        /* \"@openzeppelin/contracts-upgradeable/token/ERC721/ERC721Upgradeable.sol\":7462:7481  _getERC721Storage() */\n      jump\t// in\n    tag_207:\n        /* \"@openzeppelin/contracts-upgradeable/token/ERC721/ERC721Upgradeable.sol\":7436:7481  ERC721Storage storage $ = _getERC721Storage() */\n      swap1\n      pop\n        /* \"@openzeppelin/contracts-upgradeable/token/ERC721/ERC721Upgradeable.sol\":7498:7499  $ */\n      dup1\n        /* \"@openzeppelin/contracts-upgradeable/token/ERC721/ERC721Upgradeable.sol\":7498:7515  $._tokenApprovals */\n      0x04\n      add\n        /* \"@openzeppelin/contracts-upgradeable/token/ERC721/ERC721Upgradeable.sol\":7498:7524  $._tokenApprovals[tokenId] */\n      0x00\n        /* \"@openzeppelin/contracts-upgradeable/token/ERC721/ERC721Upgradeable.sol\":7516:7523  tokenId */\n      dup5\n        /* \"@openzeppelin/contracts-upgradeable/token/ERC721/ERC721Upgradeable.sol\":7498:7524  $._tokenApprovals[tokenId] */\n      dup2\n      mstore\n      0x20\n      add\n      swap1\n      dup2\n      mstore\n      0x20\n      add\n      0x00\n      keccak256\n      0x00\n      swap1\n      sload\n      swap1\n      0x0100\n      exp\n      swap1\n      div\n      0xffffffffffffffffffffffffffffffffffffffff\n      and\n        /* \"@openzeppelin/contracts-upgradeable/token/ERC721/ERC721Upgradeable.sol\":7491:7524  return $._tokenApprovals[tokenId] */\n      swap2\n      pop\n      pop\n        /* \"@openzeppelin/contracts-upgradeable/token/ERC721/ERC721Upgradeable.sol\":7347:7531  function _getApproved(uint256 tokenId) internal view virtual returns (address) {... */\n      swap2\n      swap1\n      pop\n      jump\t// out\n        /* \"@openzeppelin/contracts-upgradeable/utils/ContextUpgradeable.sol\":887:983  function _msgSender() internal view virtual returns (address) {... */\n    tag_117:\n        /* \"@openzeppelin/contracts-upgradeable/utils/ContextUpgradeable.sol\":940:947  address */\n      0x00\n        /* \"@openzeppelin/contracts-upgradeable/utils/ContextUpgradeable.sol\":966:976  msg.sender */\n      caller\n        /* \"@openzeppelin/contracts-upgradeable/utils/ContextUpgradeable.sol\":959:976  return msg.sender */\n      swap1\n      pop\n        /* \"@openzeppelin/contracts-upgradeable/utils/ContextUpgradeable.sol\":887:983  function _msgSender() internal view virtual returns (address) {... */\n      swap1\n      jump\t// out\n        /* \"@openzeppelin/contracts-upgradeable/token/ERC721/ERC721Upgradeable.sol\":16002:16122  function _approve(address to, uint256 tokenId, address auth) internal {... */\n    tag_118:\n        /* \"@openzeppelin/contracts-upgradeable/token/ERC721/ERC721Upgradeable.sol\":16082:16115  _approve(to, tokenId, auth, true) */\n      tag_210\n        /* \"@openzeppelin/contracts-upgradeable/token/ERC721/ERC721Upgradeable.sol\":16091:16093  to */\n      dup4\n        /* \"@openzeppelin/contracts-upgradeable/token/ERC721/ERC721Upgradeable.sol\":16095:16102  tokenId */\n      dup4\n        /* \"@openzeppelin/contracts-upgradeable/token/ERC721/ERC721Upgradeable.sol\":16104:16108  auth */\n      dup4\n        /* \"@openzeppelin/contracts-upgradeable/token/ERC721/ERC721Upgradeable.sol\":16110:16114  true */\n      0x01\n        /* \"@openzeppelin/contracts-upgradeable/token/ERC721/ERC721Upgradeable.sol\":16082:16090  _approve */\n      tag_211\n        /* \"@openzeppelin/contracts-upgradeable/token/ERC721/ERC721Upgradeable.sol\":16082:16115  _approve(to, tokenId, auth, true) */\n      jump\t// in\n    tag_210:\n        /* \"@openzeppelin/contracts-upgradeable/token/ERC721/ERC721Upgradeable.sol\":16002:16122  function _approve(address to, uint256 tokenId, address auth) internal {... */\n      pop\n      pop\n      pop\n      jump\t// out\n        /* \"@openzeppelin/contracts-upgradeable/token/ERC721/ERC721Upgradeable.sol\":10361:11217  function _update(address to, uint256 tokenId, address auth) internal virtual returns (address) {... */\n    tag_124:\n        /* \"@openzeppelin/contracts-upgradeable/token/ERC721/ERC721Upgradeable.sol\":10447:10454  address */\n      0x00\n        /* \"@openzeppelin/contracts-upgradeable/token/ERC721/ERC721Upgradeable.sol\":10466:10489  ERC721Storage storage $ */\n      dup1\n        /* \"@openzeppelin/contracts-upgradeable/token/ERC721/ERC721Upgradeable.sol\":10492:10511  _getERC721Storage() */\n      tag_213\n        /* \"@openzeppelin/contracts-upgradeable/token/ERC721/ERC721Upgradeable.sol\":10492:10509  _getERC721Storage */\n      tag_102\n        /* \"@openzeppelin/contracts-upgradeable/token/ERC721/ERC721Upgradeable.sol\":10492:10511  _getERC721Storage() */\n      jump\t// in\n    tag_213:\n        /* \"@openzeppelin/contracts-upgradeable/token/ERC721/ERC721Upgradeable.sol\":10466:10511  ERC721Storage storage $ = _getERC721Storage() */\n      swap1\n      pop\n        /* \"@openzeppelin/contracts-upgradeable/token/ERC721/ERC721Upgradeable.sol\":10521:10533  address from */\n      0x00\n        /* \"@openzeppelin/contracts-upgradeable/token/ERC721/ERC721Upgradeable.sol\":10536:10553  _ownerOf(tokenId) */\n      tag_214\n        /* \"@openzeppelin/contracts-upgradeable/token/ERC721/ERC721Upgradeable.sol\":10545:10552  tokenId */\n      dup6\n        /* \"@openzeppelin/contracts-upgradeable/token/ERC721/ERC721Upgradeable.sol\":10536:10544  _ownerOf */\n      tag_203\n        /* \"@openzeppelin/contracts-upgradeable/token/ERC721/ERC721Upgradeable.sol\":10536:10553  _ownerOf(tokenId) */\n      jump\t// in\n    tag_214:\n        /* \"@openzeppelin/contracts-upgradeable/token/ERC721/ERC721Upgradeable.sol\":10521:10553  address from = _ownerOf(tokenId) */\n      swap1\n      pop\n        /* \"@openzeppelin/contracts-upgradeable/token/ERC721/ERC721Upgradeable.sol\":10629:10630  0 */\n      0x00\n        /* \"@openzeppelin/contracts-upgradeable/token/ERC721/ERC721Upgradeable.sol\":10613:10631  auth != address(0) */\n      0xffffffffffffffffffffffffffffffffffffffff\n      and\n        /* \"@openzeppelin/contracts-upgradeable/token/ERC721/ERC721Upgradeable.sol\":10613:10617  auth */\n      dup5\n        /* \"@openzeppelin/contracts-upgradeable/token/ERC721/ERC721Upgradeable.sol\":10613:10631  auth != address(0) */\n      0xffffffffffffffffffffffffffffffffffffffff\n      and\n      eq\n        /* \"@openzeppelin/contracts-upgradeable/token/ERC721/ERC721Upgradeable.sol\":10609:10695  if (auth != address(0)) {... */\n      tag_215\n      jumpi\n        /* \"@openzeppelin/contracts-upgradeable/token/ERC721/ERC721Upgradeable.sol\":10647:10684  _checkAuthorized(from, auth, tokenId) */\n      tag_216\n        /* \"@openzeppelin/contracts-upgradeable/token/ERC721/ERC721Upgradeable.sol\":10664:10668  from */\n      dup2\n        /* \"@openzeppelin/contracts-upgradeable/token/ERC721/ERC721Upgradeable.sol\":10670:10674  auth */\n      dup6\n        /* \"@openzeppelin/contracts-upgradeable/token/ERC721/ERC721Upgradeable.sol\":10676:10683  tokenId */\n      dup8\n        /* \"@openzeppelin/contracts-upgradeable/token/ERC721/ERC721Upgradeable.sol\":10647:10663  _checkAuthorized */\n      tag_217\n        /* \"@openzeppelin/contracts-upgradeable/token/ERC721/ERC721Upgradeable.sol\":10647:10684  _checkAuthorized(from, auth, tokenId) */\n      jump\t// in\n    tag_216:\n        /* \"@openzeppelin/contracts-upgradeable/token/ERC721/ERC721Upgradeable.sol\":10609:10695  if (auth != address(0)) {... */\n    tag_215:\n        /* \"@openzeppelin/contracts-upgradeable/token/ERC721/ERC721Upgradeable.sol\":10755:10756  0 */\n      0x00\n        /* \"@openzeppelin/contracts-upgradeable/token/ERC721/ERC721Upgradeable.sol\":10739:10757  from != address(0) */\n      0xffffffffffffffffffffffffffffffffffffffff\n      and\n        /* \"@openzeppelin/contracts-upgradeable/token/ERC721/ERC721Upgradeable.sol\":10739:10743  from */\n      dup2\n        /* \"@openzeppelin/contracts-upgradeable/token/ERC721/ERC721Upgradeable.sol\":10739:10757  from != address(0) */\n      0xffffffffffffffffffffffffffffffffffffffff\n      and\n      eq\n        /* \"@openzeppelin/contracts-upgradeable/token/ERC721/ERC721Upgradeable.sol\":10735:10993  if (from != address(0)) {... */\n      tag_218\n      jumpi\n        /* \"@openzeppelin/contracts-upgradeable/token/ERC721/ERC721Upgradeable.sol\":10855:10903  _approve(address(0), tokenId, address(0), false) */\n      tag_219\n        /* \"@openzeppelin/contracts-upgradeable/token/ERC721/ERC721Upgradeable.sol\":10872:10873  0 */\n      0x00\n        /* \"@openzeppelin/contracts-upgradeable/token/ERC721/ERC721Upgradeable.sol\":10876:10883  tokenId */\n      dup7\n        /* \"@openzeppelin/contracts-upgradeable/token/ERC721/ERC721Upgradeable.sol\":10893:10894  0 */\n      0x00\n        /* \"@openzeppelin/contracts-upgradeable/token/ERC721/ERC721Upgradeable.sol\":10897:10902  false */\n      dup1\n        /* \"@openzeppelin/contracts-upgradeable/token/ERC721/ERC721Upgradeable.sol\":10855:10863  _approve */\n      tag_211\n        /* \"@openzeppelin/contracts-upgradeable/token/ERC721/ERC721Upgradeable.sol\":10855:10903  _approve(address(0), tokenId, address(0), false) */\n      jump\t// in\n    tag_219:\n        /* \"@openzeppelin/contracts-upgradeable/token/ERC721/ERC721Upgradeable.sol\":10967:10968  1 */\n      0x01\n        /* \"@openzeppelin/contracts-upgradeable/token/ERC721/ERC721Upgradeable.sol\":10946:10947  $ */\n      dup3\n        /* \"@openzeppelin/contracts-upgradeable/token/ERC721/ERC721Upgradeable.sol\":10946:10957  $._balances */\n      0x03\n      add\n        /* \"@openzeppelin/contracts-upgradeable/token/ERC721/ERC721Upgradeable.sol\":10946:10963  $._balances[from] */\n      0x00\n        /* \"@openzeppelin/contracts-upgradeable/token/ERC721/ERC721Upgradeable.sol\":10958:10962  from */\n      dup4\n        /* \"@openzeppelin/contracts-upgradeable/token/ERC721/ERC721Upgradeable.sol\":10946:10963  $._balances[from] */\n      0xffffffffffffffffffffffffffffffffffffffff\n      and\n      0xffffffffffffffffffffffffffffffffffffffff\n      and\n      dup2\n      mstore\n      0x20\n      add\n      swap1\n      dup2\n      mstore\n      0x20\n      add\n      0x00\n      keccak256\n      0x00\n        /* \"@openzeppelin/contracts-upgradeable/token/ERC721/ERC721Upgradeable.sol\":10946:10968  $._balances[from] -= 1 */\n      dup3\n      dup3\n      sload\n      sub\n      swap3\n      pop\n      pop\n      dup2\n      swap1\n      sstore\n      pop\n        /* \"@openzeppelin/contracts-upgradeable/token/ERC721/ERC721Upgradeable.sol\":10735:10993  if (from != address(0)) {... */\n    tag_218:\n        /* \"@openzeppelin/contracts-upgradeable/token/ERC721/ERC721Upgradeable.sol\":11021:11022  0 */\n      0x00\n        /* \"@openzeppelin/contracts-upgradeable/token/ERC721/ERC721Upgradeable.sol\":11007:11023  to != address(0) */\n      0xffffffffffffffffffffffffffffffffffffffff\n      and\n        /* \"@openzeppelin/contracts-upgradeable/token/ERC721/ERC721Upgradeable.sol\":11007:11009  to */\n      dup7\n        /* \"@openzeppelin/contracts-upgradeable/token/ERC721/ERC721Upgradeable.sol\":11007:11023  to != address(0) */\n      0xffffffffffffffffffffffffffffffffffffffff\n      and\n      eq\n        /* \"@openzeppelin/contracts-upgradeable/token/ERC721/ERC721Upgradeable.sol\":11003:11112  if (to != address(0)) {... */\n      tag_220\n      jumpi\n        /* \"@openzeppelin/contracts-upgradeable/token/ERC721/ERC721Upgradeable.sol\":11086:11087  1 */\n      0x01\n        /* \"@openzeppelin/contracts-upgradeable/token/ERC721/ERC721Upgradeable.sol\":11067:11068  $ */\n      dup3\n        /* \"@openzeppelin/contracts-upgradeable/token/ERC721/ERC721Upgradeable.sol\":11067:11078  $._balances */\n      0x03\n      add\n        /* \"@openzeppelin/contracts-upgradeable/token/ERC721/ERC721Upgradeable.sol\":11067:11082  $._balances[to] */\n      0x00\n        /* \"@openzeppelin/contracts-upgradeable/token/ERC721/ERC721Upgradeable.sol\":11079:11081  to */\n      dup9\n        /* \"@openzeppelin/contracts-upgradeable/token/ERC721/ERC721Upgradeable.sol\":11067:11082  $._balances[to] */\n      0xffffffffffffffffffffffffffffffffffffffff\n      and\n      0xffffffffffffffffffffffffffffffffffffffff\n      and\n      dup2\n      mstore\n      0x20\n      add\n      swap1\n      dup2\n      mstore\n      0x20\n      add\n      0x00\n      keccak256\n      0x00\n        /* \"@openzeppelin/contracts-upgradeable/token/ERC721/ERC721Upgradeable.sol\":11067:11087  $._balances[to] += 1 */\n      dup3\n      dup3\n      sload\n      add\n      swap3\n      pop\n      pop\n      dup2\n      swap1\n      sstore\n      pop\n        /* \"@openzeppelin/contracts-upgradeable/token/ERC721/ERC721Upgradeable.sol\":11003:11112  if (to != address(0)) {... */\n    tag_220:\n        /* \"@openzeppelin/contracts-upgradeable/token/ERC721/ERC721Upgradeable.sol\":11143:11145  to */\n      dup6\n        /* \"@openzeppelin/contracts-upgradeable/token/ERC721/ERC721Upgradeable.sol\":11122:11123  $ */\n      dup3\n        /* \"@openzeppelin/contracts-upgradeable/token/ERC721/ERC721Upgradeable.sol\":11122:11131  $._owners */\n      0x02\n      add\n        /* \"@openzeppelin/contracts-upgradeable/token/ERC721/ERC721Upgradeable.sol\":11122:11140  $._owners[tokenId] */\n      0x00\n        /* \"@openzeppelin/contracts-upgradeable/token/ERC721/ERC721Upgradeable.sol\":11132:11139  tokenId */\n      dup8\n        /* \"@openzeppelin/contracts-upgradeable/token/ERC721/ERC721Upgradeable.sol\":11122:11140  $._owners[tokenId] */\n      dup2\n      mstore\n      0x20\n      add\n      swap1\n      dup2\n      mstore\n      0x20\n      add\n      0x00\n      keccak256\n      0x00\n        /* \"@openzeppelin/contracts-upgradeable/token/ERC721/ERC721Upgradeable.sol\":11122:11145  $._owners[tokenId] = to */\n      0x0100\n      exp\n      dup2\n      sload\n      dup2\n      0xffffffffffffffffffffffffffffffffffffffff\n      mul\n      not\n      and\n      swap1\n      dup4\n      0xffffffffffffffffffffffffffffffffffffffff\n      and\n      mul\n      or\n      swap1\n      sstore\n      pop\n        /* \"@openzeppelin/contracts-upgradeable/token/ERC721/ERC721Upgradeable.sol\":11180:11187  tokenId */\n      dup5\n        /* \"@openzeppelin/contracts-upgradeable/token/ERC721/ERC721Upgradeable.sol\":11176:11178  to */\n      dup7\n        /* \"@openzeppelin/contracts-upgradeable/token/ERC721/ERC721Upgradeable.sol\":11161:11188  Transfer(from, to, tokenId) */\n      0xffffffffffffffffffffffffffffffffffffffff\n      and\n        /* \"@openzeppelin/contracts-upgradeable/token/ERC721/ERC721Upgradeable.sol\":11170:11174  from */\n      dup3\n        /* \"@openzeppelin/contracts-upgradeable/token/ERC721/ERC721Upgradeable.sol\":11161:11188  Transfer(from, to, tokenId) */\n      0xffffffffffffffffffffffffffffffffffffffff\n      and\n      0xddf252ad1be2c89b69c2b068fc378daa952ba7f163c4a11628f55a4df523b3ef\n      mload(0x40)\n      mload(0x40)\n      dup1\n      swap2\n      sub\n      swap1\n      log4\n        /* \"@openzeppelin/contracts-upgradeable/token/ERC721/ERC721Upgradeable.sol\":11206:11210  from */\n      dup1\n        /* \"@openzeppelin/contracts-upgradeable/token/ERC721/ERC721Upgradeable.sol\":11199:11210  return from */\n      swap3\n      pop\n      pop\n      pop\n        /* \"@openzeppelin/contracts-upgradeable/token/ERC721/ERC721Upgradeable.sol\":10361:11217  function _update(address to, uint256 tokenId, address auth) internal virtual returns (address) {... */\n      swap4\n      swap3\n      pop\n      pop\n      pop\n      jump\t// out\n        /* \"@openzeppelin/contracts-upgradeable/access/OwnableUpgradeable.sol\":2658:2820  function _checkOwner() internal view virtual {... */\n    tag_138:\n        /* \"@openzeppelin/contracts-upgradeable/access/OwnableUpgradeable.sol\":2728:2740  _msgSender() */\n      tag_222\n        /* \"@openzeppelin/contracts-upgradeable/access/OwnableUpgradeable.sol\":2728:2738  _msgSender */\n      tag_117\n        /* \"@openzeppelin/contracts-upgradeable/access/OwnableUpgradeable.sol\":2728:2740  _msgSender() */\n      jump\t// in\n    tag_222:\n        /* \"@openzeppelin/contracts-upgradeable/access/OwnableUpgradeable.sol\":2717:2740  owner() != _msgSender() */\n      0xffffffffffffffffffffffffffffffffffffffff\n      and\n        /* \"@openzeppelin/contracts-upgradeable/access/OwnableUpgradeable.sol\":2717:2724  owner() */\n      tag_223\n        /* \"@openzeppelin/contracts-upgradeable/access/OwnableUpgradeable.sol\":2717:2722  owner */\n      tag_64\n        /* \"@openzeppelin/contracts-upgradeable/access/OwnableUpgradeable.sol\":2717:2724  owner() */\n      jump\t// in\n    tag_223:\n        /* \"@openzeppelin/contracts-upgradeable/access/OwnableUpgradeable.sol\":2717:2740  owner() != _msgSender() */\n      0xffffffffffffffffffffffffffffffffffffffff\n      and\n      eq\n        /* \"@openzeppelin/contracts-upgradeable/access/OwnableUpgradeable.sol\":2713:2814  if (owner() != _msgSender()) {... */\n      tag_224\n      jumpi\n        /* \"@openzeppelin/contracts-upgradeable/access/OwnableUpgradeable.sol\":2790:2802  _msgSender() */\n      tag_225\n        /* \"@openzeppelin/contracts-upgradeable/access/OwnableUpgradeable.sol\":2790:2800  _msgSender */\n      tag_117\n        /* \"@openzeppelin/contracts-upgradeable/access/OwnableUpgradeable.sol\":2790:2802  _msgSender() */\n      jump\t// in\n    tag_225:\n        /* \"@openzeppelin/contracts-upgradeable/access/OwnableUpgradeable.sol\":2763:2803  OwnableUnauthorizedAccount(_msgSender()) */\n      mload(0x40)\n      0x118cdaa700000000000000000000000000000000000000000000000000000000\n      dup2\n      mstore\n      0x04\n      add\n      tag_226\n      swap2\n      swap1\n      tag_39\n      jump\t// in\n    tag_226:\n      mload(0x40)\n      dup1\n      swap2\n      sub\n      swap1\n      revert\n        /* \"@openzeppelin/contracts-upgradeable/access/OwnableUpgradeable.sol\":2713:2814  if (owner() != _msgSender()) {... */\n    tag_224:\n        /* \"@openzeppelin/contracts-upgradeable/access/OwnableUpgradeable.sol\":2658:2820  function _checkOwner() internal view virtual {... */\n      jump\t// out\n        /* \"@openzeppelin/contracts-upgradeable/access/OwnableUpgradeable.sol\":3774:4022  function _transferOwnership(address newOwner) internal virtual {... */\n    tag_141:\n        /* \"@openzeppelin/contracts-upgradeable/access/OwnableUpgradeable.sol\":3847:3871  OwnableStorage storage $ */\n      0x00\n        /* \"@openzeppelin/contracts-upgradeable/access/OwnableUpgradeable.sol\":3874:3894  _getOwnableStorage() */\n      tag_228\n        /* \"@openzeppelin/contracts-upgradeable/access/OwnableUpgradeable.sol\":3874:3892  _getOwnableStorage */\n      tag_144\n        /* \"@openzeppelin/contracts-upgradeable/access/OwnableUpgradeable.sol\":3874:3894  _getOwnableStorage() */\n      jump\t// in\n    tag_228:\n        /* \"@openzeppelin/contracts-upgradeable/access/OwnableUpgradeable.sol\":3847:3894  OwnableStorage storage $ = _getOwnableStorage() */\n      swap1\n      pop\n        /* \"@openzeppelin/contracts-upgradeable/access/OwnableUpgradeable.sol\":3904:3920  address oldOwner */\n      0x00\n        /* \"@openzeppelin/contracts-upgradeable/access/OwnableUpgradeable.sol\":3923:3924  $ */\n      dup2\n        /* \"@openzeppelin/contracts-upgradeable/access/OwnableUpgradeable.sol\":3923:3931  $._owner */\n      0x00\n      add\n      0x00\n      swap1\n      sload\n      swap1\n      0x0100\n      exp\n      swap1\n      div\n      0xffffffffffffffffffffffffffffffffffffffff\n      and\n        /* \"@openzeppelin/contracts-upgradeable/access/OwnableUpgradeable.sol\":3904:3931  address oldOwner = $._owner */\n      swap1\n      pop\n        /* \"@openzeppelin/contracts-upgradeable/access/OwnableUpgradeable.sol\":3952:3960  newOwner */\n      dup3\n        /* \"@openzeppelin/contracts-upgradeable/access/OwnableUpgradeable.sol\":3941:3942  $ */\n      dup3\n        /* \"@openzeppelin/contracts-upgradeable/access/OwnableUpgradeable.sol\":3941:3949  $._owner */\n      0x00\n      add\n      0x00\n        /* \"@openzeppelin/contracts-upgradeable/access/OwnableUpgradeable.sol\":3941:3960  $._owner = newOwner */\n      0x0100\n      exp\n      dup2\n      sload\n      dup2\n      0xffffffffffffffffffffffffffffffffffffffff\n      mul\n      not\n      and\n      swap1\n      dup4\n      0xffffffffffffffffffffffffffffffffffffffff\n      and\n      mul\n      or\n      swap1\n      sstore\n      pop\n        /* \"@openzeppelin/contracts-upgradeable/access/OwnableUpgradeable.sol\":4006:4014  newOwner */\n      dup3\n        /* \"@openzeppelin/contracts-upgradeable/access/OwnableUpgradeable.sol\":3975:4015  OwnershipTransferred(oldOwner, newOwner) */\n      0xffffffffffffffffffffffffffffffffffffffff\n      and\n        /* \"@openzeppelin/contracts-upgradeable/access/OwnableUpgradeable.sol\":3996:4004  oldOwner */\n      dup2\n        /* \"@openzeppelin/contracts-upgradeable/access/OwnableUpgradeable.sol\":3975:4015  OwnershipTransferred(oldOwner, newOwner) */\n      0xffffffffffffffffffffffffffffffffffffffff\n      and\n      0x8be0079c531659141344cd1fd0a4f28419497f9722a3daafe3b4186f6b6457e0\n      mload(0x40)\n      mload(0x40)\n      dup1\n      swap2\n      sub\n      swap1\n      log3\n        /* \"@openzeppelin/contracts-upgradeable/access/OwnableUpgradeable.sol\":3837:4022  {... */\n      pop\n      pop\n        /* \"@openzeppelin/contracts-upgradeable/access/OwnableUpgradeable.sol\":3774:4022  function _transferOwnership(address newOwner) internal virtual {... */\n      pop\n      jump\t// out\n        /* \"@openzeppelin/contracts-upgradeable/access/OwnableUpgradeable.sol\":1192:1351  function _getOwnableStorage() private pure returns (OwnableStorage storage $) {... */\n    tag_144:\n        /* \"@openzeppelin/contracts-upgradeable/access/OwnableUpgradeable.sol\":1244:1268  OwnableStorage storage $ */\n      0x00\n        /* \"@openzeppelin/contracts-upgradeable/access/OwnableUpgradeable.sol\":1313:1335  OwnableStorageLocation */\n      0x9016d09d72d40fdae2fd8ceac6b6234c7706214fd39c1cd1e609a0528c199300\n        /* \"@openzeppelin/contracts-upgradeable/access/OwnableUpgradeable.sol\":1303:1335  $.slot := OwnableStorageLocation */\n      swap1\n      pop\n        /* \"@openzeppelin/contracts-upgradeable/access/OwnableUpgradeable.sol\":1192:1351  function _getOwnableStorage() private pure returns (OwnableStorage storage $) {... */\n      swap1\n      jump\t// out\n        /* \"@openzeppelin/contracts-upgradeable/token/ERC721/ERC721Upgradeable.sol\":12217:12317  function _safeMint(address to, uint256 tokenId) internal {... */\n    tag_156:\n        /* \"@openzeppelin/contracts-upgradeable/token/ERC721/ERC721Upgradeable.sol\":12284:12310  _safeMint(to, tokenId, \"\") */\n      tag_231\n        /* \"@openzeppelin/contracts-upgradeable/token/ERC721/ERC721Upgradeable.sol\":12294:12296  to */\n      dup3\n        /* \"@openzeppelin/contracts-upgradeable/token/ERC721/ERC721Upgradeable.sol\":12298:12305  tokenId */\n      dup3\n        /* \"@openzeppelin/contracts-upgradeable/token/ERC721/ERC721Upgradeable.sol\":12284:12310  _safeMint(to, tokenId, \"\") */\n      mload(0x40)\n      dup1\n      0x20\n      add\n      0x40\n      mstore\n      dup1\n      0x00\n      dup2\n      mstore\n      pop\n        /* \"@openzeppelin/contracts-upgradeable/token/ERC721/ERC721Upgradeable.sol\":12284:12293  _safeMint */\n      tag_232\n        /* \"@openzeppelin/contracts-upgradeable/token/ERC721/ERC721Upgradeable.sol\":12284:12310  _safeMint(to, tokenId, \"\") */\n      jump\t// in\n    tag_231:\n        /* \"@openzeppelin/contracts-upgradeable/token/ERC721/ERC721Upgradeable.sol\":12217:12317  function _safeMint(address to, uint256 tokenId) internal {... */\n      pop\n      pop\n      jump\t// out\n        /* \"@openzeppelin/contracts-upgradeable/token/ERC721/ERC721Upgradeable.sol\":17232:17601  function _setApprovalForAll(address owner, address operator, bool approved) internal virtual {... */\n    tag_160:\n        /* \"@openzeppelin/contracts-upgradeable/token/ERC721/ERC721Upgradeable.sol\":17335:17358  ERC721Storage storage $ */\n      0x00\n        /* \"@openzeppelin/contracts-upgradeable/token/ERC721/ERC721Upgradeable.sol\":17361:17380  _getERC721Storage() */\n      tag_234\n        /* \"@openzeppelin/contracts-upgradeable/token/ERC721/ERC721Upgradeable.sol\":17361:17378  _getERC721Storage */\n      tag_102\n        /* \"@openzeppelin/contracts-upgradeable/token/ERC721/ERC721Upgradeable.sol\":17361:17380  _getERC721Storage() */\n      jump\t// in\n    tag_234:\n        /* \"@openzeppelin/contracts-upgradeable/token/ERC721/ERC721Upgradeable.sol\":17335:17380  ERC721Storage storage $ = _getERC721Storage() */\n      swap1\n      pop\n        /* \"@openzeppelin/contracts-upgradeable/token/ERC721/ERC721Upgradeable.sol\":17414:17415  0 */\n      0x00\n        /* \"@openzeppelin/contracts-upgradeable/token/ERC721/ERC721Upgradeable.sol\":17394:17416  operator == address(0) */\n      0xffffffffffffffffffffffffffffffffffffffff\n      and\n        /* \"@openzeppelin/contracts-upgradeable/token/ERC721/ERC721Upgradeable.sol\":17394:17402  operator */\n      dup4\n        /* \"@openzeppelin/contracts-upgradeable/token/ERC721/ERC721Upgradeable.sol\":17394:17416  operator == address(0) */\n      0xffffffffffffffffffffffffffffffffffffffff\n      and\n      sub\n        /* \"@openzeppelin/contracts-upgradeable/token/ERC721/ERC721Upgradeable.sol\":17390:17481  if (operator == address(0)) {... */\n      tag_235\n      jumpi\n        /* \"@openzeppelin/contracts-upgradeable/token/ERC721/ERC721Upgradeable.sol\":17461:17469  operator */\n      dup3\n        /* \"@openzeppelin/contracts-upgradeable/token/ERC721/ERC721Upgradeable.sol\":17439:17470  ERC721InvalidOperator(operator) */\n      mload(0x40)\n      0x5b08ba1800000000000000000000000000000000000000000000000000000000\n      dup2\n      mstore\n      0x04\n      add\n      tag_236\n      swap2\n      swap1\n      tag_39\n      jump\t// in\n    tag_236:\n      mload(0x40)\n      dup1\n      swap2\n      sub\n      swap1\n      revert\n        /* \"@openzeppelin/contracts-upgradeable/token/ERC721/ERC721Upgradeable.sol\":17390:17481  if (operator == address(0)) {... */\n    tag_235:\n        /* \"@openzeppelin/contracts-upgradeable/token/ERC721/ERC721Upgradeable.sol\":17530:17538  approved */\n      dup2\n        /* \"@openzeppelin/contracts-upgradeable/token/ERC721/ERC721Upgradeable.sol\":17490:17491  $ */\n      dup2\n        /* \"@openzeppelin/contracts-upgradeable/token/ERC721/ERC721Upgradeable.sol\":17490:17510  $._operatorApprovals */\n      0x05\n      add\n        /* \"@openzeppelin/contracts-upgradeable/token/ERC721/ERC721Upgradeable.sol\":17490:17517  $._operatorApprovals[owner] */\n      0x00\n        /* \"@openzeppelin/contracts-upgradeable/token/ERC721/ERC721Upgradeable.sol\":17511:17516  owner */\n      dup7\n        /* \"@openzeppelin/contracts-upgradeable/token/ERC721/ERC721Upgradeable.sol\":17490:17517  $._operatorApprovals[owner] */\n      0xffffffffffffffffffffffffffffffffffffffff\n      and\n      0xffffffffffffffffffffffffffffffffffffffff\n      and\n      dup2\n      mstore\n      0x20\n      add\n      swap1\n      dup2\n      mstore\n      0x20\n      add\n      0x00\n      keccak256\n        /* \"@openzeppelin/contracts-upgradeable/token/ERC721/ERC721Upgradeable.sol\":17490:17527  $._operatorApprovals[owner][operator] */\n      0x00\n        /* \"@openzeppelin/contracts-upgradeable/token/ERC721/ERC721Upgradeable.sol\":17518:17526  operator */\n      dup6\n        /* \"@openzeppelin/contracts-upgradeable/token/ERC721/ERC721Upgradeable.sol\":17490:17527  $._operatorApprovals[owner][operator] */\n      0xffffffffffffffffffffffffffffffffffffffff\n      and\n      0xffffffffffffffffffffffffffffffffffffffff\n      and\n      dup2\n      mstore\n      0x20\n      add\n      swap1\n      dup2\n      mstore\n      0x20\n      add\n      0x00\n      keccak256\n      0x00\n        /* \"@openzeppelin/contracts-upgradeable/token/ERC721/ERC721Upgradeable.sol\":17490:17538  $._operatorApprovals[owner][operator] = approved */\n      0x0100\n      exp\n      dup2\n      sload\n      dup2\n      0xff\n      mul\n      not\n      and\n      swap1\n      dup4\n      iszero\n      iszero\n      mul\n      or\n      swap1\n      sstore\n      pop\n        /* \"@openzeppelin/contracts-upgradeable/token/ERC721/ERC721Upgradeable.sol\":17575:17583  operator */\n      dup3\n        /* \"@openzeppelin/contracts-upgradeable/token/ERC721/ERC721Upgradeable.sol\":17553:17594  ApprovalForAll(owner, operator, approved) */\n      0xffffffffffffffffffffffffffffffffffffffff\n      and\n        /* \"@openzeppelin/contracts-upgradeable/token/ERC721/ERC721Upgradeable.sol\":17568:17573  owner */\n      dup5\n        /* \"@openzeppelin/contracts-upgradeable/token/ERC721/ERC721Upgradeable.sol\":17553:17594  ApprovalForAll(owner, operator, approved) */\n      0xffffffffffffffffffffffffffffffffffffffff\n      and\n      0x17307eab39ab6107e8899845ad3d59bd9653f200f220920489ca2b5937696c31\n        /* \"@openzeppelin/contracts-upgradeable/token/ERC721/ERC721Upgradeable.sol\":17585:17593  approved */\n      dup5\n        /* \"@openzeppelin/contracts-upgradeable/token/ERC721/ERC721Upgradeable.sol\":17553:17594  ApprovalForAll(owner, operator, approved) */\n      mload(0x40)\n      tag_237\n      swap2\n      swap1\n      tag_29\n      jump\t// in\n    tag_237:\n      mload(0x40)\n      dup1\n      swap2\n      sub\n      swap1\n      log3\n        /* \"@openzeppelin/contracts-upgradeable/token/ERC721/ERC721Upgradeable.sol\":17325:17601  {... */\n      pop\n        /* \"@openzeppelin/contracts-upgradeable/token/ERC721/ERC721Upgradeable.sol\":17232:17601  function _setApprovalForAll(address owner, address operator, bool approved) internal virtual {... */\n      pop\n      pop\n      pop\n      jump\t// out\n        /* \"@openzeppelin/contracts-upgradeable/token/ERC721/ERC721Upgradeable.sol\":18616:19398  function _checkOnERC721Received(address from, address to, uint256 tokenId, bytes memory data) private {... */\n    tag_164:\n        /* \"@openzeppelin/contracts-upgradeable/token/ERC721/ERC721Upgradeable.sol\":18749:18750  0 */\n      0x00\n        /* \"@openzeppelin/contracts-upgradeable/token/ERC721/ERC721Upgradeable.sol\":18732:18734  to */\n      dup4\n        /* \"@openzeppelin/contracts-upgradeable/token/ERC721/ERC721Upgradeable.sol\":18732:18746  to.code.length */\n      0xffffffffffffffffffffffffffffffffffffffff\n      and\n      extcodesize\n        /* \"@openzeppelin/contracts-upgradeable/token/ERC721/ERC721Upgradeable.sol\":18732:18750  to.code.length > 0 */\n      gt\n        /* \"@openzeppelin/contracts-upgradeable/token/ERC721/ERC721Upgradeable.sol\":18728:19392  if (to.code.length > 0) {... */\n      iszero\n      tag_239\n      jumpi\n        /* \"@openzeppelin/contracts-upgradeable/token/ERC721/ERC721Upgradeable.sol\":18786:18788  to */\n      dup3\n        /* \"@openzeppelin/contracts-upgradeable/token/ERC721/ERC721Upgradeable.sol\":18770:18806  IERC721Receiver(to).onERC721Received */\n      0xffffffffffffffffffffffffffffffffffffffff\n      and\n      0x150b7a02\n        /* \"@openzeppelin/contracts-upgradeable/token/ERC721/ERC721Upgradeable.sol\":18807:18819  _msgSender() */\n      tag_240\n        /* \"@openzeppelin/contracts-upgradeable/token/ERC721/ERC721Upgradeable.sol\":18807:18817  _msgSender */\n      tag_117\n        /* \"@openzeppelin/contracts-upgradeable/token/ERC721/ERC721Upgradeable.sol\":18807:18819  _msgSender() */\n      jump\t// in\n    tag_240:\n        /* \"@openzeppelin/contracts-upgradeable/token/ERC721/ERC721Upgradeable.sol\":18821:18825  from */\n      dup7\n        /* \"@openzeppelin/contracts-upgradeable/token/ERC721/ERC721Upgradeable.sol\":18827:18834  tokenId */\n      dup6\n        /* \"@openzeppelin/contracts-upgradeable/token/ERC721/ERC721Upgradeable.sol\":18836:18840  data */\n      dup6\n        /* \"@openzeppelin/contracts-upgradeable/token/ERC721/ERC721Upgradeable.sol\":18770:18841  IERC721Receiver(to).onERC721Received(_msgSender(), from, tokenId, data) */\n      mload(0x40)\n      dup6\n      0xffffffff\n      and\n      0xe0\n      shl\n      dup2\n      mstore\n      0x04\n      add\n      tag_241\n      swap5\n      swap4\n      swap3\n      swap2\n      swap1\n      tag_242\n      jump\t// in\n    tag_241:\n      0x20\n      mload(0x40)\n      dup1\n      dup4\n      sub\n      dup2\n      0x00\n      dup8\n      gas\n      call\n      swap3\n      pop\n      pop\n      pop\n      dup1\n      iszero\n      tag_243\n      jumpi\n      pop\n      mload(0x40)\n      returndatasize\n      not(0x1f)\n      0x1f\n      dup3\n      add\n      and\n      dup3\n      add\n      dup1\n      0x40\n      mstore\n      pop\n      dup2\n      add\n      swap1\n      tag_244\n      swap2\n      swap1\n      tag_245\n      jump\t// in\n    tag_244:\n      0x01\n    tag_243:\n        /* \"@openzeppelin/contracts-upgradeable/token/ERC721/ERC721Upgradeable.sol\":18766:19382  try IERC721Receiver(to).onERC721Received(_msgSender(), from, tokenId, data) returns (bytes4 retval) {... */\n      tag_246\n      jumpi\n      returndatasize\n      dup1\n      0x00\n      dup2\n      eq\n      tag_251\n      jumpi\n      mload(0x40)\n      swap2\n      pop\n      and(add(returndatasize, 0x3f), not(0x1f))\n      dup3\n      add\n      0x40\n      mstore\n      returndatasize\n      dup3\n      mstore\n      returndatasize\n      0x00\n      0x20\n      dup5\n      add\n      returndatacopy\n      jump(tag_250)\n    tag_251:\n      0x60\n      swap2\n      pop\n    tag_250:\n      pop\n        /* \"@openzeppelin/contracts-upgradeable/token/ERC721/ERC721Upgradeable.sol\":19096:19097  0 */\n      0x00\n        /* \"@openzeppelin/contracts-upgradeable/token/ERC721/ERC721Upgradeable.sol\":19079:19085  reason */\n      dup2\n        /* \"@openzeppelin/contracts-upgradeable/token/ERC721/ERC721Upgradeable.sol\":19079:19092  reason.length */\n      mload\n        /* \"@openzeppelin/contracts-upgradeable/token/ERC721/ERC721Upgradeable.sol\":19079:19097  reason.length == 0 */\n      sub\n        /* \"@openzeppelin/contracts-upgradeable/token/ERC721/ERC721Upgradeable.sol\":19075:19368  if (reason.length == 0) {... */\n      tag_252\n      jumpi\n        /* \"@openzeppelin/contracts-upgradeable/token/ERC721/ERC721Upgradeable.sol\":19150:19152  to */\n      dup4\n        /* \"@openzeppelin/contracts-upgradeable/token/ERC721/ERC721Upgradeable.sol\":19128:19153  ERC721InvalidReceiver(to) */\n      mload(0x40)\n      0x64a0ae9200000000000000000000000000000000000000000000000000000000\n      dup2\n      mstore\n      0x04\n      add\n      tag_253\n      swap2\n      swap1\n      tag_39\n      jump\t// in\n    tag_253:\n      mload(0x40)\n      dup1\n      swap2\n      sub\n      swap1\n      revert\n        /* \"@openzeppelin/contracts-upgradeable/token/ERC721/ERC721Upgradeable.sol\":19075:19368  if (reason.length == 0) {... */\n    tag_252:\n        /* \"@openzeppelin/contracts-upgradeable/token/ERC721/ERC721Upgradeable.sol\":19320:19326  reason */\n      dup1\n        /* \"@openzeppelin/contracts-upgradeable/token/ERC721/ERC721Upgradeable.sol\":19314:19327  mload(reason) */\n      mload\n        /* \"@openzeppelin/contracts-upgradeable/token/ERC721/ERC721Upgradeable.sol\":19305:19311  reason */\n      dup2\n        /* \"@openzeppelin/contracts-upgradeable/token/ERC721/ERC721Upgradeable.sol\":19301:19303  32 */\n      0x20\n        /* \"@openzeppelin/contracts-upgradeable/token/ERC721/ERC721Upgradeable.sol\":19297:19312  add(32, reason) */\n      add\n        /* \"@openzeppelin/contracts-upgradeable/token/ERC721/ERC721Upgradeable.sol\":19290:19328  revert(add(32, reason), mload(reason)) */\n      revert\n        /* \"@openzeppelin/contracts-upgradeable/token/ERC721/ERC721Upgradeable.sol\":18766:19382  try IERC721Receiver(to).onERC721Received(_msgSender(), from, tokenId, data) returns (bytes4 retval) {... */\n    tag_246:\n        /* \"@openzeppelin/contracts-upgradeable/token/ERC721/ERC721Upgradeable.sol\":18898:18939  IERC721Receiver.onERC721Received.selector */\n      shl(0xe0, 0x150b7a02)\n        /* \"@openzeppelin/contracts-upgradeable/token/ERC721/ERC721Upgradeable.sol\":18888:18939  retval != IERC721Receiver.onERC721Received.selector */\n      not(0xffffffffffffffffffffffffffffffffffffffffffffffffffffffff)\n      and\n        /* \"@openzeppelin/contracts-upgradeable/token/ERC721/ERC721Upgradeable.sol\":18888:18894  retval */\n      dup2\n        /* \"@openzeppelin/contracts-upgradeable/token/ERC721/ERC721Upgradeable.sol\":18888:18939  retval != IERC721Receiver.onERC721Received.selector */\n      not(0xffffffffffffffffffffffffffffffffffffffffffffffffffffffff)\n      and\n      eq\n        /* \"@openzeppelin/contracts-upgradeable/token/ERC721/ERC721Upgradeable.sol\":18884:19014  if (retval != IERC721Receiver.onERC721Received.selector) {... */\n      tag_256\n      jumpi\n        /* \"@openzeppelin/contracts-upgradeable/token/ERC721/ERC721Upgradeable.sol\":18992:18994  to */\n      dup4\n        /* \"@openzeppelin/contracts-upgradeable/token/ERC721/ERC721Upgradeable.sol\":18970:18995  ERC721InvalidReceiver(to) */\n      mload(0x40)\n      0x64a0ae9200000000000000000000000000000000000000000000000000000000\n      dup2\n      mstore\n      0x04\n      add\n      tag_257\n      swap2\n      swap1\n      tag_39\n      jump\t// in\n    tag_257:\n      mload(0x40)\n      dup1\n      swap2\n      sub\n      swap1\n      revert\n        /* \"@openzeppelin/contracts-upgradeable/token/ERC721/ERC721Upgradeable.sol\":18884:19014  if (retval != IERC721Receiver.onERC721Received.selector) {... */\n    tag_256:\n        /* \"@openzeppelin/contracts-upgradeable/token/ERC721/ERC721Upgradeable.sol\":18842:19028  returns (bytes4 retval) {... */\n      pop\n        /* \"@openzeppelin/contracts-upgradeable/token/ERC721/ERC721Upgradeable.sol\":18728:19392  if (to.code.length > 0) {... */\n    tag_239:\n        /* \"@openzeppelin/contracts-upgradeable/token/ERC721/ERC721Upgradeable.sol\":18616:19398  function _checkOnERC721Received(address from, address to, uint256 tokenId, bytes memory data) private {... */\n      pop\n      pop\n      pop\n      pop\n      jump\t// out\n        /* \"@openzeppelin/contracts-upgradeable/proxy/utils/Initializable.sol\":8737:8907  function _getInitializableStorage() private pure returns (InitializableStorage storage $) {... */\n    tag_167:\n        /* \"@openzeppelin/contracts-upgradeable/proxy/utils/Initializable.sol\":8795:8825  InitializableStorage storage $ */\n      0x00\n        /* \"@openzeppelin/contracts-upgradeable/proxy/utils/Initializable.sol\":8870:8891  INITIALIZABLE_STORAGE */\n      0xf0c57e16840df040f15088dc2f81fe391c3923bec73e23a9662efc9c229c6a00\n        /* \"@openzeppelin/contracts-upgradeable/proxy/utils/Initializable.sol\":8860:8891  $.slot := INITIALIZABLE_STORAGE */\n      swap1\n      pop\n        /* \"@openzeppelin/contracts-upgradeable/proxy/utils/Initializable.sol\":8737:8907  function _getInitializableStorage() private pure returns (InitializableStorage storage $) {... */\n      swap1\n      jump\t// out\n        /* \"@openzeppelin/contracts-upgradeable/token/ERC721/ERC721Upgradeable.sol\":2233:2382  function __ERC721_init(string memory name_, string memory symbol_) internal onlyInitializing {... */\n    tag_175:\n        /* \"@openzeppelin/contracts-upgradeable/proxy/utils/Initializable.sol\":6931:6951  _checkInitializing() */\n      tag_260\n        /* \"@openzeppelin/contracts-upgradeable/proxy/utils/Initializable.sol\":6931:6949  _checkInitializing */\n      tag_261\n        /* \"@openzeppelin/contracts-upgradeable/proxy/utils/Initializable.sol\":6931:6951  _checkInitializing() */\n      jump\t// in\n    tag_260:\n        /* \"@openzeppelin/contracts-upgradeable/token/ERC721/ERC721Upgradeable.sol\":2336:2375  __ERC721_init_unchained(name_, symbol_) */\n      tag_263\n        /* \"@openzeppelin/contracts-upgradeable/token/ERC721/ERC721Upgradeable.sol\":2360:2365  name_ */\n      dup3\n        /* \"@openzeppelin/contracts-upgradeable/token/ERC721/ERC721Upgradeable.sol\":2367:2374  symbol_ */\n      dup3\n        /* \"@openzeppelin/contracts-upgradeable/token/ERC721/ERC721Upgradeable.sol\":2336:2359  __ERC721_init_unchained */\n      tag_264\n        /* \"@openzeppelin/contracts-upgradeable/token/ERC721/ERC721Upgradeable.sol\":2336:2375  __ERC721_init_unchained(name_, symbol_) */\n      jump\t// in\n    tag_263:\n        /* \"@openzeppelin/contracts-upgradeable/token/ERC721/ERC721Upgradeable.sol\":2233:2382  function __ERC721_init(string memory name_, string memory symbol_) internal onlyInitializing {... */\n      pop\n      pop\n      jump\t// out\n        /* \"@openzeppelin/contracts-upgradeable/access/OwnableUpgradeable.sol\":1847:1974  function __Ownable_init(address initialOwner) internal onlyInitializing {... */\n    tag_177:\n        /* \"@openzeppelin/contracts-upgradeable/proxy/utils/Initializable.sol\":6931:6951  _checkInitializing() */\n      tag_266\n        /* \"@openzeppelin/contracts-upgradeable/proxy/utils/Initializable.sol\":6931:6949  _checkInitializing */\n      tag_261\n        /* \"@openzeppelin/contracts-upgradeable/proxy/utils/Initializable.sol\":6931:6951  _checkInitializing() */\n      jump\t// in\n    tag_266:\n        /* \"@openzeppelin/contracts-upgradeable/access/OwnableUpgradeable.sol\":1929:1967  __Ownable_init_unchained(initialOwner) */\n      tag_268\n        /* \"@openzeppelin/contracts-upgradeable/access/OwnableUpgradeable.sol\":1954:1966  initialOwner */\n      dup2\n        /* \"@openzeppelin/contracts-upgradeable/access/OwnableUpgradeable.sol\":1929:1953  __Ownable_init_unchained */\n      tag_269\n        /* \"@openzeppelin/contracts-upgradeable/access/OwnableUpgradeable.sol\":1929:1967  __Ownable_init_unchained(initialOwner) */\n      jump\t// in\n    tag_268:\n        /* \"@openzeppelin/contracts-upgradeable/access/OwnableUpgradeable.sol\":1847:1974  function __Ownable_init(address initialOwner) internal onlyInitializing {... */\n      pop\n      jump\t// out\n        /* \"@openzeppelin/contracts-upgradeable/token/ERC721/ERC721Upgradeable.sol\":4469:4561  function _baseURI() internal view virtual returns (string memory) {... */\n    tag_184:\n        /* \"@openzeppelin/contracts-upgradeable/token/ERC721/ERC721Upgradeable.sol\":4520:4533  string memory */\n      0x60\n        /* \"@openzeppelin/contracts-upgradeable/token/ERC721/ERC721Upgradeable.sol\":4545:4554  return \"\" */\n      mload(0x40)\n      dup1\n      0x20\n      add\n      0x40\n      mstore\n      dup1\n      0x00\n      dup2\n      mstore\n      pop\n      swap1\n      pop\n        /* \"@openzeppelin/contracts-upgradeable/token/ERC721/ERC721Upgradeable.sol\":4469:4561  function _baseURI() internal view virtual returns (string memory) {... */\n      swap1\n      jump\t// out\n        /* \"@openzeppelin/contracts/utils/Strings.sol\":637:1335  function toString(uint256 value) internal pure returns (string memory) {... */\n    tag_188:\n        /* \"@openzeppelin/contracts/utils/Strings.sol\":693:706  string memory */\n      0x60\n        /* \"@openzeppelin/contracts/utils/Strings.sol\":742:756  uint256 length */\n      0x00\n        /* \"@openzeppelin/contracts/utils/Strings.sol\":779:780  1 */\n      0x01\n        /* \"@openzeppelin/contracts/utils/Strings.sol\":759:776  Math.log10(value) */\n      tag_272\n        /* \"@openzeppelin/contracts/utils/Strings.sol\":770:775  value */\n      dup5\n        /* \"@openzeppelin/contracts/utils/Strings.sol\":759:769  Math.log10 */\n      tag_273\n        /* \"@openzeppelin/contracts/utils/Strings.sol\":759:776  Math.log10(value) */\n      jump\t// in\n    tag_272:\n        /* \"@openzeppelin/contracts/utils/Strings.sol\":759:780  Math.log10(value) + 1 */\n      add\n        /* \"@openzeppelin/contracts/utils/Strings.sol\":742:780  uint256 length = Math.log10(value) + 1 */\n      swap1\n      pop\n        /* \"@openzeppelin/contracts/utils/Strings.sol\":794:814  string memory buffer */\n      0x00\n        /* \"@openzeppelin/contracts/utils/Strings.sol\":828:834  length */\n      dup2\n        /* \"@openzeppelin/contracts/utils/Strings.sol\":817:835  new string(length) */\n      0xffffffffffffffff\n      dup2\n      gt\n      iszero\n      tag_274\n      jumpi\n      tag_275\n      tag_276\n      jump\t// in\n    tag_275:\n    tag_274:\n      mload(0x40)\n      swap1\n      dup1\n      dup3\n      mstore\n      dup1\n      0x1f\n      add\n      not(0x1f)\n      and\n      0x20\n      add\n      dup3\n      add\n      0x40\n      mstore\n      dup1\n      iszero\n      tag_277\n      jumpi\n      dup2\n      0x20\n      add\n      0x01\n      dup3\n      mul\n      dup1\n      calldatasize\n      dup4\n      calldatacopy\n      dup1\n      dup3\n      add\n      swap2\n      pop\n      pop\n      swap1\n      pop\n    tag_277:\n      pop\n        /* \"@openzeppelin/contracts/utils/Strings.sol\":794:835  string memory buffer = new string(length) */\n      swap1\n      pop\n        /* \"@openzeppelin/contracts/utils/Strings.sol\":849:860  uint256 ptr */\n      0x00\n        /* \"@openzeppelin/contracts/utils/Strings.sol\":975:981  length */\n      dup3\n        /* \"@openzeppelin/contracts/utils/Strings.sol\":971:973  32 */\n      0x20\n        /* \"@openzeppelin/contracts/utils/Strings.sol\":967:982  add(32, length) */\n      add\n        /* \"@openzeppelin/contracts/utils/Strings.sol\":959:965  buffer */\n      dup3\n        /* \"@openzeppelin/contracts/utils/Strings.sol\":955:983  add(buffer, add(32, length)) */\n      add\n        /* \"@openzeppelin/contracts/utils/Strings.sol\":948:983  ptr := add(buffer, add(32, length)) */\n      swap1\n      pop\n        /* \"@openzeppelin/contracts/utils/Strings.sol\":1010:1292  while (true) {... */\n    tag_278:\n        /* \"@openzeppelin/contracts/utils/Strings.sol\":1017:1021  true */\n      0x01\n        /* \"@openzeppelin/contracts/utils/Strings.sol\":1010:1292  while (true) {... */\n      iszero\n      tag_279\n      jumpi\n        /* \"@openzeppelin/contracts/utils/Strings.sol\":1041:1046  ptr-- */\n      dup1\n      dup1\n      0x01\n      swap1\n      sub\n      swap2\n      pop\n      pop\n        /* \"@openzeppelin/contracts/utils/Strings.sol\":1180:1190  HEX_DIGITS */\n      0x3031323334353637383961626364656600000000000000000000000000000000\n        /* \"@openzeppelin/contracts/utils/Strings.sol\":1175:1177  10 */\n      0x0a\n        /* \"@openzeppelin/contracts/utils/Strings.sol\":1168:1173  value */\n      dup7\n        /* \"@openzeppelin/contracts/utils/Strings.sol\":1164:1178  mod(value, 10) */\n      mod\n        /* \"@openzeppelin/contracts/utils/Strings.sol\":1159:1191  byte(mod(value, 10), HEX_DIGITS) */\n      byte\n        /* \"@openzeppelin/contracts/utils/Strings.sol\":1154:1157  ptr */\n      dup2\n        /* \"@openzeppelin/contracts/utils/Strings.sol\":1146:1192  mstore8(ptr, byte(mod(value, 10), HEX_DIGITS)) */\n      mstore8\n        /* \"@openzeppelin/contracts/utils/Strings.sol\":1236:1238  10 */\n      0x0a\n        /* \"@openzeppelin/contracts/utils/Strings.sol\":1227:1238  value /= 10 */\n      dup6\n      dup2\n      tag_280\n      jumpi\n      tag_281\n      tag_282\n      jump\t// in\n    tag_281:\n    tag_280:\n      div\n      swap5\n      pop\n        /* \"@openzeppelin/contracts/utils/Strings.sol\":1269:1270  0 */\n      0x00\n        /* \"@openzeppelin/contracts/utils/Strings.sol\":1260:1265  value */\n      dup6\n        /* \"@openzeppelin/contracts/utils/Strings.sol\":1260:1270  value == 0 */\n      sub\n        /* \"@openzeppelin/contracts/utils/Strings.sol\":1010:1292  while (true) {... */\n      tag_278\n        /* \"@openzeppelin/contracts/utils/Strings.sol\":1256:1277  if (value == 0) break */\n      jumpi\n        /* \"@openzeppelin/contracts/utils/Strings.sol\":1010:1292  while (true) {... */\n    tag_279:\n        /* \"@openzeppelin/contracts/utils/Strings.sol\":1312:1318  buffer */\n      dup2\n        /* \"@openzeppelin/contracts/utils/Strings.sol\":1305:1318  return buffer */\n      swap4\n      pop\n      pop\n      pop\n      pop\n        /* \"@openzeppelin/contracts/utils/Strings.sol\":637:1335  function toString(uint256 value) internal pure returns (string memory) {... */\n      swap2\n      swap1\n      pop\n      jump\t// out\n        /* \"@openzeppelin/contracts-upgradeable/token/ERC721/ERC721Upgradeable.sol\":7059:7231  function _ownerOf(uint256 tokenId) internal view virtual returns (address) {... */\n    tag_203:\n        /* \"@openzeppelin/contracts-upgradeable/token/ERC721/ERC721Upgradeable.sol\":7125:7132  address */\n      0x00\n        /* \"@openzeppelin/contracts-upgradeable/token/ERC721/ERC721Upgradeable.sol\":7144:7167  ERC721Storage storage $ */\n      dup1\n        /* \"@openzeppelin/contracts-upgradeable/token/ERC721/ERC721Upgradeable.sol\":7170:7189  _getERC721Storage() */\n      tag_285\n        /* \"@openzeppelin/contracts-upgradeable/token/ERC721/ERC721Upgradeable.sol\":7170:7187  _getERC721Storage */\n      tag_102\n        /* \"@openzeppelin/contracts-upgradeable/token/ERC721/ERC721Upgradeable.sol\":7170:7189  _getERC721Storage() */\n      jump\t// in\n    tag_285:\n        /* \"@openzeppelin/contracts-upgradeable/token/ERC721/ERC721Upgradeable.sol\":7144:7189  ERC721Storage storage $ = _getERC721Storage() */\n      swap1\n      pop\n        /* \"@openzeppelin/contracts-upgradeable/token/ERC721/ERC721Upgradeable.sol\":7206:7207  $ */\n      dup1\n        /* \"@openzeppelin/contracts-upgradeable/token/ERC721/ERC721Upgradeable.sol\":7206:7215  $._owners */\n      0x02\n      add\n        /* \"@openzeppelin/contracts-upgradeable/token/ERC721/ERC721Upgradeable.sol\":7206:7224  $._owners[tokenId] */\n      0x00\n        /* \"@openzeppelin/contracts-upgradeable/token/ERC721/ERC721Upgradeable.sol\":7216:7223  tokenId */\n      dup5\n        /* \"@openzeppelin/contracts-upgradeable/token/ERC721/ERC721Upgradeable.sol\":7206:7224  $._owners[tokenId] */\n      dup2\n      mstore\n      0x20\n      add\n      swap1\n      dup2\n      mstore\n      0x20\n      add\n      0x00\n      keccak256\n      0x00\n      swap1\n      sload\n      swap1\n      0x0100\n      exp\n      swap1\n      div\n      0xffffffffffffffffffffffffffffffffffffffff\n      and\n        /* \"@openzeppelin/contracts-upgradeable/token/ERC721/ERC721Upgradeable.sol\":7199:7224  return $._owners[tokenId] */\n      swap2\n      pop\n      pop\n        /* \"@openzeppelin/contracts-upgradeable/token/ERC721/ERC721Upgradeable.sol\":7059:7231  function _ownerOf(uint256 tokenId) internal view virtual returns (address) {... */\n      swap2\n      swap1\n      pop\n      jump\t// out\n        /* \"@openzeppelin/contracts-upgradeable/token/ERC721/ERC721Upgradeable.sol\":16304:17023  function _approve(address to, uint256 tokenId, address auth, bool emitEvent) internal virtual {... */\n    tag_211:\n        /* \"@openzeppelin/contracts-upgradeable/token/ERC721/ERC721Upgradeable.sol\":16408:16431  ERC721Storage storage $ */\n      0x00\n        /* \"@openzeppelin/contracts-upgradeable/token/ERC721/ERC721Upgradeable.sol\":16434:16453  _getERC721Storage() */\n      tag_287\n        /* \"@openzeppelin/contracts-upgradeable/token/ERC721/ERC721Upgradeable.sol\":16434:16451  _getERC721Storage */\n      tag_102\n        /* \"@openzeppelin/contracts-upgradeable/token/ERC721/ERC721Upgradeable.sol\":16434:16453  _getERC721Storage() */\n      jump\t// in\n    tag_287:\n        /* \"@openzeppelin/contracts-upgradeable/token/ERC721/ERC721Upgradeable.sol\":16408:16453  ERC721Storage storage $ = _getERC721Storage() */\n      swap1\n      pop\n        /* \"@openzeppelin/contracts-upgradeable/token/ERC721/ERC721Upgradeable.sol\":16519:16528  emitEvent */\n      dup2\n        /* \"@openzeppelin/contracts-upgradeable/token/ERC721/ERC721Upgradeable.sol\":16519:16550  emitEvent || auth != address(0) */\n      dup1\n      tag_288\n      jumpi\n      pop\n        /* \"@openzeppelin/contracts-upgradeable/token/ERC721/ERC721Upgradeable.sol\":16548:16549  0 */\n      0x00\n        /* \"@openzeppelin/contracts-upgradeable/token/ERC721/ERC721Upgradeable.sol\":16532:16550  auth != address(0) */\n      0xffffffffffffffffffffffffffffffffffffffff\n      and\n        /* \"@openzeppelin/contracts-upgradeable/token/ERC721/ERC721Upgradeable.sol\":16532:16536  auth */\n      dup4\n        /* \"@openzeppelin/contracts-upgradeable/token/ERC721/ERC721Upgradeable.sol\":16532:16550  auth != address(0) */\n      0xffffffffffffffffffffffffffffffffffffffff\n      and\n      eq\n      iszero\n        /* \"@openzeppelin/contracts-upgradeable/token/ERC721/ERC721Upgradeable.sol\":16519:16550  emitEvent || auth != address(0) */\n    tag_288:\n        /* \"@openzeppelin/contracts-upgradeable/token/ERC721/ERC721Upgradeable.sol\":16515:16975  if (emitEvent || auth != address(0)) {... */\n      iszero\n      tag_289\n      jumpi\n        /* \"@openzeppelin/contracts-upgradeable/token/ERC721/ERC721Upgradeable.sol\":16566:16579  address owner */\n      0x00\n        /* \"@openzeppelin/contracts-upgradeable/token/ERC721/ERC721Upgradeable.sol\":16582:16604  _requireOwned(tokenId) */\n      tag_290\n        /* \"@openzeppelin/contracts-upgradeable/token/ERC721/ERC721Upgradeable.sol\":16596:16603  tokenId */\n      dup6\n        /* \"@openzeppelin/contracts-upgradeable/token/ERC721/ERC721Upgradeable.sol\":16582:16595  _requireOwned */\n      tag_111\n        /* \"@openzeppelin/contracts-upgradeable/token/ERC721/ERC721Upgradeable.sol\":16582:16604  _requireOwned(tokenId) */\n      jump\t// in\n    tag_290:\n        /* \"@openzeppelin/contracts-upgradeable/token/ERC721/ERC721Upgradeable.sol\":16566:16604  address owner = _requireOwned(tokenId) */\n      swap1\n      pop\n        /* \"@openzeppelin/contracts-upgradeable/token/ERC721/ERC721Upgradeable.sol\":16748:16749  0 */\n      0x00\n        /* \"@openzeppelin/contracts-upgradeable/token/ERC721/ERC721Upgradeable.sol\":16732:16750  auth != address(0) */\n      0xffffffffffffffffffffffffffffffffffffffff\n      and\n        /* \"@openzeppelin/contracts-upgradeable/token/ERC721/ERC721Upgradeable.sol\":16732:16736  auth */\n      dup5\n        /* \"@openzeppelin/contracts-upgradeable/token/ERC721/ERC721Upgradeable.sol\":16732:16750  auth != address(0) */\n      0xffffffffffffffffffffffffffffffffffffffff\n      and\n      eq\n      iszero\n        /* \"@openzeppelin/contracts-upgradeable/token/ERC721/ERC721Upgradeable.sol\":16732:16767  auth != address(0) && owner != auth */\n      dup1\n      iszero\n      tag_291\n      jumpi\n      pop\n        /* \"@openzeppelin/contracts-upgradeable/token/ERC721/ERC721Upgradeable.sol\":16763:16767  auth */\n      dup4\n        /* \"@openzeppelin/contracts-upgradeable/token/ERC721/ERC721Upgradeable.sol\":16754:16767  owner != auth */\n      0xffffffffffffffffffffffffffffffffffffffff\n      and\n        /* \"@openzeppelin/contracts-upgradeable/token/ERC721/ERC721Upgradeable.sol\":16754:16759  owner */\n      dup2\n        /* \"@openzeppelin/contracts-upgradeable/token/ERC721/ERC721Upgradeable.sol\":16754:16767  owner != auth */\n      0xffffffffffffffffffffffffffffffffffffffff\n      and\n      eq\n      iszero\n        /* \"@openzeppelin/contracts-upgradeable/token/ERC721/ERC721Upgradeable.sol\":16732:16767  auth != address(0) && owner != auth */\n    tag_291:\n        /* \"@openzeppelin/contracts-upgradeable/token/ERC721/ERC721Upgradeable.sol\":16732:16801  auth != address(0) && owner != auth && !isApprovedForAll(owner, auth) */\n      dup1\n      iszero\n      tag_292\n      jumpi\n      pop\n        /* \"@openzeppelin/contracts-upgradeable/token/ERC721/ERC721Upgradeable.sol\":16772:16801  isApprovedForAll(owner, auth) */\n      tag_293\n        /* \"@openzeppelin/contracts-upgradeable/token/ERC721/ERC721Upgradeable.sol\":16789:16794  owner */\n      dup2\n        /* \"@openzeppelin/contracts-upgradeable/token/ERC721/ERC721Upgradeable.sol\":16796:16800  auth */\n      dup6\n        /* \"@openzeppelin/contracts-upgradeable/token/ERC721/ERC721Upgradeable.sol\":16772:16788  isApprovedForAll */\n      tag_90\n        /* \"@openzeppelin/contracts-upgradeable/token/ERC721/ERC721Upgradeable.sol\":16772:16801  isApprovedForAll(owner, auth) */\n      jump\t// in\n    tag_293:\n        /* \"@openzeppelin/contracts-upgradeable/token/ERC721/ERC721Upgradeable.sol\":16771:16801  !isApprovedForAll(owner, auth) */\n      iszero\n        /* \"@openzeppelin/contracts-upgradeable/token/ERC721/ERC721Upgradeable.sol\":16732:16801  auth != address(0) && owner != auth && !isApprovedForAll(owner, auth) */\n    tag_292:\n        /* \"@openzeppelin/contracts-upgradeable/token/ERC721/ERC721Upgradeable.sol\":16728:16870  if (auth != address(0) && owner != auth && !isApprovedForAll(owner, auth)) {... */\n      iszero\n      tag_294\n      jumpi\n        /* \"@openzeppelin/contracts-upgradeable/token/ERC721/ERC721Upgradeable.sol\":16850:16854  auth */\n      dup4\n        /* \"@openzeppelin/contracts-upgradeable/token/ERC721/ERC721Upgradeable.sol\":16828:16855  ERC721InvalidApprover(auth) */\n      mload(0x40)\n      0xa9fbf51f00000000000000000000000000000000000000000000000000000000\n      dup2\n      mstore\n      0x04\n      add\n      tag_295\n      swap2\n      swap1\n      tag_39\n      jump\t// in\n    tag_295:\n      mload(0x40)\n      dup1\n      swap2\n      sub\n      swap1\n      revert\n        /* \"@openzeppelin/contracts-upgradeable/token/ERC721/ERC721Upgradeable.sol\":16728:16870  if (auth != address(0) && owner != auth && !isApprovedForAll(owner, auth)) {... */\n    tag_294:\n        /* \"@openzeppelin/contracts-upgradeable/token/ERC721/ERC721Upgradeable.sol\":16888:16897  emitEvent */\n      dup3\n        /* \"@openzeppelin/contracts-upgradeable/token/ERC721/ERC721Upgradeable.sol\":16884:16965  if (emitEvent) {... */\n      iszero\n      tag_296\n      jumpi\n        /* \"@openzeppelin/contracts-upgradeable/token/ERC721/ERC721Upgradeable.sol\":16942:16949  tokenId */\n      dup5\n        /* \"@openzeppelin/contracts-upgradeable/token/ERC721/ERC721Upgradeable.sol\":16938:16940  to */\n      dup7\n        /* \"@openzeppelin/contracts-upgradeable/token/ERC721/ERC721Upgradeable.sol\":16922:16950  Approval(owner, to, tokenId) */\n      0xffffffffffffffffffffffffffffffffffffffff\n      and\n        /* \"@openzeppelin/contracts-upgradeable/token/ERC721/ERC721Upgradeable.sol\":16931:16936  owner */\n      dup3\n        /* \"@openzeppelin/contracts-upgradeable/token/ERC721/ERC721Upgradeable.sol\":16922:16950  Approval(owner, to, tokenId) */\n      0xffffffffffffffffffffffffffffffffffffffff\n      and\n      0x8c5be1e5ebec7d5bd14f71427d1e84f3dd0314c0f7b2291e5b200ac8c7c3b925\n      mload(0x40)\n      mload(0x40)\n      dup1\n      swap2\n      sub\n      swap1\n      log4\n        /* \"@openzeppelin/contracts-upgradeable/token/ERC721/ERC721Upgradeable.sol\":16884:16965  if (emitEvent) {... */\n    tag_296:\n        /* \"@openzeppelin/contracts-upgradeable/token/ERC721/ERC721Upgradeable.sol\":16552:16975  {... */\n      pop\n        /* \"@openzeppelin/contracts-upgradeable/token/ERC721/ERC721Upgradeable.sol\":16515:16975  if (emitEvent || auth != address(0)) {... */\n    tag_289:\n        /* \"@openzeppelin/contracts-upgradeable/token/ERC721/ERC721Upgradeable.sol\":17014:17016  to */\n      dup5\n        /* \"@openzeppelin/contracts-upgradeable/token/ERC721/ERC721Upgradeable.sol\":16985:16986  $ */\n      dup2\n        /* \"@openzeppelin/contracts-upgradeable/token/ERC721/ERC721Upgradeable.sol\":16985:17002  $._tokenApprovals */\n      0x04\n      add\n        /* \"@openzeppelin/contracts-upgradeable/token/ERC721/ERC721Upgradeable.sol\":16985:17011  $._tokenApprovals[tokenId] */\n      0x00\n        /* \"@openzeppelin/contracts-upgradeable/token/ERC721/ERC721Upgradeable.sol\":17003:17010  tokenId */\n      dup7\n        /* \"@openzeppelin/contracts-upgradeable/token/ERC721/ERC721Upgradeable.sol\":16985:17011  $._tokenApprovals[tokenId] */\n      dup2\n      mstore\n      0x20\n      add\n      swap1\n      dup2\n      mstore\n      0x20\n      add\n      0x00\n      keccak256\n      0x00\n        /* \"@openzeppelin/contracts-upgradeable/token/ERC721/ERC721Upgradeable.sol\":16985:17016  $._tokenApprovals[tokenId] = to */\n      0x0100\n      exp\n      dup2\n      sload\n      dup2\n      0xffffffffffffffffffffffffffffffffffffffff\n      mul\n      not\n      and\n      swap1\n      dup4\n      0xffffffffffffffffffffffffffffffffffffffff\n      and\n      mul\n      or\n      swap1\n      sstore\n      pop\n        /* \"@openzeppelin/contracts-upgradeable/token/ERC721/ERC721Upgradeable.sol\":16398:17023  {... */\n      pop\n        /* \"@openzeppelin/contracts-upgradeable/token/ERC721/ERC721Upgradeable.sol\":16304:17023  function _approve(address to, uint256 tokenId, address auth, bool emitEvent) internal virtual {... */\n      pop\n      pop\n      pop\n      pop\n      jump\t// out\n        /* \"@openzeppelin/contracts-upgradeable/token/ERC721/ERC721Upgradeable.sol\":8548:8916  function _checkAuthorized(address owner, address spender, uint256 tokenId) internal view virtual {... */\n    tag_217:\n        /* \"@openzeppelin/contracts-upgradeable/token/ERC721/ERC721Upgradeable.sol\":8660:8698  _isAuthorized(owner, spender, tokenId) */\n      tag_298\n        /* \"@openzeppelin/contracts-upgradeable/token/ERC721/ERC721Upgradeable.sol\":8674:8679  owner */\n      dup4\n        /* \"@openzeppelin/contracts-upgradeable/token/ERC721/ERC721Upgradeable.sol\":8681:8688  spender */\n      dup4\n        /* \"@openzeppelin/contracts-upgradeable/token/ERC721/ERC721Upgradeable.sol\":8690:8697  tokenId */\n      dup4\n        /* \"@openzeppelin/contracts-upgradeable/token/ERC721/ERC721Upgradeable.sol\":8660:8673  _isAuthorized */\n      tag_299\n        /* \"@openzeppelin/contracts-upgradeable/token/ERC721/ERC721Upgradeable.sol\":8660:8698  _isAuthorized(owner, spender, tokenId) */\n      jump\t// in\n    tag_298:\n        /* \"@openzeppelin/contracts-upgradeable/token/ERC721/ERC721Upgradeable.sol\":8655:8910  if (!_isAuthorized(owner, spender, tokenId)) {... */\n      tag_300\n      jumpi\n        /* \"@openzeppelin/contracts-upgradeable/token/ERC721/ERC721Upgradeable.sol\":8735:8736  0 */\n      0x00\n        /* \"@openzeppelin/contracts-upgradeable/token/ERC721/ERC721Upgradeable.sol\":8718:8737  owner == address(0) */\n      0xffffffffffffffffffffffffffffffffffffffff\n      and\n        /* \"@openzeppelin/contracts-upgradeable/token/ERC721/ERC721Upgradeable.sol\":8718:8723  owner */\n      dup4\n        /* \"@openzeppelin/contracts-upgradeable/token/ERC721/ERC721Upgradeable.sol\":8718:8737  owner == address(0) */\n      0xffffffffffffffffffffffffffffffffffffffff\n      and\n      sub\n        /* \"@openzeppelin/contracts-upgradeable/token/ERC721/ERC721Upgradeable.sol\":8714:8900  if (owner == address(0)) {... */\n      tag_301\n      jumpi\n        /* \"@openzeppelin/contracts-upgradeable/token/ERC721/ERC721Upgradeable.sol\":8787:8794  tokenId */\n      dup1\n        /* \"@openzeppelin/contracts-upgradeable/token/ERC721/ERC721Upgradeable.sol\":8764:8795  ERC721NonexistentToken(tokenId) */\n      mload(0x40)\n      0x7e27328900000000000000000000000000000000000000000000000000000000\n      dup2\n      mstore\n      0x04\n      add\n      tag_302\n      swap2\n      swap1\n      tag_60\n      jump\t// in\n    tag_302:\n      mload(0x40)\n      dup1\n      swap2\n      sub\n      swap1\n      revert\n        /* \"@openzeppelin/contracts-upgradeable/token/ERC721/ERC721Upgradeable.sol\":8714:8900  if (owner == address(0)) {... */\n    tag_301:\n        /* \"@openzeppelin/contracts-upgradeable/token/ERC721/ERC721Upgradeable.sol\":8868:8875  spender */\n      dup2\n        /* \"@openzeppelin/contracts-upgradeable/token/ERC721/ERC721Upgradeable.sol\":8877:8884  tokenId */\n      dup2\n        /* \"@openzeppelin/contracts-upgradeable/token/ERC721/ERC721Upgradeable.sol\":8841:8885  ERC721InsufficientApproval(spender, tokenId) */\n      mload(0x40)\n      0x177e802f00000000000000000000000000000000000000000000000000000000\n      dup2\n      mstore\n      0x04\n      add\n      tag_304\n      swap3\n      swap2\n      swap1\n      tag_305\n      jump\t// in\n    tag_304:\n      mload(0x40)\n      dup1\n      swap2\n      sub\n      swap1\n      revert\n        /* \"@openzeppelin/contracts-upgradeable/token/ERC721/ERC721Upgradeable.sol\":8655:8910  if (!_isAuthorized(owner, spender, tokenId)) {... */\n    tag_300:\n        /* \"@openzeppelin/contracts-upgradeable/token/ERC721/ERC721Upgradeable.sol\":8548:8916  function _checkAuthorized(address owner, address spender, uint256 tokenId) internal view virtual {... */\n      pop\n      pop\n      pop\n      jump\t// out\n        /* \"@openzeppelin/contracts-upgradeable/token/ERC721/ERC721Upgradeable.sol\":12538:12720  function _safeMint(address to, uint256 tokenId, bytes memory data) internal virtual {... */\n    tag_232:\n        /* \"@openzeppelin/contracts-upgradeable/token/ERC721/ERC721Upgradeable.sol\":12632:12650  _mint(to, tokenId) */\n      tag_307\n        /* \"@openzeppelin/contracts-upgradeable/token/ERC721/ERC721Upgradeable.sol\":12638:12640  to */\n      dup4\n        /* \"@openzeppelin/contracts-upgradeable/token/ERC721/ERC721Upgradeable.sol\":12642:12649  tokenId */\n      dup4\n        /* \"@openzeppelin/contracts-upgradeable/token/ERC721/ERC721Upgradeable.sol\":12632:12637  _mint */\n      tag_308\n        /* \"@openzeppelin/contracts-upgradeable/token/ERC721/ERC721Upgradeable.sol\":12632:12650  _mint(to, tokenId) */\n      jump\t// in\n    tag_307:\n        /* \"@openzeppelin/contracts-upgradeable/token/ERC721/ERC721Upgradeable.sol\":12660:12713  _checkOnERC721Received(address(0), to, tokenId, data) */\n      tag_309\n        /* \"@openzeppelin/contracts-upgradeable/token/ERC721/ERC721Upgradeable.sol\":12691:12692  0 */\n      0x00\n        /* \"@openzeppelin/contracts-upgradeable/token/ERC721/ERC721Upgradeable.sol\":12695:12697  to */\n      dup5\n        /* \"@openzeppelin/contracts-upgradeable/token/ERC721/ERC721Upgradeable.sol\":12699:12706  tokenId */\n      dup5\n        /* \"@openzeppelin/contracts-upgradeable/token/ERC721/ERC721Upgradeable.sol\":12708:12712  data */\n      dup5\n        /* \"@openzeppelin/contracts-upgradeable/token/ERC721/ERC721Upgradeable.sol\":12660:12682  _checkOnERC721Received */\n      tag_164\n        /* \"@openzeppelin/contracts-upgradeable/token/ERC721/ERC721Upgradeable.sol\":12660:12713  _checkOnERC721Received(address(0), to, tokenId, data) */\n      jump\t// in\n    tag_309:\n        /* \"@openzeppelin/contracts-upgradeable/token/ERC721/ERC721Upgradeable.sol\":12538:12720  function _safeMint(address to, uint256 tokenId, bytes memory data) internal virtual {... */\n      pop\n      pop\n      pop\n      jump\t// out\n        /* \"@openzeppelin/contracts-upgradeable/proxy/utils/Initializable.sol\":7084:7225  function _checkInitializing() internal view virtual {... */\n    tag_261:\n        /* \"@openzeppelin/contracts-upgradeable/proxy/utils/Initializable.sol\":7151:7168  _isInitializing() */\n      tag_311\n        /* \"@openzeppelin/contracts-upgradeable/proxy/utils/Initializable.sol\":7151:7166  _isInitializing */\n      tag_312\n        /* \"@openzeppelin/contracts-upgradeable/proxy/utils/Initializable.sol\":7151:7168  _isInitializing() */\n      jump\t// in\n    tag_311:\n        /* \"@openzeppelin/contracts-upgradeable/proxy/utils/Initializable.sol\":7146:7219  if (!_isInitializing()) {... */\n      tag_313\n      jumpi\n        /* \"@openzeppelin/contracts-upgradeable/proxy/utils/Initializable.sol\":7191:7208  NotInitializing() */\n      mload(0x40)\n      0xd7e6bcf800000000000000000000000000000000000000000000000000000000\n      dup2\n      mstore\n      0x04\n      add\n      mload(0x40)\n      dup1\n      swap2\n      sub\n      swap1\n      revert\n        /* \"@openzeppelin/contracts-upgradeable/proxy/utils/Initializable.sol\":7146:7219  if (!_isInitializing()) {... */\n    tag_313:\n        /* \"@openzeppelin/contracts-upgradeable/proxy/utils/Initializable.sol\":7084:7225  function _checkInitializing() internal view virtual {... */\n      jump\t// out\n        /* \"@openzeppelin/contracts-upgradeable/token/ERC721/ERC721Upgradeable.sol\":2388:2607  function __ERC721_init_unchained(string memory name_, string memory symbol_) internal onlyInitializing {... */\n    tag_264:\n        /* \"@openzeppelin/contracts-upgradeable/proxy/utils/Initializable.sol\":6931:6951  _checkInitializing() */\n      tag_315\n        /* \"@openzeppelin/contracts-upgradeable/proxy/utils/Initializable.sol\":6931:6949  _checkInitializing */\n      tag_261\n        /* \"@openzeppelin/contracts-upgradeable/proxy/utils/Initializable.sol\":6931:6951  _checkInitializing() */\n      jump\t// in\n    tag_315:\n        /* \"@openzeppelin/contracts-upgradeable/token/ERC721/ERC721Upgradeable.sol\":2501:2524  ERC721Storage storage $ */\n      0x00\n        /* \"@openzeppelin/contracts-upgradeable/token/ERC721/ERC721Upgradeable.sol\":2527:2546  _getERC721Storage() */\n      tag_317\n        /* \"@openzeppelin/contracts-upgradeable/token/ERC721/ERC721Upgradeable.sol\":2527:2544  _getERC721Storage */\n      tag_102\n        /* \"@openzeppelin/contracts-upgradeable/token/ERC721/ERC721Upgradeable.sol\":2527:2546  _getERC721Storage() */\n      jump\t// in\n    tag_317:\n        /* \"@openzeppelin/contracts-upgradeable/token/ERC721/ERC721Upgradeable.sol\":2501:2546  ERC721Storage storage $ = _getERC721Storage() */\n      swap1\n      pop\n        /* \"@openzeppelin/contracts-upgradeable/token/ERC721/ERC721Upgradeable.sol\":2566:2571  name_ */\n      dup3\n        /* \"@openzeppelin/contracts-upgradeable/token/ERC721/ERC721Upgradeable.sol\":2556:2557  $ */\n      dup2\n        /* \"@openzeppelin/contracts-upgradeable/token/ERC721/ERC721Upgradeable.sol\":2556:2563  $._name */\n      0x00\n      add\n        /* \"@openzeppelin/contracts-upgradeable/token/ERC721/ERC721Upgradeable.sol\":2556:2571  $._name = name_ */\n      swap1\n      dup2\n      tag_318\n      swap2\n      swap1\n      tag_319\n      jump\t// in\n    tag_318:\n      pop\n        /* \"@openzeppelin/contracts-upgradeable/token/ERC721/ERC721Upgradeable.sol\":2593:2600  symbol_ */\n      dup2\n        /* \"@openzeppelin/contracts-upgradeable/token/ERC721/ERC721Upgradeable.sol\":2581:2582  $ */\n      dup2\n        /* \"@openzeppelin/contracts-upgradeable/token/ERC721/ERC721Upgradeable.sol\":2581:2590  $._symbol */\n      0x01\n      add\n        /* \"@openzeppelin/contracts-upgradeable/token/ERC721/ERC721Upgradeable.sol\":2581:2600  $._symbol = symbol_ */\n      swap1\n      dup2\n      tag_320\n      swap2\n      swap1\n      tag_319\n      jump\t// in\n    tag_320:\n      pop\n        /* \"@openzeppelin/contracts-upgradeable/token/ERC721/ERC721Upgradeable.sol\":2491:2607  {... */\n      pop\n        /* \"@openzeppelin/contracts-upgradeable/token/ERC721/ERC721Upgradeable.sol\":2388:2607  function __ERC721_init_unchained(string memory name_, string memory symbol_) internal onlyInitializing {... */\n      pop\n      pop\n      jump\t// out\n        /* \"@openzeppelin/contracts-upgradeable/access/OwnableUpgradeable.sol\":1980:2215  function __Ownable_init_unchained(address initialOwner) internal onlyInitializing {... */\n    tag_269:\n        /* \"@openzeppelin/contracts-upgradeable/proxy/utils/Initializable.sol\":6931:6951  _checkInitializing() */\n      tag_322\n        /* \"@openzeppelin/contracts-upgradeable/proxy/utils/Initializable.sol\":6931:6949  _checkInitializing */\n      tag_261\n        /* \"@openzeppelin/contracts-upgradeable/proxy/utils/Initializable.sol\":6931:6951  _checkInitializing() */\n      jump\t// in\n    tag_322:\n        /* \"@openzeppelin/contracts-upgradeable/access/OwnableUpgradeable.sol\":2100:2101  0 */\n      0x00\n        /* \"@openzeppelin/contracts-upgradeable/access/OwnableUpgradeable.sol\":2076:2102  initialOwner == address(0) */\n      0xffffffffffffffffffffffffffffffffffffffff\n      and\n        /* \"@openzeppelin/contracts-upgradeable/access/OwnableUpgradeable.sol\":2076:2088  initialOwner */\n      dup2\n        /* \"@openzeppelin/contracts-upgradeable/access/OwnableUpgradeable.sol\":2076:2102  initialOwner == address(0) */\n      0xffffffffffffffffffffffffffffffffffffffff\n      and\n      sub\n        /* \"@openzeppelin/contracts-upgradeable/access/OwnableUpgradeable.sol\":2072:2167  if (initialOwner == address(0)) {... */\n      tag_324\n      jumpi\n        /* \"@openzeppelin/contracts-upgradeable/access/OwnableUpgradeable.sol\":2153:2154  0 */\n      0x00\n        /* \"@openzeppelin/contracts-upgradeable/access/OwnableUpgradeable.sol\":2125:2156  OwnableInvalidOwner(address(0)) */\n      mload(0x40)\n      0x1e4fbdf700000000000000000000000000000000000000000000000000000000\n      dup2\n      mstore\n      0x04\n      add\n      tag_325\n      swap2\n      swap1\n      tag_39\n      jump\t// in\n    tag_325:\n      mload(0x40)\n      dup1\n      swap2\n      sub\n      swap1\n      revert\n        /* \"@openzeppelin/contracts-upgradeable/access/OwnableUpgradeable.sol\":2072:2167  if (initialOwner == address(0)) {... */\n    tag_324:\n        /* \"@openzeppelin/contracts-upgradeable/access/OwnableUpgradeable.sol\":2176:2208  _transferOwnership(initialOwner) */\n      tag_326\n        /* \"@openzeppelin/contracts-upgradeable/access/OwnableUpgradeable.sol\":2195:2207  initialOwner */\n      dup2\n        /* \"@openzeppelin/contracts-upgradeable/access/OwnableUpgradeable.sol\":2176:2194  _transferOwnership */\n      tag_141\n        /* \"@openzeppelin/contracts-upgradeable/access/OwnableUpgradeable.sol\":2176:2208  _transferOwnership(initialOwner) */\n      jump\t// in\n    tag_326:\n        /* \"@openzeppelin/contracts-upgradeable/access/OwnableUpgradeable.sol\":1980:2215  function __Ownable_init_unchained(address initialOwner) internal onlyInitializing {... */\n      pop\n      jump\t// out\n        /* \"@openzeppelin/contracts/utils/math/Math.sol\":12214:13130  function log10(uint256 value) internal pure returns (uint256) {... */\n    tag_273:\n        /* \"@openzeppelin/contracts/utils/math/Math.sol\":12267:12274  uint256 */\n      0x00\n        /* \"@openzeppelin/contracts/utils/math/Math.sol\":12286:12300  uint256 result */\n      dup1\n        /* \"@openzeppelin/contracts/utils/math/Math.sol\":12303:12304  0 */\n      0x00\n        /* \"@openzeppelin/contracts/utils/math/Math.sol\":12286:12304  uint256 result = 0 */\n      swap1\n      pop\n        /* \"@openzeppelin/contracts/utils/math/Math.sol\":12351:12359  10 ** 64 */\n      0x184f03e93ff9f4daa797ed6e38ed64bf6a1f010000000000000000\n        /* \"@openzeppelin/contracts/utils/math/Math.sol\":12342:12347  value */\n      dup4\n        /* \"@openzeppelin/contracts/utils/math/Math.sol\":12342:12359  value >= 10 ** 64 */\n      lt\n        /* \"@openzeppelin/contracts/utils/math/Math.sol\":12338:12441  if (value >= 10 ** 64) {... */\n      tag_328\n      jumpi\n        /* \"@openzeppelin/contracts/utils/math/Math.sol\":12388:12396  10 ** 64 */\n      0x184f03e93ff9f4daa797ed6e38ed64bf6a1f010000000000000000\n        /* \"@openzeppelin/contracts/utils/math/Math.sol\":12379:12396  value /= 10 ** 64 */\n      dup4\n      dup2\n      tag_329\n      jumpi\n      tag_330\n      tag_282\n      jump\t// in\n    tag_330:\n    tag_329:\n      div\n      swap3\n      pop\n        /* \"@openzeppelin/contracts/utils/math/Math.sol\":12424:12426  64 */\n      0x40\n        /* \"@openzeppelin/contracts/utils/math/Math.sol\":12414:12426  result += 64 */\n      dup2\n      add\n      swap1\n      pop\n        /* \"@openzeppelin/contracts/utils/math/Math.sol\":12338:12441  if (value >= 10 ** 64) {... */\n    tag_328:\n        /* \"@openzeppelin/contracts/utils/math/Math.sol\":12467:12475  10 ** 32 */\n      0x04ee2d6d415b85acef8100000000\n        /* \"@openzeppelin/contracts/utils/math/Math.sol\":12458:12463  value */\n      dup4\n        /* \"@openzeppelin/contracts/utils/math/Math.sol\":12458:12475  value >= 10 ** 32 */\n      lt\n        /* \"@openzeppelin/contracts/utils/math/Math.sol\":12454:12557  if (value >= 10 ** 32) {... */\n      tag_331\n      jumpi\n        /* \"@openzeppelin/contracts/utils/math/Math.sol\":12504:12512  10 ** 32 */\n      0x04ee2d6d415b85acef8100000000\n        /* \"@openzeppelin/contracts/utils/math/Math.sol\":12495:12512  value /= 10 ** 32 */\n      dup4\n      dup2\n      tag_332\n      jumpi\n      tag_333\n      tag_282\n      jump\t// in\n    tag_333:\n    tag_332:\n      div\n      swap3\n      pop\n        /* \"@openzeppelin/contracts/utils/math/Math.sol\":12540:12542  32 */\n      0x20\n        /* \"@openzeppelin/contracts/utils/math/Math.sol\":12530:12542  result += 32 */\n      dup2\n      add\n      swap1\n      pop\n        /* \"@openzeppelin/contracts/utils/math/Math.sol\":12454:12557  if (value >= 10 ** 32) {... */\n    tag_331:\n        /* \"@openzeppelin/contracts/utils/math/Math.sol\":12583:12591  10 ** 16 */\n      0x2386f26fc10000\n        /* \"@openzeppelin/contracts/utils/math/Math.sol\":12574:12579  value */\n      dup4\n        /* \"@openzeppelin/contracts/utils/math/Math.sol\":12574:12591  value >= 10 ** 16 */\n      lt\n        /* \"@openzeppelin/contracts/utils/math/Math.sol\":12570:12673  if (value >= 10 ** 16) {... */\n      tag_334\n      jumpi\n        /* \"@openzeppelin/contracts/utils/math/Math.sol\":12620:12628  10 ** 16 */\n      0x2386f26fc10000\n        /* \"@openzeppelin/contracts/utils/math/Math.sol\":12611:12628  value /= 10 ** 16 */\n      dup4\n      dup2\n      tag_335\n      jumpi\n      tag_336\n      tag_282\n      jump\t// in\n    tag_336:\n    tag_335:\n      div\n      swap3\n      pop\n        /* \"@openzeppelin/contracts/utils/math/Math.sol\":12656:12658  16 */\n      0x10\n        /* \"@openzeppelin/contracts/utils/math/Math.sol\":12646:12658  result += 16 */\n      dup2\n      add\n      swap1\n      pop\n        /* \"@openzeppelin/contracts/utils/math/Math.sol\":12570:12673  if (value >= 10 ** 16) {... */\n    tag_334:\n        /* \"@openzeppelin/contracts/utils/math/Math.sol\":12699:12706  10 ** 8 */\n      0x05f5e100\n        /* \"@openzeppelin/contracts/utils/math/Math.sol\":12690:12695  value */\n      dup4\n        /* \"@openzeppelin/contracts/utils/math/Math.sol\":12690:12706  value >= 10 ** 8 */\n      lt\n        /* \"@openzeppelin/contracts/utils/math/Math.sol\":12686:12786  if (value >= 10 ** 8) {... */\n      tag_337\n      jumpi\n        /* \"@openzeppelin/contracts/utils/math/Math.sol\":12735:12742  10 ** 8 */\n      0x05f5e100\n        /* \"@openzeppelin/contracts/utils/math/Math.sol\":12726:12742  value /= 10 ** 8 */\n      dup4\n      dup2\n      tag_338\n      jumpi\n      tag_339\n      tag_282\n      jump\t// in\n    tag_339:\n    tag_338:\n      div\n      swap3\n      pop\n        /* \"@openzeppelin/contracts/utils/math/Math.sol\":12770:12771  8 */\n      0x08\n        /* \"@openzeppelin/contracts/utils/math/Math.sol\":12760:12771  result += 8 */\n      dup2\n      add\n      swap1\n      pop\n        /* \"@openzeppelin/contracts/utils/math/Math.sol\":12686:12786  if (value >= 10 ** 8) {... */\n    tag_337:\n        /* \"@openzeppelin/contracts/utils/math/Math.sol\":12812:12819  10 ** 4 */\n      0x2710\n        /* \"@openzeppelin/contracts/utils/math/Math.sol\":12803:12808  value */\n      dup4\n        /* \"@openzeppelin/contracts/utils/math/Math.sol\":12803:12819  value >= 10 ** 4 */\n      lt\n        /* \"@openzeppelin/contracts/utils/math/Math.sol\":12799:12899  if (value >= 10 ** 4) {... */\n      tag_340\n      jumpi\n        /* \"@openzeppelin/contracts/utils/math/Math.sol\":12848:12855  10 ** 4 */\n      0x2710\n        /* \"@openzeppelin/contracts/utils/math/Math.sol\":12839:12855  value /= 10 ** 4 */\n      dup4\n      dup2\n      tag_341\n      jumpi\n      tag_342\n      tag_282\n      jump\t// in\n    tag_342:\n    tag_341:\n      div\n      swap3\n      pop\n        /* \"@openzeppelin/contracts/utils/math/Math.sol\":12883:12884  4 */\n      0x04\n        /* \"@openzeppelin/contracts/utils/math/Math.sol\":12873:12884  result += 4 */\n      dup2\n      add\n      swap1\n      pop\n        /* \"@openzeppelin/contracts/utils/math/Math.sol\":12799:12899  if (value >= 10 ** 4) {... */\n    tag_340:\n        /* \"@openzeppelin/contracts/utils/math/Math.sol\":12925:12932  10 ** 2 */\n      0x64\n        /* \"@openzeppelin/contracts/utils/math/Math.sol\":12916:12921  value */\n      dup4\n        /* \"@openzeppelin/contracts/utils/math/Math.sol\":12916:12932  value >= 10 ** 2 */\n      lt\n        /* \"@openzeppelin/contracts/utils/math/Math.sol\":12912:13012  if (value >= 10 ** 2) {... */\n      tag_343\n      jumpi\n        /* \"@openzeppelin/contracts/utils/math/Math.sol\":12961:12968  10 ** 2 */\n      0x64\n        /* \"@openzeppelin/contracts/utils/math/Math.sol\":12952:12968  value /= 10 ** 2 */\n      dup4\n      dup2\n      tag_344\n      jumpi\n      tag_345\n      tag_282\n      jump\t// in\n    tag_345:\n    tag_344:\n      div\n      swap3\n      pop\n        /* \"@openzeppelin/contracts/utils/math/Math.sol\":12996:12997  2 */\n      0x02\n        /* \"@openzeppelin/contracts/utils/math/Math.sol\":12986:12997  result += 2 */\n      dup2\n      add\n      swap1\n      pop\n        /* \"@openzeppelin/contracts/utils/math/Math.sol\":12912:13012  if (value >= 10 ** 2) {... */\n    tag_343:\n        /* \"@openzeppelin/contracts/utils/math/Math.sol\":13038:13045  10 ** 1 */\n      0x0a\n        /* \"@openzeppelin/contracts/utils/math/Math.sol\":13029:13034  value */\n      dup4\n        /* \"@openzeppelin/contracts/utils/math/Math.sol\":13029:13045  value >= 10 ** 1 */\n      lt\n        /* \"@openzeppelin/contracts/utils/math/Math.sol\":13025:13091  if (value >= 10 ** 1) {... */\n      tag_346\n      jumpi\n        /* \"@openzeppelin/contracts/utils/math/Math.sol\":13075:13076  1 */\n      0x01\n        /* \"@openzeppelin/contracts/utils/math/Math.sol\":13065:13076  result += 1 */\n      dup2\n      add\n      swap1\n      pop\n        /* \"@openzeppelin/contracts/utils/math/Math.sol\":13025:13091  if (value >= 10 ** 1) {... */\n    tag_346:\n        /* \"@openzeppelin/contracts/utils/math/Math.sol\":13117:13123  result */\n      dup1\n        /* \"@openzeppelin/contracts/utils/math/Math.sol\":13110:13123  return result */\n      swap2\n      pop\n      pop\n        /* \"@openzeppelin/contracts/utils/math/Math.sol\":12214:13130  function log10(uint256 value) internal pure returns (uint256) {... */\n      swap2\n      swap1\n      pop\n      jump\t// out\n        /* \"@openzeppelin/contracts-upgradeable/token/ERC721/ERC721Upgradeable.sol\":7842:8114  function _isAuthorized(address owner, address spender, uint256 tokenId) internal view virtual returns (bool) {... */\n    tag_299:\n        /* \"@openzeppelin/contracts-upgradeable/token/ERC721/ERC721Upgradeable.sol\":7945:7949  bool */\n      0x00\n        /* \"@openzeppelin/contracts-upgradeable/token/ERC721/ERC721Upgradeable.sol\":7999:8000  0 */\n      dup1\n        /* \"@openzeppelin/contracts-upgradeable/token/ERC721/ERC721Upgradeable.sol\":7980:8001  spender != address(0) */\n      0xffffffffffffffffffffffffffffffffffffffff\n      and\n        /* \"@openzeppelin/contracts-upgradeable/token/ERC721/ERC721Upgradeable.sol\":7980:7987  spender */\n      dup4\n        /* \"@openzeppelin/contracts-upgradeable/token/ERC721/ERC721Upgradeable.sol\":7980:8001  spender != address(0) */\n      0xffffffffffffffffffffffffffffffffffffffff\n      and\n      eq\n      iszero\n        /* \"@openzeppelin/contracts-upgradeable/token/ERC721/ERC721Upgradeable.sol\":7980:8107  spender != address(0) &&... */\n      dup1\n      iszero\n      tag_348\n      jumpi\n      pop\n        /* \"@openzeppelin/contracts-upgradeable/token/ERC721/ERC721Upgradeable.sol\":8027:8034  spender */\n      dup3\n        /* \"@openzeppelin/contracts-upgradeable/token/ERC721/ERC721Upgradeable.sol\":8018:8034  owner == spender */\n      0xffffffffffffffffffffffffffffffffffffffff\n      and\n        /* \"@openzeppelin/contracts-upgradeable/token/ERC721/ERC721Upgradeable.sol\":8018:8023  owner */\n      dup5\n        /* \"@openzeppelin/contracts-upgradeable/token/ERC721/ERC721Upgradeable.sol\":8018:8034  owner == spender */\n      0xffffffffffffffffffffffffffffffffffffffff\n      and\n      eq\n        /* \"@openzeppelin/contracts-upgradeable/token/ERC721/ERC721Upgradeable.sol\":8018:8070  owner == spender || isApprovedForAll(owner, spender) */\n      dup1\n      tag_349\n      jumpi\n      pop\n        /* \"@openzeppelin/contracts-upgradeable/token/ERC721/ERC721Upgradeable.sol\":8038:8070  isApprovedForAll(owner, spender) */\n      tag_350\n        /* \"@openzeppelin/contracts-upgradeable/token/ERC721/ERC721Upgradeable.sol\":8055:8060  owner */\n      dup5\n        /* \"@openzeppelin/contracts-upgradeable/token/ERC721/ERC721Upgradeable.sol\":8062:8069  spender */\n      dup5\n        /* \"@openzeppelin/contracts-upgradeable/token/ERC721/ERC721Upgradeable.sol\":8038:8054  isApprovedForAll */\n      tag_90\n        /* \"@openzeppelin/contracts-upgradeable/token/ERC721/ERC721Upgradeable.sol\":8038:8070  isApprovedForAll(owner, spender) */\n      jump\t// in\n    tag_350:\n        /* \"@openzeppelin/contracts-upgradeable/token/ERC721/ERC721Upgradeable.sol\":8018:8070  owner == spender || isApprovedForAll(owner, spender) */\n    tag_349:\n        /* \"@openzeppelin/contracts-upgradeable/token/ERC721/ERC721Upgradeable.sol\":8018:8106  owner == spender || isApprovedForAll(owner, spender) || _getApproved(tokenId) == spender */\n      dup1\n      tag_351\n      jumpi\n      pop\n        /* \"@openzeppelin/contracts-upgradeable/token/ERC721/ERC721Upgradeable.sol\":8099:8106  spender */\n      dup3\n        /* \"@openzeppelin/contracts-upgradeable/token/ERC721/ERC721Upgradeable.sol\":8074:8106  _getApproved(tokenId) == spender */\n      0xffffffffffffffffffffffffffffffffffffffff\n      and\n        /* \"@openzeppelin/contracts-upgradeable/token/ERC721/ERC721Upgradeable.sol\":8074:8095  _getApproved(tokenId) */\n      tag_352\n        /* \"@openzeppelin/contracts-upgradeable/token/ERC721/ERC721Upgradeable.sol\":8087:8094  tokenId */\n      dup4\n        /* \"@openzeppelin/contracts-upgradeable/token/ERC721/ERC721Upgradeable.sol\":8074:8086  _getApproved */\n      tag_113\n        /* \"@openzeppelin/contracts-upgradeable/token/ERC721/ERC721Upgradeable.sol\":8074:8095  _getApproved(tokenId) */\n      jump\t// in\n    tag_352:\n        /* \"@openzeppelin/contracts-upgradeable/token/ERC721/ERC721Upgradeable.sol\":8074:8106  _getApproved(tokenId) == spender */\n      0xffffffffffffffffffffffffffffffffffffffff\n      and\n      eq\n        /* \"@openzeppelin/contracts-upgradeable/token/ERC721/ERC721Upgradeable.sol\":8018:8106  owner == spender || isApprovedForAll(owner, spender) || _getApproved(tokenId) == spender */\n    tag_351:\n        /* \"@openzeppelin/contracts-upgradeable/token/ERC721/ERC721Upgradeable.sol\":7980:8107  spender != address(0) &&... */\n    tag_348:\n        /* \"@openzeppelin/contracts-upgradeable/token/ERC721/ERC721Upgradeable.sol\":7961:8107  return... */\n      swap1\n      pop\n        /* \"@openzeppelin/contracts-upgradeable/token/ERC721/ERC721Upgradeable.sol\":7842:8114  function _isAuthorized(address owner, address spender, uint256 tokenId) internal view virtual returns (bool) {... */\n      swap4\n      swap3\n      pop\n      pop\n      pop\n      jump\t// out\n        /* \"@openzeppelin/contracts-upgradeable/token/ERC721/ERC721Upgradeable.sol\":11539:11866  function _mint(address to, uint256 tokenId) internal {... */\n    tag_308:\n        /* \"@openzeppelin/contracts-upgradeable/token/ERC721/ERC721Upgradeable.sol\":11620:11621  0 */\n      0x00\n        /* \"@openzeppelin/contracts-upgradeable/token/ERC721/ERC721Upgradeable.sol\":11606:11622  to == address(0) */\n      0xffffffffffffffffffffffffffffffffffffffff\n      and\n        /* \"@openzeppelin/contracts-upgradeable/token/ERC721/ERC721Upgradeable.sol\":11606:11608  to */\n      dup3\n        /* \"@openzeppelin/contracts-upgradeable/token/ERC721/ERC721Upgradeable.sol\":11606:11622  to == address(0) */\n      0xffffffffffffffffffffffffffffffffffffffff\n      and\n      sub\n        /* \"@openzeppelin/contracts-upgradeable/token/ERC721/ERC721Upgradeable.sol\":11602:11689  if (to == address(0)) {... */\n      tag_354\n      jumpi\n        /* \"@openzeppelin/contracts-upgradeable/token/ERC721/ERC721Upgradeable.sol\":11675:11676  0 */\n      0x00\n        /* \"@openzeppelin/contracts-upgradeable/token/ERC721/ERC721Upgradeable.sol\":11645:11678  ERC721InvalidReceiver(address(0)) */\n      mload(0x40)\n      0x64a0ae9200000000000000000000000000000000000000000000000000000000\n      dup2\n      mstore\n      0x04\n      add\n      tag_355\n      swap2\n      swap1\n      tag_39\n      jump\t// in\n    tag_355:\n      mload(0x40)\n      dup1\n      swap2\n      sub\n      swap1\n      revert\n        /* \"@openzeppelin/contracts-upgradeable/token/ERC721/ERC721Upgradeable.sol\":11602:11689  if (to == address(0)) {... */\n    tag_354:\n        /* \"@openzeppelin/contracts-upgradeable/token/ERC721/ERC721Upgradeable.sol\":11698:11719  address previousOwner */\n      0x00\n        /* \"@openzeppelin/contracts-upgradeable/token/ERC721/ERC721Upgradeable.sol\":11722:11754  _update(to, tokenId, address(0)) */\n      tag_356\n        /* \"@openzeppelin/contracts-upgradeable/token/ERC721/ERC721Upgradeable.sol\":11730:11732  to */\n      dup4\n        /* \"@openzeppelin/contracts-upgradeable/token/ERC721/ERC721Upgradeable.sol\":11734:11741  tokenId */\n      dup4\n        /* \"@openzeppelin/contracts-upgradeable/token/ERC721/ERC721Upgradeable.sol\":11751:11752  0 */\n      0x00\n        /* \"@openzeppelin/contracts-upgradeable/token/ERC721/ERC721Upgradeable.sol\":11722:11729  _update */\n      tag_124\n        /* \"@openzeppelin/contracts-upgradeable/token/ERC721/ERC721Upgradeable.sol\":11722:11754  _update(to, tokenId, address(0)) */\n      jump\t// in\n    tag_356:\n        /* \"@openzeppelin/contracts-upgradeable/token/ERC721/ERC721Upgradeable.sol\":11698:11754  address previousOwner = _update(to, tokenId, address(0)) */\n      swap1\n      pop\n        /* \"@openzeppelin/contracts-upgradeable/token/ERC721/ERC721Upgradeable.sol\":11793:11794  0 */\n      0x00\n        /* \"@openzeppelin/contracts-upgradeable/token/ERC721/ERC721Upgradeable.sol\":11768:11795  previousOwner != address(0) */\n      0xffffffffffffffffffffffffffffffffffffffff\n      and\n        /* \"@openzeppelin/contracts-upgradeable/token/ERC721/ERC721Upgradeable.sol\":11768:11781  previousOwner */\n      dup2\n        /* \"@openzeppelin/contracts-upgradeable/token/ERC721/ERC721Upgradeable.sol\":11768:11795  previousOwner != address(0) */\n      0xffffffffffffffffffffffffffffffffffffffff\n      and\n      eq\n        /* \"@openzeppelin/contracts-upgradeable/token/ERC721/ERC721Upgradeable.sol\":11764:11860  if (previousOwner != address(0)) {... */\n      tag_357\n      jumpi\n        /* \"@openzeppelin/contracts-upgradeable/token/ERC721/ERC721Upgradeable.sol\":11846:11847  0 */\n      0x00\n        /* \"@openzeppelin/contracts-upgradeable/token/ERC721/ERC721Upgradeable.sol\":11818:11849  ERC721InvalidSender(address(0)) */\n      mload(0x40)\n      0x73c6ac6e00000000000000000000000000000000000000000000000000000000\n      dup2\n      mstore\n      0x04\n      add\n      tag_358\n      swap2\n      swap1\n      tag_39\n      jump\t// in\n    tag_358:\n      mload(0x40)\n      dup1\n      swap2\n      sub\n      swap1\n      revert\n        /* \"@openzeppelin/contracts-upgradeable/token/ERC721/ERC721Upgradeable.sol\":11764:11860  if (previousOwner != address(0)) {... */\n    tag_357:\n        /* \"@openzeppelin/contracts-upgradeable/token/ERC721/ERC721Upgradeable.sol\":11592:11866  {... */\n      pop\n        /* \"@openzeppelin/contracts-upgradeable/token/ERC721/ERC721Upgradeable.sol\":11539:11866  function _mint(address to, uint256 tokenId) internal {... */\n      pop\n      pop\n      jump\t// out\n        /* \"@openzeppelin/contracts-upgradeable/proxy/utils/Initializable.sol\":8487:8607  function _isInitializing() internal view returns (bool) {... */\n    tag_312:\n        /* \"@openzeppelin/contracts-upgradeable/proxy/utils/Initializable.sol\":8537:8541  bool */\n      0x00\n        /* \"@openzeppelin/contracts-upgradeable/proxy/utils/Initializable.sol\":8560:8586  _getInitializableStorage() */\n      tag_360\n        /* \"@openzeppelin/contracts-upgradeable/proxy/utils/Initializable.sol\":8560:8584  _getInitializableStorage */\n      tag_167\n        /* \"@openzeppelin/contracts-upgradeable/proxy/utils/Initializable.sol\":8560:8586  _getInitializableStorage() */\n      jump\t// in\n    tag_360:\n        /* \"@openzeppelin/contracts-upgradeable/proxy/utils/Initializable.sol\":8560:8600  _getInitializableStorage()._initializing */\n      0x00\n      add\n      0x08\n      swap1\n      sload\n      swap1\n      0x0100\n      exp\n      swap1\n      div\n      0xff\n      and\n        /* \"@openzeppelin/contracts-upgradeable/proxy/utils/Initializable.sol\":8553:8600  return _getInitializableStorage()._initializing */\n      swap1\n      pop\n        /* \"@openzeppelin/contracts-upgradeable/proxy/utils/Initializable.sol\":8487:8607  function _isInitializing() internal view returns (bool) {... */\n      swap1\n      jump\t// out\n        /* \"#utility.yul\":7:82   */\n    tag_361:\n        /* \"#utility.yul\":40:46   */\n      0x00\n        /* \"#utility.yul\":73:75   */\n      0x40\n        /* \"#utility.yul\":67:76   */\n      mload\n        /* \"#utility.yul\":57:76   */\n      swap1\n      pop\n        /* \"#utility.yul\":7:82   */\n      swap1\n      jump\t// out\n        /* \"#utility.yul\":88:205   */\n    tag_362:\n        /* \"#utility.yul\":197:198   */\n      0x00\n        /* \"#utility.yul\":194:195   */\n      dup1\n        /* \"#utility.yul\":187:199   */\n      revert\n        /* \"#utility.yul\":211:328   */\n    tag_363:\n        /* \"#utility.yul\":320:321   */\n      0x00\n        /* \"#utility.yul\":317:318   */\n      dup1\n        /* \"#utility.yul\":310:322   */\n      revert\n        /* \"#utility.yul\":334:483   */\n    tag_364:\n        /* \"#utility.yul\":370:377   */\n      0x00\n        /* \"#utility.yul\":410:476   */\n      0xffffffff00000000000000000000000000000000000000000000000000000000\n        /* \"#utility.yul\":403:408   */\n      dup3\n        /* \"#utility.yul\":399:477   */\n      and\n        /* \"#utility.yul\":388:477   */\n      swap1\n      pop\n        /* \"#utility.yul\":334:483   */\n      swap2\n      swap1\n      pop\n      jump\t// out\n        /* \"#utility.yul\":489:609   */\n    tag_365:\n        /* \"#utility.yul\":561:584   */\n      tag_425\n        /* \"#utility.yul\":578:583   */\n      dup2\n        /* \"#utility.yul\":561:584   */\n      tag_364\n      jump\t// in\n    tag_425:\n        /* \"#utility.yul\":554:559   */\n      dup2\n        /* \"#utility.yul\":551:585   */\n      eq\n        /* \"#utility.yul\":541:603   */\n      tag_426\n      jumpi\n        /* \"#utility.yul\":599:600   */\n      0x00\n        /* \"#utility.yul\":596:597   */\n      dup1\n        /* \"#utility.yul\":589:601   */\n      revert\n        /* \"#utility.yul\":541:603   */\n    tag_426:\n        /* \"#utility.yul\":489:609   */\n      pop\n      jump\t// out\n        /* \"#utility.yul\":615:752   */\n    tag_366:\n        /* \"#utility.yul\":660:665   */\n      0x00\n        /* \"#utility.yul\":698:704   */\n      dup2\n        /* \"#utility.yul\":685:705   */\n      calldataload\n        /* \"#utility.yul\":676:705   */\n      swap1\n      pop\n        /* \"#utility.yul\":714:746   */\n      tag_428\n        /* \"#utility.yul\":740:745   */\n      dup2\n        /* \"#utility.yul\":714:746   */\n      tag_365\n      jump\t// in\n    tag_428:\n        /* \"#utility.yul\":615:752   */\n      swap3\n      swap2\n      pop\n      pop\n      jump\t// out\n        /* \"#utility.yul\":758:1085   */\n    tag_26:\n        /* \"#utility.yul\":816:822   */\n      0x00\n        /* \"#utility.yul\":865:867   */\n      0x20\n        /* \"#utility.yul\":853:862   */\n      dup3\n        /* \"#utility.yul\":844:851   */\n      dup5\n        /* \"#utility.yul\":840:863   */\n      sub\n        /* \"#utility.yul\":836:868   */\n      slt\n        /* \"#utility.yul\":833:952   */\n      iszero\n      tag_430\n      jumpi\n        /* \"#utility.yul\":871:950   */\n      tag_431\n      tag_362\n      jump\t// in\n    tag_431:\n        /* \"#utility.yul\":833:952   */\n    tag_430:\n        /* \"#utility.yul\":991:992   */\n      0x00\n        /* \"#utility.yul\":1016:1068   */\n      tag_432\n        /* \"#utility.yul\":1060:1067   */\n      dup5\n        /* \"#utility.yul\":1051:1057   */\n      dup3\n        /* \"#utility.yul\":1040:1049   */\n      dup6\n        /* \"#utility.yul\":1036:1058   */\n      add\n        /* \"#utility.yul\":1016:1068   */\n      tag_366\n      jump\t// in\n    tag_432:\n        /* \"#utility.yul\":1006:1068   */\n      swap2\n      pop\n        /* \"#utility.yul\":962:1078   */\n      pop\n        /* \"#utility.yul\":758:1085   */\n      swap3\n      swap2\n      pop\n      pop\n      jump\t// out\n        /* \"#utility.yul\":1091:1181   */\n    tag_367:\n        /* \"#utility.yul\":1125:1132   */\n      0x00\n        /* \"#utility.yul\":1168:1173   */\n      dup2\n        /* \"#utility.yul\":1161:1174   */\n      iszero\n        /* \"#utility.yul\":1154:1175   */\n      iszero\n        /* \"#utility.yul\":1143:1175   */\n      swap1\n      pop\n        /* \"#utility.yul\":1091:1181   */\n      swap2\n      swap1\n      pop\n      jump\t// out\n        /* \"#utility.yul\":1187:1296   */\n    tag_368:\n        /* \"#utility.yul\":1268:1289   */\n      tag_435\n        /* \"#utility.yul\":1283:1288   */\n      dup2\n        /* \"#utility.yul\":1268:1289   */\n      tag_367\n      jump\t// in\n    tag_435:\n        /* \"#utility.yul\":1263:1266   */\n      dup3\n        /* \"#utility.yul\":1256:1290   */\n      mstore\n        /* \"#utility.yul\":1187:1296   */\n      pop\n      pop\n      jump\t// out\n        /* \"#utility.yul\":1302:1512   */\n    tag_29:\n        /* \"#utility.yul\":1389:1393   */\n      0x00\n        /* \"#utility.yul\":1427:1429   */\n      0x20\n        /* \"#utility.yul\":1416:1425   */\n      dup3\n        /* \"#utility.yul\":1412:1430   */\n      add\n        /* \"#utility.yul\":1404:1430   */\n      swap1\n      pop\n        /* \"#utility.yul\":1440:1505   */\n      tag_437\n        /* \"#utility.yul\":1502:1503   */\n      0x00\n        /* \"#utility.yul\":1491:1500   */\n      dup4\n        /* \"#utility.yul\":1487:1504   */\n      add\n        /* \"#utility.yul\":1478:1484   */\n      dup5\n        /* \"#utility.yul\":1440:1505   */\n      tag_368\n      jump\t// in\n    tag_437:\n        /* \"#utility.yul\":1302:1512   */\n      swap3\n      swap2\n      pop\n      pop\n      jump\t// out\n        /* \"#utility.yul\":1518:1617   */\n    tag_369:\n        /* \"#utility.yul\":1570:1576   */\n      0x00\n        /* \"#utility.yul\":1604:1609   */\n      dup2\n        /* \"#utility.yul\":1598:1610   */\n      mload\n        /* \"#utility.yul\":1588:1610   */\n      swap1\n      pop\n        /* \"#utility.yul\":1518:1617   */\n      swap2\n      swap1\n      pop\n      jump\t// out\n        /* \"#utility.yul\":1623:1792   */\n    tag_370:\n        /* \"#utility.yul\":1707:1718   */\n      0x00\n        /* \"#utility.yul\":1741:1747   */\n      dup3\n        /* \"#utility.yul\":1736:1739   */\n      dup3\n        /* \"#utility.yul\":1729:1748   */\n      mstore\n        /* \"#utility.yul\":1781:1785   */\n      0x20\n        /* \"#utility.yul\":1776:1779   */\n      dup3\n        /* \"#utility.yul\":1772:1786   */\n      add\n        /* \"#utility.yul\":1757:1786   */\n      swap1\n      pop\n        /* \"#utility.yul\":1623:1792   */\n      swap3\n      swap2\n      pop\n      pop\n      jump\t// out\n        /* \"#utility.yul\":1798:2044   */\n    tag_371:\n        /* \"#utility.yul\":1879:1880   */\n      0x00\n        /* \"#utility.yul\":1889:2002   */\n    tag_441:\n        /* \"#utility.yul\":1903:1909   */\n      dup4\n        /* \"#utility.yul\":1900:1901   */\n      dup2\n        /* \"#utility.yul\":1897:1910   */\n      lt\n        /* \"#utility.yul\":1889:2002   */\n      iszero\n      tag_443\n      jumpi\n        /* \"#utility.yul\":1988:1989   */\n      dup1\n        /* \"#utility.yul\":1983:1986   */\n      dup3\n        /* \"#utility.yul\":1979:1990   */\n      add\n        /* \"#utility.yul\":1973:1991   */\n      mload\n        /* \"#utility.yul\":1969:1970   */\n      dup2\n        /* \"#utility.yul\":1964:1967   */\n      dup5\n        /* \"#utility.yul\":1960:1971   */\n      add\n        /* \"#utility.yul\":1953:1992   */\n      mstore\n        /* \"#utility.yul\":1925:1927   */\n      0x20\n        /* \"#utility.yul\":1922:1923   */\n      dup2\n        /* \"#utility.yul\":1918:1928   */\n      add\n        /* \"#utility.yul\":1913:1928   */\n      swap1\n      pop\n        /* \"#utility.yul\":1889:2002   */\n      jump(tag_441)\n    tag_443:\n        /* \"#utility.yul\":2036:2037   */\n      0x00\n        /* \"#utility.yul\":2027:2033   */\n      dup5\n        /* \"#utility.yul\":2022:2025   */\n      dup5\n        /* \"#utility.yul\":2018:2034   */\n      add\n        /* \"#utility.yul\":2011:2038   */\n      mstore\n        /* \"#utility.yul\":1860:2044   */\n      pop\n        /* \"#utility.yul\":1798:2044   */\n      pop\n      pop\n      pop\n      jump\t// out\n        /* \"#utility.yul\":2050:2152   */\n    tag_372:\n        /* \"#utility.yul\":2091:2097   */\n      0x00\n        /* \"#utility.yul\":2142:2144   */\n      0x1f\n        /* \"#utility.yul\":2138:2145   */\n      not\n        /* \"#utility.yul\":2133:2135   */\n      0x1f\n        /* \"#utility.yul\":2126:2131   */\n      dup4\n        /* \"#utility.yul\":2122:2136   */\n      add\n        /* \"#utility.yul\":2118:2146   */\n      and\n        /* \"#utility.yul\":2108:2146   */\n      swap1\n      pop\n        /* \"#utility.yul\":2050:2152   */\n      swap2\n      swap1\n      pop\n      jump\t// out\n        /* \"#utility.yul\":2158:2535   */\n    tag_373:\n        /* \"#utility.yul\":2246:2249   */\n      0x00\n        /* \"#utility.yul\":2274:2313   */\n      tag_446\n        /* \"#utility.yul\":2307:2312   */\n      dup3\n        /* \"#utility.yul\":2274:2313   */\n      tag_369\n      jump\t// in\n    tag_446:\n        /* \"#utility.yul\":2329:2400   */\n      tag_447\n        /* \"#utility.yul\":2393:2399   */\n      dup2\n        /* \"#utility.yul\":2388:2391   */\n      dup6\n        /* \"#utility.yul\":2329:2400   */\n      tag_370\n      jump\t// in\n    tag_447:\n        /* \"#utility.yul\":2322:2400   */\n      swap4\n      pop\n        /* \"#utility.yul\":2409:2474   */\n      tag_448\n        /* \"#utility.yul\":2467:2473   */\n      dup2\n        /* \"#utility.yul\":2462:2465   */\n      dup6\n        /* \"#utility.yul\":2455:2459   */\n      0x20\n        /* \"#utility.yul\":2448:2453   */\n      dup7\n        /* \"#utility.yul\":2444:2460   */\n      add\n        /* \"#utility.yul\":2409:2474   */\n      tag_371\n      jump\t// in\n    tag_448:\n        /* \"#utility.yul\":2499:2528   */\n      tag_449\n        /* \"#utility.yul\":2521:2527   */\n      dup2\n        /* \"#utility.yul\":2499:2528   */\n      tag_372\n      jump\t// in\n    tag_449:\n        /* \"#utility.yul\":2494:2497   */\n      dup5\n        /* \"#utility.yul\":2490:2529   */\n      add\n        /* \"#utility.yul\":2483:2529   */\n      swap2\n      pop\n        /* \"#utility.yul\":2250:2535   */\n      pop\n        /* \"#utility.yul\":2158:2535   */\n      swap3\n      swap2\n      pop\n      pop\n      jump\t// out\n        /* \"#utility.yul\":2541:2854   */\n    tag_33:\n        /* \"#utility.yul\":2654:2658   */\n      0x00\n        /* \"#utility.yul\":2692:2694   */\n      0x20\n        /* \"#utility.yul\":2681:2690   */\n      dup3\n        /* \"#utility.yul\":2677:2695   */\n      add\n        /* \"#utility.yul\":2669:2695   */\n      swap1\n      pop\n        /* \"#utility.yul\":2741:2750   */\n      dup2\n        /* \"#utility.yul\":2735:2739   */\n      dup2\n        /* \"#utility.yul\":2731:2751   */\n      sub\n        /* \"#utility.yul\":2727:2728   */\n      0x00\n        /* \"#utility.yul\":2716:2725   */\n      dup4\n        /* \"#utility.yul\":2712:2729   */\n      add\n        /* \"#utility.yul\":2705:2752   */\n      mstore\n        /* \"#utility.yul\":2769:2847   */\n      tag_451\n        /* \"#utility.yul\":2842:2846   */\n      dup2\n        /* \"#utility.yul\":2833:2839   */\n      dup5\n        /* \"#utility.yul\":2769:2847   */\n      tag_373\n      jump\t// in\n    tag_451:\n        /* \"#utility.yul\":2761:2847   */\n      swap1\n      pop\n        /* \"#utility.yul\":2541:2854   */\n      swap3\n      swap2\n      pop\n      pop\n      jump\t// out\n        /* \"#utility.yul\":2860:2937   */\n    tag_374:\n        /* \"#utility.yul\":2897:2904   */\n      0x00\n        /* \"#utility.yul\":2926:2931   */\n      dup2\n        /* \"#utility.yul\":2915:2931   */\n      swap1\n      pop\n        /* \"#utility.yul\":2860:2937   */\n      swap2\n      swap1\n      pop\n      jump\t// out\n        /* \"#utility.yul\":2943:3065   */\n    tag_375:\n        /* \"#utility.yul\":3016:3040   */\n      tag_454\n        /* \"#utility.yul\":3034:3039   */\n      dup2\n        /* \"#utility.yul\":3016:3040   */\n      tag_374\n      jump\t// in\n    tag_454:\n        /* \"#utility.yul\":3009:3014   */\n      dup2\n        /* \"#utility.yul\":3006:3041   */\n      eq\n        /* \"#utility.yul\":2996:3059   */\n      tag_455\n      jumpi\n        /* \"#utility.yul\":3055:3056   */\n      0x00\n        /* \"#utility.yul\":3052:3053   */\n      dup1\n        /* \"#utility.yul\":3045:3057   */\n      revert\n        /* \"#utility.yul\":2996:3059   */\n    tag_455:\n        /* \"#utility.yul\":2943:3065   */\n      pop\n      jump\t// out\n        /* \"#utility.yul\":3071:3210   */\n    tag_376:\n        /* \"#utility.yul\":3117:3122   */\n      0x00\n        /* \"#utility.yul\":3155:3161   */\n      dup2\n        /* \"#utility.yul\":3142:3162   */\n      calldataload\n        /* \"#utility.yul\":3133:3162   */\n      swap1\n      pop\n        /* \"#utility.yul\":3171:3204   */\n      tag_457\n        /* \"#utility.yul\":3198:3203   */\n      dup2\n        /* \"#utility.yul\":3171:3204   */\n      tag_375\n      jump\t// in\n    tag_457:\n        /* \"#utility.yul\":3071:3210   */\n      swap3\n      swap2\n      pop\n      pop\n      jump\t// out\n        /* \"#utility.yul\":3216:3545   */\n    tag_36:\n        /* \"#utility.yul\":3275:3281   */\n      0x00\n        /* \"#utility.yul\":3324:3326   */\n      0x20\n        /* \"#utility.yul\":3312:3321   */\n      dup3\n        /* \"#utility.yul\":3303:3310   */\n      dup5\n        /* \"#utility.yul\":3299:3322   */\n      sub\n        /* \"#utility.yul\":3295:3327   */\n      slt\n        /* \"#utility.yul\":3292:3411   */\n      iszero\n      tag_459\n      jumpi\n        /* \"#utility.yul\":3330:3409   */\n      tag_460\n      tag_362\n      jump\t// in\n    tag_460:\n        /* \"#utility.yul\":3292:3411   */\n    tag_459:\n        /* \"#utility.yul\":3450:3451   */\n      0x00\n        /* \"#utility.yul\":3475:3528   */\n      tag_461\n        /* \"#utility.yul\":3520:3527   */\n      dup5\n        /* \"#utility.yul\":3511:3517   */\n      dup3\n        /* \"#utility.yul\":3500:3509   */\n      dup6\n        /* \"#utility.yul\":3496:3518   */\n      add\n        /* \"#utility.yul\":3475:3528   */\n      tag_376\n      jump\t// in\n    tag_461:\n        /* \"#utility.yul\":3465:3528   */\n      swap2\n      pop\n        /* \"#utility.yul\":3421:3538   */\n      pop\n        /* \"#utility.yul\":3216:3545   */\n      swap3\n      swap2\n      pop\n      pop\n      jump\t// out\n        /* \"#utility.yul\":3551:3677   */\n    tag_377:\n        /* \"#utility.yul\":3588:3595   */\n      0x00\n        /* \"#utility.yul\":3628:3670   */\n      0xffffffffffffffffffffffffffffffffffffffff\n        /* \"#utility.yul\":3621:3626   */\n      dup3\n        /* \"#utility.yul\":3617:3671   */\n      and\n        /* \"#utility.yul\":3606:3671   */\n      swap1\n      pop\n        /* \"#utility.yul\":3551:3677   */\n      swap2\n      swap1\n      pop\n      jump\t// out\n        /* \"#utility.yul\":3683:3779   */\n    tag_378:\n        /* \"#utility.yul\":3720:3727   */\n      0x00\n        /* \"#utility.yul\":3749:3773   */\n      tag_464\n        /* \"#utility.yul\":3767:3772   */\n      dup3\n        /* \"#utility.yul\":3749:3773   */\n      tag_377\n      jump\t// in\n    tag_464:\n        /* \"#utility.yul\":3738:3773   */\n      swap1\n      pop\n        /* \"#utility.yul\":3683:3779   */\n      swap2\n      swap1\n      pop\n      jump\t// out\n        /* \"#utility.yul\":3785:3903   */\n    tag_379:\n        /* \"#utility.yul\":3872:3896   */\n      tag_466\n        /* \"#utility.yul\":3890:3895   */\n      dup2\n        /* \"#utility.yul\":3872:3896   */\n      tag_378\n      jump\t// in\n    tag_466:\n        /* \"#utility.yul\":3867:3870   */\n      dup3\n        /* \"#utility.yul\":3860:3897   */\n      mstore\n        /* \"#utility.yul\":3785:3903   */\n      pop\n      pop\n      jump\t// out\n        /* \"#utility.yul\":3909:4131   */\n    tag_39:\n        /* \"#utility.yul\":4002:4006   */\n      0x00\n        /* \"#utility.yul\":4040:4042   */\n      0x20\n        /* \"#utility.yul\":4029:4038   */\n      dup3\n        /* \"#utility.yul\":4025:4043   */\n      add\n        /* \"#utility.yul\":4017:4043   */\n      swap1\n      pop\n        /* \"#utility.yul\":4053:4124   */\n      tag_468\n        /* \"#utility.yul\":4121:4122   */\n      0x00\n        /* \"#utility.yul\":4110:4119   */\n      dup4\n        /* \"#utility.yul\":4106:4123   */\n      add\n        /* \"#utility.yul\":4097:4103   */\n      dup5\n        /* \"#utility.yul\":4053:4124   */\n      tag_379\n      jump\t// in\n    tag_468:\n        /* \"#utility.yul\":3909:4131   */\n      swap3\n      swap2\n      pop\n      pop\n      jump\t// out\n        /* \"#utility.yul\":4137:4259   */\n    tag_380:\n        /* \"#utility.yul\":4210:4234   */\n      tag_470\n        /* \"#utility.yul\":4228:4233   */\n      dup2\n        /* \"#utility.yul\":4210:4234   */\n      tag_378\n      jump\t// in\n    tag_470:\n        /* \"#utility.yul\":4203:4208   */\n      dup2\n        /* \"#utility.yul\":4200:4235   */\n      eq\n        /* \"#utility.yul\":4190:4253   */\n      tag_471\n      jumpi\n        /* \"#utility.yul\":4249:4250   */\n      0x00\n        /* \"#utility.yul\":4246:4247   */\n      dup1\n        /* \"#utility.yul\":4239:4251   */\n      revert\n        /* \"#utility.yul\":4190:4253   */\n    tag_471:\n        /* \"#utility.yul\":4137:4259   */\n      pop\n      jump\t// out\n        /* \"#utility.yul\":4265:4404   */\n    tag_381:\n        /* \"#utility.yul\":4311:4316   */\n      0x00\n        /* \"#utility.yul\":4349:4355   */\n      dup2\n        /* \"#utility.yul\":4336:4356   */\n      calldataload\n        /* \"#utility.yul\":4327:4356   */\n      swap1\n      pop\n        /* \"#utility.yul\":4365:4398   */\n      tag_473\n        /* \"#utility.yul\":4392:4397   */\n      dup2\n        /* \"#utility.yul\":4365:4398   */\n      tag_380\n      jump\t// in\n    tag_473:\n        /* \"#utility.yul\":4265:4404   */\n      swap3\n      swap2\n      pop\n      pop\n      jump\t// out\n        /* \"#utility.yul\":4410:4884   */\n    tag_42:\n        /* \"#utility.yul\":4478:4484   */\n      0x00\n        /* \"#utility.yul\":4486:4492   */\n      dup1\n        /* \"#utility.yul\":4535:4537   */\n      0x40\n        /* \"#utility.yul\":4523:4532   */\n      dup4\n        /* \"#utility.yul\":4514:4521   */\n      dup6\n        /* \"#utility.yul\":4510:4533   */\n      sub\n        /* \"#utility.yul\":4506:4538   */\n      slt\n        /* \"#utility.yul\":4503:4622   */\n      iszero\n      tag_475\n      jumpi\n        /* \"#utility.yul\":4541:4620   */\n      tag_476\n      tag_362\n      jump\t// in\n    tag_476:\n        /* \"#utility.yul\":4503:4622   */\n    tag_475:\n        /* \"#utility.yul\":4661:4662   */\n      0x00\n        /* \"#utility.yul\":4686:4739   */\n      tag_477\n        /* \"#utility.yul\":4731:4738   */\n      dup6\n        /* \"#utility.yul\":4722:4728   */\n      dup3\n        /* \"#utility.yul\":4711:4720   */\n      dup7\n        /* \"#utility.yul\":4707:4729   */\n      add\n        /* \"#utility.yul\":4686:4739   */\n      tag_381\n      jump\t// in\n    tag_477:\n        /* \"#utility.yul\":4676:4739   */\n      swap3\n      pop\n        /* \"#utility.yul\":4632:4749   */\n      pop\n        /* \"#utility.yul\":4788:4790   */\n      0x20\n        /* \"#utility.yul\":4814:4867   */\n      tag_478\n        /* \"#utility.yul\":4859:4866   */\n      dup6\n        /* \"#utility.yul\":4850:4856   */\n      dup3\n        /* \"#utility.yul\":4839:4848   */\n      dup7\n        /* \"#utility.yul\":4835:4857   */\n      add\n        /* \"#utility.yul\":4814:4867   */\n      tag_376\n      jump\t// in\n    tag_478:\n        /* \"#utility.yul\":4804:4867   */\n      swap2\n      pop\n        /* \"#utility.yul\":4759:4877   */\n      pop\n        /* \"#utility.yul\":4410:4884   */\n      swap3\n      pop\n      swap3\n      swap1\n      pop\n      jump\t// out\n        /* \"#utility.yul\":4890:5509   */\n    tag_46:\n        /* \"#utility.yul\":4967:4973   */\n      0x00\n        /* \"#utility.yul\":4975:4981   */\n      dup1\n        /* \"#utility.yul\":4983:4989   */\n      0x00\n        /* \"#utility.yul\":5032:5034   */\n      0x60\n        /* \"#utility.yul\":5020:5029   */\n      dup5\n        /* \"#utility.yul\":5011:5018   */\n      dup7\n        /* \"#utility.yul\":5007:5030   */\n      sub\n        /* \"#utility.yul\":5003:5035   */\n      slt\n        /* \"#utility.yul\":5000:5119   */\n      iszero\n      tag_480\n      jumpi\n        /* \"#utility.yul\":5038:5117   */\n      tag_481\n      tag_362\n      jump\t// in\n    tag_481:\n        /* \"#utility.yul\":5000:5119   */\n    tag_480:\n        /* \"#utility.yul\":5158:5159   */\n      0x00\n        /* \"#utility.yul\":5183:5236   */\n      tag_482\n        /* \"#utility.yul\":5228:5235   */\n      dup7\n        /* \"#utility.yul\":5219:5225   */\n      dup3\n        /* \"#utility.yul\":5208:5217   */\n      dup8\n        /* \"#utility.yul\":5204:5226   */\n      add\n        /* \"#utility.yul\":5183:5236   */\n      tag_381\n      jump\t// in\n    tag_482:\n        /* \"#utility.yul\":5173:5236   */\n      swap4\n      pop\n        /* \"#utility.yul\":5129:5246   */\n      pop\n        /* \"#utility.yul\":5285:5287   */\n      0x20\n        /* \"#utility.yul\":5311:5364   */\n      tag_483\n        /* \"#utility.yul\":5356:5363   */\n      dup7\n        /* \"#utility.yul\":5347:5353   */\n      dup3\n        /* \"#utility.yul\":5336:5345   */\n      dup8\n        /* \"#utility.yul\":5332:5354   */\n      add\n        /* \"#utility.yul\":5311:5364   */\n      tag_381\n      jump\t// in\n    tag_483:\n        /* \"#utility.yul\":5301:5364   */\n      swap3\n      pop\n        /* \"#utility.yul\":5256:5374   */\n      pop\n        /* \"#utility.yul\":5413:5415   */\n      0x40\n        /* \"#utility.yul\":5439:5492   */\n      tag_484\n        /* \"#utility.yul\":5484:5491   */\n      dup7\n        /* \"#utility.yul\":5475:5481   */\n      dup3\n        /* \"#utility.yul\":5464:5473   */\n      dup8\n        /* \"#utility.yul\":5460:5482   */\n      add\n        /* \"#utility.yul\":5439:5492   */\n      tag_376\n      jump\t// in\n    tag_484:\n        /* \"#utility.yul\":5429:5492   */\n      swap2\n      pop\n        /* \"#utility.yul\":5384:5502   */\n      pop\n        /* \"#utility.yul\":4890:5509   */\n      swap3\n      pop\n      swap3\n      pop\n      swap3\n      jump\t// out\n        /* \"#utility.yul\":5515:5844   */\n    tag_57:\n        /* \"#utility.yul\":5574:5580   */\n      0x00\n        /* \"#utility.yul\":5623:5625   */\n      0x20\n        /* \"#utility.yul\":5611:5620   */\n      dup3\n        /* \"#utility.yul\":5602:5609   */\n      dup5\n        /* \"#utility.yul\":5598:5621   */\n      sub\n        /* \"#utility.yul\":5594:5626   */\n      slt\n        /* \"#utility.yul\":5591:5710   */\n      iszero\n      tag_486\n      jumpi\n        /* \"#utility.yul\":5629:5708   */\n      tag_487\n      tag_362\n      jump\t// in\n    tag_487:\n        /* \"#utility.yul\":5591:5710   */\n    tag_486:\n        /* \"#utility.yul\":5749:5750   */\n      0x00\n        /* \"#utility.yul\":5774:5827   */\n      tag_488\n        /* \"#utility.yul\":5819:5826   */\n      dup5\n        /* \"#utility.yul\":5810:5816   */\n      dup3\n        /* \"#utility.yul\":5799:5808   */\n      dup6\n        /* \"#utility.yul\":5795:5817   */\n      add\n        /* \"#utility.yul\":5774:5827   */\n      tag_381\n      jump\t// in\n    tag_488:\n        /* \"#utility.yul\":5764:5827   */\n      swap2\n      pop\n        /* \"#utility.yul\":5720:5837   */\n      pop\n        /* \"#utility.yul\":5515:5844   */\n      swap3\n      swap2\n      pop\n      pop\n      jump\t// out\n        /* \"#utility.yul\":5850:5968   */\n    tag_382:\n        /* \"#utility.yul\":5937:5961   */\n      tag_490\n        /* \"#utility.yul\":5955:5960   */\n      dup2\n        /* \"#utility.yul\":5937:5961   */\n      tag_374\n      jump\t// in\n    tag_490:\n        /* \"#utility.yul\":5932:5935   */\n      dup3\n        /* \"#utility.yul\":5925:5962   */\n      mstore\n        /* \"#utility.yul\":5850:5968   */\n      pop\n      pop\n      jump\t// out\n        /* \"#utility.yul\":5974:6196   */\n    tag_60:\n        /* \"#utility.yul\":6067:6071   */\n      0x00\n        /* \"#utility.yul\":6105:6107   */\n      0x20\n        /* \"#utility.yul\":6094:6103   */\n      dup3\n        /* \"#utility.yul\":6090:6108   */\n      add\n        /* \"#utility.yul\":6082:6108   */\n      swap1\n      pop\n        /* \"#utility.yul\":6118:6189   */\n      tag_492\n        /* \"#utility.yul\":6186:6187   */\n      0x00\n        /* \"#utility.yul\":6175:6184   */\n      dup4\n        /* \"#utility.yul\":6171:6188   */\n      add\n        /* \"#utility.yul\":6162:6168   */\n      dup5\n        /* \"#utility.yul\":6118:6189   */\n      tag_382\n      jump\t// in\n    tag_492:\n        /* \"#utility.yul\":5974:6196   */\n      swap3\n      swap2\n      pop\n      pop\n      jump\t// out\n        /* \"#utility.yul\":6202:6318   */\n    tag_383:\n        /* \"#utility.yul\":6272:6293   */\n      tag_494\n        /* \"#utility.yul\":6287:6292   */\n      dup2\n        /* \"#utility.yul\":6272:6293   */\n      tag_367\n      jump\t// in\n    tag_494:\n        /* \"#utility.yul\":6265:6270   */\n      dup2\n        /* \"#utility.yul\":6262:6294   */\n      eq\n        /* \"#utility.yul\":6252:6312   */\n      tag_495\n      jumpi\n        /* \"#utility.yul\":6308:6309   */\n      0x00\n        /* \"#utility.yul\":6305:6306   */\n      dup1\n        /* \"#utility.yul\":6298:6310   */\n      revert\n        /* \"#utility.yul\":6252:6312   */\n    tag_495:\n        /* \"#utility.yul\":6202:6318   */\n      pop\n      jump\t// out\n        /* \"#utility.yul\":6324:6457   */\n    tag_384:\n        /* \"#utility.yul\":6367:6372   */\n      0x00\n        /* \"#utility.yul\":6405:6411   */\n      dup2\n        /* \"#utility.yul\":6392:6412   */\n      calldataload\n        /* \"#utility.yul\":6383:6412   */\n      swap1\n      pop\n        /* \"#utility.yul\":6421:6451   */\n      tag_497\n        /* \"#utility.yul\":6445:6450   */\n      dup2\n        /* \"#utility.yul\":6421:6451   */\n      tag_383\n      jump\t// in\n    tag_497:\n        /* \"#utility.yul\":6324:6457   */\n      swap3\n      swap2\n      pop\n      pop\n      jump\t// out\n        /* \"#utility.yul\":6463:6931   */\n    tag_74:\n        /* \"#utility.yul\":6528:6534   */\n      0x00\n        /* \"#utility.yul\":6536:6542   */\n      dup1\n        /* \"#utility.yul\":6585:6587   */\n      0x40\n        /* \"#utility.yul\":6573:6582   */\n      dup4\n        /* \"#utility.yul\":6564:6571   */\n      dup6\n        /* \"#utility.yul\":6560:6583   */\n      sub\n        /* \"#utility.yul\":6556:6588   */\n      slt\n        /* \"#utility.yul\":6553:6672   */\n      iszero\n      tag_499\n      jumpi\n        /* \"#utility.yul\":6591:6670   */\n      tag_500\n      tag_362\n      jump\t// in\n    tag_500:\n        /* \"#utility.yul\":6553:6672   */\n    tag_499:\n        /* \"#utility.yul\":6711:6712   */\n      0x00\n        /* \"#utility.yul\":6736:6789   */\n      tag_501\n        /* \"#utility.yul\":6781:6788   */\n      dup6\n        /* \"#utility.yul\":6772:6778   */\n      dup3\n        /* \"#utility.yul\":6761:6770   */\n      dup7\n        /* \"#utility.yul\":6757:6779   */\n      add\n        /* \"#utility.yul\":6736:6789   */\n      tag_381\n      jump\t// in\n    tag_501:\n        /* \"#utility.yul\":6726:6789   */\n      swap3\n      pop\n        /* \"#utility.yul\":6682:6799   */\n      pop\n        /* \"#utility.yul\":6838:6840   */\n      0x20\n        /* \"#utility.yul\":6864:6914   */\n      tag_502\n        /* \"#utility.yul\":6906:6913   */\n      dup6\n        /* \"#utility.yul\":6897:6903   */\n      dup3\n        /* \"#utility.yul\":6886:6895   */\n      dup7\n        /* \"#utility.yul\":6882:6904   */\n      add\n        /* \"#utility.yul\":6864:6914   */\n      tag_384\n      jump\t// in\n    tag_502:\n        /* \"#utility.yul\":6854:6914   */\n      swap2\n      pop\n        /* \"#utility.yul\":6809:6924   */\n      pop\n        /* \"#utility.yul\":6463:6931   */\n      swap3\n      pop\n      swap3\n      swap1\n      pop\n      jump\t// out\n        /* \"#utility.yul\":6937:7054   */\n    tag_385:\n        /* \"#utility.yul\":7046:7047   */\n      0x00\n        /* \"#utility.yul\":7043:7044   */\n      dup1\n        /* \"#utility.yul\":7036:7048   */\n      revert\n        /* \"#utility.yul\":7060:7177   */\n    tag_386:\n        /* \"#utility.yul\":7169:7170   */\n      0x00\n        /* \"#utility.yul\":7166:7167   */\n      dup1\n        /* \"#utility.yul\":7159:7171   */\n      revert\n        /* \"#utility.yul\":7183:7363   */\n    tag_276:\n        /* \"#utility.yul\":7231:7308   */\n      0x4e487b7100000000000000000000000000000000000000000000000000000000\n        /* \"#utility.yul\":7228:7229   */\n      0x00\n        /* \"#utility.yul\":7221:7309   */\n      mstore\n        /* \"#utility.yul\":7328:7332   */\n      0x41\n        /* \"#utility.yul\":7325:7326   */\n      0x04\n        /* \"#utility.yul\":7318:7333   */\n      mstore\n        /* \"#utility.yul\":7352:7356   */\n      0x24\n        /* \"#utility.yul\":7349:7350   */\n      0x00\n        /* \"#utility.yul\":7342:7357   */\n      revert\n        /* \"#utility.yul\":7369:7650   */\n    tag_387:\n        /* \"#utility.yul\":7452:7479   */\n      tag_507\n        /* \"#utility.yul\":7474:7478   */\n      dup3\n        /* \"#utility.yul\":7452:7479   */\n      tag_372\n      jump\t// in\n    tag_507:\n        /* \"#utility.yul\":7444:7450   */\n      dup2\n        /* \"#utility.yul\":7440:7480   */\n      add\n        /* \"#utility.yul\":7582:7588   */\n      dup2\n        /* \"#utility.yul\":7570:7580   */\n      dup2\n        /* \"#utility.yul\":7567:7589   */\n      lt\n        /* \"#utility.yul\":7546:7564   */\n      0xffffffffffffffff\n        /* \"#utility.yul\":7534:7544   */\n      dup3\n        /* \"#utility.yul\":7531:7565   */\n      gt\n        /* \"#utility.yul\":7528:7590   */\n      or\n        /* \"#utility.yul\":7525:7613   */\n      iszero\n      tag_508\n      jumpi\n        /* \"#utility.yul\":7593:7611   */\n      tag_509\n      tag_276\n      jump\t// in\n    tag_509:\n        /* \"#utility.yul\":7525:7613   */\n    tag_508:\n        /* \"#utility.yul\":7633:7643   */\n      dup1\n        /* \"#utility.yul\":7629:7631   */\n      0x40\n        /* \"#utility.yul\":7622:7644   */\n      mstore\n        /* \"#utility.yul\":7412:7650   */\n      pop\n        /* \"#utility.yul\":7369:7650   */\n      pop\n      pop\n      jump\t// out\n        /* \"#utility.yul\":7656:7785   */\n    tag_388:\n        /* \"#utility.yul\":7690:7696   */\n      0x00\n        /* \"#utility.yul\":7717:7737   */\n      tag_511\n      tag_361\n      jump\t// in\n    tag_511:\n        /* \"#utility.yul\":7707:7737   */\n      swap1\n      pop\n        /* \"#utility.yul\":7746:7779   */\n      tag_512\n        /* \"#utility.yul\":7774:7778   */\n      dup3\n        /* \"#utility.yul\":7766:7772   */\n      dup3\n        /* \"#utility.yul\":7746:7779   */\n      tag_387\n      jump\t// in\n    tag_512:\n        /* \"#utility.yul\":7656:7785   */\n      swap2\n      swap1\n      pop\n      jump\t// out\n        /* \"#utility.yul\":7791:8098   */\n    tag_389:\n        /* \"#utility.yul\":7852:7856   */\n      0x00\n        /* \"#utility.yul\":7942:7960   */\n      0xffffffffffffffff\n        /* \"#utility.yul\":7934:7940   */\n      dup3\n        /* \"#utility.yul\":7931:7961   */\n      gt\n        /* \"#utility.yul\":7928:7984   */\n      iszero\n      tag_514\n      jumpi\n        /* \"#utility.yul\":7964:7982   */\n      tag_515\n      tag_276\n      jump\t// in\n    tag_515:\n        /* \"#utility.yul\":7928:7984   */\n    tag_514:\n        /* \"#utility.yul\":8002:8031   */\n      tag_516\n        /* \"#utility.yul\":8024:8030   */\n      dup3\n        /* \"#utility.yul\":8002:8031   */\n      tag_372\n      jump\t// in\n    tag_516:\n        /* \"#utility.yul\":7994:8031   */\n      swap1\n      pop\n        /* \"#utility.yul\":8086:8090   */\n      0x20\n        /* \"#utility.yul\":8080:8084   */\n      dup2\n        /* \"#utility.yul\":8076:8091   */\n      add\n        /* \"#utility.yul\":8068:8091   */\n      swap1\n      pop\n        /* \"#utility.yul\":7791:8098   */\n      swap2\n      swap1\n      pop\n      jump\t// out\n        /* \"#utility.yul\":8104:8250   */\n    tag_390:\n        /* \"#utility.yul\":8201:8207   */\n      dup3\n        /* \"#utility.yul\":8196:8199   */\n      dup2\n        /* \"#utility.yul\":8191:8194   */\n      dup4\n        /* \"#utility.yul\":8178:8208   */\n      calldatacopy\n        /* \"#utility.yul\":8242:8243   */\n      0x00\n        /* \"#utility.yul\":8233:8239   */\n      dup4\n        /* \"#utility.yul\":8228:8231   */\n      dup4\n        /* \"#utility.yul\":8224:8240   */\n      add\n        /* \"#utility.yul\":8217:8244   */\n      mstore\n        /* \"#utility.yul\":8104:8250   */\n      pop\n      pop\n      pop\n      jump\t// out\n        /* \"#utility.yul\":8256:8679   */\n    tag_391:\n        /* \"#utility.yul\":8333:8338   */\n      0x00\n        /* \"#utility.yul\":8358:8423   */\n      tag_519\n        /* \"#utility.yul\":8374:8422   */\n      tag_520\n        /* \"#utility.yul\":8415:8421   */\n      dup5\n        /* \"#utility.yul\":8374:8422   */\n      tag_389\n      jump\t// in\n    tag_520:\n        /* \"#utility.yul\":8358:8423   */\n      tag_388\n      jump\t// in\n    tag_519:\n        /* \"#utility.yul\":8349:8423   */\n      swap1\n      pop\n        /* \"#utility.yul\":8446:8452   */\n      dup3\n        /* \"#utility.yul\":8439:8444   */\n      dup2\n        /* \"#utility.yul\":8432:8453   */\n      mstore\n        /* \"#utility.yul\":8484:8488   */\n      0x20\n        /* \"#utility.yul\":8477:8482   */\n      dup2\n        /* \"#utility.yul\":8473:8489   */\n      add\n        /* \"#utility.yul\":8522:8525   */\n      dup5\n        /* \"#utility.yul\":8513:8519   */\n      dup5\n        /* \"#utility.yul\":8508:8511   */\n      dup5\n        /* \"#utility.yul\":8504:8520   */\n      add\n        /* \"#utility.yul\":8501:8526   */\n      gt\n        /* \"#utility.yul\":8498:8610   */\n      iszero\n      tag_521\n      jumpi\n        /* \"#utility.yul\":8529:8608   */\n      tag_522\n      tag_386\n      jump\t// in\n    tag_522:\n        /* \"#utility.yul\":8498:8610   */\n    tag_521:\n        /* \"#utility.yul\":8619:8673   */\n      tag_523\n        /* \"#utility.yul\":8666:8672   */\n      dup5\n        /* \"#utility.yul\":8661:8664   */\n      dup3\n        /* \"#utility.yul\":8656:8659   */\n      dup6\n        /* \"#utility.yul\":8619:8673   */\n      tag_390\n      jump\t// in\n    tag_523:\n        /* \"#utility.yul\":8339:8679   */\n      pop\n        /* \"#utility.yul\":8256:8679   */\n      swap4\n      swap3\n      pop\n      pop\n      pop\n      jump\t// out\n        /* \"#utility.yul\":8698:9036   */\n    tag_392:\n        /* \"#utility.yul\":8753:8758   */\n      0x00\n        /* \"#utility.yul\":8802:8805   */\n      dup3\n        /* \"#utility.yul\":8795:8799   */\n      0x1f\n        /* \"#utility.yul\":8787:8793   */\n      dup4\n        /* \"#utility.yul\":8783:8800   */\n      add\n        /* \"#utility.yul\":8779:8806   */\n      slt\n        /* \"#utility.yul\":8769:8891   */\n      tag_525\n      jumpi\n        /* \"#utility.yul\":8810:8889   */\n      tag_526\n      tag_385\n      jump\t// in\n    tag_526:\n        /* \"#utility.yul\":8769:8891   */\n    tag_525:\n        /* \"#utility.yul\":8927:8933   */\n      dup2\n        /* \"#utility.yul\":8914:8934   */\n      calldataload\n        /* \"#utility.yul\":8952:9030   */\n      tag_527\n        /* \"#utility.yul\":9026:9029   */\n      dup5\n        /* \"#utility.yul\":9018:9024   */\n      dup3\n        /* \"#utility.yul\":9011:9015   */\n      0x20\n        /* \"#utility.yul\":9003:9009   */\n      dup7\n        /* \"#utility.yul\":8999:9016   */\n      add\n        /* \"#utility.yul\":8952:9030   */\n      tag_391\n      jump\t// in\n    tag_527:\n        /* \"#utility.yul\":8943:9030   */\n      swap2\n      pop\n        /* \"#utility.yul\":8759:9036   */\n      pop\n        /* \"#utility.yul\":8698:9036   */\n      swap3\n      swap2\n      pop\n      pop\n      jump\t// out\n        /* \"#utility.yul\":9042:9985   */\n    tag_78:\n        /* \"#utility.yul\":9137:9143   */\n      0x00\n        /* \"#utility.yul\":9145:9151   */\n      dup1\n        /* \"#utility.yul\":9153:9159   */\n      0x00\n        /* \"#utility.yul\":9161:9167   */\n      dup1\n        /* \"#utility.yul\":9210:9213   */\n      0x80\n        /* \"#utility.yul\":9198:9207   */\n      dup6\n        /* \"#utility.yul\":9189:9196   */\n      dup8\n        /* \"#utility.yul\":9185:9208   */\n      sub\n        /* \"#utility.yul\":9181:9214   */\n      slt\n        /* \"#utility.yul\":9178:9298   */\n      iszero\n      tag_529\n      jumpi\n        /* \"#utility.yul\":9217:9296   */\n      tag_530\n      tag_362\n      jump\t// in\n    tag_530:\n        /* \"#utility.yul\":9178:9298   */\n    tag_529:\n        /* \"#utility.yul\":9337:9338   */\n      0x00\n        /* \"#utility.yul\":9362:9415   */\n      tag_531\n        /* \"#utility.yul\":9407:9414   */\n      dup8\n        /* \"#utility.yul\":9398:9404   */\n      dup3\n        /* \"#utility.yul\":9387:9396   */\n      dup9\n        /* \"#utility.yul\":9383:9405   */\n      add\n        /* \"#utility.yul\":9362:9415   */\n      tag_381\n      jump\t// in\n    tag_531:\n        /* \"#utility.yul\":9352:9415   */\n      swap5\n      pop\n        /* \"#utility.yul\":9308:9425   */\n      pop\n        /* \"#utility.yul\":9464:9466   */\n      0x20\n        /* \"#utility.yul\":9490:9543   */\n      tag_532\n        /* \"#utility.yul\":9535:9542   */\n      dup8\n        /* \"#utility.yul\":9526:9532   */\n      dup3\n        /* \"#utility.yul\":9515:9524   */\n      dup9\n        /* \"#utility.yul\":9511:9533   */\n      add\n        /* \"#utility.yul\":9490:9543   */\n      tag_381\n      jump\t// in\n    tag_532:\n        /* \"#utility.yul\":9480:9543   */\n      swap4\n      pop\n        /* \"#utility.yul\":9435:9553   */\n      pop\n        /* \"#utility.yul\":9592:9594   */\n      0x40\n        /* \"#utility.yul\":9618:9671   */\n      tag_533\n        /* \"#utility.yul\":9663:9670   */\n      dup8\n        /* \"#utility.yul\":9654:9660   */\n      dup3\n        /* \"#utility.yul\":9643:9652   */\n      dup9\n        /* \"#utility.yul\":9639:9661   */\n      add\n        /* \"#utility.yul\":9618:9671   */\n      tag_376\n      jump\t// in\n    tag_533:\n        /* \"#utility.yul\":9608:9671   */\n      swap3\n      pop\n        /* \"#utility.yul\":9563:9681   */\n      pop\n        /* \"#utility.yul\":9748:9750   */\n      0x60\n        /* \"#utility.yul\":9737:9746   */\n      dup6\n        /* \"#utility.yul\":9733:9751   */\n      add\n        /* \"#utility.yul\":9720:9752   */\n      calldataload\n        /* \"#utility.yul\":9779:9797   */\n      0xffffffffffffffff\n        /* \"#utility.yul\":9771:9777   */\n      dup2\n        /* \"#utility.yul\":9768:9798   */\n      gt\n        /* \"#utility.yul\":9765:9882   */\n      iszero\n      tag_534\n      jumpi\n        /* \"#utility.yul\":9801:9880   */\n      tag_535\n      tag_363\n      jump\t// in\n    tag_535:\n        /* \"#utility.yul\":9765:9882   */\n    tag_534:\n        /* \"#utility.yul\":9906:9968   */\n      tag_536\n        /* \"#utility.yul\":9960:9967   */\n      dup8\n        /* \"#utility.yul\":9951:9957   */\n      dup3\n        /* \"#utility.yul\":9940:9949   */\n      dup9\n        /* \"#utility.yul\":9936:9958   */\n      add\n        /* \"#utility.yul\":9906:9968   */\n      tag_392\n      jump\t// in\n    tag_536:\n        /* \"#utility.yul\":9896:9968   */\n      swap2\n      pop\n        /* \"#utility.yul\":9691:9978   */\n      pop\n        /* \"#utility.yul\":9042:9985   */\n      swap3\n      swap6\n      swap2\n      swap5\n      pop\n      swap3\n      pop\n      jump\t// out\n        /* \"#utility.yul\":9991:10465   */\n    tag_89:\n        /* \"#utility.yul\":10059:10065   */\n      0x00\n        /* \"#utility.yul\":10067:10073   */\n      dup1\n        /* \"#utility.yul\":10116:10118   */\n      0x40\n        /* \"#utility.yul\":10104:10113   */\n      dup4\n        /* \"#utility.yul\":10095:10102   */\n      dup6\n        /* \"#utility.yul\":10091:10114   */\n      sub\n        /* \"#utility.yul\":10087:10119   */\n      slt\n        /* \"#utility.yul\":10084:10203   */\n      iszero\n      tag_538\n      jumpi\n        /* \"#utility.yul\":10122:10201   */\n      tag_539\n      tag_362\n      jump\t// in\n    tag_539:\n        /* \"#utility.yul\":10084:10203   */\n    tag_538:\n        /* \"#utility.yul\":10242:10243   */\n      0x00\n        /* \"#utility.yul\":10267:10320   */\n      tag_540\n        /* \"#utility.yul\":10312:10319   */\n      dup6\n        /* \"#utility.yul\":10303:10309   */\n      dup3\n        /* \"#utility.yul\":10292:10301   */\n      dup7\n        /* \"#utility.yul\":10288:10310   */\n      add\n        /* \"#utility.yul\":10267:10320   */\n      tag_381\n      jump\t// in\n    tag_540:\n        /* \"#utility.yul\":10257:10320   */\n      swap3\n      pop\n        /* \"#utility.yul\":10213:10330   */\n      pop\n        /* \"#utility.yul\":10369:10371   */\n      0x20\n        /* \"#utility.yul\":10395:10448   */\n      tag_541\n        /* \"#utility.yul\":10440:10447   */\n      dup6\n        /* \"#utility.yul\":10431:10437   */\n      dup3\n        /* \"#utility.yul\":10420:10429   */\n      dup7\n        /* \"#utility.yul\":10416:10438   */\n      add\n        /* \"#utility.yul\":10395:10448   */\n      tag_381\n      jump\t// in\n    tag_541:\n        /* \"#utility.yul\":10385:10448   */\n      swap2\n      pop\n        /* \"#utility.yul\":10340:10458   */\n      pop\n        /* \"#utility.yul\":9991:10465   */\n      swap3\n      pop\n      swap3\n      swap1\n      pop\n      jump\t// out\n        /* \"#utility.yul\":10471:10651   */\n    tag_393:\n        /* \"#utility.yul\":10519:10596   */\n      0x4e487b7100000000000000000000000000000000000000000000000000000000\n        /* \"#utility.yul\":10516:10517   */\n      0x00\n        /* \"#utility.yul\":10509:10597   */\n      mstore\n        /* \"#utility.yul\":10616:10620   */\n      0x22\n        /* \"#utility.yul\":10613:10614   */\n      0x04\n        /* \"#utility.yul\":10606:10621   */\n      mstore\n        /* \"#utility.yul\":10640:10644   */\n      0x24\n        /* \"#utility.yul\":10637:10638   */\n      0x00\n        /* \"#utility.yul\":10630:10645   */\n      revert\n        /* \"#utility.yul\":10657:10977   */\n    tag_104:\n        /* \"#utility.yul\":10701:10707   */\n      0x00\n        /* \"#utility.yul\":10738:10739   */\n      0x02\n        /* \"#utility.yul\":10732:10736   */\n      dup3\n        /* \"#utility.yul\":10728:10740   */\n      div\n        /* \"#utility.yul\":10718:10740   */\n      swap1\n      pop\n        /* \"#utility.yul\":10785:10786   */\n      0x01\n        /* \"#utility.yul\":10779:10783   */\n      dup3\n        /* \"#utility.yul\":10775:10787   */\n      and\n        /* \"#utility.yul\":10806:10824   */\n      dup1\n        /* \"#utility.yul\":10796:10877   */\n      tag_544\n      jumpi\n        /* \"#utility.yul\":10862:10866   */\n      0x7f\n        /* \"#utility.yul\":10854:10860   */\n      dup3\n        /* \"#utility.yul\":10850:10867   */\n      and\n        /* \"#utility.yul\":10840:10867   */\n      swap2\n      pop\n        /* \"#utility.yul\":10796:10877   */\n    tag_544:\n        /* \"#utility.yul\":10924:10926   */\n      0x20\n        /* \"#utility.yul\":10916:10922   */\n      dup3\n        /* \"#utility.yul\":10913:10927   */\n      lt\n        /* \"#utility.yul\":10893:10911   */\n      dup2\n        /* \"#utility.yul\":10890:10928   */\n      sub\n        /* \"#utility.yul\":10887:10971   */\n      tag_545\n      jumpi\n        /* \"#utility.yul\":10943:10961   */\n      tag_546\n      tag_393\n      jump\t// in\n    tag_546:\n        /* \"#utility.yul\":10887:10971   */\n    tag_545:\n        /* \"#utility.yul\":10708:10977   */\n      pop\n        /* \"#utility.yul\":10657:10977   */\n      swap2\n      swap1\n      pop\n      jump\t// out\n        /* \"#utility.yul\":10983:11425   */\n    tag_127:\n        /* \"#utility.yul\":11132:11136   */\n      0x00\n        /* \"#utility.yul\":11170:11172   */\n      0x60\n        /* \"#utility.yul\":11159:11168   */\n      dup3\n        /* \"#utility.yul\":11155:11173   */\n      add\n        /* \"#utility.yul\":11147:11173   */\n      swap1\n      pop\n        /* \"#utility.yul\":11183:11254   */\n      tag_548\n        /* \"#utility.yul\":11251:11252   */\n      0x00\n        /* \"#utility.yul\":11240:11249   */\n      dup4\n        /* \"#utility.yul\":11236:11253   */\n      add\n        /* \"#utility.yul\":11227:11233   */\n      dup7\n        /* \"#utility.yul\":11183:11254   */\n      tag_379\n      jump\t// in\n    tag_548:\n        /* \"#utility.yul\":11264:11336   */\n      tag_549\n        /* \"#utility.yul\":11332:11334   */\n      0x20\n        /* \"#utility.yul\":11321:11330   */\n      dup4\n        /* \"#utility.yul\":11317:11335   */\n      add\n        /* \"#utility.yul\":11308:11314   */\n      dup6\n        /* \"#utility.yul\":11264:11336   */\n      tag_382\n      jump\t// in\n    tag_549:\n        /* \"#utility.yul\":11346:11418   */\n      tag_550\n        /* \"#utility.yul\":11414:11416   */\n      0x40\n        /* \"#utility.yul\":11403:11412   */\n      dup4\n        /* \"#utility.yul\":11399:11417   */\n      add\n        /* \"#utility.yul\":11390:11396   */\n      dup5\n        /* \"#utility.yul\":11346:11418   */\n      tag_379\n      jump\t// in\n    tag_550:\n        /* \"#utility.yul\":10983:11425   */\n      swap5\n      swap4\n      pop\n      pop\n      pop\n      pop\n      jump\t// out\n        /* \"#utility.yul\":11431:11516   */\n    tag_394:\n        /* \"#utility.yul\":11476:11483   */\n      0x00\n        /* \"#utility.yul\":11505:11510   */\n      dup2\n        /* \"#utility.yul\":11494:11510   */\n      swap1\n      pop\n        /* \"#utility.yul\":11431:11516   */\n      swap2\n      swap1\n      pop\n      jump\t// out\n        /* \"#utility.yul\":11522:11623   */\n    tag_395:\n        /* \"#utility.yul\":11558:11565   */\n      0x00\n        /* \"#utility.yul\":11598:11616   */\n      0xffffffffffffffff\n        /* \"#utility.yul\":11591:11596   */\n      dup3\n        /* \"#utility.yul\":11587:11617   */\n      and\n        /* \"#utility.yul\":11576:11617   */\n      swap1\n      pop\n        /* \"#utility.yul\":11522:11623   */\n      swap2\n      swap1\n      pop\n      jump\t// out\n        /* \"#utility.yul\":11629:11689   */\n    tag_396:\n        /* \"#utility.yul\":11657:11660   */\n      0x00\n        /* \"#utility.yul\":11678:11683   */\n      dup2\n        /* \"#utility.yul\":11671:11683   */\n      swap1\n      pop\n        /* \"#utility.yul\":11629:11689   */\n      swap2\n      swap1\n      pop\n      jump\t// out\n        /* \"#utility.yul\":11695:11851   */\n    tag_397:\n        /* \"#utility.yul\":11752:11761   */\n      0x00\n        /* \"#utility.yul\":11785:11845   */\n      tag_555\n        /* \"#utility.yul\":11802:11844   */\n      tag_556\n        /* \"#utility.yul\":11811:11843   */\n      tag_557\n        /* \"#utility.yul\":11837:11842   */\n      dup5\n        /* \"#utility.yul\":11811:11843   */\n      tag_394\n      jump\t// in\n    tag_557:\n        /* \"#utility.yul\":11802:11844   */\n      tag_396\n      jump\t// in\n    tag_556:\n        /* \"#utility.yul\":11785:11845   */\n      tag_395\n      jump\t// in\n    tag_555:\n        /* \"#utility.yul\":11772:11845   */\n      swap1\n      pop\n        /* \"#utility.yul\":11695:11851   */\n      swap2\n      swap1\n      pop\n      jump\t// out\n        /* \"#utility.yul\":11857:12002   */\n    tag_398:\n        /* \"#utility.yul\":11951:11995   */\n      tag_559\n        /* \"#utility.yul\":11989:11994   */\n      dup2\n        /* \"#utility.yul\":11951:11995   */\n      tag_397\n      jump\t// in\n    tag_559:\n        /* \"#utility.yul\":11946:11949   */\n      dup3\n        /* \"#utility.yul\":11939:11996   */\n      mstore\n        /* \"#utility.yul\":11857:12002   */\n      pop\n      pop\n      jump\t// out\n        /* \"#utility.yul\":12008:12244   */\n    tag_180:\n        /* \"#utility.yul\":12108:12112   */\n      0x00\n        /* \"#utility.yul\":12146:12148   */\n      0x20\n        /* \"#utility.yul\":12135:12144   */\n      dup3\n        /* \"#utility.yul\":12131:12149   */\n      add\n        /* \"#utility.yul\":12123:12149   */\n      swap1\n      pop\n        /* \"#utility.yul\":12159:12237   */\n      tag_561\n        /* \"#utility.yul\":12234:12235   */\n      0x00\n        /* \"#utility.yul\":12223:12232   */\n      dup4\n        /* \"#utility.yul\":12219:12236   */\n      add\n        /* \"#utility.yul\":12210:12216   */\n      dup5\n        /* \"#utility.yul\":12159:12237   */\n      tag_398\n      jump\t// in\n    tag_561:\n        /* \"#utility.yul\":12008:12244   */\n      swap3\n      swap2\n      pop\n      pop\n      jump\t// out\n        /* \"#utility.yul\":12250:12398   */\n    tag_399:\n        /* \"#utility.yul\":12352:12363   */\n      0x00\n        /* \"#utility.yul\":12389:12392   */\n      dup2\n        /* \"#utility.yul\":12374:12392   */\n      swap1\n      pop\n        /* \"#utility.yul\":12250:12398   */\n      swap3\n      swap2\n      pop\n      pop\n      jump\t// out\n        /* \"#utility.yul\":12404:12794   */\n    tag_400:\n        /* \"#utility.yul\":12510:12513   */\n      0x00\n        /* \"#utility.yul\":12538:12577   */\n      tag_564\n        /* \"#utility.yul\":12571:12576   */\n      dup3\n        /* \"#utility.yul\":12538:12577   */\n      tag_369\n      jump\t// in\n    tag_564:\n        /* \"#utility.yul\":12593:12682   */\n      tag_565\n        /* \"#utility.yul\":12675:12681   */\n      dup2\n        /* \"#utility.yul\":12670:12673   */\n      dup6\n        /* \"#utility.yul\":12593:12682   */\n      tag_399\n      jump\t// in\n    tag_565:\n        /* \"#utility.yul\":12586:12682   */\n      swap4\n      pop\n        /* \"#utility.yul\":12691:12756   */\n      tag_566\n        /* \"#utility.yul\":12749:12755   */\n      dup2\n        /* \"#utility.yul\":12744:12747   */\n      dup6\n        /* \"#utility.yul\":12737:12741   */\n      0x20\n        /* \"#utility.yul\":12730:12735   */\n      dup7\n        /* \"#utility.yul\":12726:12742   */\n      add\n        /* \"#utility.yul\":12691:12756   */\n      tag_371\n      jump\t// in\n    tag_566:\n        /* \"#utility.yul\":12781:12787   */\n      dup1\n        /* \"#utility.yul\":12776:12779   */\n      dup5\n        /* \"#utility.yul\":12772:12788   */\n      add\n        /* \"#utility.yul\":12765:12788   */\n      swap2\n      pop\n        /* \"#utility.yul\":12514:12794   */\n      pop\n        /* \"#utility.yul\":12404:12794   */\n      swap3\n      swap2\n      pop\n      pop\n      jump\t// out\n        /* \"#utility.yul\":12800:13235   */\n    tag_190:\n        /* \"#utility.yul\":12980:12983   */\n      0x00\n        /* \"#utility.yul\":13002:13097   */\n      tag_568\n        /* \"#utility.yul\":13093:13096   */\n      dup3\n        /* \"#utility.yul\":13084:13090   */\n      dup6\n        /* \"#utility.yul\":13002:13097   */\n      tag_400\n      jump\t// in\n    tag_568:\n        /* \"#utility.yul\":12995:13097   */\n      swap2\n      pop\n        /* \"#utility.yul\":13114:13209   */\n      tag_569\n        /* \"#utility.yul\":13205:13208   */\n      dup3\n        /* \"#utility.yul\":13196:13202   */\n      dup5\n        /* \"#utility.yul\":13114:13209   */\n      tag_400\n      jump\t// in\n    tag_569:\n        /* \"#utility.yul\":13107:13209   */\n      swap2\n      pop\n        /* \"#utility.yul\":13226:13229   */\n      dup2\n        /* \"#utility.yul\":13219:13229   */\n      swap1\n      pop\n        /* \"#utility.yul\":12800:13235   */\n      swap4\n      swap3\n      pop\n      pop\n      pop\n      jump\t// out\n        /* \"#utility.yul\":13241:13339   */\n    tag_401:\n        /* \"#utility.yul\":13292:13298   */\n      0x00\n        /* \"#utility.yul\":13326:13331   */\n      dup2\n        /* \"#utility.yul\":13320:13332   */\n      mload\n        /* \"#utility.yul\":13310:13332   */\n      swap1\n      pop\n        /* \"#utility.yul\":13241:13339   */\n      swap2\n      swap1\n      pop\n      jump\t// out\n        /* \"#utility.yul\":13345:13513   */\n    tag_402:\n        /* \"#utility.yul\":13428:13439   */\n      0x00\n        /* \"#utility.yul\":13462:13468   */\n      dup3\n        /* \"#utility.yul\":13457:13460   */\n      dup3\n        /* \"#utility.yul\":13450:13469   */\n      mstore\n        /* \"#utility.yul\":13502:13506   */\n      0x20\n        /* \"#utility.yul\":13497:13500   */\n      dup3\n        /* \"#utility.yul\":13493:13507   */\n      add\n        /* \"#utility.yul\":13478:13507   */\n      swap1\n      pop\n        /* \"#utility.yul\":13345:13513   */\n      swap3\n      swap2\n      pop\n      pop\n      jump\t// out\n        /* \"#utility.yul\":13519:13892   */\n    tag_403:\n        /* \"#utility.yul\":13605:13608   */\n      0x00\n        /* \"#utility.yul\":13633:13671   */\n      tag_573\n        /* \"#utility.yul\":13665:13670   */\n      dup3\n        /* \"#utility.yul\":13633:13671   */\n      tag_401\n      jump\t// in\n    tag_573:\n        /* \"#utility.yul\":13687:13757   */\n      tag_574\n        /* \"#utility.yul\":13750:13756   */\n      dup2\n        /* \"#utility.yul\":13745:13748   */\n      dup6\n        /* \"#utility.yul\":13687:13757   */\n      tag_402\n      jump\t// in\n    tag_574:\n        /* \"#utility.yul\":13680:13757   */\n      swap4\n      pop\n        /* \"#utility.yul\":13766:13831   */\n      tag_575\n        /* \"#utility.yul\":13824:13830   */\n      dup2\n        /* \"#utility.yul\":13819:13822   */\n      dup6\n        /* \"#utility.yul\":13812:13816   */\n      0x20\n        /* \"#utility.yul\":13805:13810   */\n      dup7\n        /* \"#utility.yul\":13801:13817   */\n      add\n        /* \"#utility.yul\":13766:13831   */\n      tag_371\n      jump\t// in\n    tag_575:\n        /* \"#utility.yul\":13856:13885   */\n      tag_576\n        /* \"#utility.yul\":13878:13884   */\n      dup2\n        /* \"#utility.yul\":13856:13885   */\n      tag_372\n      jump\t// in\n    tag_576:\n        /* \"#utility.yul\":13851:13854   */\n      dup5\n        /* \"#utility.yul\":13847:13886   */\n      add\n        /* \"#utility.yul\":13840:13886   */\n      swap2\n      pop\n        /* \"#utility.yul\":13609:13892   */\n      pop\n        /* \"#utility.yul\":13519:13892   */\n      swap3\n      swap2\n      pop\n      pop\n      jump\t// out\n        /* \"#utility.yul\":13898:14538   */\n    tag_242:\n        /* \"#utility.yul\":14093:14097   */\n      0x00\n        /* \"#utility.yul\":14131:14134   */\n      0x80\n        /* \"#utility.yul\":14120:14129   */\n      dup3\n        /* \"#utility.yul\":14116:14135   */\n      add\n        /* \"#utility.yul\":14108:14135   */\n      swap1\n      pop\n        /* \"#utility.yul\":14145:14216   */\n      tag_578\n        /* \"#utility.yul\":14213:14214   */\n      0x00\n        /* \"#utility.yul\":14202:14211   */\n      dup4\n        /* \"#utility.yul\":14198:14215   */\n      add\n        /* \"#utility.yul\":14189:14195   */\n      dup8\n        /* \"#utility.yul\":14145:14216   */\n      tag_379\n      jump\t// in\n    tag_578:\n        /* \"#utility.yul\":14226:14298   */\n      tag_579\n        /* \"#utility.yul\":14294:14296   */\n      0x20\n        /* \"#utility.yul\":14283:14292   */\n      dup4\n        /* \"#utility.yul\":14279:14297   */\n      add\n        /* \"#utility.yul\":14270:14276   */\n      dup7\n        /* \"#utility.yul\":14226:14298   */\n      tag_379\n      jump\t// in\n    tag_579:\n        /* \"#utility.yul\":14308:14380   */\n      tag_580\n        /* \"#utility.yul\":14376:14378   */\n      0x40\n        /* \"#utility.yul\":14365:14374   */\n      dup4\n        /* \"#utility.yul\":14361:14379   */\n      add\n        /* \"#utility.yul\":14352:14358   */\n      dup6\n        /* \"#utility.yul\":14308:14380   */\n      tag_382\n      jump\t// in\n    tag_580:\n        /* \"#utility.yul\":14427:14436   */\n      dup2\n        /* \"#utility.yul\":14421:14425   */\n      dup2\n        /* \"#utility.yul\":14417:14437   */\n      sub\n        /* \"#utility.yul\":14412:14414   */\n      0x60\n        /* \"#utility.yul\":14401:14410   */\n      dup4\n        /* \"#utility.yul\":14397:14415   */\n      add\n        /* \"#utility.yul\":14390:14438   */\n      mstore\n        /* \"#utility.yul\":14455:14531   */\n      tag_581\n        /* \"#utility.yul\":14526:14530   */\n      dup2\n        /* \"#utility.yul\":14517:14523   */\n      dup5\n        /* \"#utility.yul\":14455:14531   */\n      tag_403\n      jump\t// in\n    tag_581:\n        /* \"#utility.yul\":14447:14531   */\n      swap1\n      pop\n        /* \"#utility.yul\":13898:14538   */\n      swap6\n      swap5\n      pop\n      pop\n      pop\n      pop\n      pop\n      jump\t// out\n        /* \"#utility.yul\":14544:14685   */\n    tag_404:\n        /* \"#utility.yul\":14600:14605   */\n      0x00\n        /* \"#utility.yul\":14631:14637   */\n      dup2\n        /* \"#utility.yul\":14625:14638   */\n      mload\n        /* \"#utility.yul\":14616:14638   */\n      swap1\n      pop\n        /* \"#utility.yul\":14647:14679   */\n      tag_583\n        /* \"#utility.yul\":14673:14678   */\n      dup2\n        /* \"#utility.yul\":14647:14679   */\n      tag_365\n      jump\t// in\n    tag_583:\n        /* \"#utility.yul\":14544:14685   */\n      swap3\n      swap2\n      pop\n      pop\n      jump\t// out\n        /* \"#utility.yul\":14691:15040   */\n    tag_245:\n        /* \"#utility.yul\":14760:14766   */\n      0x00\n        /* \"#utility.yul\":14809:14811   */\n      0x20\n        /* \"#utility.yul\":14797:14806   */\n      dup3\n        /* \"#utility.yul\":14788:14795   */\n      dup5\n        /* \"#utility.yul\":14784:14807   */\n      sub\n        /* \"#utility.yul\":14780:14812   */\n      slt\n        /* \"#utility.yul\":14777:14896   */\n      iszero\n      tag_585\n      jumpi\n        /* \"#utility.yul\":14815:14894   */\n      tag_586\n      tag_362\n      jump\t// in\n    tag_586:\n        /* \"#utility.yul\":14777:14896   */\n    tag_585:\n        /* \"#utility.yul\":14935:14936   */\n      0x00\n        /* \"#utility.yul\":14960:15023   */\n      tag_587\n        /* \"#utility.yul\":15015:15022   */\n      dup5\n        /* \"#utility.yul\":15006:15012   */\n      dup3\n        /* \"#utility.yul\":14995:15004   */\n      dup6\n        /* \"#utility.yul\":14991:15013   */\n      add\n        /* \"#utility.yul\":14960:15023   */\n      tag_404\n      jump\t// in\n    tag_587:\n        /* \"#utility.yul\":14950:15023   */\n      swap2\n      pop\n        /* \"#utility.yul\":14906:15033   */\n      pop\n        /* \"#utility.yul\":14691:15040   */\n      swap3\n      swap2\n      pop\n      pop\n      jump\t// out\n        /* \"#utility.yul\":15046:15226   */\n    tag_282:\n        /* \"#utility.yul\":15094:15171   */\n      0x4e487b7100000000000000000000000000000000000000000000000000000000\n        /* \"#utility.yul\":15091:15092   */\n      0x00\n        /* \"#utility.yul\":15084:15172   */\n      mstore\n        /* \"#utility.yul\":15191:15195   */\n      0x12\n        /* \"#utility.yul\":15188:15189   */\n      0x04\n        /* \"#utility.yul\":15181:15196   */\n      mstore\n        /* \"#utility.yul\":15215:15219   */\n      0x24\n        /* \"#utility.yul\":15212:15213   */\n      0x00\n        /* \"#utility.yul\":15205:15220   */\n      revert\n        /* \"#utility.yul\":15232:15564   */\n    tag_305:\n        /* \"#utility.yul\":15353:15357   */\n      0x00\n        /* \"#utility.yul\":15391:15393   */\n      0x40\n        /* \"#utility.yul\":15380:15389   */\n      dup3\n        /* \"#utility.yul\":15376:15394   */\n      add\n        /* \"#utility.yul\":15368:15394   */\n      swap1\n      pop\n        /* \"#utility.yul\":15404:15475   */\n      tag_590\n        /* \"#utility.yul\":15472:15473   */\n      0x00\n        /* \"#utility.yul\":15461:15470   */\n      dup4\n        /* \"#utility.yul\":15457:15474   */\n      add\n        /* \"#utility.yul\":15448:15454   */\n      dup6\n        /* \"#utility.yul\":15404:15475   */\n      tag_379\n      jump\t// in\n    tag_590:\n        /* \"#utility.yul\":15485:15557   */\n      tag_591\n        /* \"#utility.yul\":15553:15555   */\n      0x20\n        /* \"#utility.yul\":15542:15551   */\n      dup4\n        /* \"#utility.yul\":15538:15556   */\n      add\n        /* \"#utility.yul\":15529:15535   */\n      dup5\n        /* \"#utility.yul\":15485:15557   */\n      tag_382\n      jump\t// in\n    tag_591:\n        /* \"#utility.yul\":15232:15564   */\n      swap4\n      swap3\n      pop\n      pop\n      pop\n      jump\t// out\n        /* \"#utility.yul\":15570:15711   */\n    tag_405:\n        /* \"#utility.yul\":15619:15623   */\n      0x00\n        /* \"#utility.yul\":15642:15645   */\n      dup2\n        /* \"#utility.yul\":15634:15645   */\n      swap1\n      pop\n        /* \"#utility.yul\":15665:15668   */\n      dup2\n        /* \"#utility.yul\":15662:15663   */\n      0x00\n        /* \"#utility.yul\":15655:15669   */\n      mstore\n        /* \"#utility.yul\":15699:15703   */\n      0x20\n        /* \"#utility.yul\":15696:15697   */\n      0x00\n        /* \"#utility.yul\":15686:15704   */\n      keccak256\n        /* \"#utility.yul\":15678:15704   */\n      swap1\n      pop\n        /* \"#utility.yul\":15570:15711   */\n      swap2\n      swap1\n      pop\n      jump\t// out\n        /* \"#utility.yul\":15717:15810   */\n    tag_406:\n        /* \"#utility.yul\":15754:15760   */\n      0x00\n        /* \"#utility.yul\":15801:15803   */\n      0x20\n        /* \"#utility.yul\":15796:15798   */\n      0x1f\n        /* \"#utility.yul\":15789:15794   */\n      dup4\n        /* \"#utility.yul\":15785:15799   */\n      add\n        /* \"#utility.yul\":15781:15804   */\n      div\n        /* \"#utility.yul\":15771:15804   */\n      swap1\n      pop\n        /* \"#utility.yul\":15717:15810   */\n      swap2\n      swap1\n      pop\n      jump\t// out\n        /* \"#utility.yul\":15816:15923   */\n    tag_407:\n        /* \"#utility.yul\":15860:15868   */\n      0x00\n        /* \"#utility.yul\":15910:15915   */\n      dup3\n        /* \"#utility.yul\":15904:15908   */\n      dup3\n        /* \"#utility.yul\":15900:15916   */\n      shl\n        /* \"#utility.yul\":15879:15916   */\n      swap1\n      pop\n        /* \"#utility.yul\":15816:15923   */\n      swap3\n      swap2\n      pop\n      pop\n      jump\t// out\n        /* \"#utility.yul\":15929:16322   */\n    tag_408:\n        /* \"#utility.yul\":15998:16004   */\n      0x00\n        /* \"#utility.yul\":16048:16049   */\n      0x08\n        /* \"#utility.yul\":16036:16046   */\n      dup4\n        /* \"#utility.yul\":16032:16050   */\n      mul\n        /* \"#utility.yul\":16071:16168   */\n      tag_596\n        /* \"#utility.yul\":16101:16167   */\n      0xffffffffffffffffffffffffffffffffffffffffffffffffffffffffffffffff\n        /* \"#utility.yul\":16090:16099   */\n      dup3\n        /* \"#utility.yul\":16071:16168   */\n      tag_407\n      jump\t// in\n    tag_596:\n        /* \"#utility.yul\":16189:16228   */\n      tag_597\n        /* \"#utility.yul\":16219:16227   */\n      dup7\n        /* \"#utility.yul\":16208:16217   */\n      dup4\n        /* \"#utility.yul\":16189:16228   */\n      tag_407\n      jump\t// in\n    tag_597:\n        /* \"#utility.yul\":16177:16228   */\n      swap6\n      pop\n        /* \"#utility.yul\":16261:16265   */\n      dup1\n        /* \"#utility.yul\":16257:16266   */\n      not\n        /* \"#utility.yul\":16250:16255   */\n      dup5\n        /* \"#utility.yul\":16246:16267   */\n      and\n        /* \"#utility.yul\":16237:16267   */\n      swap4\n      pop\n        /* \"#utility.yul\":16310:16314   */\n      dup1\n        /* \"#utility.yul\":16300:16308   */\n      dup7\n        /* \"#utility.yul\":16296:16315   */\n      and\n        /* \"#utility.yul\":16289:16294   */\n      dup5\n        /* \"#utility.yul\":16286:16316   */\n      or\n        /* \"#utility.yul\":16276:16316   */\n      swap3\n      pop\n        /* \"#utility.yul\":16005:16322   */\n      pop\n      pop\n        /* \"#utility.yul\":15929:16322   */\n      swap4\n      swap3\n      pop\n      pop\n      pop\n      jump\t// out\n        /* \"#utility.yul\":16328:16470   */\n    tag_409:\n        /* \"#utility.yul\":16378:16387   */\n      0x00\n        /* \"#utility.yul\":16411:16464   */\n      tag_599\n        /* \"#utility.yul\":16429:16463   */\n      tag_600\n        /* \"#utility.yul\":16438:16462   */\n      tag_601\n        /* \"#utility.yul\":16456:16461   */\n      dup5\n        /* \"#utility.yul\":16438:16462   */\n      tag_374\n      jump\t// in\n    tag_601:\n        /* \"#utility.yul\":16429:16463   */\n      tag_396\n      jump\t// in\n    tag_600:\n        /* \"#utility.yul\":16411:16464   */\n      tag_374\n      jump\t// in\n    tag_599:\n        /* \"#utility.yul\":16398:16464   */\n      swap1\n      pop\n        /* \"#utility.yul\":16328:16470   */\n      swap2\n      swap1\n      pop\n      jump\t// out\n        /* \"#utility.yul\":16476:16551   */\n    tag_410:\n        /* \"#utility.yul\":16519:16522   */\n      0x00\n        /* \"#utility.yul\":16540:16545   */\n      dup2\n        /* \"#utility.yul\":16533:16545   */\n      swap1\n      pop\n        /* \"#utility.yul\":16476:16551   */\n      swap2\n      swap1\n      pop\n      jump\t// out\n        /* \"#utility.yul\":16557:16826   */\n    tag_411:\n        /* \"#utility.yul\":16667:16706   */\n      tag_604\n        /* \"#utility.yul\":16698:16705   */\n      dup4\n        /* \"#utility.yul\":16667:16706   */\n      tag_409\n      jump\t// in\n    tag_604:\n        /* \"#utility.yul\":16728:16819   */\n      tag_605\n        /* \"#utility.yul\":16777:16818   */\n      tag_606\n        /* \"#utility.yul\":16801:16817   */\n      dup3\n        /* \"#utility.yul\":16777:16818   */\n      tag_410\n      jump\t// in\n    tag_606:\n        /* \"#utility.yul\":16769:16775   */\n      dup5\n        /* \"#utility.yul\":16762:16766   */\n      dup5\n        /* \"#utility.yul\":16756:16767   */\n      sload\n        /* \"#utility.yul\":16728:16819   */\n      tag_408\n      jump\t// in\n    tag_605:\n        /* \"#utility.yul\":16722:16726   */\n      dup3\n        /* \"#utility.yul\":16715:16820   */\n      sstore\n        /* \"#utility.yul\":16633:16826   */\n      pop\n        /* \"#utility.yul\":16557:16826   */\n      pop\n      pop\n      pop\n      jump\t// out\n        /* \"#utility.yul\":16832:16905   */\n    tag_412:\n        /* \"#utility.yul\":16877:16880   */\n      0x00\n        /* \"#utility.yul\":16832:16905   */\n      swap1\n      jump\t// out\n        /* \"#utility.yul\":16911:17100   */\n    tag_413:\n        /* \"#utility.yul\":16988:17020   */\n      tag_609\n      tag_412\n      jump\t// in\n    tag_609:\n        /* \"#utility.yul\":17029:17094   */\n      tag_610\n        /* \"#utility.yul\":17087:17093   */\n      dup2\n        /* \"#utility.yul\":17079:17085   */\n      dup5\n        /* \"#utility.yul\":17073:17077   */\n      dup5\n        /* \"#utility.yul\":17029:17094   */\n      tag_411\n      jump\t// in\n    tag_610:\n        /* \"#utility.yul\":16964:17100   */\n      pop\n        /* \"#utility.yul\":16911:17100   */\n      pop\n      pop\n      jump\t// out\n        /* \"#utility.yul\":17106:17292   */\n    tag_414:\n        /* \"#utility.yul\":17166:17286   */\n    tag_612:\n        /* \"#utility.yul\":17183:17186   */\n      dup2\n        /* \"#utility.yul\":17176:17181   */\n      dup2\n        /* \"#utility.yul\":17173:17187   */\n      lt\n        /* \"#utility.yul\":17166:17286   */\n      iszero\n      tag_614\n      jumpi\n        /* \"#utility.yul\":17237:17276   */\n      tag_615\n        /* \"#utility.yul\":17274:17275   */\n      0x00\n        /* \"#utility.yul\":17267:17272   */\n      dup3\n        /* \"#utility.yul\":17237:17276   */\n      tag_413\n      jump\t// in\n    tag_615:\n        /* \"#utility.yul\":17210:17211   */\n      0x01\n        /* \"#utility.yul\":17203:17208   */\n      dup2\n        /* \"#utility.yul\":17199:17212   */\n      add\n        /* \"#utility.yul\":17190:17212   */\n      swap1\n      pop\n        /* \"#utility.yul\":17166:17286   */\n      jump(tag_612)\n    tag_614:\n        /* \"#utility.yul\":17106:17292   */\n      pop\n      pop\n      jump\t// out\n        /* \"#utility.yul\":17298:17841   */\n    tag_415:\n        /* \"#utility.yul\":17399:17401   */\n      0x1f\n        /* \"#utility.yul\":17394:17397   */\n      dup3\n        /* \"#utility.yul\":17391:17402   */\n      gt\n        /* \"#utility.yul\":17388:17834   */\n      iszero\n      tag_617\n      jumpi\n        /* \"#utility.yul\":17433:17471   */\n      tag_618\n        /* \"#utility.yul\":17465:17470   */\n      dup2\n        /* \"#utility.yul\":17433:17471   */\n      tag_405\n      jump\t// in\n    tag_618:\n        /* \"#utility.yul\":17517:17546   */\n      tag_619\n        /* \"#utility.yul\":17535:17545   */\n      dup5\n        /* \"#utility.yul\":17517:17546   */\n      tag_406\n      jump\t// in\n    tag_619:\n        /* \"#utility.yul\":17507:17515   */\n      dup2\n        /* \"#utility.yul\":17503:17547   */\n      add\n        /* \"#utility.yul\":17700:17702   */\n      0x20\n        /* \"#utility.yul\":17688:17698   */\n      dup6\n        /* \"#utility.yul\":17685:17703   */\n      lt\n        /* \"#utility.yul\":17682:17731   */\n      iszero\n      tag_620\n      jumpi\n        /* \"#utility.yul\":17721:17729   */\n      dup2\n        /* \"#utility.yul\":17706:17729   */\n      swap1\n      pop\n        /* \"#utility.yul\":17682:17731   */\n    tag_620:\n        /* \"#utility.yul\":17744:17824   */\n      tag_621\n        /* \"#utility.yul\":17800:17822   */\n      tag_622\n        /* \"#utility.yul\":17818:17821   */\n      dup6\n        /* \"#utility.yul\":17800:17822   */\n      tag_406\n      jump\t// in\n    tag_622:\n        /* \"#utility.yul\":17790:17798   */\n      dup4\n        /* \"#utility.yul\":17786:17823   */\n      add\n        /* \"#utility.yul\":17773:17784   */\n      dup3\n        /* \"#utility.yul\":17744:17824   */\n      tag_414\n      jump\t// in\n    tag_621:\n        /* \"#utility.yul\":17403:17834   */\n      pop\n      pop\n        /* \"#utility.yul\":17388:17834   */\n    tag_617:\n        /* \"#utility.yul\":17298:17841   */\n      pop\n      pop\n      pop\n      jump\t// out\n        /* \"#utility.yul\":17847:17964   */\n    tag_416:\n        /* \"#utility.yul\":17901:17909   */\n      0x00\n        /* \"#utility.yul\":17951:17956   */\n      dup3\n        /* \"#utility.yul\":17945:17949   */\n      dup3\n        /* \"#utility.yul\":17941:17957   */\n      shr\n        /* \"#utility.yul\":17920:17957   */\n      swap1\n      pop\n        /* \"#utility.yul\":17847:17964   */\n      swap3\n      swap2\n      pop\n      pop\n      jump\t// out\n        /* \"#utility.yul\":17970:18139   */\n    tag_417:\n        /* \"#utility.yul\":18014:18020   */\n      0x00\n        /* \"#utility.yul\":18047:18098   */\n      tag_625\n        /* \"#utility.yul\":18095:18096   */\n      0x00\n        /* \"#utility.yul\":18091:18097   */\n      not\n        /* \"#utility.yul\":18083:18088   */\n      dup5\n        /* \"#utility.yul\":18080:18081   */\n      0x08\n        /* \"#utility.yul\":18076:18089   */\n      mul\n        /* \"#utility.yul\":18047:18098   */\n      tag_416\n      jump\t// in\n    tag_625:\n        /* \"#utility.yul\":18043:18099   */\n      not\n        /* \"#utility.yul\":18128:18132   */\n      dup1\n        /* \"#utility.yul\":18122:18126   */\n      dup4\n        /* \"#utility.yul\":18118:18133   */\n      and\n        /* \"#utility.yul\":18108:18133   */\n      swap2\n      pop\n        /* \"#utility.yul\":18021:18139   */\n      pop\n        /* \"#utility.yul\":17970:18139   */\n      swap3\n      swap2\n      pop\n      pop\n      jump\t// out\n        /* \"#utility.yul\":18144:18439   */\n    tag_418:\n        /* \"#utility.yul\":18220:18224   */\n      0x00\n        /* \"#utility.yul\":18366:18395   */\n      tag_627\n        /* \"#utility.yul\":18391:18394   */\n      dup4\n        /* \"#utility.yul\":18385:18389   */\n      dup4\n        /* \"#utility.yul\":18366:18395   */\n      tag_417\n      jump\t// in\n    tag_627:\n        /* \"#utility.yul\":18358:18395   */\n      swap2\n      pop\n        /* \"#utility.yul\":18428:18431   */\n      dup3\n        /* \"#utility.yul\":18425:18426   */\n      0x02\n        /* \"#utility.yul\":18421:18432   */\n      mul\n        /* \"#utility.yul\":18415:18419   */\n      dup3\n        /* \"#utility.yul\":18412:18433   */\n      or\n        /* \"#utility.yul\":18404:18433   */\n      swap1\n      pop\n        /* \"#utility.yul\":18144:18439   */\n      swap3\n      swap2\n      pop\n      pop\n      jump\t// out\n        /* \"#utility.yul\":18444:19839   */\n    tag_319:\n        /* \"#utility.yul\":18561:18598   */\n      tag_629\n        /* \"#utility.yul\":18594:18597   */\n      dup3\n        /* \"#utility.yul\":18561:18598   */\n      tag_369\n      jump\t// in\n    tag_629:\n        /* \"#utility.yul\":18663:18681   */\n      0xffffffffffffffff\n        /* \"#utility.yul\":18655:18661   */\n      dup2\n        /* \"#utility.yul\":18652:18682   */\n      gt\n        /* \"#utility.yul\":18649:18705   */\n      iszero\n      tag_630\n      jumpi\n        /* \"#utility.yul\":18685:18703   */\n      tag_631\n      tag_276\n      jump\t// in\n    tag_631:\n        /* \"#utility.yul\":18649:18705   */\n    tag_630:\n        /* \"#utility.yul\":18729:18767   */\n      tag_632\n        /* \"#utility.yul\":18761:18765   */\n      dup3\n        /* \"#utility.yul\":18755:18766   */\n      sload\n        /* \"#utility.yul\":18729:18767   */\n      tag_104\n      jump\t// in\n    tag_632:\n        /* \"#utility.yul\":18814:18881   */\n      tag_633\n        /* \"#utility.yul\":18874:18880   */\n      dup3\n        /* \"#utility.yul\":18866:18872   */\n      dup3\n        /* \"#utility.yul\":18860:18864   */\n      dup6\n        /* \"#utility.yul\":18814:18881   */\n      tag_415\n      jump\t// in\n    tag_633:\n        /* \"#utility.yul\":18908:18909   */\n      0x00\n        /* \"#utility.yul\":18932:18936   */\n      0x20\n        /* \"#utility.yul\":18919:18936   */\n      swap1\n      pop\n        /* \"#utility.yul\":18964:18966   */\n      0x1f\n        /* \"#utility.yul\":18956:18962   */\n      dup4\n        /* \"#utility.yul\":18953:18967   */\n      gt\n        /* \"#utility.yul\":18981:18982   */\n      0x01\n        /* \"#utility.yul\":18976:19594   */\n      dup2\n      eq\n      tag_635\n      jumpi\n        /* \"#utility.yul\":19638:19639   */\n      0x00\n        /* \"#utility.yul\":19655:19661   */\n      dup5\n        /* \"#utility.yul\":19652:19729   */\n      iszero\n      tag_636\n      jumpi\n        /* \"#utility.yul\":19704:19713   */\n      dup3\n        /* \"#utility.yul\":19699:19702   */\n      dup8\n        /* \"#utility.yul\":19695:19714   */\n      add\n        /* \"#utility.yul\":19689:19715   */\n      mload\n        /* \"#utility.yul\":19680:19715   */\n      swap1\n      pop\n        /* \"#utility.yul\":19652:19729   */\n    tag_636:\n        /* \"#utility.yul\":19755:19822   */\n      tag_637\n        /* \"#utility.yul\":19815:19821   */\n      dup6\n        /* \"#utility.yul\":19808:19813   */\n      dup3\n        /* \"#utility.yul\":19755:19822   */\n      tag_418\n      jump\t// in\n    tag_637:\n        /* \"#utility.yul\":19749:19753   */\n      dup7\n        /* \"#utility.yul\":19742:19823   */\n      sstore\n        /* \"#utility.yul\":19611:19833   */\n      pop\n        /* \"#utility.yul\":18946:19833   */\n      jump(tag_634)\n        /* \"#utility.yul\":18976:19594   */\n    tag_635:\n        /* \"#utility.yul\":19028:19032   */\n      0x1f\n        /* \"#utility.yul\":19024:19033   */\n      not\n        /* \"#utility.yul\":19016:19022   */\n      dup5\n        /* \"#utility.yul\":19012:19034   */\n      and\n        /* \"#utility.yul\":19062:19099   */\n      tag_638\n        /* \"#utility.yul\":19094:19098   */\n      dup7\n        /* \"#utility.yul\":19062:19099   */\n      tag_405\n      jump\t// in\n    tag_638:\n        /* \"#utility.yul\":19121:19122   */\n      0x00\n        /* \"#utility.yul\":19135:19343   */\n    tag_639:\n        /* \"#utility.yul\":19149:19156   */\n      dup3\n        /* \"#utility.yul\":19146:19147   */\n      dup2\n        /* \"#utility.yul\":19143:19157   */\n      lt\n        /* \"#utility.yul\":19135:19343   */\n      iszero\n      tag_641\n      jumpi\n        /* \"#utility.yul\":19228:19237   */\n      dup5\n        /* \"#utility.yul\":19223:19226   */\n      dup10\n        /* \"#utility.yul\":19219:19238   */\n      add\n        /* \"#utility.yul\":19213:19239   */\n      mload\n        /* \"#utility.yul\":19205:19211   */\n      dup3\n        /* \"#utility.yul\":19198:19240   */\n      sstore\n        /* \"#utility.yul\":19279:19280   */\n      0x01\n        /* \"#utility.yul\":19271:19277   */\n      dup3\n        /* \"#utility.yul\":19267:19281   */\n      add\n        /* \"#utility.yul\":19257:19281   */\n      swap2\n      pop\n        /* \"#utility.yul\":19326:19328   */\n      0x20\n        /* \"#utility.yul\":19315:19324   */\n      dup6\n        /* \"#utility.yul\":19311:19329   */\n      add\n        /* \"#utility.yul\":19298:19329   */\n      swap5\n      pop\n        /* \"#utility.yul\":19172:19176   */\n      0x20\n        /* \"#utility.yul\":19169:19170   */\n      dup2\n        /* \"#utility.yul\":19165:19177   */\n      add\n        /* \"#utility.yul\":19160:19177   */\n      swap1\n      pop\n        /* \"#utility.yul\":19135:19343   */\n      jump(tag_639)\n    tag_641:\n        /* \"#utility.yul\":19371:19377   */\n      dup7\n        /* \"#utility.yul\":19362:19369   */\n      dup4\n        /* \"#utility.yul\":19359:19378   */\n      lt\n        /* \"#utility.yul\":19356:19535   */\n      iszero\n      tag_642\n      jumpi\n        /* \"#utility.yul\":19429:19438   */\n      dup5\n        /* \"#utility.yul\":19424:19427   */\n      dup10\n        /* \"#utility.yul\":19420:19439   */\n      add\n        /* \"#utility.yul\":19414:19440   */\n      mload\n        /* \"#utility.yul\":19472:19520   */\n      tag_643\n        /* \"#utility.yul\":19514:19518   */\n      0x1f\n        /* \"#utility.yul\":19506:19512   */\n      dup10\n        /* \"#utility.yul\":19502:19519   */\n      and\n        /* \"#utility.yul\":19491:19500   */\n      dup3\n        /* \"#utility.yul\":19472:19520   */\n      tag_417\n      jump\t// in\n    tag_643:\n        /* \"#utility.yul\":19464:19470   */\n      dup4\n        /* \"#utility.yul\":19457:19521   */\n      sstore\n        /* \"#utility.yul\":19379:19535   */\n      pop\n        /* \"#utility.yul\":19356:19535   */\n    tag_642:\n        /* \"#utility.yul\":19581:19582   */\n      0x01\n        /* \"#utility.yul\":19577:19578   */\n      0x02\n        /* \"#utility.yul\":19569:19575   */\n      dup9\n        /* \"#utility.yul\":19565:19579   */\n      mul\n        /* \"#utility.yul\":19561:19583   */\n      add\n        /* \"#utility.yul\":19555:19559   */\n      dup9\n        /* \"#utility.yul\":19548:19584   */\n      sstore\n        /* \"#utility.yul\":18983:19594   */\n      pop\n      pop\n      pop\n        /* \"#utility.yul\":18946:19833   */\n    tag_634:\n      pop\n        /* \"#utility.yul\":18536:19839   */\n      pop\n      pop\n      pop\n        /* \"#utility.yul\":18444:19839   */\n      pop\n      pop\n      jump\t// out\n\n    auxdata: 0xa2646970667358221220c8d8bd32ddfcff9bc38614eed77234eae928c555e02b397f5b229b992d97be4164736f6c63430008170033\n}\n",
				"bytecode": {
					"linkReferences": {},
					"object": "608060405234801562000010575f80fd5b50620000216200002760201b60201c565b62000191565b5f620000386200012b60201b60201c565b9050805f0160089054906101000a900460ff161562000083576040517ff92ee8a900000000000000000000000000000000000000000000000000000000815260040160405180910390fd5b67ffffffffffffffff8016815f015f9054906101000a900467ffffffffffffffff1667ffffffffffffffff1614620001285767ffffffffffffffff815f015f6101000a81548167ffffffffffffffff021916908367ffffffffffffffff1602179055507fc7f505b2f371ae2175ee4913f4499e1f2633a7b5936321eed1cdaeb6115181d267ffffffffffffffff6040516200011f919062000176565b60405180910390a15b50565b5f7ff0c57e16840df040f15088dc2f81fe391c3923bec73e23a9662efc9c229c6a00905090565b5f67ffffffffffffffff82169050919050565b620001708162000152565b82525050565b5f6020820190506200018b5f83018462000165565b92915050565b61270a806200019f5f395ff3fe608060405234801561000f575f80fd5b5060043610610114575f3560e01c80638da5cb5b116100a0578063b88d4fde1161006f578063b88d4fde146102c8578063c4d66de8146102e4578063c87b56dd14610300578063e985e9c514610330578063f2fde38b1461036057610114565b80638da5cb5b1461025457806395d89b4114610272578063a144819414610290578063a22cb465146102ac57610114565b806323b872dd116100e757806323b872dd146101b257806342842e0e146101ce5780636352211e146101ea57806370a082311461021a578063715018a61461024a57610114565b806301ffc9a71461011857806306fdde0314610148578063081812fc14610166578063095ea7b314610196575b5f80fd5b610132600480360381019061012d9190611cca565b61037c565b60405161013f9190611d0f565b60405180910390f35b61015061045d565b60405161015d9190611db2565b60405180910390f35b610180600480360381019061017b9190611e05565b6104fa565b60405161018d9190611e6f565b60405180910390f35b6101b060048036038101906101ab9190611eb2565b610515565b005b6101cc60048036038101906101c79190611ef0565b61052b565b005b6101e860048036038101906101e39190611ef0565b61062a565b005b61020460048036038101906101ff9190611e05565b610649565b6040516102119190611e6f565b60405180910390f35b610234600480360381019061022f9190611f40565b61065a565b6040516102419190611f7a565b60405180910390f35b61025261071e565b005b61025c610731565b6040516102699190611e6f565b60405180910390f35b61027a610766565b6040516102879190611db2565b60405180910390f35b6102aa60048036038101906102a59190611eb2565b610804565b005b6102c660048036038101906102c19190611fbd565b61081a565b005b6102e260048036038101906102dd9190612127565b610830565b005b6102fe60048036038101906102f99190611f40565b61084d565b005b61031a60048036038101906103159190611e05565b610a42565b6040516103279190611db2565b60405180910390f35b61034a600480360381019061034591906121a7565b610aa8565b6040516103579190611d0f565b60405180910390f35b61037a60048036038101906103759190611f40565b610b44565b005b5f7f80ac58cd000000000000000000000000000000000000000000000000000000007bffffffffffffffffffffffffffffffffffffffffffffffffffffffff1916827bffffffffffffffffffffffffffffffffffffffffffffffffffffffff1916148061044657507f5b5e139f000000000000000000000000000000000000000000000000000000007bffffffffffffffffffffffffffffffffffffffffffffffffffffffff1916827bffffffffffffffffffffffffffffffffffffffffffffffffffffffff1916145b80610456575061045582610bc8565b5b9050919050565b60605f610468610c31565b9050805f01805461047890612212565b80601f01602080910402602001604051908101604052809291908181526020018280546104a490612212565b80156104ef5780601f106104c6576101008083540402835291602001916104ef565b820191905f5260205f20905b8154815290600101906020018083116104d257829003601f168201915b505050505091505090565b5f61050482610c58565b5061050e82610cde565b9050919050565b6105278282610522610d25565b610d2c565b5050565b5f73ffffffffffffffffffffffffffffffffffffffff168273ffffffffffffffffffffffffffffffffffffffff160361059b575f6040517f64a0ae920000000000000000000000000000000000000000000000000000000081526004016105929190611e6f565b60405180910390fd5b5f6105ae83836105a9610d25565b610d3e565b90508373ffffffffffffffffffffffffffffffffffffffff168173ffffffffffffffffffffffffffffffffffffffff1614610624578382826040517f64283d7b00000000000000000000000000000000000000000000000000000000815260040161061b93929190612242565b60405180910390fd5b50505050565b61064483838360405180602001604052805f815250610830565b505050565b5f61065382610c58565b9050919050565b5f80610664610c31565b90505f73ffffffffffffffffffffffffffffffffffffffff168373ffffffffffffffffffffffffffffffffffffffff16036106d6575f6040517f89c62b640000000000000000000000000000000000000000000000000000000081526004016106cd9190611e6f565b60405180910390fd5b806003015f8473ffffffffffffffffffffffffffffffffffffffff1673ffffffffffffffffffffffffffffffffffffffff1681526020019081526020015f2054915050919050565b610726610f5b565b61072f5f610fe2565b565b5f8061073b6110b3565b9050805f015f9054906101000a900473ffffffffffffffffffffffffffffffffffffffff1691505090565b60605f610771610c31565b905080600101805461078290612212565b80601f01602080910402602001604051908101604052809291908181526020018280546107ae90612212565b80156107f95780601f106107d0576101008083540402835291602001916107f9565b820191905f5260205f20905b8154815290600101906020018083116107dc57829003601f168201915b505050505091505090565b61080c610f5b565b61081682826110da565b5050565b61082c610825610d25565b83836110f7565b5050565b61083b84848461052b565b6108478484848461126e565b50505050565b5f610856611420565b90505f815f0160089054906101000a900460ff161590505f825f015f9054906101000a900467ffffffffffffffff1690505f808267ffffffffffffffff1614801561089e5750825b90505f60018367ffffffffffffffff161480156108d157505f3073ffffffffffffffffffffffffffffffffffffffff163b145b9050811580156108df575080155b15610916576040517ff92ee8a900000000000000000000000000000000000000000000000000000000815260040160405180910390fd5b6001855f015f6101000a81548167ffffffffffffffff021916908367ffffffffffffffff1602179055508315610963576001855f0160086101000a81548160ff0219169083151502179055505b6109d76040518060400160405280600781526020017f4d79546f6b656e000000000000000000000000000000000000000000000000008152506040518060400160405280600381526020017f4d544b0000000000000000000000000000000000000000000000000000000000815250611447565b6109e08661145d565b8315610a3a575f855f0160086101000a81548160ff0219169083151502179055507fc7f505b2f371ae2175ee4913f4499e1f2633a7b5936321eed1cdaeb6115181d26001604051610a3191906122cc565b60405180910390a15b505050505050565b6060610a4d82610c58565b505f610a57611471565b90505f815111610a755760405180602001604052805f815250610aa0565b80610a7f84611487565b604051602001610a9092919061231f565b6040516020818303038152906040525b915050919050565b5f80610ab2610c31565b9050806005015f8573ffffffffffffffffffffffffffffffffffffffff1673ffffffffffffffffffffffffffffffffffffffff1681526020019081526020015f205f8473ffffffffffffffffffffffffffffffffffffffff1673ffffffffffffffffffffffffffffffffffffffff1681526020019081526020015f205f9054906101000a900460ff1691505092915050565b610b4c610f5b565b5f73ffffffffffffffffffffffffffffffffffffffff168173ffffffffffffffffffffffffffffffffffffffff1603610bbc575f6040517f1e4fbdf7000000000000000000000000000000000000000000000000000000008152600401610bb39190611e6f565b60405180910390fd5b610bc581610fe2565b50565b5f7f01ffc9a7000000000000000000000000000000000000000000000000000000007bffffffffffffffffffffffffffffffffffffffffffffffffffffffff1916827bffffffffffffffffffffffffffffffffffffffffffffffffffffffff1916149050919050565b5f7f80bb2b638cc20bc4d0a60d66940f3ab4a00c1d7b313497ca82fb0b4ab0079300905090565b5f80610c6383611551565b90505f73ffffffffffffffffffffffffffffffffffffffff168173ffffffffffffffffffffffffffffffffffffffff1603610cd557826040517f7e273289000000000000000000000000000000000000000000000000000000008152600401610ccc9190611f7a565b60405180910390fd5b80915050919050565b5f80610ce8610c31565b9050806004015f8481526020019081526020015f205f9054906101000a900473ffffffffffffffffffffffffffffffffffffffff16915050919050565b5f33905090565b610d398383836001611598565b505050565b5f80610d48610c31565b90505f610d5485611551565b90505f73ffffffffffffffffffffffffffffffffffffffff168473ffffffffffffffffffffffffffffffffffffffff1614610d9557610d94818587611765565b5b5f73ffffffffffffffffffffffffffffffffffffffff168173ffffffffffffffffffffffffffffffffffffffff1614610e2257610dd45f865f80611598565b6001826003015f8373ffffffffffffffffffffffffffffffffffffffff1673ffffffffffffffffffffffffffffffffffffffff1681526020019081526020015f205f82825403925050819055505b5f73ffffffffffffffffffffffffffffffffffffffff168673ffffffffffffffffffffffffffffffffffffffff1614610ea3576001826003015f8873ffffffffffffffffffffffffffffffffffffffff1673ffffffffffffffffffffffffffffffffffffffff1681526020019081526020015f205f82825401925050819055505b85826002015f8781526020019081526020015f205f6101000a81548173ffffffffffffffffffffffffffffffffffffffff021916908373ffffffffffffffffffffffffffffffffffffffff160217905550848673ffffffffffffffffffffffffffffffffffffffff168273ffffffffffffffffffffffffffffffffffffffff167fddf252ad1be2c89b69c2b068fc378daa952ba7f163c4a11628f55a4df523b3ef60405160405180910390a480925050509392505050565b610f63610d25565b73ffffffffffffffffffffffffffffffffffffffff16610f81610731565b73ffffffffffffffffffffffffffffffffffffffff1614610fe057610fa4610d25565b6040517f118cdaa7000000000000000000000000000000000000000000000000000000008152600401610fd79190611e6f565b60405180910390fd5b565b5f610feb6110b3565b90505f815f015f9054906101000a900473ffffffffffffffffffffffffffffffffffffffff16905082825f015f6101000a81548173ffffffffffffffffffffffffffffffffffffffff021916908373ffffffffffffffffffffffffffffffffffffffff1602179055508273ffffffffffffffffffffffffffffffffffffffff168173ffffffffffffffffffffffffffffffffffffffff167f8be0079c531659141344cd1fd0a4f28419497f9722a3daafe3b4186f6b6457e060405160405180910390a3505050565b5f7f9016d09d72d40fdae2fd8ceac6b6234c7706214fd39c1cd1e609a0528c199300905090565b6110f3828260405180602001604052805f815250611828565b5050565b5f611100610c31565b90505f73ffffffffffffffffffffffffffffffffffffffff168373ffffffffffffffffffffffffffffffffffffffff160361117257826040517f5b08ba180000000000000000000000000000000000000000000000000000000081526004016111699190611e6f565b60405180910390fd5b81816005015f8673ffffffffffffffffffffffffffffffffffffffff1673ffffffffffffffffffffffffffffffffffffffff1681526020019081526020015f205f8573ffffffffffffffffffffffffffffffffffffffff1673ffffffffffffffffffffffffffffffffffffffff1681526020019081526020015f205f6101000a81548160ff0219169083151502179055508273ffffffffffffffffffffffffffffffffffffffff168473ffffffffffffffffffffffffffffffffffffffff167f17307eab39ab6107e8899845ad3d59bd9653f200f220920489ca2b5937696c31846040516112609190611d0f565b60405180910390a350505050565b5f8373ffffffffffffffffffffffffffffffffffffffff163b111561141a578273ffffffffffffffffffffffffffffffffffffffff1663150b7a026112b1610d25565b8685856040518563ffffffff1660e01b81526004016112d39493929190612394565b6020604051808303815f875af192505050801561130e57506040513d601f19601f8201168201806040525081019061130b91906123f2565b60015b61138f573d805f811461133c576040519150601f19603f3d011682016040523d82523d5f602084013e611341565b606091505b505f81510361138757836040517f64a0ae9200000000000000000000000000000000000000000000000000000000815260040161137e9190611e6f565b60405180910390fd5b805181602001fd5b63150b7a0260e01b7bffffffffffffffffffffffffffffffffffffffffffffffffffffffff1916817bffffffffffffffffffffffffffffffffffffffffffffffffffffffff19161461141857836040517f64a0ae9200000000000000000000000000000000000000000000000000000000815260040161140f9190611e6f565b60405180910390fd5b505b50505050565b5f7ff0c57e16840df040f15088dc2f81fe391c3923bec73e23a9662efc9c229c6a00905090565b61144f611843565b6114598282611883565b5050565b611465611843565b61146e816118be565b50565b606060405180602001604052805f815250905090565b60605f600161149584611942565b0190505f8167ffffffffffffffff8111156114b3576114b2612003565b5b6040519080825280601f01601f1916602001820160405280156114e55781602001600182028036833780820191505090505b5090505f82602001820190505b600115611546578080600190039150507f3031323334353637383961626364656600000000000000000000000000000000600a86061a8153600a858161153b5761153a61241d565b5b0494505f85036114f2575b819350505050919050565b5f8061155b610c31565b9050806002015f8481526020019081526020015f205f9054906101000a900473ffffffffffffffffffffffffffffffffffffffff16915050919050565b5f6115a1610c31565b905081806115db57505f73ffffffffffffffffffffffffffffffffffffffff168373ffffffffffffffffffffffffffffffffffffffff1614155b1561170d575f6115ea85610c58565b90505f73ffffffffffffffffffffffffffffffffffffffff168473ffffffffffffffffffffffffffffffffffffffff161415801561165457508373ffffffffffffffffffffffffffffffffffffffff168173ffffffffffffffffffffffffffffffffffffffff1614155b801561166757506116658185610aa8565b155b156116a957836040517fa9fbf51f0000000000000000000000000000000000000000000000000000000081526004016116a09190611e6f565b60405180910390fd5b821561170b57848673ffffffffffffffffffffffffffffffffffffffff168273ffffffffffffffffffffffffffffffffffffffff167f8c5be1e5ebec7d5bd14f71427d1e84f3dd0314c0f7b2291e5b200ac8c7c3b92560405160405180910390a45b505b84816004015f8681526020019081526020015f205f6101000a81548173ffffffffffffffffffffffffffffffffffffffff021916908373ffffffffffffffffffffffffffffffffffffffff1602179055505050505050565b611770838383611a93565b611823575f73ffffffffffffffffffffffffffffffffffffffff168373ffffffffffffffffffffffffffffffffffffffff16036117e457806040517f7e2732890000000000000000000000000000000000000000000000000000000081526004016117db9190611f7a565b60405180910390fd5b81816040517f177e802f00000000000000000000000000000000000000000000000000000000815260040161181a92919061244a565b60405180910390fd5b505050565b6118328383611b53565b61183e5f84848461126e565b505050565b61184b611c46565b611881576040517fd7e6bcf800000000000000000000000000000000000000000000000000000000815260040160405180910390fd5b565b61188b611843565b5f611894610c31565b905082815f0190816118a69190612605565b50818160010190816118b89190612605565b50505050565b6118c6611843565b5f73ffffffffffffffffffffffffffffffffffffffff168173ffffffffffffffffffffffffffffffffffffffff1603611936575f6040517f1e4fbdf700000000000000000000000000000000000000000000000000000000815260040161192d9190611e6f565b60405180910390fd5b61193f81610fe2565b50565b5f805f90507a184f03e93ff9f4daa797ed6e38ed64bf6a1f010000000000000000831061199e577a184f03e93ff9f4daa797ed6e38ed64bf6a1f01000000000000000083816119945761199361241d565b5b0492506040810190505b6d04ee2d6d415b85acef810000000083106119db576d04ee2d6d415b85acef810000000083816119d1576119d061241d565b5b0492506020810190505b662386f26fc100008310611a0a57662386f26fc100008381611a00576119ff61241d565b5b0492506010810190505b6305f5e1008310611a33576305f5e1008381611a2957611a2861241d565b5b0492506008810190505b6127108310611a58576127108381611a4e57611a4d61241d565b5b0492506004810190505b60648310611a7b5760648381611a7157611a7061241d565b5b0492506002810190505b600a8310611a8a576001810190505b80915050919050565b5f8073ffffffffffffffffffffffffffffffffffffffff168373ffffffffffffffffffffffffffffffffffffffff1614158015611b4a57508273ffffffffffffffffffffffffffffffffffffffff168473ffffffffffffffffffffffffffffffffffffffff161480611b0b5750611b0a8484610aa8565b5b80611b4957508273ffffffffffffffffffffffffffffffffffffffff16611b3183610cde565b73ffffffffffffffffffffffffffffffffffffffff16145b5b90509392505050565b5f73ffffffffffffffffffffffffffffffffffffffff168273ffffffffffffffffffffffffffffffffffffffff1603611bc3575f6040517f64a0ae92000000000000000000000000000000000000000000000000000000008152600401611bba9190611e6f565b60405180910390fd5b5f611bcf83835f610d3e565b90505f73ffffffffffffffffffffffffffffffffffffffff168173ffffffffffffffffffffffffffffffffffffffff1614611c41575f6040517f73c6ac6e000000000000000000000000000000000000000000000000000000008152600401611c389190611e6f565b60405180910390fd5b505050565b5f611c4f611420565b5f0160089054906101000a900460ff16905090565b5f604051905090565b5f80fd5b5f80fd5b5f7fffffffff0000000000000000000000000000000000000000000000000000000082169050919050565b611ca981611c75565b8114611cb3575f80fd5b50565b5f81359050611cc481611ca0565b92915050565b5f60208284031215611cdf57611cde611c6d565b5b5f611cec84828501611cb6565b91505092915050565b5f8115159050919050565b611d0981611cf5565b82525050565b5f602082019050611d225f830184611d00565b92915050565b5f81519050919050565b5f82825260208201905092915050565b5f5b83811015611d5f578082015181840152602081019050611d44565b5f8484015250505050565b5f601f19601f8301169050919050565b5f611d8482611d28565b611d8e8185611d32565b9350611d9e818560208601611d42565b611da781611d6a565b840191505092915050565b5f6020820190508181035f830152611dca8184611d7a565b905092915050565b5f819050919050565b611de481611dd2565b8114611dee575f80fd5b50565b5f81359050611dff81611ddb565b92915050565b5f60208284031215611e1a57611e19611c6d565b5b5f611e2784828501611df1565b91505092915050565b5f73ffffffffffffffffffffffffffffffffffffffff82169050919050565b5f611e5982611e30565b9050919050565b611e6981611e4f565b82525050565b5f602082019050611e825f830184611e60565b92915050565b611e9181611e4f565b8114611e9b575f80fd5b50565b5f81359050611eac81611e88565b92915050565b5f8060408385031215611ec857611ec7611c6d565b5b5f611ed585828601611e9e565b9250506020611ee685828601611df1565b9150509250929050565b5f805f60608486031215611f0757611f06611c6d565b5b5f611f1486828701611e9e565b9350506020611f2586828701611e9e565b9250506040611f3686828701611df1565b9150509250925092565b5f60208284031215611f5557611f54611c6d565b5b5f611f6284828501611e9e565b91505092915050565b611f7481611dd2565b82525050565b5f602082019050611f8d5f830184611f6b565b92915050565b611f9c81611cf5565b8114611fa6575f80fd5b50565b5f81359050611fb781611f93565b92915050565b5f8060408385031215611fd357611fd2611c6d565b5b5f611fe085828601611e9e565b9250506020611ff185828601611fa9565b9150509250929050565b5f80fd5b5f80fd5b7f4e487b71000000000000000000000000000000000000000000000000000000005f52604160045260245ffd5b61203982611d6a565b810181811067ffffffffffffffff8211171561205857612057612003565b5b80604052505050565b5f61206a611c64565b90506120768282612030565b919050565b5f67ffffffffffffffff82111561209557612094612003565b5b61209e82611d6a565b9050602081019050919050565b828183375f83830152505050565b5f6120cb6120c68461207b565b612061565b9050828152602081018484840111156120e7576120e6611fff565b5b6120f28482856120ab565b509392505050565b5f82601f83011261210e5761210d611ffb565b5b813561211e8482602086016120b9565b91505092915050565b5f805f806080858703121561213f5761213e611c6d565b5b5f61214c87828801611e9e565b945050602061215d87828801611e9e565b935050604061216e87828801611df1565b925050606085013567ffffffffffffffff81111561218f5761218e611c71565b5b61219b878288016120fa565b91505092959194509250565b5f80604083850312156121bd576121bc611c6d565b5b5f6121ca85828601611e9e565b92505060206121db85828601611e9e565b9150509250929050565b7f4e487b71000000000000000000000000000000000000000000000000000000005f52602260045260245ffd5b5f600282049050600182168061222957607f821691505b60208210810361223c5761223b6121e5565b5b50919050565b5f6060820190506122555f830186611e60565b6122626020830185611f6b565b61226f6040830184611e60565b949350505050565b5f819050919050565b5f67ffffffffffffffff82169050919050565b5f819050919050565b5f6122b66122b16122ac84612277565b612293565b612280565b9050919050565b6122c68161229c565b82525050565b5f6020820190506122df5f8301846122bd565b92915050565b5f81905092915050565b5f6122f982611d28565b61230381856122e5565b9350612313818560208601611d42565b80840191505092915050565b5f61232a82856122ef565b915061233682846122ef565b91508190509392505050565b5f81519050919050565b5f82825260208201905092915050565b5f61236682612342565b612370818561234c565b9350612380818560208601611d42565b61238981611d6a565b840191505092915050565b5f6080820190506123a75f830187611e60565b6123b46020830186611e60565b6123c16040830185611f6b565b81810360608301526123d3818461235c565b905095945050505050565b5f815190506123ec81611ca0565b92915050565b5f6020828403121561240757612406611c6d565b5b5f612414848285016123de565b91505092915050565b7f4e487b71000000000000000000000000000000000000000000000000000000005f52601260045260245ffd5b5f60408201905061245d5f830185611e60565b61246a6020830184611f6b565b9392505050565b5f819050815f5260205f209050919050565b5f6020601f8301049050919050565b5f82821b905092915050565b5f600883026124cd7fffffffffffffffffffffffffffffffffffffffffffffffffffffffffffffffff82612492565b6124d78683612492565b95508019841693508086168417925050509392505050565b5f6125096125046124ff84611dd2565b612293565b611dd2565b9050919050565b5f819050919050565b612522836124ef565b61253661252e82612510565b84845461249e565b825550505050565b5f90565b61254a61253e565b612555818484612519565b505050565b5b818110156125785761256d5f82612542565b60018101905061255b565b5050565b601f8211156125bd5761258e81612471565b61259784612483565b810160208510156125a6578190505b6125ba6125b285612483565b83018261255a565b50505b505050565b5f82821c905092915050565b5f6125dd5f19846008026125c2565b1980831691505092915050565b5f6125f583836125ce565b9150826002028217905092915050565b61260e82611d28565b67ffffffffffffffff81111561262757612626612003565b5b6126318254612212565b61263c82828561257c565b5f60209050601f83116001811461266d575f841561265b578287015190505b61266585826125ea565b8655506126cc565b601f19841661267b86612471565b5f5b828110156126a25784890151825560018201915060208501945060208101905061267d565b868310156126bf57848901516126bb601f8916826125ce565b8355505b6001600288020188555050505b50505050505056fea2646970667358221220c8d8bd32ddfcff9bc38614eed77234eae928c555e02b397f5b229b992d97be4164736f6c63430008170033",
					"opcodes": "PUSH1 0x80 PUSH1 0x40 MSTORE CALLVALUE DUP1 ISZERO PUSH3 0x10 JUMPI PUSH0 DUP1 REVERT JUMPDEST POP PUSH3 0x21 PUSH3 0x27 PUSH1 0x20 SHL PUSH1 0x20 SHR JUMP JUMPDEST PUSH3 0x191 JUMP JUMPDEST PUSH0 PUSH3 0x38 PUSH3 0x12B PUSH1 0x20 SHL PUSH1 0x20 SHR JUMP JUMPDEST SWAP1 POP DUP1 PUSH0 ADD PUSH1 0x8 SWAP1 SLOAD SWAP1 PUSH2 0x100 EXP SWAP1 DIV PUSH1 0xFF AND ISZERO PUSH3 0x83 JUMPI PUSH1 0x40 MLOAD PUSH32 0xF92EE8A900000000000000000000000000000000000000000000000000000000 DUP2 MSTORE PUSH1 0x4 ADD PUSH1 0x40 MLOAD DUP1 SWAP2 SUB SWAP1 REVERT JUMPDEST PUSH8 0xFFFFFFFFFFFFFFFF DUP1 AND DUP2 PUSH0 ADD PUSH0 SWAP1 SLOAD SWAP1 PUSH2 0x100 EXP SWAP1 DIV PUSH8 0xFFFFFFFFFFFFFFFF AND PUSH8 0xFFFFFFFFFFFFFFFF AND EQ PUSH3 0x128 JUMPI PUSH8 0xFFFFFFFFFFFFFFFF DUP2 PUSH0 ADD PUSH0 PUSH2 0x100 EXP DUP2 SLOAD DUP2 PUSH8 0xFFFFFFFFFFFFFFFF MUL NOT AND SWAP1 DUP4 PUSH8 0xFFFFFFFFFFFFFFFF AND MUL OR SWAP1 SSTORE POP PUSH32 0xC7F505B2F371AE2175EE4913F4499E1F2633A7B5936321EED1CDAEB6115181D2 PUSH8 0xFFFFFFFFFFFFFFFF PUSH1 0x40 MLOAD PUSH3 0x11F SWAP2 SWAP1 PUSH3 0x176 JUMP JUMPDEST PUSH1 0x40 MLOAD DUP1 SWAP2 SUB SWAP1 LOG1 JUMPDEST POP JUMP JUMPDEST PUSH0 PUSH32 0xF0C57E16840DF040F15088DC2F81FE391C3923BEC73E23A9662EFC9C229C6A00 SWAP1 POP SWAP1 JUMP JUMPDEST PUSH0 PUSH8 0xFFFFFFFFFFFFFFFF DUP3 AND SWAP1 POP SWAP2 SWAP1 POP JUMP JUMPDEST PUSH3 0x170 DUP2 PUSH3 0x152 JUMP JUMPDEST DUP3 MSTORE POP POP JUMP JUMPDEST PUSH0 PUSH1 0x20 DUP3 ADD SWAP1 POP PUSH3 0x18B PUSH0 DUP4 ADD DUP5 PUSH3 0x165 JUMP JUMPDEST SWAP3 SWAP2 POP POP JUMP JUMPDEST PUSH2 0x270A DUP1 PUSH3 0x19F PUSH0 CODECOPY PUSH0 RETURN INVALID PUSH1 0x80 PUSH1 0x40 MSTORE CALLVALUE DUP1 ISZERO PUSH2 0xF JUMPI PUSH0 DUP1 REVERT JUMPDEST POP PUSH1 0x4 CALLDATASIZE LT PUSH2 0x114 JUMPI PUSH0 CALLDATALOAD PUSH1 0xE0 SHR DUP1 PUSH4 0x8DA5CB5B GT PUSH2 0xA0 JUMPI DUP1 PUSH4 0xB88D4FDE GT PUSH2 0x6F JUMPI DUP1 PUSH4 0xB88D4FDE EQ PUSH2 0x2C8 JUMPI DUP1 PUSH4 0xC4D66DE8 EQ PUSH2 0x2E4 JUMPI DUP1 PUSH4 0xC87B56DD EQ PUSH2 0x300 JUMPI DUP1 PUSH4 0xE985E9C5 EQ PUSH2 0x330 JUMPI DUP1 PUSH4 0xF2FDE38B EQ PUSH2 0x360 JUMPI PUSH2 0x114 JUMP JUMPDEST DUP1 PUSH4 0x8DA5CB5B EQ PUSH2 0x254 JUMPI DUP1 PUSH4 0x95D89B41 EQ PUSH2 0x272 JUMPI DUP1 PUSH4 0xA1448194 EQ PUSH2 0x290 JUMPI DUP1 PUSH4 0xA22CB465 EQ PUSH2 0x2AC JUMPI PUSH2 0x114 JUMP JUMPDEST DUP1 PUSH4 0x23B872DD GT PUSH2 0xE7 JUMPI DUP1 PUSH4 0x23B872DD EQ PUSH2 0x1B2 JUMPI DUP1 PUSH4 0x42842E0E EQ PUSH2 0x1CE JUMPI DUP1 PUSH4 0x6352211E EQ PUSH2 0x1EA JUMPI DUP1 PUSH4 0x70A08231 EQ PUSH2 0x21A JUMPI DUP1 PUSH4 0x715018A6 EQ PUSH2 0x24A JUMPI PUSH2 0x114 JUMP JUMPDEST DUP1 PUSH4 0x1FFC9A7 EQ PUSH2 0x118 JUMPI DUP1 PUSH4 0x6FDDE03 EQ PUSH2 0x148 JUMPI DUP1 PUSH4 0x81812FC EQ PUSH2 0x166 JUMPI DUP1 PUSH4 0x95EA7B3 EQ PUSH2 0x196 JUMPI JUMPDEST PUSH0 DUP1 REVERT JUMPDEST PUSH2 0x132 PUSH1 0x4 DUP1 CALLDATASIZE SUB DUP2 ADD SWAP1 PUSH2 0x12D SWAP2 SWAP1 PUSH2 0x1CCA JUMP JUMPDEST PUSH2 0x37C JUMP JUMPDEST PUSH1 0x40 MLOAD PUSH2 0x13F SWAP2 SWAP1 PUSH2 0x1D0F JUMP JUMPDEST PUSH1 0x40 MLOAD DUP1 SWAP2 SUB SWAP1 RETURN JUMPDEST PUSH2 0x150 PUSH2 0x45D JUMP JUMPDEST PUSH1 0x40 MLOAD PUSH2 0x15D SWAP2 SWAP1 PUSH2 0x1DB2 JUMP JUMPDEST PUSH1 0x40 MLOAD DUP1 SWAP2 SUB SWAP1 RETURN JUMPDEST PUSH2 0x180 PUSH1 0x4 DUP1 CALLDATASIZE SUB DUP2 ADD SWAP1 PUSH2 0x17B SWAP2 SWAP1 PUSH2 0x1E05 JUMP JUMPDEST PUSH2 0x4FA JUMP JUMPDEST PUSH1 0x40 MLOAD PUSH2 0x18D SWAP2 SWAP1 PUSH2 0x1E6F JUMP JUMPDEST PUSH1 0x40 MLOAD DUP1 SWAP2 SUB SWAP1 RETURN JUMPDEST PUSH2 0x1B0 PUSH1 0x4 DUP1 CALLDATASIZE SUB DUP2 ADD SWAP1 PUSH2 0x1AB SWAP2 SWAP1 PUSH2 0x1EB2 JUMP JUMPDEST PUSH2 0x515 JUMP JUMPDEST STOP JUMPDEST PUSH2 0x1CC PUSH1 0x4 DUP1 CALLDATASIZE SUB DUP2 ADD SWAP1 PUSH2 0x1C7 SWAP2 SWAP1 PUSH2 0x1EF0 JUMP JUMPDEST PUSH2 0x52B JUMP JUMPDEST STOP JUMPDEST PUSH2 0x1E8 PUSH1 0x4 DUP1 CALLDATASIZE SUB DUP2 ADD SWAP1 PUSH2 0x1E3 SWAP2 SWAP1 PUSH2 0x1EF0 JUMP JUMPDEST PUSH2 0x62A JUMP JUMPDEST STOP JUMPDEST PUSH2 0x204 PUSH1 0x4 DUP1 CALLDATASIZE SUB DUP2 ADD SWAP1 PUSH2 0x1FF SWAP2 SWAP1 PUSH2 0x1E05 JUMP JUMPDEST PUSH2 0x649 JUMP JUMPDEST PUSH1 0x40 MLOAD PUSH2 0x211 SWAP2 SWAP1 PUSH2 0x1E6F JUMP JUMPDEST PUSH1 0x40 MLOAD DUP1 SWAP2 SUB SWAP1 RETURN JUMPDEST PUSH2 0x234 PUSH1 0x4 DUP1 CALLDATASIZE SUB DUP2 ADD SWAP1 PUSH2 0x22F SWAP2 SWAP1 PUSH2 0x1F40 JUMP JUMPDEST PUSH2 0x65A JUMP JUMPDEST PUSH1 0x40 MLOAD PUSH2 0x241 SWAP2 SWAP1 PUSH2 0x1F7A JUMP JUMPDEST PUSH1 0x40 MLOAD DUP1 SWAP2 SUB SWAP1 RETURN JUMPDEST PUSH2 0x252 PUSH2 0x71E JUMP JUMPDEST STOP JUMPDEST PUSH2 0x25C PUSH2 0x731 JUMP JUMPDEST PUSH1 0x40 MLOAD PUSH2 0x269 SWAP2 SWAP1 PUSH2 0x1E6F JUMP JUMPDEST PUSH1 0x40 MLOAD DUP1 SWAP2 SUB SWAP1 RETURN JUMPDEST PUSH2 0x27A PUSH2 0x766 JUMP JUMPDEST PUSH1 0x40 MLOAD PUSH2 0x287 SWAP2 SWAP1 PUSH2 0x1DB2 JUMP JUMPDEST PUSH1 0x40 MLOAD DUP1 SWAP2 SUB SWAP1 RETURN JUMPDEST PUSH2 0x2AA PUSH1 0x4 DUP1 CALLDATASIZE SUB DUP2 ADD SWAP1 PUSH2 0x2A5 SWAP2 SWAP1 PUSH2 0x1EB2 JUMP JUMPDEST PUSH2 0x804 JUMP JUMPDEST STOP JUMPDEST PUSH2 0x2C6 PUSH1 0x4 DUP1 CALLDATASIZE SUB DUP2 ADD SWAP1 PUSH2 0x2C1 SWAP2 SWAP1 PUSH2 0x1FBD JUMP JUMPDEST PUSH2 0x81A JUMP JUMPDEST STOP JUMPDEST PUSH2 0x2E2 PUSH1 0x4 DUP1 CALLDATASIZE SUB DUP2 ADD SWAP1 PUSH2 0x2DD SWAP2 SWAP1 PUSH2 0x2127 JUMP JUMPDEST PUSH2 0x830 JUMP JUMPDEST STOP JUMPDEST PUSH2 0x2FE PUSH1 0x4 DUP1 CALLDATASIZE SUB DUP2 ADD SWAP1 PUSH2 0x2F9 SWAP2 SWAP1 PUSH2 0x1F40 JUMP JUMPDEST PUSH2 0x84D JUMP JUMPDEST STOP JUMPDEST PUSH2 0x31A PUSH1 0x4 DUP1 CALLDATASIZE SUB DUP2 ADD SWAP1 PUSH2 0x315 SWAP2 SWAP1 PUSH2 0x1E05 JUMP JUMPDEST PUSH2 0xA42 JUMP JUMPDEST PUSH1 0x40 MLOAD PUSH2 0x327 SWAP2 SWAP1 PUSH2 0x1DB2 JUMP JUMPDEST PUSH1 0x40 MLOAD DUP1 SWAP2 SUB SWAP1 RETURN JUMPDEST PUSH2 0x34A PUSH1 0x4 DUP1 CALLDATASIZE SUB DUP2 ADD SWAP1 PUSH2 0x345 SWAP2 SWAP1 PUSH2 0x21A7 JUMP JUMPDEST PUSH2 0xAA8 JUMP JUMPDEST PUSH1 0x40 MLOAD PUSH2 0x357 SWAP2 SWAP1 PUSH2 0x1D0F JUMP JUMPDEST PUSH1 0x40 MLOAD DUP1 SWAP2 SUB SWAP1 RETURN JUMPDEST PUSH2 0x37A PUSH1 0x4 DUP1 CALLDATASIZE SUB DUP2 ADD SWAP1 PUSH2 0x375 SWAP2 SWAP1 PUSH2 0x1F40 JUMP JUMPDEST PUSH2 0xB44 JUMP JUMPDEST STOP JUMPDEST PUSH0 PUSH32 0x80AC58CD00000000000000000000000000000000000000000000000000000000 PUSH28 0xFFFFFFFFFFFFFFFFFFFFFFFFFFFFFFFFFFFFFFFFFFFFFFFFFFFFFFFF NOT AND DUP3 PUSH28 0xFFFFFFFFFFFFFFFFFFFFFFFFFFFFFFFFFFFFFFFFFFFFFFFFFFFFFFFF NOT AND EQ DUP1 PUSH2 0x446 JUMPI POP PUSH32 0x5B5E139F00000000000000000000000000000000000000000000000000000000 PUSH28 0xFFFFFFFFFFFFFFFFFFFFFFFFFFFFFFFFFFFFFFFFFFFFFFFFFFFFFFFF NOT AND DUP3 PUSH28 0xFFFFFFFFFFFFFFFFFFFFFFFFFFFFFFFFFFFFFFFFFFFFFFFFFFFFFFFF NOT AND EQ JUMPDEST DUP1 PUSH2 0x456 JUMPI POP PUSH2 0x455 DUP3 PUSH2 0xBC8 JUMP JUMPDEST JUMPDEST SWAP1 POP SWAP2 SWAP1 POP JUMP JUMPDEST PUSH1 0x60 PUSH0 PUSH2 0x468 PUSH2 0xC31 JUMP JUMPDEST SWAP1 POP DUP1 PUSH0 ADD DUP1 SLOAD PUSH2 0x478 SWAP1 PUSH2 0x2212 JUMP JUMPDEST DUP1 PUSH1 0x1F ADD PUSH1 0x20 DUP1 SWAP2 DIV MUL PUSH1 0x20 ADD PUSH1 0x40 MLOAD SWAP1 DUP2 ADD PUSH1 0x40 MSTORE DUP1 SWAP3 SWAP2 SWAP1 DUP2 DUP2 MSTORE PUSH1 0x20 ADD DUP3 DUP1 SLOAD PUSH2 0x4A4 SWAP1 PUSH2 0x2212 JUMP JUMPDEST DUP1 ISZERO PUSH2 0x4EF JUMPI DUP1 PUSH1 0x1F LT PUSH2 0x4C6 JUMPI PUSH2 0x100 DUP1 DUP4 SLOAD DIV MUL DUP4 MSTORE SWAP2 PUSH1 0x20 ADD SWAP2 PUSH2 0x4EF JUMP JUMPDEST DUP3 ADD SWAP2 SWAP1 PUSH0 MSTORE PUSH1 0x20 PUSH0 KECCAK256 SWAP1 JUMPDEST DUP2 SLOAD DUP2 MSTORE SWAP1 PUSH1 0x1 ADD SWAP1 PUSH1 0x20 ADD DUP1 DUP4 GT PUSH2 0x4D2 JUMPI DUP3 SWAP1 SUB PUSH1 0x1F AND DUP3 ADD SWAP2 JUMPDEST POP POP POP POP POP SWAP2 POP POP SWAP1 JUMP JUMPDEST PUSH0 PUSH2 0x504 DUP3 PUSH2 0xC58 JUMP JUMPDEST POP PUSH2 0x50E DUP3 PUSH2 0xCDE JUMP JUMPDEST SWAP1 POP SWAP2 SWAP1 POP JUMP JUMPDEST PUSH2 0x527 DUP3 DUP3 PUSH2 0x522 PUSH2 0xD25 JUMP JUMPDEST PUSH2 0xD2C JUMP JUMPDEST POP POP JUMP JUMPDEST PUSH0 PUSH20 0xFFFFFFFFFFFFFFFFFFFFFFFFFFFFFFFFFFFFFFFF AND DUP3 PUSH20 0xFFFFFFFFFFFFFFFFFFFFFFFFFFFFFFFFFFFFFFFF AND SUB PUSH2 0x59B JUMPI PUSH0 PUSH1 0x40 MLOAD PUSH32 0x64A0AE9200000000000000000000000000000000000000000000000000000000 DUP2 MSTORE PUSH1 0x4 ADD PUSH2 0x592 SWAP2 SWAP1 PUSH2 0x1E6F JUMP JUMPDEST PUSH1 0x40 MLOAD DUP1 SWAP2 SUB SWAP1 REVERT JUMPDEST PUSH0 PUSH2 0x5AE DUP4 DUP4 PUSH2 0x5A9 PUSH2 0xD25 JUMP JUMPDEST PUSH2 0xD3E JUMP JUMPDEST SWAP1 POP DUP4 PUSH20 0xFFFFFFFFFFFFFFFFFFFFFFFFFFFFFFFFFFFFFFFF AND DUP2 PUSH20 0xFFFFFFFFFFFFFFFFFFFFFFFFFFFFFFFFFFFFFFFF AND EQ PUSH2 0x624 JUMPI DUP4 DUP3 DUP3 PUSH1 0x40 MLOAD PUSH32 0x64283D7B00000000000000000000000000000000000000000000000000000000 DUP2 MSTORE PUSH1 0x4 ADD PUSH2 0x61B SWAP4 SWAP3 SWAP2 SWAP1 PUSH2 0x2242 JUMP JUMPDEST PUSH1 0x40 MLOAD DUP1 SWAP2 SUB SWAP1 REVERT JUMPDEST POP POP POP POP JUMP JUMPDEST PUSH2 0x644 DUP4 DUP4 DUP4 PUSH1 0x40 MLOAD DUP1 PUSH1 0x20 ADD PUSH1 0x40 MSTORE DUP1 PUSH0 DUP2 MSTORE POP PUSH2 0x830 JUMP JUMPDEST POP POP POP JUMP JUMPDEST PUSH0 PUSH2 0x653 DUP3 PUSH2 0xC58 JUMP JUMPDEST SWAP1 POP SWAP2 SWAP1 POP JUMP JUMPDEST PUSH0 DUP1 PUSH2 0x664 PUSH2 0xC31 JUMP JUMPDEST SWAP1 POP PUSH0 PUSH20 0xFFFFFFFFFFFFFFFFFFFFFFFFFFFFFFFFFFFFFFFF AND DUP4 PUSH20 0xFFFFFFFFFFFFFFFFFFFFFFFFFFFFFFFFFFFFFFFF AND SUB PUSH2 0x6D6 JUMPI PUSH0 PUSH1 0x40 MLOAD PUSH32 0x89C62B6400000000000000000000000000000000000000000000000000000000 DUP2 MSTORE PUSH1 0x4 ADD PUSH2 0x6CD SWAP2 SWAP1 PUSH2 0x1E6F JUMP JUMPDEST PUSH1 0x40 MLOAD DUP1 SWAP2 SUB SWAP1 REVERT JUMPDEST DUP1 PUSH1 0x3 ADD PUSH0 DUP5 PUSH20 0xFFFFFFFFFFFFFFFFFFFFFFFFFFFFFFFFFFFFFFFF AND PUSH20 0xFFFFFFFFFFFFFFFFFFFFFFFFFFFFFFFFFFFFFFFF AND DUP2 MSTORE PUSH1 0x20 ADD SWAP1 DUP2 MSTORE PUSH1 0x20 ADD PUSH0 KECCAK256 SLOAD SWAP2 POP POP SWAP2 SWAP1 POP JUMP JUMPDEST PUSH2 0x726 PUSH2 0xF5B JUMP JUMPDEST PUSH2 0x72F PUSH0 PUSH2 0xFE2 JUMP JUMPDEST JUMP JUMPDEST PUSH0 DUP1 PUSH2 0x73B PUSH2 0x10B3 JUMP JUMPDEST SWAP1 POP DUP1 PUSH0 ADD PUSH0 SWAP1 SLOAD SWAP1 PUSH2 0x100 EXP SWAP1 DIV PUSH20 0xFFFFFFFFFFFFFFFFFFFFFFFFFFFFFFFFFFFFFFFF AND SWAP2 POP POP SWAP1 JUMP JUMPDEST PUSH1 0x60 PUSH0 PUSH2 0x771 PUSH2 0xC31 JUMP JUMPDEST SWAP1 POP DUP1 PUSH1 0x1 ADD DUP1 SLOAD PUSH2 0x782 SWAP1 PUSH2 0x2212 JUMP JUMPDEST DUP1 PUSH1 0x1F ADD PUSH1 0x20 DUP1 SWAP2 DIV MUL PUSH1 0x20 ADD PUSH1 0x40 MLOAD SWAP1 DUP2 ADD PUSH1 0x40 MSTORE DUP1 SWAP3 SWAP2 SWAP1 DUP2 DUP2 MSTORE PUSH1 0x20 ADD DUP3 DUP1 SLOAD PUSH2 0x7AE SWAP1 PUSH2 0x2212 JUMP JUMPDEST DUP1 ISZERO PUSH2 0x7F9 JUMPI DUP1 PUSH1 0x1F LT PUSH2 0x7D0 JUMPI PUSH2 0x100 DUP1 DUP4 SLOAD DIV MUL DUP4 MSTORE SWAP2 PUSH1 0x20 ADD SWAP2 PUSH2 0x7F9 JUMP JUMPDEST DUP3 ADD SWAP2 SWAP1 PUSH0 MSTORE PUSH1 0x20 PUSH0 KECCAK256 SWAP1 JUMPDEST DUP2 SLOAD DUP2 MSTORE SWAP1 PUSH1 0x1 ADD SWAP1 PUSH1 0x20 ADD DUP1 DUP4 GT PUSH2 0x7DC JUMPI DUP3 SWAP1 SUB PUSH1 0x1F AND DUP3 ADD SWAP2 JUMPDEST POP POP POP POP POP SWAP2 POP POP SWAP1 JUMP JUMPDEST PUSH2 0x80C PUSH2 0xF5B JUMP JUMPDEST PUSH2 0x816 DUP3 DUP3 PUSH2 0x10DA JUMP JUMPDEST POP POP JUMP JUMPDEST PUSH2 0x82C PUSH2 0x825 PUSH2 0xD25 JUMP JUMPDEST DUP4 DUP4 PUSH2 0x10F7 JUMP JUMPDEST POP POP JUMP JUMPDEST PUSH2 0x83B DUP5 DUP5 DUP5 PUSH2 0x52B JUMP JUMPDEST PUSH2 0x847 DUP5 DUP5 DUP5 DUP5 PUSH2 0x126E JUMP JUMPDEST POP POP POP POP JUMP JUMPDEST PUSH0 PUSH2 0x856 PUSH2 0x1420 JUMP JUMPDEST SWAP1 POP PUSH0 DUP2 PUSH0 ADD PUSH1 0x8 SWAP1 SLOAD SWAP1 PUSH2 0x100 EXP SWAP1 DIV PUSH1 0xFF AND ISZERO SWAP1 POP PUSH0 DUP3 PUSH0 ADD PUSH0 SWAP1 SLOAD SWAP1 PUSH2 0x100 EXP SWAP1 DIV PUSH8 0xFFFFFFFFFFFFFFFF AND SWAP1 POP PUSH0 DUP1 DUP3 PUSH8 0xFFFFFFFFFFFFFFFF AND EQ DUP1 ISZERO PUSH2 0x89E JUMPI POP DUP3 JUMPDEST SWAP1 POP PUSH0 PUSH1 0x1 DUP4 PUSH8 0xFFFFFFFFFFFFFFFF AND EQ DUP1 ISZERO PUSH2 0x8D1 JUMPI POP PUSH0 ADDRESS PUSH20 0xFFFFFFFFFFFFFFFFFFFFFFFFFFFFFFFFFFFFFFFF AND EXTCODESIZE EQ JUMPDEST SWAP1 POP DUP2 ISZERO DUP1 ISZERO PUSH2 0x8DF JUMPI POP DUP1 ISZERO JUMPDEST ISZERO PUSH2 0x916 JUMPI PUSH1 0x40 MLOAD PUSH32 0xF92EE8A900000000000000000000000000000000000000000000000000000000 DUP2 MSTORE PUSH1 0x4 ADD PUSH1 0x40 MLOAD DUP1 SWAP2 SUB SWAP1 REVERT JUMPDEST PUSH1 0x1 DUP6 PUSH0 ADD PUSH0 PUSH2 0x100 EXP DUP2 SLOAD DUP2 PUSH8 0xFFFFFFFFFFFFFFFF MUL NOT AND SWAP1 DUP4 PUSH8 0xFFFFFFFFFFFFFFFF AND MUL OR SWAP1 SSTORE POP DUP4 ISZERO PUSH2 0x963 JUMPI PUSH1 0x1 DUP6 PUSH0 ADD PUSH1 0x8 PUSH2 0x100 EXP DUP2 SLOAD DUP2 PUSH1 0xFF MUL NOT AND SWAP1 DUP4 ISZERO ISZERO MUL OR SWAP1 SSTORE POP JUMPDEST PUSH2 0x9D7 PUSH1 0x40 MLOAD DUP1 PUSH1 0x40 ADD PUSH1 0x40 MSTORE DUP1 PUSH1 0x7 DUP2 MSTORE PUSH1 0x20 ADD PUSH32 0x4D79546F6B656E00000000000000000000000000000000000000000000000000 DUP2 MSTORE POP PUSH1 0x40 MLOAD DUP1 PUSH1 0x40 ADD PUSH1 0x40 MSTORE DUP1 PUSH1 0x3 DUP2 MSTORE PUSH1 0x20 ADD PUSH32 0x4D544B0000000000000000000000000000000000000000000000000000000000 DUP2 MSTORE POP PUSH2 0x1447 JUMP JUMPDEST PUSH2 0x9E0 DUP7 PUSH2 0x145D JUMP JUMPDEST DUP4 ISZERO PUSH2 0xA3A JUMPI PUSH0 DUP6 PUSH0 ADD PUSH1 0x8 PUSH2 0x100 EXP DUP2 SLOAD DUP2 PUSH1 0xFF MUL NOT AND SWAP1 DUP4 ISZERO ISZERO MUL OR SWAP1 SSTORE POP PUSH32 0xC7F505B2F371AE2175EE4913F4499E1F2633A7B5936321EED1CDAEB6115181D2 PUSH1 0x1 PUSH1 0x40 MLOAD PUSH2 0xA31 SWAP2 SWAP1 PUSH2 0x22CC JUMP JUMPDEST PUSH1 0x40 MLOAD DUP1 SWAP2 SUB SWAP1 LOG1 JUMPDEST POP POP POP POP POP POP JUMP JUMPDEST PUSH1 0x60 PUSH2 0xA4D DUP3 PUSH2 0xC58 JUMP JUMPDEST POP PUSH0 PUSH2 0xA57 PUSH2 0x1471 JUMP JUMPDEST SWAP1 POP PUSH0 DUP2 MLOAD GT PUSH2 0xA75 JUMPI PUSH1 0x40 MLOAD DUP1 PUSH1 0x20 ADD PUSH1 0x40 MSTORE DUP1 PUSH0 DUP2 MSTORE POP PUSH2 0xAA0 JUMP JUMPDEST DUP1 PUSH2 0xA7F DUP5 PUSH2 0x1487 JUMP JUMPDEST PUSH1 0x40 MLOAD PUSH1 0x20 ADD PUSH2 0xA90 SWAP3 SWAP2 SWAP1 PUSH2 0x231F JUMP JUMPDEST PUSH1 0x40 MLOAD PUSH1 0x20 DUP2 DUP4 SUB SUB DUP2 MSTORE SWAP1 PUSH1 0x40 MSTORE JUMPDEST SWAP2 POP POP SWAP2 SWAP1 POP JUMP JUMPDEST PUSH0 DUP1 PUSH2 0xAB2 PUSH2 0xC31 JUMP JUMPDEST SWAP1 POP DUP1 PUSH1 0x5 ADD PUSH0 DUP6 PUSH20 0xFFFFFFFFFFFFFFFFFFFFFFFFFFFFFFFFFFFFFFFF AND PUSH20 0xFFFFFFFFFFFFFFFFFFFFFFFFFFFFFFFFFFFFFFFF AND DUP2 MSTORE PUSH1 0x20 ADD SWAP1 DUP2 MSTORE PUSH1 0x20 ADD PUSH0 KECCAK256 PUSH0 DUP5 PUSH20 0xFFFFFFFFFFFFFFFFFFFFFFFFFFFFFFFFFFFFFFFF AND PUSH20 0xFFFFFFFFFFFFFFFFFFFFFFFFFFFFFFFFFFFFFFFF AND DUP2 MSTORE PUSH1 0x20 ADD SWAP1 DUP2 MSTORE PUSH1 0x20 ADD PUSH0 KECCAK256 PUSH0 SWAP1 SLOAD SWAP1 PUSH2 0x100 EXP SWAP1 DIV PUSH1 0xFF AND SWAP2 POP POP SWAP3 SWAP2 POP POP JUMP JUMPDEST PUSH2 0xB4C PUSH2 0xF5B JUMP JUMPDEST PUSH0 PUSH20 0xFFFFFFFFFFFFFFFFFFFFFFFFFFFFFFFFFFFFFFFF AND DUP2 PUSH20 0xFFFFFFFFFFFFFFFFFFFFFFFFFFFFFFFFFFFFFFFF AND SUB PUSH2 0xBBC JUMPI PUSH0 PUSH1 0x40 MLOAD PUSH32 0x1E4FBDF700000000000000000000000000000000000000000000000000000000 DUP2 MSTORE PUSH1 0x4 ADD PUSH2 0xBB3 SWAP2 SWAP1 PUSH2 0x1E6F JUMP JUMPDEST PUSH1 0x40 MLOAD DUP1 SWAP2 SUB SWAP1 REVERT JUMPDEST PUSH2 0xBC5 DUP2 PUSH2 0xFE2 JUMP JUMPDEST POP JUMP JUMPDEST PUSH0 PUSH32 0x1FFC9A700000000000000000000000000000000000000000000000000000000 PUSH28 0xFFFFFFFFFFFFFFFFFFFFFFFFFFFFFFFFFFFFFFFFFFFFFFFFFFFFFFFF NOT AND DUP3 PUSH28 0xFFFFFFFFFFFFFFFFFFFFFFFFFFFFFFFFFFFFFFFFFFFFFFFFFFFFFFFF NOT AND EQ SWAP1 POP SWAP2 SWAP1 POP JUMP JUMPDEST PUSH0 PUSH32 0x80BB2B638CC20BC4D0A60D66940F3AB4A00C1D7B313497CA82FB0B4AB0079300 SWAP1 POP SWAP1 JUMP JUMPDEST PUSH0 DUP1 PUSH2 0xC63 DUP4 PUSH2 0x1551 JUMP JUMPDEST SWAP1 POP PUSH0 PUSH20 0xFFFFFFFFFFFFFFFFFFFFFFFFFFFFFFFFFFFFFFFF AND DUP2 PUSH20 0xFFFFFFFFFFFFFFFFFFFFFFFFFFFFFFFFFFFFFFFF AND SUB PUSH2 0xCD5 JUMPI DUP3 PUSH1 0x40 MLOAD PUSH32 0x7E27328900000000000000000000000000000000000000000000000000000000 DUP2 MSTORE PUSH1 0x4 ADD PUSH2 0xCCC SWAP2 SWAP1 PUSH2 0x1F7A JUMP JUMPDEST PUSH1 0x40 MLOAD DUP1 SWAP2 SUB SWAP1 REVERT JUMPDEST DUP1 SWAP2 POP POP SWAP2 SWAP1 POP JUMP JUMPDEST PUSH0 DUP1 PUSH2 0xCE8 PUSH2 0xC31 JUMP JUMPDEST SWAP1 POP DUP1 PUSH1 0x4 ADD PUSH0 DUP5 DUP2 MSTORE PUSH1 0x20 ADD SWAP1 DUP2 MSTORE PUSH1 0x20 ADD PUSH0 KECCAK256 PUSH0 SWAP1 SLOAD SWAP1 PUSH2 0x100 EXP SWAP1 DIV PUSH20 0xFFFFFFFFFFFFFFFFFFFFFFFFFFFFFFFFFFFFFFFF AND SWAP2 POP POP SWAP2 SWAP1 POP JUMP JUMPDEST PUSH0 CALLER SWAP1 POP SWAP1 JUMP JUMPDEST PUSH2 0xD39 DUP4 DUP4 DUP4 PUSH1 0x1 PUSH2 0x1598 JUMP JUMPDEST POP POP POP JUMP JUMPDEST PUSH0 DUP1 PUSH2 0xD48 PUSH2 0xC31 JUMP JUMPDEST SWAP1 POP PUSH0 PUSH2 0xD54 DUP6 PUSH2 0x1551 JUMP JUMPDEST SWAP1 POP PUSH0 PUSH20 0xFFFFFFFFFFFFFFFFFFFFFFFFFFFFFFFFFFFFFFFF AND DUP5 PUSH20 0xFFFFFFFFFFFFFFFFFFFFFFFFFFFFFFFFFFFFFFFF AND EQ PUSH2 0xD95 JUMPI PUSH2 0xD94 DUP2 DUP6 DUP8 PUSH2 0x1765 JUMP JUMPDEST JUMPDEST PUSH0 PUSH20 0xFFFFFFFFFFFFFFFFFFFFFFFFFFFFFFFFFFFFFFFF AND DUP2 PUSH20 0xFFFFFFFFFFFFFFFFFFFFFFFFFFFFFFFFFFFFFFFF AND EQ PUSH2 0xE22 JUMPI PUSH2 0xDD4 PUSH0 DUP7 PUSH0 DUP1 PUSH2 0x1598 JUMP JUMPDEST PUSH1 0x1 DUP3 PUSH1 0x3 ADD PUSH0 DUP4 PUSH20 0xFFFFFFFFFFFFFFFFFFFFFFFFFFFFFFFFFFFFFFFF AND PUSH20 0xFFFFFFFFFFFFFFFFFFFFFFFFFFFFFFFFFFFFFFFF AND DUP2 MSTORE PUSH1 0x20 ADD SWAP1 DUP2 MSTORE PUSH1 0x20 ADD PUSH0 KECCAK256 PUSH0 DUP3 DUP3 SLOAD SUB SWAP3 POP POP DUP2 SWAP1 SSTORE POP JUMPDEST PUSH0 PUSH20 0xFFFFFFFFFFFFFFFFFFFFFFFFFFFFFFFFFFFFFFFF AND DUP7 PUSH20 0xFFFFFFFFFFFFFFFFFFFFFFFFFFFFFFFFFFFFFFFF AND EQ PUSH2 0xEA3 JUMPI PUSH1 0x1 DUP3 PUSH1 0x3 ADD PUSH0 DUP9 PUSH20 0xFFFFFFFFFFFFFFFFFFFFFFFFFFFFFFFFFFFFFFFF AND PUSH20 0xFFFFFFFFFFFFFFFFFFFFFFFFFFFFFFFFFFFFFFFF AND DUP2 MSTORE PUSH1 0x20 ADD SWAP1 DUP2 MSTORE PUSH1 0x20 ADD PUSH0 KECCAK256 PUSH0 DUP3 DUP3 SLOAD ADD SWAP3 POP POP DUP2 SWAP1 SSTORE POP JUMPDEST DUP6 DUP3 PUSH1 0x2 ADD PUSH0 DUP8 DUP2 MSTORE PUSH1 0x20 ADD SWAP1 DUP2 MSTORE PUSH1 0x20 ADD PUSH0 KECCAK256 PUSH0 PUSH2 0x100 EXP DUP2 SLOAD DUP2 PUSH20 0xFFFFFFFFFFFFFFFFFFFFFFFFFFFFFFFFFFFFFFFF MUL NOT AND SWAP1 DUP4 PUSH20 0xFFFFFFFFFFFFFFFFFFFFFFFFFFFFFFFFFFFFFFFF AND MUL OR SWAP1 SSTORE POP DUP5 DUP7 PUSH20 0xFFFFFFFFFFFFFFFFFFFFFFFFFFFFFFFFFFFFFFFF AND DUP3 PUSH20 0xFFFFFFFFFFFFFFFFFFFFFFFFFFFFFFFFFFFFFFFF AND PUSH32 0xDDF252AD1BE2C89B69C2B068FC378DAA952BA7F163C4A11628F55A4DF523B3EF PUSH1 0x40 MLOAD PUSH1 0x40 MLOAD DUP1 SWAP2 SUB SWAP1 LOG4 DUP1 SWAP3 POP POP POP SWAP4 SWAP3 POP POP POP JUMP JUMPDEST PUSH2 0xF63 PUSH2 0xD25 JUMP JUMPDEST PUSH20 0xFFFFFFFFFFFFFFFFFFFFFFFFFFFFFFFFFFFFFFFF AND PUSH2 0xF81 PUSH2 0x731 JUMP JUMPDEST PUSH20 0xFFFFFFFFFFFFFFFFFFFFFFFFFFFFFFFFFFFFFFFF AND EQ PUSH2 0xFE0 JUMPI PUSH2 0xFA4 PUSH2 0xD25 JUMP JUMPDEST PUSH1 0x40 MLOAD PUSH32 0x118CDAA700000000000000000000000000000000000000000000000000000000 DUP2 MSTORE PUSH1 0x4 ADD PUSH2 0xFD7 SWAP2 SWAP1 PUSH2 0x1E6F JUMP JUMPDEST PUSH1 0x40 MLOAD DUP1 SWAP2 SUB SWAP1 REVERT JUMPDEST JUMP JUMPDEST PUSH0 PUSH2 0xFEB PUSH2 0x10B3 JUMP JUMPDEST SWAP1 POP PUSH0 DUP2 PUSH0 ADD PUSH0 SWAP1 SLOAD SWAP1 PUSH2 0x100 EXP SWAP1 DIV PUSH20 0xFFFFFFFFFFFFFFFFFFFFFFFFFFFFFFFFFFFFFFFF AND SWAP1 POP DUP3 DUP3 PUSH0 ADD PUSH0 PUSH2 0x100 EXP DUP2 SLOAD DUP2 PUSH20 0xFFFFFFFFFFFFFFFFFFFFFFFFFFFFFFFFFFFFFFFF MUL NOT AND SWAP1 DUP4 PUSH20 0xFFFFFFFFFFFFFFFFFFFFFFFFFFFFFFFFFFFFFFFF AND MUL OR SWAP1 SSTORE POP DUP3 PUSH20 0xFFFFFFFFFFFFFFFFFFFFFFFFFFFFFFFFFFFFFFFF AND DUP2 PUSH20 0xFFFFFFFFFFFFFFFFFFFFFFFFFFFFFFFFFFFFFFFF AND PUSH32 0x8BE0079C531659141344CD1FD0A4F28419497F9722A3DAAFE3B4186F6B6457E0 PUSH1 0x40 MLOAD PUSH1 0x40 MLOAD DUP1 SWAP2 SUB SWAP1 LOG3 POP POP POP JUMP JUMPDEST PUSH0 PUSH32 0x9016D09D72D40FDAE2FD8CEAC6B6234C7706214FD39C1CD1E609A0528C199300 SWAP1 POP SWAP1 JUMP JUMPDEST PUSH2 0x10F3 DUP3 DUP3 PUSH1 0x40 MLOAD DUP1 PUSH1 0x20 ADD PUSH1 0x40 MSTORE DUP1 PUSH0 DUP2 MSTORE POP PUSH2 0x1828 JUMP JUMPDEST POP POP JUMP JUMPDEST PUSH0 PUSH2 0x1100 PUSH2 0xC31 JUMP JUMPDEST SWAP1 POP PUSH0 PUSH20 0xFFFFFFFFFFFFFFFFFFFFFFFFFFFFFFFFFFFFFFFF AND DUP4 PUSH20 0xFFFFFFFFFFFFFFFFFFFFFFFFFFFFFFFFFFFFFFFF AND SUB PUSH2 0x1172 JUMPI DUP3 PUSH1 0x40 MLOAD PUSH32 0x5B08BA1800000000000000000000000000000000000000000000000000000000 DUP2 MSTORE PUSH1 0x4 ADD PUSH2 0x1169 SWAP2 SWAP1 PUSH2 0x1E6F JUMP JUMPDEST PUSH1 0x40 MLOAD DUP1 SWAP2 SUB SWAP1 REVERT JUMPDEST DUP2 DUP2 PUSH1 0x5 ADD PUSH0 DUP7 PUSH20 0xFFFFFFFFFFFFFFFFFFFFFFFFFFFFFFFFFFFFFFFF AND PUSH20 0xFFFFFFFFFFFFFFFFFFFFFFFFFFFFFFFFFFFFFFFF AND DUP2 MSTORE PUSH1 0x20 ADD SWAP1 DUP2 MSTORE PUSH1 0x20 ADD PUSH0 KECCAK256 PUSH0 DUP6 PUSH20 0xFFFFFFFFFFFFFFFFFFFFFFFFFFFFFFFFFFFFFFFF AND PUSH20 0xFFFFFFFFFFFFFFFFFFFFFFFFFFFFFFFFFFFFFFFF AND DUP2 MSTORE PUSH1 0x20 ADD SWAP1 DUP2 MSTORE PUSH1 0x20 ADD PUSH0 KECCAK256 PUSH0 PUSH2 0x100 EXP DUP2 SLOAD DUP2 PUSH1 0xFF MUL NOT AND SWAP1 DUP4 ISZERO ISZERO MUL OR SWAP1 SSTORE POP DUP3 PUSH20 0xFFFFFFFFFFFFFFFFFFFFFFFFFFFFFFFFFFFFFFFF AND DUP5 PUSH20 0xFFFFFFFFFFFFFFFFFFFFFFFFFFFFFFFFFFFFFFFF AND PUSH32 0x17307EAB39AB6107E8899845AD3D59BD9653F200F220920489CA2B5937696C31 DUP5 PUSH1 0x40 MLOAD PUSH2 0x1260 SWAP2 SWAP1 PUSH2 0x1D0F JUMP JUMPDEST PUSH1 0x40 MLOAD DUP1 SWAP2 SUB SWAP1 LOG3 POP POP POP POP JUMP JUMPDEST PUSH0 DUP4 PUSH20 0xFFFFFFFFFFFFFFFFFFFFFFFFFFFFFFFFFFFFFFFF AND EXTCODESIZE GT ISZERO PUSH2 0x141A JUMPI DUP3 PUSH20 0xFFFFFFFFFFFFFFFFFFFFFFFFFFFFFFFFFFFFFFFF AND PUSH4 0x150B7A02 PUSH2 0x12B1 PUSH2 0xD25 JUMP JUMPDEST DUP7 DUP6 DUP6 PUSH1 0x40 MLOAD DUP6 PUSH4 0xFFFFFFFF AND PUSH1 0xE0 SHL DUP2 MSTORE PUSH1 0x4 ADD PUSH2 0x12D3 SWAP5 SWAP4 SWAP3 SWAP2 SWAP1 PUSH2 0x2394 JUMP JUMPDEST PUSH1 0x20 PUSH1 0x40 MLOAD DUP1 DUP4 SUB DUP2 PUSH0 DUP8 GAS CALL SWAP3 POP POP POP DUP1 ISZERO PUSH2 0x130E JUMPI POP PUSH1 0x40 MLOAD RETURNDATASIZE PUSH1 0x1F NOT PUSH1 0x1F DUP3 ADD AND DUP3 ADD DUP1 PUSH1 0x40 MSTORE POP DUP2 ADD SWAP1 PUSH2 0x130B SWAP2 SWAP1 PUSH2 0x23F2 JUMP JUMPDEST PUSH1 0x1 JUMPDEST PUSH2 0x138F JUMPI RETURNDATASIZE DUP1 PUSH0 DUP2 EQ PUSH2 0x133C JUMPI PUSH1 0x40 MLOAD SWAP2 POP PUSH1 0x1F NOT PUSH1 0x3F RETURNDATASIZE ADD AND DUP3 ADD PUSH1 0x40 MSTORE RETURNDATASIZE DUP3 MSTORE RETURNDATASIZE PUSH0 PUSH1 0x20 DUP5 ADD RETURNDATACOPY PUSH2 0x1341 JUMP JUMPDEST PUSH1 0x60 SWAP2 POP JUMPDEST POP PUSH0 DUP2 MLOAD SUB PUSH2 0x1387 JUMPI DUP4 PUSH1 0x40 MLOAD PUSH32 0x64A0AE9200000000000000000000000000000000000000000000000000000000 DUP2 MSTORE PUSH1 0x4 ADD PUSH2 0x137E SWAP2 SWAP1 PUSH2 0x1E6F JUMP JUMPDEST PUSH1 0x40 MLOAD DUP1 SWAP2 SUB SWAP1 REVERT JUMPDEST DUP1 MLOAD DUP2 PUSH1 0x20 ADD REVERT JUMPDEST PUSH4 0x150B7A02 PUSH1 0xE0 SHL PUSH28 0xFFFFFFFFFFFFFFFFFFFFFFFFFFFFFFFFFFFFFFFFFFFFFFFFFFFFFFFF NOT AND DUP2 PUSH28 0xFFFFFFFFFFFFFFFFFFFFFFFFFFFFFFFFFFFFFFFFFFFFFFFFFFFFFFFF NOT AND EQ PUSH2 0x1418 JUMPI DUP4 PUSH1 0x40 MLOAD PUSH32 0x64A0AE9200000000000000000000000000000000000000000000000000000000 DUP2 MSTORE PUSH1 0x4 ADD PUSH2 0x140F SWAP2 SWAP1 PUSH2 0x1E6F JUMP JUMPDEST PUSH1 0x40 MLOAD DUP1 SWAP2 SUB SWAP1 REVERT JUMPDEST POP JUMPDEST POP POP POP POP JUMP JUMPDEST PUSH0 PUSH32 0xF0C57E16840DF040F15088DC2F81FE391C3923BEC73E23A9662EFC9C229C6A00 SWAP1 POP SWAP1 JUMP JUMPDEST PUSH2 0x144F PUSH2 0x1843 JUMP JUMPDEST PUSH2 0x1459 DUP3 DUP3 PUSH2 0x1883 JUMP JUMPDEST POP POP JUMP JUMPDEST PUSH2 0x1465 PUSH2 0x1843 JUMP JUMPDEST PUSH2 0x146E DUP2 PUSH2 0x18BE JUMP JUMPDEST POP JUMP JUMPDEST PUSH1 0x60 PUSH1 0x40 MLOAD DUP1 PUSH1 0x20 ADD PUSH1 0x40 MSTORE DUP1 PUSH0 DUP2 MSTORE POP SWAP1 POP SWAP1 JUMP JUMPDEST PUSH1 0x60 PUSH0 PUSH1 0x1 PUSH2 0x1495 DUP5 PUSH2 0x1942 JUMP JUMPDEST ADD SWAP1 POP PUSH0 DUP2 PUSH8 0xFFFFFFFFFFFFFFFF DUP2 GT ISZERO PUSH2 0x14B3 JUMPI PUSH2 0x14B2 PUSH2 0x2003 JUMP JUMPDEST JUMPDEST PUSH1 0x40 MLOAD SWAP1 DUP1 DUP3 MSTORE DUP1 PUSH1 0x1F ADD PUSH1 0x1F NOT AND PUSH1 0x20 ADD DUP3 ADD PUSH1 0x40 MSTORE DUP1 ISZERO PUSH2 0x14E5 JUMPI DUP2 PUSH1 0x20 ADD PUSH1 0x1 DUP3 MUL DUP1 CALLDATASIZE DUP4 CALLDATACOPY DUP1 DUP3 ADD SWAP2 POP POP SWAP1 POP JUMPDEST POP SWAP1 POP PUSH0 DUP3 PUSH1 0x20 ADD DUP3 ADD SWAP1 POP JUMPDEST PUSH1 0x1 ISZERO PUSH2 0x1546 JUMPI DUP1 DUP1 PUSH1 0x1 SWAP1 SUB SWAP2 POP POP PUSH32 0x3031323334353637383961626364656600000000000000000000000000000000 PUSH1 0xA DUP7 MOD BYTE DUP2 MSTORE8 PUSH1 0xA DUP6 DUP2 PUSH2 0x153B JUMPI PUSH2 0x153A PUSH2 0x241D JUMP JUMPDEST JUMPDEST DIV SWAP5 POP PUSH0 DUP6 SUB PUSH2 0x14F2 JUMPI JUMPDEST DUP2 SWAP4 POP POP POP POP SWAP2 SWAP1 POP JUMP JUMPDEST PUSH0 DUP1 PUSH2 0x155B PUSH2 0xC31 JUMP JUMPDEST SWAP1 POP DUP1 PUSH1 0x2 ADD PUSH0 DUP5 DUP2 MSTORE PUSH1 0x20 ADD SWAP1 DUP2 MSTORE PUSH1 0x20 ADD PUSH0 KECCAK256 PUSH0 SWAP1 SLOAD SWAP1 PUSH2 0x100 EXP SWAP1 DIV PUSH20 0xFFFFFFFFFFFFFFFFFFFFFFFFFFFFFFFFFFFFFFFF AND SWAP2 POP POP SWAP2 SWAP1 POP JUMP JUMPDEST PUSH0 PUSH2 0x15A1 PUSH2 0xC31 JUMP JUMPDEST SWAP1 POP DUP2 DUP1 PUSH2 0x15DB JUMPI POP PUSH0 PUSH20 0xFFFFFFFFFFFFFFFFFFFFFFFFFFFFFFFFFFFFFFFF AND DUP4 PUSH20 0xFFFFFFFFFFFFFFFFFFFFFFFFFFFFFFFFFFFFFFFF AND EQ ISZERO JUMPDEST ISZERO PUSH2 0x170D JUMPI PUSH0 PUSH2 0x15EA DUP6 PUSH2 0xC58 JUMP JUMPDEST SWAP1 POP PUSH0 PUSH20 0xFFFFFFFFFFFFFFFFFFFFFFFFFFFFFFFFFFFFFFFF AND DUP5 PUSH20 0xFFFFFFFFFFFFFFFFFFFFFFFFFFFFFFFFFFFFFFFF AND EQ ISZERO DUP1 ISZERO PUSH2 0x1654 JUMPI POP DUP4 PUSH20 0xFFFFFFFFFFFFFFFFFFFFFFFFFFFFFFFFFFFFFFFF AND DUP2 PUSH20 0xFFFFFFFFFFFFFFFFFFFFFFFFFFFFFFFFFFFFFFFF AND EQ ISZERO JUMPDEST DUP1 ISZERO PUSH2 0x1667 JUMPI POP PUSH2 0x1665 DUP2 DUP6 PUSH2 0xAA8 JUMP JUMPDEST ISZERO JUMPDEST ISZERO PUSH2 0x16A9 JUMPI DUP4 PUSH1 0x40 MLOAD PUSH32 0xA9FBF51F00000000000000000000000000000000000000000000000000000000 DUP2 MSTORE PUSH1 0x4 ADD PUSH2 0x16A0 SWAP2 SWAP1 PUSH2 0x1E6F JUMP JUMPDEST PUSH1 0x40 MLOAD DUP1 SWAP2 SUB SWAP1 REVERT JUMPDEST DUP3 ISZERO PUSH2 0x170B JUMPI DUP5 DUP7 PUSH20 0xFFFFFFFFFFFFFFFFFFFFFFFFFFFFFFFFFFFFFFFF AND DUP3 PUSH20 0xFFFFFFFFFFFFFFFFFFFFFFFFFFFFFFFFFFFFFFFF AND PUSH32 0x8C5BE1E5EBEC7D5BD14F71427D1E84F3DD0314C0F7B2291E5B200AC8C7C3B925 PUSH1 0x40 MLOAD PUSH1 0x40 MLOAD DUP1 SWAP2 SUB SWAP1 LOG4 JUMPDEST POP JUMPDEST DUP5 DUP2 PUSH1 0x4 ADD PUSH0 DUP7 DUP2 MSTORE PUSH1 0x20 ADD SWAP1 DUP2 MSTORE PUSH1 0x20 ADD PUSH0 KECCAK256 PUSH0 PUSH2 0x100 EXP DUP2 SLOAD DUP2 PUSH20 0xFFFFFFFFFFFFFFFFFFFFFFFFFFFFFFFFFFFFFFFF MUL NOT AND SWAP1 DUP4 PUSH20 0xFFFFFFFFFFFFFFFFFFFFFFFFFFFFFFFFFFFFFFFF AND MUL OR SWAP1 SSTORE POP POP POP POP POP POP JUMP JUMPDEST PUSH2 0x1770 DUP4 DUP4 DUP4 PUSH2 0x1A93 JUMP JUMPDEST PUSH2 0x1823 JUMPI PUSH0 PUSH20 0xFFFFFFFFFFFFFFFFFFFFFFFFFFFFFFFFFFFFFFFF AND DUP4 PUSH20 0xFFFFFFFFFFFFFFFFFFFFFFFFFFFFFFFFFFFFFFFF AND SUB PUSH2 0x17E4 JUMPI DUP1 PUSH1 0x40 MLOAD PUSH32 0x7E27328900000000000000000000000000000000000000000000000000000000 DUP2 MSTORE PUSH1 0x4 ADD PUSH2 0x17DB SWAP2 SWAP1 PUSH2 0x1F7A JUMP JUMPDEST PUSH1 0x40 MLOAD DUP1 SWAP2 SUB SWAP1 REVERT JUMPDEST DUP2 DUP2 PUSH1 0x40 MLOAD PUSH32 0x177E802F00000000000000000000000000000000000000000000000000000000 DUP2 MSTORE PUSH1 0x4 ADD PUSH2 0x181A SWAP3 SWAP2 SWAP1 PUSH2 0x244A JUMP JUMPDEST PUSH1 0x40 MLOAD DUP1 SWAP2 SUB SWAP1 REVERT JUMPDEST POP POP POP JUMP JUMPDEST PUSH2 0x1832 DUP4 DUP4 PUSH2 0x1B53 JUMP JUMPDEST PUSH2 0x183E PUSH0 DUP5 DUP5 DUP5 PUSH2 0x126E JUMP JUMPDEST POP POP POP JUMP JUMPDEST PUSH2 0x184B PUSH2 0x1C46 JUMP JUMPDEST PUSH2 0x1881 JUMPI PUSH1 0x40 MLOAD PUSH32 0xD7E6BCF800000000000000000000000000000000000000000000000000000000 DUP2 MSTORE PUSH1 0x4 ADD PUSH1 0x40 MLOAD DUP1 SWAP2 SUB SWAP1 REVERT JUMPDEST JUMP JUMPDEST PUSH2 0x188B PUSH2 0x1843 JUMP JUMPDEST PUSH0 PUSH2 0x1894 PUSH2 0xC31 JUMP JUMPDEST SWAP1 POP DUP3 DUP2 PUSH0 ADD SWAP1 DUP2 PUSH2 0x18A6 SWAP2 SWAP1 PUSH2 0x2605 JUMP JUMPDEST POP DUP2 DUP2 PUSH1 0x1 ADD SWAP1 DUP2 PUSH2 0x18B8 SWAP2 SWAP1 PUSH2 0x2605 JUMP JUMPDEST POP POP POP POP JUMP JUMPDEST PUSH2 0x18C6 PUSH2 0x1843 JUMP JUMPDEST PUSH0 PUSH20 0xFFFFFFFFFFFFFFFFFFFFFFFFFFFFFFFFFFFFFFFF AND DUP2 PUSH20 0xFFFFFFFFFFFFFFFFFFFFFFFFFFFFFFFFFFFFFFFF AND SUB PUSH2 0x1936 JUMPI PUSH0 PUSH1 0x40 MLOAD PUSH32 0x1E4FBDF700000000000000000000000000000000000000000000000000000000 DUP2 MSTORE PUSH1 0x4 ADD PUSH2 0x192D SWAP2 SWAP1 PUSH2 0x1E6F JUMP JUMPDEST PUSH1 0x40 MLOAD DUP1 SWAP2 SUB SWAP1 REVERT JUMPDEST PUSH2 0x193F DUP2 PUSH2 0xFE2 JUMP JUMPDEST POP JUMP JUMPDEST PUSH0 DUP1 PUSH0 SWAP1 POP PUSH27 0x184F03E93FF9F4DAA797ED6E38ED64BF6A1F010000000000000000 DUP4 LT PUSH2 0x199E JUMPI PUSH27 0x184F03E93FF9F4DAA797ED6E38ED64BF6A1F010000000000000000 DUP4 DUP2 PUSH2 0x1994 JUMPI PUSH2 0x1993 PUSH2 0x241D JUMP JUMPDEST JUMPDEST DIV SWAP3 POP PUSH1 0x40 DUP2 ADD SWAP1 POP JUMPDEST PUSH14 0x4EE2D6D415B85ACEF8100000000 DUP4 LT PUSH2 0x19DB JUMPI PUSH14 0x4EE2D6D415B85ACEF8100000000 DUP4 DUP2 PUSH2 0x19D1 JUMPI PUSH2 0x19D0 PUSH2 0x241D JUMP JUMPDEST JUMPDEST DIV SWAP3 POP PUSH1 0x20 DUP2 ADD SWAP1 POP JUMPDEST PUSH7 0x2386F26FC10000 DUP4 LT PUSH2 0x1A0A JUMPI PUSH7 0x2386F26FC10000 DUP4 DUP2 PUSH2 0x1A00 JUMPI PUSH2 0x19FF PUSH2 0x241D JUMP JUMPDEST JUMPDEST DIV SWAP3 POP PUSH1 0x10 DUP2 ADD SWAP1 POP JUMPDEST PUSH4 0x5F5E100 DUP4 LT PUSH2 0x1A33 JUMPI PUSH4 0x5F5E100 DUP4 DUP2 PUSH2 0x1A29 JUMPI PUSH2 0x1A28 PUSH2 0x241D JUMP JUMPDEST JUMPDEST DIV SWAP3 POP PUSH1 0x8 DUP2 ADD SWAP1 POP JUMPDEST PUSH2 0x2710 DUP4 LT PUSH2 0x1A58 JUMPI PUSH2 0x2710 DUP4 DUP2 PUSH2 0x1A4E JUMPI PUSH2 0x1A4D PUSH2 0x241D JUMP JUMPDEST JUMPDEST DIV SWAP3 POP PUSH1 0x4 DUP2 ADD SWAP1 POP JUMPDEST PUSH1 0x64 DUP4 LT PUSH2 0x1A7B JUMPI PUSH1 0x64 DUP4 DUP2 PUSH2 0x1A71 JUMPI PUSH2 0x1A70 PUSH2 0x241D JUMP JUMPDEST JUMPDEST DIV SWAP3 POP PUSH1 0x2 DUP2 ADD SWAP1 POP JUMPDEST PUSH1 0xA DUP4 LT PUSH2 0x1A8A JUMPI PUSH1 0x1 DUP2 ADD SWAP1 POP JUMPDEST DUP1 SWAP2 POP POP SWAP2 SWAP1 POP JUMP JUMPDEST PUSH0 DUP1 PUSH20 0xFFFFFFFFFFFFFFFFFFFFFFFFFFFFFFFFFFFFFFFF AND DUP4 PUSH20 0xFFFFFFFFFFFFFFFFFFFFFFFFFFFFFFFFFFFFFFFF AND EQ ISZERO DUP1 ISZERO PUSH2 0x1B4A JUMPI POP DUP3 PUSH20 0xFFFFFFFFFFFFFFFFFFFFFFFFFFFFFFFFFFFFFFFF AND DUP5 PUSH20 0xFFFFFFFFFFFFFFFFFFFFFFFFFFFFFFFFFFFFFFFF AND EQ DUP1 PUSH2 0x1B0B JUMPI POP PUSH2 0x1B0A DUP5 DUP5 PUSH2 0xAA8 JUMP JUMPDEST JUMPDEST DUP1 PUSH2 0x1B49 JUMPI POP DUP3 PUSH20 0xFFFFFFFFFFFFFFFFFFFFFFFFFFFFFFFFFFFFFFFF AND PUSH2 0x1B31 DUP4 PUSH2 0xCDE JUMP JUMPDEST PUSH20 0xFFFFFFFFFFFFFFFFFFFFFFFFFFFFFFFFFFFFFFFF AND EQ JUMPDEST JUMPDEST SWAP1 POP SWAP4 SWAP3 POP POP POP JUMP JUMPDEST PUSH0 PUSH20 0xFFFFFFFFFFFFFFFFFFFFFFFFFFFFFFFFFFFFFFFF AND DUP3 PUSH20 0xFFFFFFFFFFFFFFFFFFFFFFFFFFFFFFFFFFFFFFFF AND SUB PUSH2 0x1BC3 JUMPI PUSH0 PUSH1 0x40 MLOAD PUSH32 0x64A0AE9200000000000000000000000000000000000000000000000000000000 DUP2 MSTORE PUSH1 0x4 ADD PUSH2 0x1BBA SWAP2 SWAP1 PUSH2 0x1E6F JUMP JUMPDEST PUSH1 0x40 MLOAD DUP1 SWAP2 SUB SWAP1 REVERT JUMPDEST PUSH0 PUSH2 0x1BCF DUP4 DUP4 PUSH0 PUSH2 0xD3E JUMP JUMPDEST SWAP1 POP PUSH0 PUSH20 0xFFFFFFFFFFFFFFFFFFFFFFFFFFFFFFFFFFFFFFFF AND DUP2 PUSH20 0xFFFFFFFFFFFFFFFFFFFFFFFFFFFFFFFFFFFFFFFF AND EQ PUSH2 0x1C41 JUMPI PUSH0 PUSH1 0x40 MLOAD PUSH32 0x73C6AC6E00000000000000000000000000000000000000000000000000000000 DUP2 MSTORE PUSH1 0x4 ADD PUSH2 0x1C38 SWAP2 SWAP1 PUSH2 0x1E6F JUMP JUMPDEST PUSH1 0x40 MLOAD DUP1 SWAP2 SUB SWAP1 REVERT JUMPDEST POP POP POP JUMP JUMPDEST PUSH0 PUSH2 0x1C4F PUSH2 0x1420 JUMP JUMPDEST PUSH0 ADD PUSH1 0x8 SWAP1 SLOAD SWAP1 PUSH2 0x100 EXP SWAP1 DIV PUSH1 0xFF AND SWAP1 POP SWAP1 JUMP JUMPDEST PUSH0 PUSH1 0x40 MLOAD SWAP1 POP SWAP1 JUMP JUMPDEST PUSH0 DUP1 REVERT JUMPDEST PUSH0 DUP1 REVERT JUMPDEST PUSH0 PUSH32 0xFFFFFFFF00000000000000000000000000000000000000000000000000000000 DUP3 AND SWAP1 POP SWAP2 SWAP1 POP JUMP JUMPDEST PUSH2 0x1CA9 DUP2 PUSH2 0x1C75 JUMP JUMPDEST DUP2 EQ PUSH2 0x1CB3 JUMPI PUSH0 DUP1 REVERT JUMPDEST POP JUMP JUMPDEST PUSH0 DUP2 CALLDATALOAD SWAP1 POP PUSH2 0x1CC4 DUP2 PUSH2 0x1CA0 JUMP JUMPDEST SWAP3 SWAP2 POP POP JUMP JUMPDEST PUSH0 PUSH1 0x20 DUP3 DUP5 SUB SLT ISZERO PUSH2 0x1CDF JUMPI PUSH2 0x1CDE PUSH2 0x1C6D JUMP JUMPDEST JUMPDEST PUSH0 PUSH2 0x1CEC DUP5 DUP3 DUP6 ADD PUSH2 0x1CB6 JUMP JUMPDEST SWAP2 POP POP SWAP3 SWAP2 POP POP JUMP JUMPDEST PUSH0 DUP2 ISZERO ISZERO SWAP1 POP SWAP2 SWAP1 POP JUMP JUMPDEST PUSH2 0x1D09 DUP2 PUSH2 0x1CF5 JUMP JUMPDEST DUP3 MSTORE POP POP JUMP JUMPDEST PUSH0 PUSH1 0x20 DUP3 ADD SWAP1 POP PUSH2 0x1D22 PUSH0 DUP4 ADD DUP5 PUSH2 0x1D00 JUMP JUMPDEST SWAP3 SWAP2 POP POP JUMP JUMPDEST PUSH0 DUP2 MLOAD SWAP1 POP SWAP2 SWAP1 POP JUMP JUMPDEST PUSH0 DUP3 DUP3 MSTORE PUSH1 0x20 DUP3 ADD SWAP1 POP SWAP3 SWAP2 POP POP JUMP JUMPDEST PUSH0 JUMPDEST DUP4 DUP2 LT ISZERO PUSH2 0x1D5F JUMPI DUP1 DUP3 ADD MLOAD DUP2 DUP5 ADD MSTORE PUSH1 0x20 DUP2 ADD SWAP1 POP PUSH2 0x1D44 JUMP JUMPDEST PUSH0 DUP5 DUP5 ADD MSTORE POP POP POP POP JUMP JUMPDEST PUSH0 PUSH1 0x1F NOT PUSH1 0x1F DUP4 ADD AND SWAP1 POP SWAP2 SWAP1 POP JUMP JUMPDEST PUSH0 PUSH2 0x1D84 DUP3 PUSH2 0x1D28 JUMP JUMPDEST PUSH2 0x1D8E DUP2 DUP6 PUSH2 0x1D32 JUMP JUMPDEST SWAP4 POP PUSH2 0x1D9E DUP2 DUP6 PUSH1 0x20 DUP7 ADD PUSH2 0x1D42 JUMP JUMPDEST PUSH2 0x1DA7 DUP2 PUSH2 0x1D6A JUMP JUMPDEST DUP5 ADD SWAP2 POP POP SWAP3 SWAP2 POP POP JUMP JUMPDEST PUSH0 PUSH1 0x20 DUP3 ADD SWAP1 POP DUP2 DUP2 SUB PUSH0 DUP4 ADD MSTORE PUSH2 0x1DCA DUP2 DUP5 PUSH2 0x1D7A JUMP JUMPDEST SWAP1 POP SWAP3 SWAP2 POP POP JUMP JUMPDEST PUSH0 DUP2 SWAP1 POP SWAP2 SWAP1 POP JUMP JUMPDEST PUSH2 0x1DE4 DUP2 PUSH2 0x1DD2 JUMP JUMPDEST DUP2 EQ PUSH2 0x1DEE JUMPI PUSH0 DUP1 REVERT JUMPDEST POP JUMP JUMPDEST PUSH0 DUP2 CALLDATALOAD SWAP1 POP PUSH2 0x1DFF DUP2 PUSH2 0x1DDB JUMP JUMPDEST SWAP3 SWAP2 POP POP JUMP JUMPDEST PUSH0 PUSH1 0x20 DUP3 DUP5 SUB SLT ISZERO PUSH2 0x1E1A JUMPI PUSH2 0x1E19 PUSH2 0x1C6D JUMP JUMPDEST JUMPDEST PUSH0 PUSH2 0x1E27 DUP5 DUP3 DUP6 ADD PUSH2 0x1DF1 JUMP JUMPDEST SWAP2 POP POP SWAP3 SWAP2 POP POP JUMP JUMPDEST PUSH0 PUSH20 0xFFFFFFFFFFFFFFFFFFFFFFFFFFFFFFFFFFFFFFFF DUP3 AND SWAP1 POP SWAP2 SWAP1 POP JUMP JUMPDEST PUSH0 PUSH2 0x1E59 DUP3 PUSH2 0x1E30 JUMP JUMPDEST SWAP1 POP SWAP2 SWAP1 POP JUMP JUMPDEST PUSH2 0x1E69 DUP2 PUSH2 0x1E4F JUMP JUMPDEST DUP3 MSTORE POP POP JUMP JUMPDEST PUSH0 PUSH1 0x20 DUP3 ADD SWAP1 POP PUSH2 0x1E82 PUSH0 DUP4 ADD DUP5 PUSH2 0x1E60 JUMP JUMPDEST SWAP3 SWAP2 POP POP JUMP JUMPDEST PUSH2 0x1E91 DUP2 PUSH2 0x1E4F JUMP JUMPDEST DUP2 EQ PUSH2 0x1E9B JUMPI PUSH0 DUP1 REVERT JUMPDEST POP JUMP JUMPDEST PUSH0 DUP2 CALLDATALOAD SWAP1 POP PUSH2 0x1EAC DUP2 PUSH2 0x1E88 JUMP JUMPDEST SWAP3 SWAP2 POP POP JUMP JUMPDEST PUSH0 DUP1 PUSH1 0x40 DUP4 DUP6 SUB SLT ISZERO PUSH2 0x1EC8 JUMPI PUSH2 0x1EC7 PUSH2 0x1C6D JUMP JUMPDEST JUMPDEST PUSH0 PUSH2 0x1ED5 DUP6 DUP3 DUP7 ADD PUSH2 0x1E9E JUMP JUMPDEST SWAP3 POP POP PUSH1 0x20 PUSH2 0x1EE6 DUP6 DUP3 DUP7 ADD PUSH2 0x1DF1 JUMP JUMPDEST SWAP2 POP POP SWAP3 POP SWAP3 SWAP1 POP JUMP JUMPDEST PUSH0 DUP1 PUSH0 PUSH1 0x60 DUP5 DUP7 SUB SLT ISZERO PUSH2 0x1F07 JUMPI PUSH2 0x1F06 PUSH2 0x1C6D JUMP JUMPDEST JUMPDEST PUSH0 PUSH2 0x1F14 DUP7 DUP3 DUP8 ADD PUSH2 0x1E9E JUMP JUMPDEST SWAP4 POP POP PUSH1 0x20 PUSH2 0x1F25 DUP7 DUP3 DUP8 ADD PUSH2 0x1E9E JUMP JUMPDEST SWAP3 POP POP PUSH1 0x40 PUSH2 0x1F36 DUP7 DUP3 DUP8 ADD PUSH2 0x1DF1 JUMP JUMPDEST SWAP2 POP POP SWAP3 POP SWAP3 POP SWAP3 JUMP JUMPDEST PUSH0 PUSH1 0x20 DUP3 DUP5 SUB SLT ISZERO PUSH2 0x1F55 JUMPI PUSH2 0x1F54 PUSH2 0x1C6D JUMP JUMPDEST JUMPDEST PUSH0 PUSH2 0x1F62 DUP5 DUP3 DUP6 ADD PUSH2 0x1E9E JUMP JUMPDEST SWAP2 POP POP SWAP3 SWAP2 POP POP JUMP JUMPDEST PUSH2 0x1F74 DUP2 PUSH2 0x1DD2 JUMP JUMPDEST DUP3 MSTORE POP POP JUMP JUMPDEST PUSH0 PUSH1 0x20 DUP3 ADD SWAP1 POP PUSH2 0x1F8D PUSH0 DUP4 ADD DUP5 PUSH2 0x1F6B JUMP JUMPDEST SWAP3 SWAP2 POP POP JUMP JUMPDEST PUSH2 0x1F9C DUP2 PUSH2 0x1CF5 JUMP JUMPDEST DUP2 EQ PUSH2 0x1FA6 JUMPI PUSH0 DUP1 REVERT JUMPDEST POP JUMP JUMPDEST PUSH0 DUP2 CALLDATALOAD SWAP1 POP PUSH2 0x1FB7 DUP2 PUSH2 0x1F93 JUMP JUMPDEST SWAP3 SWAP2 POP POP JUMP JUMPDEST PUSH0 DUP1 PUSH1 0x40 DUP4 DUP6 SUB SLT ISZERO PUSH2 0x1FD3 JUMPI PUSH2 0x1FD2 PUSH2 0x1C6D JUMP JUMPDEST JUMPDEST PUSH0 PUSH2 0x1FE0 DUP6 DUP3 DUP7 ADD PUSH2 0x1E9E JUMP JUMPDEST SWAP3 POP POP PUSH1 0x20 PUSH2 0x1FF1 DUP6 DUP3 DUP7 ADD PUSH2 0x1FA9 JUMP JUMPDEST SWAP2 POP POP SWAP3 POP SWAP3 SWAP1 POP JUMP JUMPDEST PUSH0 DUP1 REVERT JUMPDEST PUSH0 DUP1 REVERT JUMPDEST PUSH32 0x4E487B7100000000000000000000000000000000000000000000000000000000 PUSH0 MSTORE PUSH1 0x41 PUSH1 0x4 MSTORE PUSH1 0x24 PUSH0 REVERT JUMPDEST PUSH2 0x2039 DUP3 PUSH2 0x1D6A JUMP JUMPDEST DUP2 ADD DUP2 DUP2 LT PUSH8 0xFFFFFFFFFFFFFFFF DUP3 GT OR ISZERO PUSH2 0x2058 JUMPI PUSH2 0x2057 PUSH2 0x2003 JUMP JUMPDEST JUMPDEST DUP1 PUSH1 0x40 MSTORE POP POP POP JUMP JUMPDEST PUSH0 PUSH2 0x206A PUSH2 0x1C64 JUMP JUMPDEST SWAP1 POP PUSH2 0x2076 DUP3 DUP3 PUSH2 0x2030 JUMP JUMPDEST SWAP2 SWAP1 POP JUMP JUMPDEST PUSH0 PUSH8 0xFFFFFFFFFFFFFFFF DUP3 GT ISZERO PUSH2 0x2095 JUMPI PUSH2 0x2094 PUSH2 0x2003 JUMP JUMPDEST JUMPDEST PUSH2 0x209E DUP3 PUSH2 0x1D6A JUMP JUMPDEST SWAP1 POP PUSH1 0x20 DUP2 ADD SWAP1 POP SWAP2 SWAP1 POP JUMP JUMPDEST DUP3 DUP2 DUP4 CALLDATACOPY PUSH0 DUP4 DUP4 ADD MSTORE POP POP POP JUMP JUMPDEST PUSH0 PUSH2 0x20CB PUSH2 0x20C6 DUP5 PUSH2 0x207B JUMP JUMPDEST PUSH2 0x2061 JUMP JUMPDEST SWAP1 POP DUP3 DUP2 MSTORE PUSH1 0x20 DUP2 ADD DUP5 DUP5 DUP5 ADD GT ISZERO PUSH2 0x20E7 JUMPI PUSH2 0x20E6 PUSH2 0x1FFF JUMP JUMPDEST JUMPDEST PUSH2 0x20F2 DUP5 DUP3 DUP6 PUSH2 0x20AB JUMP JUMPDEST POP SWAP4 SWAP3 POP POP POP JUMP JUMPDEST PUSH0 DUP3 PUSH1 0x1F DUP4 ADD SLT PUSH2 0x210E JUMPI PUSH2 0x210D PUSH2 0x1FFB JUMP JUMPDEST JUMPDEST DUP2 CALLDATALOAD PUSH2 0x211E DUP5 DUP3 PUSH1 0x20 DUP7 ADD PUSH2 0x20B9 JUMP JUMPDEST SWAP2 POP POP SWAP3 SWAP2 POP POP JUMP JUMPDEST PUSH0 DUP1 PUSH0 DUP1 PUSH1 0x80 DUP6 DUP8 SUB SLT ISZERO PUSH2 0x213F JUMPI PUSH2 0x213E PUSH2 0x1C6D JUMP JUMPDEST JUMPDEST PUSH0 PUSH2 0x214C DUP8 DUP3 DUP9 ADD PUSH2 0x1E9E JUMP JUMPDEST SWAP5 POP POP PUSH1 0x20 PUSH2 0x215D DUP8 DUP3 DUP9 ADD PUSH2 0x1E9E JUMP JUMPDEST SWAP4 POP POP PUSH1 0x40 PUSH2 0x216E DUP8 DUP3 DUP9 ADD PUSH2 0x1DF1 JUMP JUMPDEST SWAP3 POP POP PUSH1 0x60 DUP6 ADD CALLDATALOAD PUSH8 0xFFFFFFFFFFFFFFFF DUP2 GT ISZERO PUSH2 0x218F JUMPI PUSH2 0x218E PUSH2 0x1C71 JUMP JUMPDEST JUMPDEST PUSH2 0x219B DUP8 DUP3 DUP9 ADD PUSH2 0x20FA JUMP JUMPDEST SWAP2 POP POP SWAP3 SWAP6 SWAP2 SWAP5 POP SWAP3 POP JUMP JUMPDEST PUSH0 DUP1 PUSH1 0x40 DUP4 DUP6 SUB SLT ISZERO PUSH2 0x21BD JUMPI PUSH2 0x21BC PUSH2 0x1C6D JUMP JUMPDEST JUMPDEST PUSH0 PUSH2 0x21CA DUP6 DUP3 DUP7 ADD PUSH2 0x1E9E JUMP JUMPDEST SWAP3 POP POP PUSH1 0x20 PUSH2 0x21DB DUP6 DUP3 DUP7 ADD PUSH2 0x1E9E JUMP JUMPDEST SWAP2 POP POP SWAP3 POP SWAP3 SWAP1 POP JUMP JUMPDEST PUSH32 0x4E487B7100000000000000000000000000000000000000000000000000000000 PUSH0 MSTORE PUSH1 0x22 PUSH1 0x4 MSTORE PUSH1 0x24 PUSH0 REVERT JUMPDEST PUSH0 PUSH1 0x2 DUP3 DIV SWAP1 POP PUSH1 0x1 DUP3 AND DUP1 PUSH2 0x2229 JUMPI PUSH1 0x7F DUP3 AND SWAP2 POP JUMPDEST PUSH1 0x20 DUP3 LT DUP2 SUB PUSH2 0x223C JUMPI PUSH2 0x223B PUSH2 0x21E5 JUMP JUMPDEST JUMPDEST POP SWAP2 SWAP1 POP JUMP JUMPDEST PUSH0 PUSH1 0x60 DUP3 ADD SWAP1 POP PUSH2 0x2255 PUSH0 DUP4 ADD DUP7 PUSH2 0x1E60 JUMP JUMPDEST PUSH2 0x2262 PUSH1 0x20 DUP4 ADD DUP6 PUSH2 0x1F6B JUMP JUMPDEST PUSH2 0x226F PUSH1 0x40 DUP4 ADD DUP5 PUSH2 0x1E60 JUMP JUMPDEST SWAP5 SWAP4 POP POP POP POP JUMP JUMPDEST PUSH0 DUP2 SWAP1 POP SWAP2 SWAP1 POP JUMP JUMPDEST PUSH0 PUSH8 0xFFFFFFFFFFFFFFFF DUP3 AND SWAP1 POP SWAP2 SWAP1 POP JUMP JUMPDEST PUSH0 DUP2 SWAP1 POP SWAP2 SWAP1 POP JUMP JUMPDEST PUSH0 PUSH2 0x22B6 PUSH2 0x22B1 PUSH2 0x22AC DUP5 PUSH2 0x2277 JUMP JUMPDEST PUSH2 0x2293 JUMP JUMPDEST PUSH2 0x2280 JUMP JUMPDEST SWAP1 POP SWAP2 SWAP1 POP JUMP JUMPDEST PUSH2 0x22C6 DUP2 PUSH2 0x229C JUMP JUMPDEST DUP3 MSTORE POP POP JUMP JUMPDEST PUSH0 PUSH1 0x20 DUP3 ADD SWAP1 POP PUSH2 0x22DF PUSH0 DUP4 ADD DUP5 PUSH2 0x22BD JUMP JUMPDEST SWAP3 SWAP2 POP POP JUMP JUMPDEST PUSH0 DUP2 SWAP1 POP SWAP3 SWAP2 POP POP JUMP JUMPDEST PUSH0 PUSH2 0x22F9 DUP3 PUSH2 0x1D28 JUMP JUMPDEST PUSH2 0x2303 DUP2 DUP6 PUSH2 0x22E5 JUMP JUMPDEST SWAP4 POP PUSH2 0x2313 DUP2 DUP6 PUSH1 0x20 DUP7 ADD PUSH2 0x1D42 JUMP JUMPDEST DUP1 DUP5 ADD SWAP2 POP POP SWAP3 SWAP2 POP POP JUMP JUMPDEST PUSH0 PUSH2 0x232A DUP3 DUP6 PUSH2 0x22EF JUMP JUMPDEST SWAP2 POP PUSH2 0x2336 DUP3 DUP5 PUSH2 0x22EF JUMP JUMPDEST SWAP2 POP DUP2 SWAP1 POP SWAP4 SWAP3 POP POP POP JUMP JUMPDEST PUSH0 DUP2 MLOAD SWAP1 POP SWAP2 SWAP1 POP JUMP JUMPDEST PUSH0 DUP3 DUP3 MSTORE PUSH1 0x20 DUP3 ADD SWAP1 POP SWAP3 SWAP2 POP POP JUMP JUMPDEST PUSH0 PUSH2 0x2366 DUP3 PUSH2 0x2342 JUMP JUMPDEST PUSH2 0x2370 DUP2 DUP6 PUSH2 0x234C JUMP JUMPDEST SWAP4 POP PUSH2 0x2380 DUP2 DUP6 PUSH1 0x20 DUP7 ADD PUSH2 0x1D42 JUMP JUMPDEST PUSH2 0x2389 DUP2 PUSH2 0x1D6A JUMP JUMPDEST DUP5 ADD SWAP2 POP POP SWAP3 SWAP2 POP POP JUMP JUMPDEST PUSH0 PUSH1 0x80 DUP3 ADD SWAP1 POP PUSH2 0x23A7 PUSH0 DUP4 ADD DUP8 PUSH2 0x1E60 JUMP JUMPDEST PUSH2 0x23B4 PUSH1 0x20 DUP4 ADD DUP7 PUSH2 0x1E60 JUMP JUMPDEST PUSH2 0x23C1 PUSH1 0x40 DUP4 ADD DUP6 PUSH2 0x1F6B JUMP JUMPDEST DUP2 DUP2 SUB PUSH1 0x60 DUP4 ADD MSTORE PUSH2 0x23D3 DUP2 DUP5 PUSH2 0x235C JUMP JUMPDEST SWAP1 POP SWAP6 SWAP5 POP POP POP POP POP JUMP JUMPDEST PUSH0 DUP2 MLOAD SWAP1 POP PUSH2 0x23EC DUP2 PUSH2 0x1CA0 JUMP JUMPDEST SWAP3 SWAP2 POP POP JUMP JUMPDEST PUSH0 PUSH1 0x20 DUP3 DUP5 SUB SLT ISZERO PUSH2 0x2407 JUMPI PUSH2 0x2406 PUSH2 0x1C6D JUMP JUMPDEST JUMPDEST PUSH0 PUSH2 0x2414 DUP5 DUP3 DUP6 ADD PUSH2 0x23DE JUMP JUMPDEST SWAP2 POP POP SWAP3 SWAP2 POP POP JUMP JUMPDEST PUSH32 0x4E487B7100000000000000000000000000000000000000000000000000000000 PUSH0 MSTORE PUSH1 0x12 PUSH1 0x4 MSTORE PUSH1 0x24 PUSH0 REVERT JUMPDEST PUSH0 PUSH1 0x40 DUP3 ADD SWAP1 POP PUSH2 0x245D PUSH0 DUP4 ADD DUP6 PUSH2 0x1E60 JUMP JUMPDEST PUSH2 0x246A PUSH1 0x20 DUP4 ADD DUP5 PUSH2 0x1F6B JUMP JUMPDEST SWAP4 SWAP3 POP POP POP JUMP JUMPDEST PUSH0 DUP2 SWAP1 POP DUP2 PUSH0 MSTORE PUSH1 0x20 PUSH0 KECCAK256 SWAP1 POP SWAP2 SWAP1 POP JUMP JUMPDEST PUSH0 PUSH1 0x20 PUSH1 0x1F DUP4 ADD DIV SWAP1 POP SWAP2 SWAP1 POP JUMP JUMPDEST PUSH0 DUP3 DUP3 SHL SWAP1 POP SWAP3 SWAP2 POP POP JUMP JUMPDEST PUSH0 PUSH1 0x8 DUP4 MUL PUSH2 0x24CD PUSH32 0xFFFFFFFFFFFFFFFFFFFFFFFFFFFFFFFFFFFFFFFFFFFFFFFFFFFFFFFFFFFFFFFF DUP3 PUSH2 0x2492 JUMP JUMPDEST PUSH2 0x24D7 DUP7 DUP4 PUSH2 0x2492 JUMP JUMPDEST SWAP6 POP DUP1 NOT DUP5 AND SWAP4 POP DUP1 DUP7 AND DUP5 OR SWAP3 POP POP POP SWAP4 SWAP3 POP POP POP JUMP JUMPDEST PUSH0 PUSH2 0x2509 PUSH2 0x2504 PUSH2 0x24FF DUP5 PUSH2 0x1DD2 JUMP JUMPDEST PUSH2 0x2293 JUMP JUMPDEST PUSH2 0x1DD2 JUMP JUMPDEST SWAP1 POP SWAP2 SWAP1 POP JUMP JUMPDEST PUSH0 DUP2 SWAP1 POP SWAP2 SWAP1 POP JUMP JUMPDEST PUSH2 0x2522 DUP4 PUSH2 0x24EF JUMP JUMPDEST PUSH2 0x2536 PUSH2 0x252E DUP3 PUSH2 0x2510 JUMP JUMPDEST DUP5 DUP5 SLOAD PUSH2 0x249E JUMP JUMPDEST DUP3 SSTORE POP POP POP POP JUMP JUMPDEST PUSH0 SWAP1 JUMP JUMPDEST PUSH2 0x254A PUSH2 0x253E JUMP JUMPDEST PUSH2 0x2555 DUP2 DUP5 DUP5 PUSH2 0x2519 JUMP JUMPDEST POP POP POP JUMP JUMPDEST JUMPDEST DUP2 DUP2 LT ISZERO PUSH2 0x2578 JUMPI PUSH2 0x256D PUSH0 DUP3 PUSH2 0x2542 JUMP JUMPDEST PUSH1 0x1 DUP2 ADD SWAP1 POP PUSH2 0x255B JUMP JUMPDEST POP POP JUMP JUMPDEST PUSH1 0x1F DUP3 GT ISZERO PUSH2 0x25BD JUMPI PUSH2 0x258E DUP2 PUSH2 0x2471 JUMP JUMPDEST PUSH2 0x2597 DUP5 PUSH2 0x2483 JUMP JUMPDEST DUP2 ADD PUSH1 0x20 DUP6 LT ISZERO PUSH2 0x25A6 JUMPI DUP2 SWAP1 POP JUMPDEST PUSH2 0x25BA PUSH2 0x25B2 DUP6 PUSH2 0x2483 JUMP JUMPDEST DUP4 ADD DUP3 PUSH2 0x255A JUMP JUMPDEST POP POP JUMPDEST POP POP POP JUMP JUMPDEST PUSH0 DUP3 DUP3 SHR SWAP1 POP SWAP3 SWAP2 POP POP JUMP JUMPDEST PUSH0 PUSH2 0x25DD PUSH0 NOT DUP5 PUSH1 0x8 MUL PUSH2 0x25C2 JUMP JUMPDEST NOT DUP1 DUP4 AND SWAP2 POP POP SWAP3 SWAP2 POP POP JUMP JUMPDEST PUSH0 PUSH2 0x25F5 DUP4 DUP4 PUSH2 0x25CE JUMP JUMPDEST SWAP2 POP DUP3 PUSH1 0x2 MUL DUP3 OR SWAP1 POP SWAP3 SWAP2 POP POP JUMP JUMPDEST PUSH2 0x260E DUP3 PUSH2 0x1D28 JUMP JUMPDEST PUSH8 0xFFFFFFFFFFFFFFFF DUP2 GT ISZERO PUSH2 0x2627 JUMPI PUSH2 0x2626 PUSH2 0x2003 JUMP JUMPDEST JUMPDEST PUSH2 0x2631 DUP3 SLOAD PUSH2 0x2212 JUMP JUMPDEST PUSH2 0x263C DUP3 DUP3 DUP6 PUSH2 0x257C JUMP JUMPDEST PUSH0 PUSH1 0x20 SWAP1 POP PUSH1 0x1F DUP4 GT PUSH1 0x1 DUP2 EQ PUSH2 0x266D JUMPI PUSH0 DUP5 ISZERO PUSH2 0x265B JUMPI DUP3 DUP8 ADD MLOAD SWAP1 POP JUMPDEST PUSH2 0x2665 DUP6 DUP3 PUSH2 0x25EA JUMP JUMPDEST DUP7 SSTORE POP PUSH2 0x26CC JUMP JUMPDEST PUSH1 0x1F NOT DUP5 AND PUSH2 0x267B DUP7 PUSH2 0x2471 JUMP JUMPDEST PUSH0 JUMPDEST DUP3 DUP2 LT ISZERO PUSH2 0x26A2 JUMPI DUP5 DUP10 ADD MLOAD DUP3 SSTORE PUSH1 0x1 DUP3 ADD SWAP2 POP PUSH1 0x20 DUP6 ADD SWAP5 POP PUSH1 0x20 DUP2 ADD SWAP1 POP PUSH2 0x267D JUMP JUMPDEST DUP7 DUP4 LT ISZERO PUSH2 0x26BF JUMPI DUP5 DUP10 ADD MLOAD PUSH2 0x26BB PUSH1 0x1F DUP10 AND DUP3 PUSH2 0x25CE JUMP JUMPDEST DUP4 SSTORE POP JUMPDEST PUSH1 0x1 PUSH1 0x2 DUP9 MUL ADD DUP9 SSTORE POP POP POP JUMPDEST POP POP POP POP POP POP JUMP INVALID LOG2 PUSH5 0x6970667358 0x22 SLT KECCAK256 0xC8 0xD8 0xBD ORIGIN 0xDD 0xFC SELFDESTRUCT SWAP12 0xC3 DUP7 EQ 0xEE 0xD7 PUSH19 0x34EAE928C555E02B397F5B229B992D97BE4164 PUSH20 0x6F6C634300081700330000000000000000000000 "
				},
				"gasEstimates": {
					"creation": {
						"codeDepositCost": "1998800",
						"executionCost": "infinite",
						"totalCost": "infinite"
					},
					"external": {
						"approve(address,uint256)": "infinite",
						"balanceOf(address)": "infinite",
						"getApproved(uint256)": "infinite",
						"initialize(address)": "infinite",
						"isApprovedForAll(address,address)": "infinite",
						"name()": "infinite",
						"owner()": "2590",
						"ownerOf(uint256)": "infinite",
						"renounceOwnership()": "infinite",
						"safeMint(address,uint256)": "infinite",
						"safeTransferFrom(address,address,uint256)": "infinite",
						"safeTransferFrom(address,address,uint256,bytes)": "infinite",
						"setApprovalForAll(address,bool)": "infinite",
						"supportsInterface(bytes4)": "787",
						"symbol()": "infinite",
						"tokenURI(uint256)": "infinite",
						"transferFrom(address,address,uint256)": "infinite",
						"transferOwnership(address)": "infinite"
					}
				},
				"methodIdentifiers": {
					"approve(address,uint256)": "095ea7b3",
					"balanceOf(address)": "70a08231",
					"getApproved(uint256)": "081812fc",
					"initialize(address)": "c4d66de8",
					"isApprovedForAll(address,address)": "e985e9c5",
					"name()": "06fdde03",
					"owner()": "8da5cb5b",
					"ownerOf(uint256)": "6352211e",
					"renounceOwnership()": "715018a6",
					"safeMint(address,uint256)": "a1448194",
					"safeTransferFrom(address,address,uint256)": "42842e0e",
					"safeTransferFrom(address,address,uint256,bytes)": "b88d4fde",
					"setApprovalForAll(address,bool)": "a22cb465",
					"supportsInterface(bytes4)": "01ffc9a7",
					"symbol()": "95d89b41",
					"tokenURI(uint256)": "c87b56dd",
					"transferFrom(address,address,uint256)": "23b872dd",
					"transferOwnership(address)": "f2fde38b"
				}
			},
			"storageLayout": {
				"storage": [],
				"types": null
			},
			"userdoc": {
				"kind": "user",
				"methods": {},
				"version": 1
			}
		}
	}
}